{
  "contractName": "Auction",
  "abi": [
    {
      "inputs": [
        {
          "internalType": "address",
          "name": "_photoNFTMarketplace",
          "type": "address"
        }
      ],
      "payable": false,
      "stateMutability": "nonpayable",
      "type": "constructor"
    },
    {
      "anonymous": false,
      "inputs": [
        {
          "indexed": false,
          "internalType": "uint64",
          "name": "auctionId",
          "type": "uint64"
        },
        {
          "indexed": false,
          "internalType": "address",
          "name": "_bidder",
          "type": "address"
        },
        {
          "indexed": false,
          "internalType": "uint256",
          "name": "amount",
          "type": "uint256"
        }
      ],
      "name": "AuctionBid",
      "type": "event"
    },
    {
      "anonymous": false,
      "inputs": [
        {
          "indexed": false,
          "internalType": "address",
          "name": "_owner",
          "type": "address"
        },
        {
          "indexed": false,
          "internalType": "uint256",
          "name": "_auctionId",
          "type": "uint256"
        }
      ],
      "name": "AuctionCanceled",
      "type": "event"
    },
    {
      "anonymous": false,
      "inputs": [
        {
          "indexed": false,
          "internalType": "uint64",
          "name": "auctionId",
          "type": "uint64"
        },
        {
          "indexed": false,
          "internalType": "address",
          "name": "photoId",
          "type": "address"
        },
        {
          "indexed": false,
          "internalType": "uint256",
          "name": "startingPrice",
          "type": "uint256"
        },
        {
          "indexed": false,
          "internalType": "uint256",
          "name": "endingPrice",
          "type": "uint256"
        },
        {
          "indexed": false,
          "internalType": "uint256",
          "name": "duration",
          "type": "uint256"
        },
        {
          "indexed": false,
          "internalType": "uint64",
          "name": "startedAt",
          "type": "uint64"
        },
        {
          "indexed": false,
          "internalType": "uint256",
          "name": "endingAuction",
          "type": "uint256"
        }
      ],
      "name": "AuctionCreated",
      "type": "event"
    },
    {
      "anonymous": false,
      "inputs": [
        {
          "indexed": false,
          "internalType": "address",
          "name": "_owner",
          "type": "address"
        },
        {
          "indexed": false,
          "internalType": "uint256",
          "name": "_auctionId",
          "type": "uint256"
        }
      ],
      "name": "AuctionFinalized",
      "type": "event"
    },
    {
      "anonymous": false,
      "inputs": [
        {
          "indexed": false,
          "internalType": "address",
          "name": "_from",
          "type": "address"
        },
        {
          "indexed": false,
          "internalType": "uint256",
          "name": "_auctionId",
          "type": "uint256"
        }
      ],
      "name": "BidSuccess",
      "type": "event"
    },
    {
      "constant": true,
      "inputs": [
        {
          "internalType": "uint256",
          "name": "",
          "type": "uint256"
        },
        {
          "internalType": "uint256",
          "name": "",
          "type": "uint256"
        }
      ],
      "name": "auctionBids",
      "outputs": [
        {
          "internalType": "address payable",
          "name": "from",
          "type": "address"
        },
        {
          "internalType": "uint256",
          "name": "amount",
          "type": "uint256"
        }
      ],
      "payable": false,
      "stateMutability": "view",
      "type": "function"
    },
    {
      "constant": true,
      "inputs": [],
      "name": "auctionId",
      "outputs": [
        {
          "internalType": "uint64",
          "name": "",
          "type": "uint64"
        }
      ],
      "payable": false,
      "stateMutability": "view",
      "type": "function"
    },
    {
      "constant": true,
      "inputs": [],
      "name": "photoNFTMarketplace",
      "outputs": [
        {
          "internalType": "contract PhotoNFTMarketplace",
          "name": "",
          "type": "address"
        }
      ],
      "payable": false,
      "stateMutability": "view",
      "type": "function"
    },
    {
      "constant": false,
      "inputs": [
        {
          "internalType": "address",
          "name": "_photoId",
          "type": "address"
        },
        {
          "internalType": "uint256",
          "name": "_startingPrice",
          "type": "uint256"
        },
        {
          "internalType": "uint256",
          "name": "_endingPrice",
          "type": "uint256"
        },
        {
          "internalType": "uint256",
          "name": "_duration",
          "type": "uint256"
        }
      ],
      "name": "createAuction",
      "outputs": [],
      "payable": false,
      "stateMutability": "nonpayable",
      "type": "function"
    },
    {
      "constant": true,
      "inputs": [
        {
          "internalType": "address",
          "name": "_photoId",
          "type": "address"
        }
      ],
      "name": "getCurrentBid",
      "outputs": [
        {
          "internalType": "uint256",
          "name": "",
          "type": "uint256"
        },
        {
          "internalType": "address",
          "name": "",
          "type": "address"
        }
      ],
      "payable": false,
      "stateMutability": "view",
      "type": "function"
    },
    {
      "constant": false,
      "inputs": [
        {
          "internalType": "address",
          "name": "_photoId",
          "type": "address"
        }
      ],
      "name": "bid",
      "outputs": [],
      "payable": true,
      "stateMutability": "payable",
      "type": "function"
    },
    {
      "constant": true,
      "inputs": [
        {
          "internalType": "uint64",
          "name": "index",
          "type": "uint64"
        }
      ],
      "name": "isActive",
      "outputs": [
        {
          "internalType": "bool",
          "name": "",
          "type": "bool"
        }
      ],
      "payable": false,
      "stateMutability": "view",
      "type": "function"
    },
    {
      "constant": true,
      "inputs": [
        {
          "internalType": "uint64",
          "name": "index",
          "type": "uint64"
        }
      ],
      "name": "isFinished",
      "outputs": [
        {
          "internalType": "bool",
          "name": "",
          "type": "bool"
        }
      ],
      "payable": false,
      "stateMutability": "view",
      "type": "function"
    },
    {
      "constant": true,
      "inputs": [
        {
          "internalType": "uint64",
          "name": "index",
          "type": "uint64"
        }
      ],
      "name": "getStatus",
      "outputs": [
        {
          "internalType": "enum Auction.Status",
          "name": "",
          "type": "uint8"
        }
      ],
      "payable": false,
      "stateMutability": "view",
      "type": "function"
    },
    {
      "constant": false,
      "inputs": [
        {
          "internalType": "uint64",
          "name": "_auctionId",
          "type": "uint64"
        }
      ],
      "name": "cancelAuction",
      "outputs": [],
      "payable": false,
      "stateMutability": "nonpayable",
      "type": "function"
    },
    {
      "constant": false,
      "inputs": [
        {
          "internalType": "address",
          "name": "_photoId",
          "type": "address"
        }
      ],
      "name": "finalizeAuction",
      "outputs": [
        {
          "internalType": "bool",
          "name": "",
          "type": "bool"
        }
      ],
      "payable": true,
      "stateMutability": "payable",
      "type": "function"
    },
    {
      "constant": true,
      "inputs": [
        {
          "internalType": "address",
          "name": "_photoId",
          "type": "address"
        }
      ],
      "name": "getAuctionByPhotoId",
      "outputs": [
        {
          "internalType": "uint64",
          "name": "id",
          "type": "uint64"
        },
        {
          "internalType": "address",
          "name": "owner",
          "type": "address"
        },
        {
          "internalType": "address",
          "name": "photoId",
          "type": "address"
        },
        {
          "internalType": "uint256",
          "name": "startingPrice",
          "type": "uint256"
        },
        {
          "internalType": "uint256",
          "name": "endingPrice",
          "type": "uint256"
        },
        {
          "internalType": "uint256",
          "name": "duration",
          "type": "uint256"
        },
        {
          "internalType": "uint256",
          "name": "startedAt",
          "type": "uint256"
        },
        {
          "internalType": "bool",
          "name": "active",
          "type": "bool"
        },
        {
          "internalType": "bool",
          "name": "finalized",
          "type": "bool"
        }
      ],
      "payable": false,
      "stateMutability": "view",
      "type": "function"
    }
  ],
  "bytecode": "0x608060405234801561001057600080fd5b506040516114f03803806114f08339818101604052602081101561003357600080fd5b5051600480546001600160a01b0319166001600160a01b0390921691909117905561148d806100636000396000f3fe6080604052600436106100a75760003560e01c806375b0b6251161006457806375b0b625146102455780639cf5453d1461026b578063b4cde50f14610291578063ba98d741146102c4578063c4188f111461031b578063de1cfbd81461034c576100a7565b8063097b557f146100ac57806310782f8f146100e157806334abcac9146101125780633e53f0dc146101595780635f93de49146101ad57806361beb1d714610200575b600080fd5b3480156100b857600080fd5b506100df600480360360208110156100cf57600080fd5b50356001600160401b03166103de565b005b3480156100ed57600080fd5b506100f6610640565b604080516001600160401b039092168252519081900360200190f35b34801561011e57600080fd5b506101456004803603602081101561013557600080fd5b50356001600160401b031661064f565b604080519115158252519081900360200190f35b34801561016557600080fd5b5061018c6004803603602081101561017c57600080fd5b50356001600160a01b0316610671565b604080519283526001600160a01b0390911660208301528051918290030190f35b3480156101b957600080fd5b506101dd600480360360408110156101d057600080fd5b508035906020013561072f565b604080516001600160a01b03909316835260208301919091528051918290030190f35b34801561020c57600080fd5b506100df6004803603608081101561022357600080fd5b506001600160a01b038135169060208101359060408101359060600135610772565b6101456004803603602081101561025b57600080fd5b50356001600160a01b0316610e05565b6100df6004803603602081101561028157600080fd5b50356001600160a01b0316610fe3565b34801561029d57600080fd5b50610145600480360360208110156102b457600080fd5b50356001600160401b0316611261565b3480156102d057600080fd5b506102f7600480360360208110156102e757600080fd5b50356001600160401b031661126a565b6040518082600281111561030757fe5b60ff16815260200191505060405180910390f35b34801561032757600080fd5b5061033061130c565b604080516001600160a01b039092168252519081900360200190f35b34801561035857600080fd5b5061037f6004803603602081101561036f57600080fd5b50356001600160a01b031661131b565b604080516001600160401b03909a168a526001600160a01b0398891660208b015296909716888701526060880194909452608087019290925260a086015260c0850152151560e084015290151561010083015251908190036101200190f35b6001600160401b0381166000908152600360205260409020548190600160401b90046001600160a01b0316331461041457600080fd5b61041c6113e5565b506001600160401b038083166000818152600360208181526040808420815161016081018352815480891682526001600160a01b03600160401b91829004811683870152600184015481168386015260028401546001600160801b038082166060860152600160801b90910416608084015295830154808a1660a08401520490971660c0880152600481015490931660e087015260058301546101008088019190915260069093015460ff808216151561012089015293900490921615156101408601529282529181905220546104f1611441565b6001600160401b03851660009081526020819052604090208054600019840190811061051957fe5b60009182526020808320604080518082018252600290940290910180546001600160a01b0390811685526001909101548484015260048054898501518a8501518551630a1f430760e31b815291851693820184905260248201939093529183166044830152925194965091169384936350fa1838936064808501949193918390030190829087803b1580156105ad57600080fd5b505af11580156105c1573d6000803e3d6000fd5b505050506040513d60208110156105d757600080fd5b50506001600160401b038616600081815260036020908152604091829020600601805460ff1916905581513381529081019290925280517f39e6c898ce035bbacd9ba4f9753534f8c9f976e0ff70be83cfe887f235afa1d39281900390910190a1505050505050565b6001546001600160401b031681565b600060015b61065d8361126a565b600281111561066857fe5b1490505b919050565b6001600160a01b038116600090815260026020908152604080832080546001600160401b03168085529284905290832054839290801561071f576106b3611441565b6001600160401b0383166000908152602081905260409020805460001984019081106106db57fe5b60009182526020918290206040805180820190915260029092020180546001600160a01b0316808352600190910154919092018190529650945061072a9350505050565b506000935083925050505b915091565b6000602052816000526040600020818154811061074857fe5b6000918252602090912060029091020180546001909101546001600160a01b039091169250905082565b6001600160801b03831061078557600080fd5b6001600160801b03821061079857600080fd5b6001600160401b038111156107ac57600080fd5b603c8110156107ba57600080fd5b6004805460408051639058e13160e01b81526001600160a01b03888116948201949094529051929091169133918391639058e131916024808201926020929091908290030181600087803b15801561081157600080fd5b505af1158015610825573d6000803e3d6000fd5b505050506040513d602081101561083b57600080fd5b50516001600160a01b03161461085057600080fd5b6108586113e5565b604051806101600160405280600160009054906101000a90046001600160401b03166001600160401b03168152602001336001600160a01b03168152602001876001600160a01b03168152602001866001600160801b03168152602001856001600160801b03168152602001846001600160401b03168152602001426001600160401b0316815260200160006001600160a01b0316815260200160006001600160401b0316815260200160011515815260200160001515815250905060008160a001518260c001510190508160026000896001600160a01b03166001600160a01b0316815260200190815260200160002060008201518160000160006101000a8154816001600160401b0302191690836001600160401b0316021790555060208201518160000160086101000a8154816001600160a01b0302191690836001600160a01b0316021790555060408201518160010160006101000a8154816001600160a01b0302191690836001600160a01b0316021790555060608201518160020160006101000a8154816001600160801b0302191690836001600160801b0316021790555060808201518160020160106101000a8154816001600160801b0302191690836001600160801b0316021790555060a08201518160030160006101000a8154816001600160401b0302191690836001600160401b0316021790555060c08201518160030160086101000a8154816001600160401b0302191690836001600160401b0316021790555060e08201518160040160006101000a8154816001600160a01b0302191690836001600160a01b0316021790555061010082015181600501556101208201518160060160006101000a81548160ff0219169083151502179055506101408201518160060160016101000a81548160ff0219169083151502179055509050508160036000600160009054906101000a90046001600160401b03166001600160401b03166001600160401b0316815260200190815260200160002060008201518160000160006101000a8154816001600160401b0302191690836001600160401b0316021790555060208201518160000160086101000a8154816001600160a01b0302191690836001600160a01b0316021790555060408201518160010160006101000a8154816001600160a01b0302191690836001600160a01b0316021790555060608201518160020160006101000a8154816001600160801b0302191690836001600160801b0316021790555060808201518160020160106101000a8154816001600160801b0302191690836001600160801b0316021790555060a08201518160030160006101000a8154816001600160401b0302191690836001600160401b0316021790555060c08201518160030160086101000a8154816001600160401b0302191690836001600160401b0316021790555060e08201518160040160006101000a8154816001600160a01b0302191690836001600160a01b0316021790555061010082015181600501556101208201518160060160006101000a81548160ff0219169083151502179055506101408201518160060160016101000a81548160ff0219169083151502179055509050507ff5aa3c888586676efe94ef0c38a72ad877dbbbf7ae507b7fe0e6723df1c473ab600160009054906101000a90046001600160401b03168884606001516001600160801b031685608001516001600160801b03168660a001516001600160401b03168760c001518760405180886001600160401b03166001600160401b03168152602001876001600160a01b03166001600160a01b03168152602001868152602001858152602001848152602001836001600160401b03166001600160401b03168152602001826001600160401b0316815260200197505050505050505060405180910390a15050600180546001600160401b0380821683011667ffffffffffffffff199091161790555050505050565b6001600160a01b038116600090815260026020908152604080832080546001600160401b0316808552928490529083205490919080610e4c57610e47826103de565b610fdb565b610e54611441565b6001600160401b038316600090815260208190526040902080546000198401908110610e7c57fe5b60009182526020808320604080518082018252600290940290910180546001600160a01b03908116855260019091015492840183905288549151939550600160401b909104169281156108fc029290818181858888f1505060048054855160018a015460408051630a1f430760e31b815230958101959095526001600160a01b039283166024860152908216604485015251911694508493506350fa1838925060648083019260209291908290030181600087803b158015610f3d57600080fd5b505af1158015610f51573d6000803e3d6000fd5b505050506040513d6020811015610f6757600080fd5b50506001600160a01b038716600090815260026020908152604091829020600601805461ffff191661010017905581513381526001600160401b0387169181019190915281517f357afab190ee87fe0ef1c717f2728d2904d9e415a069d99f4d9382873cb3279d929181900390910190a150505b505050919050565b6001600160a01b0380821660009081526002602052604090208054909134916001600160401b03811691600160401b9091041633141561102257600080fd5b61102b8161064f565b61103457600080fd5b600683015460ff16151560011461104a57600080fd5b6001600160401b03811660009081526020819052604090205460028401546001600160801b0316611079611441565b6002860154600160801b90046001600160801b03168514156111035761109d611441565b33815260208082018781526001600160401b03871660009081528083526040812080546001808201835591835293909120845160029094020180546001600160a01b0319166001600160a01b039094169390931783559051910155611101856103de565b505b8215611169576001600160401b03841660009081526020819052604090208054600019850190811061113157fe5b60009182526020918290206040805180820190915260029092020180546001600160a01b031682526001015491810182905290925090505b8185101561117657600080fd5b82156111b157805160208201516040516001600160a01b039092169181156108fc0291906000818181858888f193505050506111b157600080fd5b6111b9611441565b3380825260208083018881526001600160401b0388166000818152808452604080822080546001808201835591845292869020885160029094020180546001600160a01b0319166001600160a01b039094169390931783559351919093015581519081529182019290925280820188905290517f1f2b52e513ea6ac7973db2bee9508995294be1b09f221d8c41153429b2c03f3c916060908290030190a15050505050505050565b60006002610654565b6001600160401b03808216600090815260036020819052604082209081015491929091600160401b9004164210156112a657600091505061066c565b6003810154600160401b81046001600160401b0390811691811691909101164210156112d657600191505061066c565b6003810154600160401b81046001600160401b03908116918116919091011642111561130657600291505061066c565b50919050565b6005546001600160a01b031681565b6001600160a01b0381166000908152600260205260408120600381015482918291829182918291829182918291600160401b90046001600160401b031661136157600080fd5b80546001820154600283015460038401546006909401546001600160401b038085169e506001600160a01b03600160401b9586900481169e50939093169b506001600160801b038083169b50600160801b9092049091169850838216975091909204909116935060ff80821693506101009091041690509193959799909294969850565b6040805161016081018252600080825260208201819052918101829052606081018290526080810182905260a0810182905260c0810182905260e081018290526101008101829052610120810182905261014081019190915290565b60408051808201909152600080825260208201529056fea265627a7a7231582021ca33ae2784e92311ccf77cf763b4ecfdca792a5141ba962bb128459fa545cf64736f6c63430005100032",
  "source": "pragma solidity >0.4.17 <0.8.0;\n\nimport \"./PhotoNFTMarketplace.sol\";\n\nimport { PhotoNFT } from \"./PhotoNFT.sol\";\n\n/**\n * @title Auction Repository\n * This contracts allows auctions to be created for non-fungible tokens\n * Moreover, it includes the basic functionalities of an auction house\n */\ncontract Auction {\n \n\n    // Mapping from auction index to user bids\n    mapping(uint256 => Bid[]) public auctionBids;\n\n    // Mapping from owner to a list of owned auctions\n   uint64 public auctionId; // max is 18446744073709551615\n   event AuctionBid( uint64 auctionId, address _bidder, uint256 amount);\n   event AuctionFinalized(address _owner, uint _auctionId);\nevent AuctionCreated(uint64 auctionId, address photoId,\n                      uint256 startingPrice, uint256 endingPrice, uint256 duration,uint64 startedAt,uint endingAuction);\n  mapping (address => Auction) internal photoIdToAuction;\n  mapping (uint64 => Auction) internal auctionIdToAuction;\nenum Status { pending, active, finished }\n  address PHOTO_NFT_MARKETPLACE;\n   PhotoNFTMarketplace public photoNFTMarketplace;\n   \n\n    constructor(address _photoNFTMarketplace) public {\n        \n        PHOTO_NFT_MARKETPLACE = _photoNFTMarketplace;\n    }\n    // Bid struct to hold bidder and amount\n    struct Bid {\n        address payable from;\n        uint256 amount;\n    }\n\n    // Auction struct which holds all the required info\n\n\n     \n\n\n     struct Auction {\n      uint64 id;\n      address payable owner;\n      address photoId;\n      uint128 startingPrice; // wei\n      uint128 endingPrice; // wei\n      uint64 duration; // seconds\n      uint64 startedAt; // time\n      address currentBidOwner;\n      uint256 bidCount;\n       bool active;\n        bool finalized;\n      \n      \n\n  }\n\n    function createAuction(\n      address _photoId, uint256 _startingPrice,\n      uint256 _endingPrice, uint256 _duration) public {\n      // check storage requirements\n      require(_startingPrice < 340282366920938463463374607431768211455); // 128 bits\n      require(_endingPrice < 340282366920938463463374607431768211455); // 128 bits\n      require(_duration <= 18446744073709551615); // 64 bits\n\n      require(_duration >= 1 minutes);\n      PhotoNFTMarketplace instancePhotoNFTMarketplace = PhotoNFTMarketplace(PHOTO_NFT_MARKETPLACE);\n      require(instancePhotoNFTMarketplace.ownerPhoto(_photoId) == msg.sender);\n\n      Auction memory auction = Auction(\n          uint64(auctionId),\n          msg.sender,\n          address(_photoId),\n          uint128(_startingPrice),\n          uint128(_endingPrice),\n          uint64(_duration),\n          uint64(now),\n          address(0),\n          uint64(0),\n          bool(true),\n          bool(false)\n     \n         \n        );\n uint64 endingAuction =( auction.startedAt + auction.duration);\n      photoIdToAuction[_photoId] = auction;\n      auctionIdToAuction[auctionId] = auction;\n\n      emit AuctionCreated(\n          uint64(auctionId),\n          address(_photoId),\n          uint256(auction.startingPrice),\n          uint256(auction.endingPrice),\n          uint256(auction.duration),\n          uint64(auction.startedAt) ,\n          uint64(endingAuction)\n      );\n\n      auctionId++;\n  }\n function getCurrentBid(address _photoId) public  view returns(uint256, address) {\n         Auction storage auction = photoIdToAuction[_photoId];\n        uint64 auctionId_temp = auction.id;\n        uint bidsLength = auctionBids[auctionId_temp].length;\n        // if there are bids refund the last bid\n        if( bidsLength > 0 ) {\n            Bid memory lastBid = auctionBids[auctionId_temp][bidsLength - 1];\n            return (lastBid.amount, lastBid.from);\n        }\n        return (0, address(0));\n    }\n function bid(address _photoId) public payable {\n       Auction storage auction = photoIdToAuction[_photoId];\n         uint256 ethAmountSent = msg.value;\n        uint64 auctionId_temp = auction.id;\n         \n    require(auction.owner != msg.sender); \n   \n     require(isActive(auctionId_temp));\nrequire(auction.active == true);\n     uint bidsLength = auctionBids[auctionId_temp].length;\n     \n        uint256 tempAmount = auction.startingPrice;\n       Bid memory lastBid;\nif(ethAmountSent == auction.endingPrice){\n    // insert bid \n        Bid memory newBid;\n        newBid.from = msg.sender;\n        newBid.amount = ethAmountSent;\n        auctionBids[auctionId_temp].push(newBid);\n      cancelAuction(auctionId_temp);\n\n        }\n        // there are previous bids\n        if( bidsLength > 0 ) {\n            lastBid = auctionBids[auctionId_temp][bidsLength - 1];\n            tempAmount = lastBid.amount;\n        }\n            if( ethAmountSent < tempAmount ) revert(); \n\n        //refund the last bidder\n        if( bidsLength > 0 ) {\n            if(!lastBid.from.send(lastBid.amount)) {\n                revert();\n            }  \n        }\n            // insert bid \n        Bid memory newBid;\n        newBid.from = msg.sender;\n        newBid.amount = ethAmountSent;\n        auctionBids[auctionId_temp].push(newBid);\n        \n       emit AuctionBid(auctionId_temp, msg.sender, ethAmountSent);\n    }\n\n    event BidSuccess(address _from, uint _auctionId);\nfunction isActive(uint64 index) public view returns (bool) { return getStatus(index) == Status.active; }\nfunction isFinished(uint64 index) public view returns (bool) { return getStatus(index) == Status.finished; }\n     \n    \n    function getStatus(uint64 index) public view returns (Status) {\n        Auction storage auction = auctionIdToAuction[index];\n        if (now < auction.startedAt) {\n            return Status.pending;\n        } else if (now < (auction.startedAt + auction.duration)) {\n            return Status.active;\n        } else if (now > (auction.startedAt + auction.duration)) {\n            return Status.finished;\n        }\n        \n    } \n  /**\n    * @dev Guarantees msg.sender is owner of the given auction\n    * @param _auctionId uint ID of the auction to validate its ownership belongs to msg.sender\n    */\n    modifier isOwner(uint64 _auctionId) {\n        require(auctionIdToAuction[_auctionId].owner == msg.sender);\n        _;\n    }\n\n    \n   \n\n       function cancelAuction(uint64 _auctionId) public isOwner(_auctionId) {\n        Auction memory myAuction = auctionIdToAuction[_auctionId];\n        uint bidsLength = auctionBids[_auctionId].length;\n\n        // if there are bids refund the last bid\n        // if( bidsLength > 0 ) {\n            Bid memory lastBid = auctionBids[_auctionId][bidsLength - 1];\n        //     if(!lastBid.from.send(lastBid.amount)) {\n        //         revert();\n        //     }\n        // }\n\n        // approve and transfer from this contract to auction owner\n         PhotoNFTMarketplace instancePhotoNFTMarketplace = PhotoNFTMarketplace(PHOTO_NFT_MARKETPLACE);\n          \n            \n        instancePhotoNFTMarketplace.approveAndTransfer(myAuction.owner, myAuction.owner, myAuction.photoId);\n             auctionIdToAuction[_auctionId].active = false;\n             \n            emit AuctionCanceled(msg.sender, _auctionId);\n        \n    }// AuctionCanceled is fired when an auction is canceled\n    event AuctionCanceled(address _owner, uint _auctionId);\n\n     function finalizeAuction(address _photoId)public payable returns (bool) {\n       Auction storage myAuction = photoIdToAuction[_photoId];\n         uint64 auctionId =   myAuction.id;\n        uint bidsLength = auctionBids[auctionId].length;\n\nif(bidsLength == 0) {\n            cancelAuction(auctionId);\n        }else{\n        \n       \n\n            // 2. the money goes to the auction owner\n            Bid memory lastBid = auctionBids[auctionId][bidsLength - 1];\n            // if(!myAuction.owner.send(lastBid.amount)) {\n            //     revert();\n            // }\n\n\n            // approve and transfer from this contract to the bid winner \nmyAuction.owner.send(lastBid.amount);\n            PhotoNFTMarketplace instancePhotoNFTMarketplace = PhotoNFTMarketplace(PHOTO_NFT_MARKETPLACE);\n          \n        instancePhotoNFTMarketplace.approveAndTransfer(address(this), lastBid.from, myAuction.photoId);\n                photoIdToAuction[_photoId].active = false;\n                photoIdToAuction[_photoId].finalized = true;\n                emit AuctionFinalized(msg.sender, auctionId);\n        }\n        \n    }\n\n      function getAuctionByPhotoId(address _photoId) public view returns (\n      uint64 id,\n      address owner,\n      address photoId,\n      uint256 startingPrice,\n      uint256 endingPrice,\n      uint256 duration,\n      uint256 startedAt,\n        bool active,\n        bool finalized\n      \n  ) {\n      Auction storage auction = photoIdToAuction[_photoId];\n      require(auction.startedAt > 0);\n      return (\n          auction.id,\n          auction.owner,\n          auction.photoId,\n          auction.startingPrice,\n          auction.endingPrice,\n          auction.duration,\n          auction.startedAt,\n          auction.active,\n          auction.finalized\n      );\n  }  \n\n       \n        }\n        \n       \n    ",
  "sourcePath": "/home/amal/zbriggithub/NFT-based-photo-marketplace/oldversion/contracts/Auction.sol",
  "compiler": {
    "name": "solc",
    "version": "0.5.16+commit.9c3226ce.Emscripten.clang"
  },
  "schemaVersion": "3.4.1",
  "updatedAt": "2021-06-27T13:49:34.302Z",
  "networkType": "ethereum",
  "devdoc": {
    "methods": {},
    "title": "Auction Repository This contracts allows auctions to be created for non-fungible tokens Moreover, it includes the basic functionalities of an auction house"
  },
  "userdoc": {
    "methods": {}
  }
}