{
  "contractName": "NFTDetailsReedem",
  "abi": [
    {
      "inputs": [],
      "payable": false,
      "stateMutability": "nonpayable",
      "type": "constructor"
    },
    {
      "anonymous": false,
      "inputs": [
        {
          "indexed": false,
          "internalType": "contract PhotoNFT",
          "name": "photoNft",
          "type": "address"
        },
        {
          "indexed": false,
          "internalType": "string",
          "name": "name",
          "type": "string"
        },
        {
          "indexed": false,
          "internalType": "string",
          "name": "city",
          "type": "string"
        },
        {
          "indexed": false,
          "internalType": "string",
          "name": "firstLine",
          "type": "string"
        },
        {
          "indexed": false,
          "internalType": "string",
          "name": "secondLine",
          "type": "string"
        },
        {
          "indexed": false,
          "internalType": "string",
          "name": "codePostal",
          "type": "string"
        },
        {
          "indexed": false,
          "internalType": "string",
          "name": "country",
          "type": "string"
        }
      ],
      "name": "DetailsRedeem",
      "type": "event"
    },
    {
      "constant": true,
      "inputs": [
        {
          "internalType": "uint256",
          "name": "",
          "type": "uint256"
        }
      ],
      "name": "allDetailsReedem",
      "outputs": [
        {
          "internalType": "contract PhotoNFT",
          "name": "photoNFT",
          "type": "address"
        },
        {
          "internalType": "string",
          "name": "name",
          "type": "string"
        },
        {
          "internalType": "string",
          "name": "city",
          "type": "string"
        },
        {
          "internalType": "string",
          "name": "firstLine",
          "type": "string"
        },
        {
          "internalType": "string",
          "name": "codePostal",
          "type": "string"
        },
        {
          "internalType": "string",
          "name": "secondLine",
          "type": "string"
        },
        {
          "internalType": "string",
          "name": "country",
          "type": "string"
        }
      ],
      "payable": false,
      "stateMutability": "view",
      "type": "function"
    },
    {
      "constant": true,
      "inputs": [
        {
          "internalType": "uint256",
          "name": "",
          "type": "uint256"
        }
      ],
      "name": "photoAddresses",
      "outputs": [
        {
          "internalType": "address",
          "name": "",
          "type": "address"
        }
      ],
      "payable": false,
      "stateMutability": "view",
      "type": "function"
    },
    {
      "constant": false,
      "inputs": [
        {
          "internalType": "contract PhotoNFT",
          "name": "_photoNFT",
          "type": "address"
        },
        {
          "internalType": "string",
          "name": "_name",
          "type": "string"
        },
        {
          "internalType": "string",
          "name": "_city",
          "type": "string"
        },
        {
          "internalType": "string",
          "name": "_firstLine",
          "type": "string"
        },
        {
          "internalType": "string",
          "name": "_secondLine",
          "type": "string"
        },
        {
          "internalType": "string",
          "name": "_codePostal",
          "type": "string"
        },
        {
          "internalType": "string",
          "name": "_country",
          "type": "string"
        }
      ],
      "name": "saveMetadataOfPhotoNFT",
      "outputs": [
        {
          "internalType": "bool",
          "name": "",
          "type": "bool"
        }
      ],
      "payable": false,
      "stateMutability": "nonpayable",
      "type": "function"
    },
    {
      "constant": true,
      "inputs": [
        {
          "internalType": "contract PhotoNFT",
          "name": "photoNFT",
          "type": "address"
        }
      ],
      "name": "getPhotoByNFTAddress",
      "outputs": [
        {
          "components": [
            {
              "internalType": "contract PhotoNFT",
              "name": "photoNFT",
              "type": "address"
            },
            {
              "internalType": "string",
              "name": "name",
              "type": "string"
            },
            {
              "internalType": "string",
              "name": "city",
              "type": "string"
            },
            {
              "internalType": "string",
              "name": "firstLine",
              "type": "string"
            },
            {
              "internalType": "string",
              "name": "codePostal",
              "type": "string"
            },
            {
              "internalType": "string",
              "name": "secondLine",
              "type": "string"
            },
            {
              "internalType": "string",
              "name": "country",
              "type": "string"
            }
          ],
          "internalType": "struct NFTDetailsReedemObjects.NFTDetailsReedem",
          "name": "_photo",
          "type": "tuple"
        }
      ],
      "payable": false,
      "stateMutability": "view",
      "type": "function"
    },
    {
      "constant": true,
      "inputs": [],
      "name": "getAllDetailsReedem",
      "outputs": [
        {
          "components": [
            {
              "internalType": "contract PhotoNFT",
              "name": "photoNFT",
              "type": "address"
            },
            {
              "internalType": "string",
              "name": "name",
              "type": "string"
            },
            {
              "internalType": "string",
              "name": "city",
              "type": "string"
            },
            {
              "internalType": "string",
              "name": "firstLine",
              "type": "string"
            },
            {
              "internalType": "string",
              "name": "codePostal",
              "type": "string"
            },
            {
              "internalType": "string",
              "name": "secondLine",
              "type": "string"
            },
            {
              "internalType": "string",
              "name": "country",
              "type": "string"
            }
          ],
          "internalType": "struct NFTDetailsReedemObjects.NFTDetailsReedem[]",
          "name": "_detailsRedeem",
          "type": "tuple[]"
        }
      ],
      "payable": false,
      "stateMutability": "view",
      "type": "function"
    }
  ],
  "bytecode": "0x608060405234801561001057600080fd5b506114cb806100206000396000f3fe608060405234801561001057600080fd5b50600436106100575760003560e01c80637fd6c4051461005c5780638212e86114610085578063d1deb42f1461009a578063dc0985c3146100ba578063eaaa6d79146100da575b600080fd5b61006f61006a366004610fc9565b610100565b60405161007c9190611388565b60405180910390f35b61008d610523565b60405161007c91906112d8565b6100ad6100a8366004610fef565b61090e565b60405161007c91906112e9565b6100cd6100c836600461111b565b610abe565b60405161007c91906112ca565b6100ed6100e836600461111b565b610ae5565b60405161007c97969594939291906112f7565b610108610e7b565b816000805b60005481101561015a57826001600160a01b03166000828154811061012e57fe5b60009182526020909120600790910201546001600160a01b03161415610152578091505b60010161010d565b50610163610e7b565b6000828154811061017057fe5b60009182526020918290206040805160e081018252600790930290910180546001600160a01b03168352600180820180548451601f6002600019958416156101000295909501909216939093049081018790048702830187019094528382529394919385830193919290919083018282801561022d5780601f106102025761010080835404028352916020019161022d565b820191906000526020600020905b81548152906001019060200180831161021057829003601f168201915b5050509183525050600282810180546040805160206001841615610100026000190190931694909404601f810183900483028501830190915280845293810193908301828280156102bf5780601f10610294576101008083540402835291602001916102bf565b820191906000526020600020905b8154815290600101906020018083116102a257829003601f168201915b505050918352505060038201805460408051602060026001851615610100026000190190941693909304601f81018490048402820184019092528181529382019392918301828280156103535780601f1061032857610100808354040283529160200191610353565b820191906000526020600020905b81548152906001019060200180831161033657829003601f168201915b505050918352505060048201805460408051602060026001851615610100026000190190941693909304601f81018490048402820184019092528181529382019392918301828280156103e75780601f106103bc576101008083540402835291602001916103e7565b820191906000526020600020905b8154815290600101906020018083116103ca57829003601f168201915b505050918352505060058201805460408051602060026001851615610100026000190190941693909304601f810184900484028201840190925281815293820193929183018282801561047b5780601f106104505761010080835404028352916020019161047b565b820191906000526020600020905b81548152906001019060200180831161045e57829003601f168201915b505050918352505060068201805460408051602060026001851615610100026000190190941693909304601f810184900484028201840190925281815293820193929183018282801561050f5780601f106104e45761010080835404028352916020019161050f565b820191906000526020600020905b8154815290600101906020018083116104f257829003601f168201915b505050919092525091979650505050505050565b60606000805480602002602001604051908101604052809291908181526020016000905b828210156109045760008481526020908190206040805160e0810182526007860290920180546001600160a01b03168352600180820180548451600261010094831615949094026000190190911692909204601f81018790048702830187019094528382529394919385830193919290919083018282801561060a5780601f106105df5761010080835404028352916020019161060a565b820191906000526020600020905b8154815290600101906020018083116105ed57829003601f168201915b5050509183525050600282810180546040805160206001841615610100026000190190931694909404601f8101839004830285018301909152808452938101939083018282801561069c5780601f106106715761010080835404028352916020019161069c565b820191906000526020600020905b81548152906001019060200180831161067f57829003601f168201915b505050918352505060038201805460408051602060026001851615610100026000190190941693909304601f81018490048402820184019092528181529382019392918301828280156107305780601f1061070557610100808354040283529160200191610730565b820191906000526020600020905b81548152906001019060200180831161071357829003601f168201915b505050918352505060048201805460408051602060026001851615610100026000190190941693909304601f81018490048402820184019092528181529382019392918301828280156107c45780601f10610799576101008083540402835291602001916107c4565b820191906000526020600020905b8154815290600101906020018083116107a757829003601f168201915b505050918352505060058201805460408051602060026001851615610100026000190190941693909304601f81018490048402820184019092528181529382019392918301828280156108585780601f1061082d57610100808354040283529160200191610858565b820191906000526020600020905b81548152906001019060200180831161083b57829003601f168201915b505050918352505060068201805460408051602060026001851615610100026000190190941693909304601f81018490048402820184019092528181529382019392918301828280156108ec5780601f106108c1576101008083540402835291602001916108ec565b820191906000526020600020905b8154815290600101906020018083116108cf57829003601f168201915b50505050508152505081526020019060010190610547565b5050505090505b90565b6000610918610e7b565b506040805160e0810182526001600160a01b038a8116825260208083018b81529383018a9052606083018990526080830187905260a0830188905260c08301869052600080546001810180835591805284517f290decd9548b62a8d60345a988386fc84ba6bc95484008f6362f93160ef3e563600790920291820180546001600160a01b0319169190951617845594518051949591948694936109df937f290decd9548b62a8d60345a988386fc84ba6bc95484008f6362f93160ef3e56401920190610ec1565b50604082015180516109fb916002840191602090910190610ec1565b5060608201518051610a17916003840191602090910190610ec1565b5060808201518051610a33916004840191602090910190610ec1565b5060a08201518051610a4f916005840191602090910190610ec1565b5060c08201518051610a6b916006840191602090910190610ec1565b505050507fe5b15c6588c59a4ab73e6d6c343dd5033de0c4d05bea16ff0ab348bf504af6cd89898989888a89604051610aaa97969594939291906112f7565b60405180910390a150979650505050505050565b60018181548110610acb57fe5b6000918252602090912001546001600160a01b0316905081565b60008181548110610af257fe5b600091825260209182902060079091020180546001808301805460408051601f60026000199685161561010002969096019093169490940491820187900487028401870190528083526001600160a01b039093169550929390929190830182828015610b9f5780601f10610b7457610100808354040283529160200191610b9f565b820191906000526020600020905b815481529060010190602001808311610b8257829003601f168201915b50505060028085018054604080516020601f6000196101006001871615020190941695909504928301859004850281018501909152818152959695945090925090830182828015610c315780601f10610c0657610100808354040283529160200191610c31565b820191906000526020600020905b815481529060010190602001808311610c1457829003601f168201915b5050505060038301805460408051602060026001851615610100026000190190941693909304601f8101849004840282018401909252818152949594935090830182828015610cc15780601f10610c9657610100808354040283529160200191610cc1565b820191906000526020600020905b815481529060010190602001808311610ca457829003601f168201915b5050505060048301805460408051602060026001851615610100026000190190941693909304601f8101849004840282018401909252818152949594935090830182828015610d515780601f10610d2657610100808354040283529160200191610d51565b820191906000526020600020905b815481529060010190602001808311610d3457829003601f168201915b5050505060058301805460408051602060026001851615610100026000190190941693909304601f8101849004840282018401909252818152949594935090830182828015610de15780601f10610db657610100808354040283529160200191610de1565b820191906000526020600020905b815481529060010190602001808311610dc457829003601f168201915b5050505060068301805460408051602060026001851615610100026000190190941693909304601f8101849004840282018401909252818152949594935090830182828015610e715780601f10610e4657610100808354040283529160200191610e71565b820191906000526020600020905b815481529060010190602001808311610e5457829003601f168201915b5050505050905087565b6040518060e0016040528060006001600160a01b031681526020016060815260200160608152602001606081526020016060815260200160608152602001606081525090565b828054600181600116156101000203166002900490600052602060002090601f016020900481019282601f10610f0257805160ff1916838001178555610f2f565b82800160010185558215610f2f579182015b82811115610f2f578251825591602001919060010190610f14565b50610f3b929150610f3f565b5090565b61090b91905b80821115610f3b5760008155600101610f45565b8035610f6481611468565b92915050565b600082601f830112610f7b57600080fd5b8135610f8e610f89826113c0565b611399565b91508082526020830160208301858383011115610faa57600080fd5b610fb5838284611422565b50505092915050565b8035610f648161147f565b600060208284031215610fdb57600080fd5b6000610fe78484610f59565b949350505050565b600080600080600080600060e0888a03121561100a57600080fd5b60006110168a8a610f59565b975050602088013567ffffffffffffffff81111561103357600080fd5b61103f8a828b01610f6a565b965050604088013567ffffffffffffffff81111561105c57600080fd5b6110688a828b01610f6a565b955050606088013567ffffffffffffffff81111561108557600080fd5b6110918a828b01610f6a565b945050608088013567ffffffffffffffff8111156110ae57600080fd5b6110ba8a828b01610f6a565b93505060a088013567ffffffffffffffff8111156110d757600080fd5b6110e38a828b01610f6a565b92505060c088013567ffffffffffffffff81111561110057600080fd5b61110c8a828b01610f6a565b91505092959891949750929550565b60006020828403121561112d57600080fd5b6000610fe78484610fbe565b60006111458383611213565b9392505050565b611155816113fb565b82525050565b6000611166826113ee565b61117081856113f2565b935083602082028501611182856113e8565b8060005b858110156111bc578484038952815161119f8582611139565b94506111aa836113e8565b60209a909a0199925050600101611186565b5091979650505050505050565b61115581611406565b6111558161140b565b60006111e6826113ee565b6111f081856113f2565b935061120081856020860161142e565b6112098161145e565b9093019392505050565b805160009060e084019061122785826111d2565b506020830151848203602086015261123f82826111db565b9150506040830151848203604086015261125982826111db565b9150506060830151848203606086015261127382826111db565b9150506080830151848203608086015261128d82826111db565b91505060a083015184820360a08601526112a782826111db565b91505060c083015184820360c08601526112c182826111db565b95945050505050565b60208101610f64828461114c565b60208082528101611145818461115b565b60208101610f6482846111c9565b60e08101611305828a6111d2565b818103602083015261131781896111db565b9050818103604083015261132b81886111db565b9050818103606083015261133f81876111db565b9050818103608083015261135381866111db565b905081810360a083015261136781856111db565b905081810360c083015261137b81846111db565b9998505050505050505050565b602080825281016111458184611213565b60405181810167ffffffffffffffff811182821017156113b857600080fd5b604052919050565b600067ffffffffffffffff8211156113d757600080fd5b506020601f91909101601f19160190565b60200190565b5190565b90815260200190565b6000610f6482611416565b151590565b6000610f64826113fb565b6001600160a01b031690565b82818337506000910152565b60005b83811015611449578181015183820152602001611431565b83811115611458576000848401525b50505050565b601f01601f191690565b6114718161140b565b811461147c57600080fd5b50565b6114718161090b56fea365627a7a72315820198fb6221e7a3396ef45341121ce8d5a9f9289425b8384ff445b8901035dab916c6578706572696d656e74616cf564736f6c63430005100040",
  "source": "pragma solidity ^0.5.16;\npragma experimental ABIEncoderV2;\n\nimport { NFTDetailsReedemStorages} from \"./nft-data-reedem/commons/NFTDetailsReedemStorages.sol\";\nimport { PhotoNFT } from \"./PhotoNFT.sol\";\n\n\n/**\n * @notice - This is the storage contract for photoNFTs\n */\ncontract NFTDetailsReedem is NFTDetailsReedemStorages{\n\n    address[] public photoAddresses;\n\n    constructor() public {}\n     event DetailsRedeem(  PhotoNFT photoNft ,string name,string city ,string firstLine ,string secondLine,string codePostal,string country);  \n\n    /**\n     * @notice - Save metadata of a photoNFT\n     */\n    function saveMetadataOfPhotoNFT(\n        //address[] memory _photoAddresses, \n        PhotoNFT _photoNFT, \n        // string memory _photoNFTName, \n        string memory _name, \n        string memory _city, \n        string memory _firstLine, \n        string memory _secondLine,\n        string memory _codePostal,\n        string memory _country\n       \n       \n    ) public returns (bool) {\n      \n       NFTDetailsReedem memory detailsReedem = NFTDetailsReedem ({\n\n\n           photoNFT : _photoNFT,\n      name: _name,\n        city: _city,\n         firstLine: _firstLine,\n        \n     codePostal:_codePostal,\n        secondLine: _secondLine,\n        country:_country\n        });\n        allDetailsReedem.push(detailsReedem);\n\n \nemit DetailsRedeem(_photoNFT, _name, _city,  _firstLine, _codePostal, _secondLine, _country);    \n    }\n\n  \n\n    \n\n\n  \n\n    function getPhotoByNFTAddress(PhotoNFT photoNFT) public view returns (NFTDetailsReedem memory _photo) {\n        address PHOTO_NFT = address(photoNFT);\n\n        /// Identify member's index\n        uint photoIndex;\n        for (uint i=0; i < allDetailsReedem.length; i++) {\n            if (address (allDetailsReedem[i].photoNFT) == PHOTO_NFT) {\n                photoIndex = i;\n            }\n        }\n\n        NFTDetailsReedem memory detailsReedem= allDetailsReedem[photoIndex];\n        return detailsReedem;\n    }\n\n    function getAllDetailsReedem() public view returns ( NFTDetailsReedem[] memory _detailsRedeem) {\n        return allDetailsReedem;\n    }\n\n}\n",
  "sourcePath": "/Users/amal/Documents/NFT-based-photo-marketplace/oldversion/contracts/NFTDetailsReedem.sol",
  "compiler": {
    "name": "solc",
    "version": "0.5.16+commit.9c3226ce.Emscripten.clang"
  },
  "schemaVersion": "3.4.2",
  "updatedAt": "2021-08-04T08:03:02.066Z",
  "networkType": "ethereum",
  "devdoc": {
    "methods": {}
  },
  "userdoc": {
    "methods": {
      "saveMetadataOfPhotoNFT(address,string,string,string,string,string,string)": {
        "notice": "- Save metadata of a photoNFT"
      }
    },
    "notice": "- This is the storage contract for photoNFTs"
  }
}