{
  "contractName": "PhotoNFTMarketplace",
  "abi": [
    {
      "inputs": [
        {
          "internalType": "contract PhotoNFTData",
          "name": "_photoNFTData",
          "type": "address"
        }
      ],
      "payable": false,
      "stateMutability": "nonpayable",
      "type": "constructor"
    },
    {
      "anonymous": false,
      "inputs": [
        {
          "indexed": false,
          "internalType": "contract PhotoNFT",
          "name": "photoNFT",
          "type": "address"
        },
        {
          "indexed": false,
          "internalType": "uint256",
          "name": "photoId",
          "type": "uint256"
        },
        {
          "indexed": false,
          "internalType": "address",
          "name": "ownerBeforeOwnershipTransferred",
          "type": "address"
        },
        {
          "indexed": false,
          "internalType": "address",
          "name": "ownerAfterOwnershipTransferred",
          "type": "address"
        }
      ],
      "name": "PhotoNFTOwnershipChanged",
      "type": "event"
    },
    {
      "anonymous": false,
      "inputs": [
        {
          "indexed": false,
          "internalType": "uint256",
          "name": "ad",
          "type": "uint256"
        },
        {
          "indexed": false,
          "internalType": "bytes32",
          "name": "status",
          "type": "bytes32"
        }
      ],
      "name": "TradeStatusChange",
      "type": "event"
    },
    {
      "constant": true,
      "inputs": [],
      "name": "PHOTO_NFT_MARKETPLACE",
      "outputs": [
        {
          "internalType": "address",
          "name": "",
          "type": "address"
        }
      ],
      "payable": false,
      "stateMutability": "view",
      "type": "function"
    },
    {
      "constant": false,
      "inputs": [
        {
          "internalType": "contract PhotoNFT",
          "name": "photoNFT",
          "type": "address"
        },
        {
          "internalType": "uint256",
          "name": "_photoId",
          "type": "uint256"
        }
      ],
      "name": "cancelTrade",
      "outputs": [],
      "payable": false,
      "stateMutability": "nonpayable",
      "type": "function"
    },
    {
      "constant": true,
      "inputs": [
        {
          "internalType": "uint256",
          "name": "_photoId",
          "type": "uint256"
        }
      ],
      "name": "getTrade",
      "outputs": [
        {
          "components": [
            {
              "internalType": "address",
              "name": "seller",
              "type": "address"
            },
            {
              "internalType": "uint256",
              "name": "photoId",
              "type": "uint256"
            },
            {
              "internalType": "uint256",
              "name": "photoPrice",
              "type": "uint256"
            },
            {
              "internalType": "bytes32",
              "name": "status",
              "type": "bytes32"
            }
          ],
          "internalType": "struct PhotoNFTTradable.Trade",
          "name": "trade_",
          "type": "tuple"
        }
      ],
      "payable": false,
      "stateMutability": "view",
      "type": "function"
    },
    {
      "constant": false,
      "inputs": [
        {
          "internalType": "contract PhotoNFT",
          "name": "photoNFT",
          "type": "address"
        },
        {
          "internalType": "uint256",
          "name": "_photoId",
          "type": "uint256"
        }
      ],
      "name": "openTrade",
      "outputs": [],
      "payable": false,
      "stateMutability": "nonpayable",
      "type": "function"
    },
    {
      "constant": false,
      "inputs": [
        {
          "internalType": "contract PhotoNFT",
          "name": "photoNFT",
          "type": "address"
        },
        {
          "internalType": "uint256",
          "name": "_photoId",
          "type": "uint256"
        },
        {
          "internalType": "uint256",
          "name": "_photoPrice",
          "type": "uint256"
        }
      ],
      "name": "openTradeWhenCreateNewPhotoNFT",
      "outputs": [],
      "payable": false,
      "stateMutability": "nonpayable",
      "type": "function"
    },
    {
      "constant": true,
      "inputs": [],
      "name": "photoNFT",
      "outputs": [
        {
          "internalType": "contract PhotoNFT",
          "name": "",
          "type": "address"
        }
      ],
      "payable": false,
      "stateMutability": "view",
      "type": "function"
    },
    {
      "constant": true,
      "inputs": [],
      "name": "photoNFTData",
      "outputs": [
        {
          "internalType": "contract PhotoNFTData",
          "name": "",
          "type": "address"
        }
      ],
      "payable": false,
      "stateMutability": "view",
      "type": "function"
    },
    {
      "constant": true,
      "inputs": [
        {
          "internalType": "uint256",
          "name": "",
          "type": "uint256"
        }
      ],
      "name": "trades",
      "outputs": [
        {
          "internalType": "address",
          "name": "seller",
          "type": "address"
        },
        {
          "internalType": "uint256",
          "name": "photoId",
          "type": "uint256"
        },
        {
          "internalType": "uint256",
          "name": "photoPrice",
          "type": "uint256"
        },
        {
          "internalType": "bytes32",
          "name": "status",
          "type": "bytes32"
        }
      ],
      "payable": false,
      "stateMutability": "view",
      "type": "function"
    },
    {
      "constant": false,
      "inputs": [
        {
          "internalType": "contract PhotoNFT",
          "name": "_photoNFT",
          "type": "address"
        },
        {
          "internalType": "uint256",
          "name": "_photoId",
          "type": "uint256"
        },
        {
          "internalType": "address",
          "name": "_buyer",
          "type": "address"
        }
      ],
      "name": "transferOwnershipOfPhotoNFT",
      "outputs": [],
      "payable": false,
      "stateMutability": "nonpayable",
      "type": "function"
    },
    {
      "constant": false,
      "inputs": [
        {
          "internalType": "address",
          "name": "_photoNFT",
          "type": "address"
        }
      ],
      "name": "ownerPhoto",
      "outputs": [
        {
          "internalType": "address",
          "name": "",
          "type": "address"
        }
      ],
      "payable": false,
      "stateMutability": "nonpayable",
      "type": "function"
    },
    {
      "constant": false,
      "inputs": [
        {
          "internalType": "address",
          "name": "_from",
          "type": "address"
        },
        {
          "internalType": "address",
          "name": "_to",
          "type": "address"
        },
        {
          "internalType": "address",
          "name": "_photoId",
          "type": "address"
        }
      ],
      "name": "approveAndTransfer",
      "outputs": [
        {
          "internalType": "bool",
          "name": "",
          "type": "bool"
        }
      ],
      "payable": false,
      "stateMutability": "nonpayable",
      "type": "function"
    },
    {
      "constant": false,
      "inputs": [
        {
          "internalType": "contract PhotoNFT",
          "name": "_photoNFT",
          "type": "address"
        }
      ],
      "name": "buyPhotoNFT",
      "outputs": [
        {
          "internalType": "bool",
          "name": "",
          "type": "bool"
        }
      ],
      "payable": true,
      "stateMutability": "payable",
      "type": "function"
    },
    {
      "constant": false,
      "inputs": [
        {
          "internalType": "contract PhotoNFT",
          "name": "_photoNFT",
          "type": "address"
        }
      ],
      "name": "transfertPhotoNFT",
      "outputs": [
        {
          "internalType": "bool",
          "name": "",
          "type": "bool"
        }
      ],
      "payable": true,
      "stateMutability": "payable",
      "type": "function"
    },
    {
      "constant": false,
      "inputs": [
        {
          "internalType": "address",
          "name": "auction",
          "type": "address"
        },
        {
          "internalType": "address",
          "name": "_photoNFT",
          "type": "address"
        }
      ],
      "name": "approvePhoto",
      "outputs": [],
      "payable": false,
      "stateMutability": "nonpayable",
      "type": "function"
    },
    {
      "constant": false,
      "inputs": [
        {
          "internalType": "address",
          "name": "seller",
          "type": "address"
        },
        {
          "internalType": "address",
          "name": "buyer",
          "type": "address"
        },
        {
          "internalType": "address",
          "name": "_photoNFT",
          "type": "address"
        }
      ],
      "name": "transfertFromPhotoNFT",
      "outputs": [
        {
          "internalType": "bool",
          "name": "",
          "type": "bool"
        }
      ],
      "payable": true,
      "stateMutability": "payable",
      "type": "function"
    },
    {
      "constant": false,
      "inputs": [
        {
          "internalType": "address",
          "name": "from",
          "type": "address"
        },
        {
          "internalType": "address",
          "name": "to",
          "type": "address"
        },
        {
          "internalType": "uint256",
          "name": "photoId",
          "type": "uint256"
        }
      ],
      "name": "reputation",
      "outputs": [
        {
          "internalType": "uint256",
          "name": "",
          "type": "uint256"
        },
        {
          "internalType": "uint256",
          "name": "",
          "type": "uint256"
        }
      ],
      "payable": false,
      "stateMutability": "nonpayable",
      "type": "function"
    },
    {
      "constant": true,
      "inputs": [
        {
          "internalType": "uint256",
          "name": "photoId",
          "type": "uint256"
        }
      ],
      "name": "getReputationCount",
      "outputs": [
        {
          "internalType": "uint256",
          "name": "",
          "type": "uint256"
        }
      ],
      "payable": false,
      "stateMutability": "view",
      "type": "function"
    }
  ],
  "bytecode": "0x60806040523480156200001157600080fd5b506040516200205f3803806200205f83398101604081905262000034916200007c565b600180546001600160a01b039092166001600160a01b03199283168117909155600060035560058054909216179055620000e5565b80516200007681620000cb565b92915050565b6000602082840312156200008f57600080fd5b60006200009d848462000069565b949350505050565b60006200007682620000bf565b60006200007682620000a5565b6001600160a01b031690565b620000d681620000b2565b8114620000e257600080fd5b50565b611f6a80620000f56000396000f3fe6080604052600436106100fe5760003560e01c806350fa18381161009557806380a279c41161006457806380a279c4146102a05780639058e131146102c0578063a2793daf146102e0578063e61b28db1461030e578063ec03951414610330576100fe565b806350fa18381461021357806368ba452b14610233578063759c4bf3146102535780637cc0c9bd14610273576100fe565b8063493c2176116100d1578063493c21761461019c57806349b1d3e7146101be5780634a8de542146101de5780634fe71d13146101f1576100fe565b8063122ddedb1461010357806316f946ef1461012c5780631e6c598e1461013f5780632db25e051461016f575b600080fd5b61011661011136600461189a565b610345565b6040516101239190611cd4565b60405180910390f35b61011661013a366004611948565b610587565b34801561014b57600080fd5b5061015f61015a366004611a2f565b61094a565b6040516101239493929190611c96565b34801561017b57600080fd5b5061018f61018a366004611a2f565b61097d565b6040516101239190611dbe565b3480156101a857600080fd5b506101bc6101b7366004611996565b6109d9565b005b3480156101ca57600080fd5b506101bc6101d93660046119c8565b610acf565b6101166101ec366004611948565b610bdf565b3480156101fd57600080fd5b50610206610f3d565b6040516101239190611c37565b34801561021f57600080fd5b5061011661022e36600461189a565b610f4c565b34801561023f57600080fd5b506101bc61024e366004611860565b611156565b34801561025f57600080fd5b506101bc61026e366004611966565b6111c1565b34801561027f57600080fd5b5061029361028e366004611a2f565b61134e565b6040516101239190611dcc565b3480156102ac57600080fd5b506101bc6102bb366004611966565b611354565b3480156102cc57600080fd5b506102066102db36600461181c565b6114ae565b3480156102ec57600080fd5b506103006102fb3660046118e7565b611549565b604051610123929190611e0e565b34801561031a57600080fd5b50610323611554565b6040516101239190611ce2565b34801561033c57600080fd5b50610323611563565b6040516331a9108f60e11b8152600090829060019083906001600160a01b03841690636352211e9061037b908590600401611dcc565b60206040518083038186803b15801561039357600080fd5b505afa1580156103a7573d6000803e3d6000fd5b505050506040513d601f19601f820116820180604052506103cb9190810190611842565b90506103d88383886109d9565b600554604051637cb1479b60e01b81526001600160a01b0390911690637cb1479b9061040a9086908a90600401611cf0565b602060405180830381600087803b15801561042457600080fd5b505af1158015610438573d6000803e3d6000fd5b505050506040513d601f19601f8201168201806040525061045c919081019061192a565b506040516331a9108f60e11b81526000906001600160a01b03851690636352211e9061048c908690600401611dcc565b60206040518083038186803b1580156104a457600080fd5b505afa1580156104b8573d6000803e3d6000fd5b505050506040513d601f19601f820116820180604052506104dc9190810190611842565b60405163095ea7b360e01b81529091506001600160a01b0385169063095ea7b39061050d908a908790600401611c7b565b600060405180830381600087803b15801561052757600080fd5b505af115801561053b573d6000803e3d6000fd5b505050507fa8ffd0052cf94298cdb4d728ccaebde44f94e7568e31b2129a24a8b2e10fea8c848484846040516105749493929190611d49565b60405180910390a1505050509392505050565b6000816105926115a1565b600554604051637fd6c40560e01b81526001600160a01b0390911690637fd6c405906105c2908590600401611ce2565b60006040518083038186803b1580156105da57600080fd5b505afa1580156105ee573d6000803e3d6000fd5b505050506040513d6000823e601f3d908101601f1916820160405261061691908101906119fa565b6060810151608082015191925090819034811461064e5760405162461bcd60e51b815260040161064590611dae565b60405180910390fd5b6040516001600160a01b0383169082156108fc029083906000818181858888f19350505050158015610684573d6000803e3d6000fd5b5060405163095ea7b360e01b815233906001906001600160a01b0388169063095ea7b3906106b89085908590600401611c7b565b600060405180830381600087803b1580156106d257600080fd5b505af11580156106e6573d6000803e3d6000fd5b50506040516331a9108f60e11b8152600092506001600160a01b038a169150636352211e90610719908590600401611dcc565b60206040518083038186803b15801561073157600080fd5b505afa158015610745573d6000803e3d6000fd5b505050506040513d601f19601f820116820180604052506107699190810190611842565b90506107768883856109d9565b600554604051637cb1479b60e01b81526001600160a01b0390911690637cb1479b906107a8908b908790600401611cf0565b602060405180830381600087803b1580156107c257600080fd5b505af11580156107d6573d6000803e3d6000fd5b505050506040513d601f19601f820116820180604052506107fa919081019061192a565b50600554604051634dd5bfa560e11b81526001600160a01b0390911690639bab7f4a9061082b908b90600401611d0b565b602060405180830381600087803b15801561084557600080fd5b505af1158015610859573d6000803e3d6000fd5b505050506040513d601f19601f8201168201806040525061087d919081019061192a565b506040516331a9108f60e11b81526000906001600160a01b038a1690636352211e906108ad908690600401611dcc565b60206040518083038186803b1580156108c557600080fd5b505afa1580156108d9573d6000803e3d6000fd5b505050506040513d601f19601f820116820180604052506108fd9190810190611842565b90507fa8ffd0052cf94298cdb4d728ccaebde44f94e7568e31b2129a24a8b2e10fea8c898484846040516109349493929190611d49565b60405180910390a1505050505050505050919050565b600260208190526000918252604090912080546001820154928201546003909201546001600160a01b0390911692919084565b6109856115ff565b61098d6115ff565b5050600090815260026020818152604092839020835160808101855281546001600160a01b03168152600182015492810192909252918201549281019290925260030154606082015290565b826109e26115ff565b6109eb8461097d565b905080606001516327b832b760e11b14610a175760405162461bcd60e51b815260040161064590611d9e565b610a22858585611572565b60208101516040516323b872dd60e01b81526001600160a01b038416916323b872dd91610a56913091889190600401611c6d565b600060405180830381600087803b158015610a7057600080fd5b505af1158015610a84573d6000803e3d6000fd5b505050506810d85b98d95b1b195960ba1b610a9e8561097d565b60600152604051600080516020611f0883398151915290610ac0908690611dda565b60405180910390a15050505050565b6040516323b872dd60e01b81526001600160a01b038416906323b872dd90610aff90339030908790600401611c45565b600060405180830381600087803b158015610b1957600080fd5b505af1158015610b2d573d6000803e3d6000fd5b50506003805460019081018083556040805160808101825233815260208082018a81528284018a81526327b832b760e11b60608501908152600096875260029384905295859020935184546001600160a01b0319166001600160a01b0390911617845590519583019590955593519381019390935590519183019190915590549051600080516020611f088339815191529350610bd292506000199190910190611df4565b60405180910390a1505050565b600081610bea6115a1565b600554604051637fd6c40560e01b81526001600160a01b0390911690637fd6c40590610c1a908590600401611ce2565b60006040518083038186803b158015610c3257600080fd5b505afa158015610c46573d6000803e3d6000fd5b505050506040513d6000823e601f3d908101601f19168201604052610c6e91908101906119fa565b606081015160405163095ea7b360e01b815291925090819033906001906001600160a01b0387169063095ea7b390610cac9085908590600401611c7b565b600060405180830381600087803b158015610cc657600080fd5b505af1158015610cda573d6000803e3d6000fd5b50506040516331a9108f60e11b8152600092506001600160a01b0389169150636352211e90610d0d908590600401611dcc565b60206040518083038186803b158015610d2557600080fd5b505afa158015610d39573d6000803e3d6000fd5b505050506040513d601f19601f82011682018060405250610d5d9190810190611842565b9050610d6a8783856109d9565b600554604051637cb1479b60e01b81526001600160a01b0390911690637cb1479b90610d9c908a908790600401611cf0565b602060405180830381600087803b158015610db657600080fd5b505af1158015610dca573d6000803e3d6000fd5b505050506040513d601f19601f82011682018060405250610dee919081019061192a565b50600554604051634dd5bfa560e11b81526001600160a01b0390911690639bab7f4a90610e1f908a90600401611d0b565b602060405180830381600087803b158015610e3957600080fd5b505af1158015610e4d573d6000803e3d6000fd5b505050506040513d601f19601f82011682018060405250610e71919081019061192a565b506040516331a9108f60e11b81526000906001600160a01b03891690636352211e90610ea1908690600401611dcc565b60206040518083038186803b158015610eb957600080fd5b505afa158015610ecd573d6000803e3d6000fd5b505050506040513d601f19601f82011682018060405250610ef19190810190611842565b90507fa8ffd0052cf94298cdb4d728ccaebde44f94e7568e31b2129a24a8b2e10fea8c88848484604051610f289493929190611d49565b60405180910390a15050505050505050919050565b6004546001600160a01b031681565b60405163095ea7b360e01b815260009082906001906001600160a01b0383169063095ea7b390610f829088908590600401611c7b565b600060405180830381600087803b158015610f9c57600080fd5b505af1158015610fb0573d6000803e3d6000fd5b50505050610fbf8282876109d9565b600554604051637cb1479b60e01b81526001600160a01b0390911690637cb1479b90610ff19085908990600401611cf0565b602060405180830381600087803b15801561100b57600080fd5b505af115801561101f573d6000803e3d6000fd5b505050506040513d601f19601f82011682018060405250611043919081019061192a565b50600554604051634dd5bfa560e11b81526001600160a01b0390911690639bab7f4a90611074908590600401611d0b565b602060405180830381600087803b15801561108e57600080fd5b505af11580156110a2573d6000803e3d6000fd5b505050506040513d601f19601f820116820180604052506110c6919081019061192a565b506040516331a9108f60e11b81526000906001600160a01b03841690636352211e906110f6908590600401611dcc565b60206040518083038186803b15801561110e57600080fd5b505afa158015611122573d6000803e3d6000fd5b505050506040513d601f19601f820116820180604052506111469190810190611842565b50600193505050505b9392505050565b60405163095ea7b360e01b815281906001906001600160a01b0383169063095ea7b3906111899087908590600401611c7b565b600060405180830381600087803b1580156111a357600080fd5b505af11580156111b7573d6000803e3d6000fd5b5050505050505050565b600154604051634dd5bfa560e11b81526001600160a01b0390911690639bab7f4a906111f1908590600401611d0b565b602060405180830381600087803b15801561120b57600080fd5b505af115801561121f573d6000803e3d6000fd5b505050506040513d601f19601f82011682018060405250611243919081019061192a565b50600081815260026020526040902080546001600160a01b0316331461127b5760405162461bcd60e51b815260040161064590611d7e565b80600301546327b832b760e11b146112a55760405162461bcd60e51b815260040161064590611d9e565b805460018201546040516323b872dd60e01b81526001600160a01b03868116936323b872dd936112dd93309390921691600401611c6d565b600060405180830381600087803b1580156112f757600080fd5b505af115801561130b573d6000803e3d6000fd5b505050600083815260026020526040908190206810d85b98d95b1b195960ba1b60039091015551600080516020611f088339815191529150610bd2908490611dda565b50600090565b600154604051634dd5bfa560e11b81526001600160a01b0390911690639bab7f4a90611384908590600401611d2a565b602060405180830381600087803b15801561139e57600080fd5b505af11580156113b2573d6000803e3d6000fd5b505050506040513d601f19601f820116820180604052506113d6919081019061192a565b50600081815260026020526040902080546001600160a01b0316331461140e5760405162461bcd60e51b815260040161064590611d8e565b60018101546040516323b872dd60e01b81526001600160a01b038516916323b872dd91611442913391309190600401611c45565b600060405180830381600087803b15801561145c57600080fd5b505af1158015611470573d6000803e3d6000fd5b505050600083815260026020526040908190206327b832b760e11b60039091015551600080516020611f088339815191529150610bd2908490611df4565b6000816114b96115a1565b600554604051637fd6c40560e01b81526001600160a01b0390911690637fd6c405906114e9908590600401611ce2565b60006040518083038186803b15801561150157600080fd5b505afa158015611515573d6000803e3d6000fd5b505050506040513d6000823e601f3d908101601f1916820160405261153d91908101906119fa565b60600151949350505050565b600080935093915050565b6000546001600160a01b031681565b6005546001600160a01b031681565b60009182526002602052604090912080546001600160a01b0319166001600160a01b0390921691909117905550565b60405180610120016040528060006001600160a01b03168152602001606081526020016060815260200160006001600160a01b0316815260200160008152602001606081526020016060815260200160608152602001600081525090565b60408051608081018252600080825260208201819052918101829052606081019190915290565b803561163181611ed5565b92915050565b805161163181611ed5565b805161163181611eec565b803561163181611ef5565b805161163181611ef5565b600082601f83011261167457600080fd5b815161168761168282611e43565b611e1c565b915080825260208301602083018583830111156116a357600080fd5b6116ae838284611ea9565b50505092915050565b600061012082840312156116ca57600080fd5b6116d5610120611e1c565b905060006116e38484611658565b825250602082015167ffffffffffffffff81111561170057600080fd5b61170c84828501611663565b602083015250604082015167ffffffffffffffff81111561172c57600080fd5b61173884828501611663565b604083015250606061174c84828501611637565b606083015250608061176084828501611811565b60808301525060a082015167ffffffffffffffff81111561178057600080fd5b61178c84828501611663565b60a08301525060c082015167ffffffffffffffff8111156117ac57600080fd5b6117b884828501611663565b60c08301525060e082015167ffffffffffffffff8111156117d857600080fd5b6117e484828501611663565b60e0830152506101006117f984828501611811565b6101008301525092915050565b803561163181611efe565b805161163181611efe565b60006020828403121561182e57600080fd5b600061183a8484611626565b949350505050565b60006020828403121561185457600080fd5b600061183a8484611637565b6000806040838503121561187357600080fd5b600061187f8585611626565b925050602061189085828601611626565b9150509250929050565b6000806000606084860312156118af57600080fd5b60006118bb8686611626565b93505060206118cc86828701611626565b92505060406118dd86828701611626565b9150509250925092565b6000806000606084860312156118fc57600080fd5b60006119088686611626565b935050602061191986828701611626565b92505060406118dd86828701611806565b60006020828403121561193c57600080fd5b600061183a8484611642565b60006020828403121561195a57600080fd5b600061183a848461164d565b6000806040838503121561197957600080fd5b6000611985858561164d565b925050602061189085828601611806565b6000806000606084860312156119ab57600080fd5b60006119b7868661164d565b93505060206118cc86828701611806565b6000806000606084860312156119dd57600080fd5b60006119e9868661164d565b935050602061191986828701611806565b600060208284031215611a0c57600080fd5b815167ffffffffffffffff811115611a2357600080fd5b61183a848285016116b7565b600060208284031215611a4157600080fd5b600061183a8484611806565b611a5681611e9e565b82525050565b611a5681611e74565b611a5681611e7f565b611a5681611e84565b611a5681611e87565b6000611a8d602683611e6b565b7f54726164652063616e2062652063616e63656c6c6564206f6e6c79206279207381526532b63632b91760d11b602082015260400192915050565b6000611ad5602183611e6b565b7f54726164652063616e206265206f70656e206f6e6c792062792073656c6c65728152601760f91b602082015260400192915050565b6000611b18601283611e6b565b712a3930b2329034b9903737ba1027b832b71760711b815260200192915050565b6810d85b98d95b1b195960ba1b9052565b6000611b57600983611e6b565b6810d85b98d95b1b195960ba1b815260200192915050565b6327b832b760e11b9052565b6000611b88600483611e6b565b6327b832b760e11b815260200192915050565b6000611ba8602a83611e6b565b7f6d73672e76616c75652073686f756c6420626520657175616c20746f2074686581526908189d5e505b5bdd5b9d60b21b602082015260400192915050565b80516080830190611bf88482611a5c565b506020820151611c0b6020850182611a6e565b506040820151611c1e6040850182611a6e565b506060820151611c316060850182611a6e565b50505050565b602081016116318284611a5c565b60608101611c538286611a4d565b611c606020830185611a5c565b61183a6040830184611a6e565b60608101611c538286611a5c565b60408101611c898285611a5c565b61114f6020830184611a6e565b60808101611ca48287611a5c565b611cb16020830186611a6e565b611cbe6040830185611a6e565b611ccb6060830184611a6e565b95945050505050565b602081016116318284611a65565b602081016116318284611a77565b60408101611cfe8285611a77565b61114f6020830184611a5c565b60408101611d198284611a77565b818103602083015261114f81611b4a565b60408101611d388284611a77565b818103602083015261114f81611b7b565b60808101611d578287611a77565b611d646020830186611a6e565b611d716040830185611a5c565b611ccb6060830184611a5c565b6020808252810161163181611a80565b6020808252810161163181611ac8565b6020808252810161163181611b0b565b6020808252810161163181611b9b565b608081016116318284611be7565b602081016116318284611a6e565b60408101611de88284611a6e565b61163160208301611b39565b60408101611e028284611a6e565b61163160208301611b6f565b60408101611c898285611a6e565b60405181810167ffffffffffffffff81118282101715611e3b57600080fd5b604052919050565b600067ffffffffffffffff821115611e5a57600080fd5b506020601f91909101601f19160190565b90815260200190565b600061163182611e92565b151590565b90565b600061163182611e74565b6001600160a01b031690565b600061163182611e87565b60005b83811015611ec4578181015183820152602001611eac565b83811115611c315750506000910152565b611ede81611e74565b8114611ee957600080fd5b50565b611ede81611e7f565b611ede81611e87565b611ede81611e8456fe4d38ed2c5ea671a5ccddc331f0ebebd94a60aaf6e572543497485d4d148f9edfa365627a7a723158201727389eba3aff181f8de29374b22fe04d264a9f62ca4558aac517fc1c24b4e36c6578706572696d656e74616cf564736f6c63430005100040",
  "source": "pragma solidity ^0.5.16;\npragma experimental ABIEncoderV2;\n\n//import { ERC20 } from './openzeppelin-solidity/contracts/token/ERC20/ERC20.sol';\nimport { SafeMath } from \"./openzeppelin-solidity/contracts/math/SafeMath.sol\";\nimport { PhotoNFT } from \"./PhotoNFT.sol\";\nimport { PhotoNFTTradable } from \"./PhotoNFTTradable.sol\";\nimport { PhotoNFTMarketplaceEvents } from \"./photo-nft-marketplace/commons/PhotoNFTMarketplaceEvents.sol\";\nimport { PhotoNFTData } from \"./PhotoNFTData.sol\";\n\n\n\n\ncontract PhotoNFTMarketplace is PhotoNFTTradable, PhotoNFTMarketplaceEvents {\n    using SafeMath for uint256;\n\n    address public PHOTO_NFT_MARKETPLACE;\n\n    PhotoNFTData public photoNFTData;\n\n    constructor(PhotoNFTData _photoNFTData) public PhotoNFTTradable(_photoNFTData) {\n        photoNFTData = _photoNFTData;\n        address payable PHOTO_NFT_MARKETPLACE = address(uint160(address(this)));\n    }\n\n    /** \n     * @notice - Buy function is that buy NFT token and ownership transfer. (Reference from IERC721.sol)\n     * @notice - msg.sender buy NFT with ETH (msg.value)\n     * @notice - PhotoID is always 1. Because each photoNFT is unique.\n     */\n\n     /***ownerPhoto */\n\n\n     function ownerPhoto (address _photoNFT) public returns  (address){\n        PhotoNFT photoNFT = PhotoNFT(_photoNFT);\n        PhotoNFTData.Photo memory photo = photoNFTData.getPhotoByNFTAddress(photoNFT);\n        address _seller = photo.ownerAddress;\n        return _seller;\n     }\n   function approveAndTransfer(address  _from, address _to, address _photoId ) public returns(bool) {\n       //PhotoNFT remoteContract = PhotoNFT(_photoId);\n     \n       PhotoNFT photoNFT = PhotoNFT(_photoId);\n       uint i = 1;\n        photoNFT.approve(_to, i);\n        transferOwnershipOfPhotoNFT(photoNFT,i , _to); \n        photoNFTData.updateOwnerOfPhotoNFT(photoNFT, _to);\n        photoNFTData.updateStatus(photoNFT, \"Cancelled\");\n\n        /// Event for checking result of transferring ownership of a photoNFT\n        address ownerAfterOwnershipTransferred = photoNFT.ownerOf(i);\n        return true;\n    } \n\n    function buyPhotoNFT(PhotoNFT _photoNFT) public payable returns (bool) {\n        PhotoNFT photoNFT = _photoNFT;\n\n        PhotoNFTData.Photo memory photo = photoNFTData.getPhotoByNFTAddress(photoNFT);\n        address _seller = photo.ownerAddress;                     /// Owner\n        address payable seller = address(uint160(_seller));  /// Convert owner address with payable\n        uint buyAmount = photo.photoPrice;\n        require (msg.value == buyAmount, \"msg.value should be equal to the buyAmount\");\n \n        /// Bought-amount is transferred into a seller wallet\n        seller.transfer(buyAmount);\n\n        /// Approve a buyer address as a receiver before NFT's transferFrom method is executed\n        address buyer = msg.sender;\n        uint photoId = 1;  /// [Note]: PhotoID is always 1. Because each photoNFT is unique.\n        photoNFT.approve(buyer, photoId);\n\n        address ownerBeforeOwnershipTransferred = photoNFT.ownerOf(photoId);\n\n        /// Transfer Ownership of the PhotoNFT from a seller to a buyer\n        transferOwnershipOfPhotoNFT(photoNFT, photoId, buyer);    \n        photoNFTData.updateOwnerOfPhotoNFT(photoNFT, buyer);\n        photoNFTData.updateStatus(photoNFT, \"Cancelled\");\n\n        /// Event for checking result of transferring ownership of a photoNFT\n        address ownerAfterOwnershipTransferred = photoNFT.ownerOf(photoId);\n        emit PhotoNFTOwnershipChanged(photoNFT, photoId, ownerBeforeOwnershipTransferred, ownerAfterOwnershipTransferred);\n\n        /// Mint a photo with a new photoId\n        //string memory tokenURI = photoNFTFactory.getTokenURI(photoData.ipfsHashOfPhoto);  /// [Note]: IPFS hash + URL\n        //photoNFT.mint(msg.sender, tokenURI);\n    }\n\n\n\n//transfert photo\n\nfunction transfertPhotoNFT(PhotoNFT _photoNFT) public payable returns (bool) {\n        PhotoNFT photoNFT = _photoNFT;\n\n        PhotoNFTData.Photo memory photo = photoNFTData.getPhotoByNFTAddress(photoNFT);\n        address _seller = photo.ownerAddress;                     /// Owner\n        address payable seller = address(uint160(_seller));  /// Convert owner address with payable\n        \n     \n \n        \n\n        /// Approve a buyer address as a receiver before NFT's transferFrom method is executed\n        address buyer = msg.sender;\n        uint photoId = 1;  /// [Note]: PhotoID is always 1. Because each photoNFT is unique.\n        photoNFT.approve(buyer, photoId);\n\n        address ownerBeforeOwnershipTransferred = photoNFT.ownerOf(photoId);\n\n        /// Transfer Ownership of the PhotoNFT from a seller to a buyer\n        transferOwnershipOfPhotoNFT(photoNFT, photoId, buyer);    \n        photoNFTData.updateOwnerOfPhotoNFT(photoNFT, buyer);\n        photoNFTData.updateStatus(photoNFT, \"Cancelled\");\n\n        /// Event for checking result of transferring ownership of a photoNFT\n        address ownerAfterOwnershipTransferred = photoNFT.ownerOf(photoId);\n        emit PhotoNFTOwnershipChanged(photoNFT, photoId, ownerBeforeOwnershipTransferred, ownerAfterOwnershipTransferred);\n\n        /// Mint a photo with a new photoId\n        //string memory tokenURI = photoNFTFactory.getTokenURI(photoData.ipfsHashOfPhoto);  /// [Note]: IPFS hash + URL\n        //photoNFT.mint(msg.sender, tokenURI);\n    }\n\nfunction approvePhoto(address auction ,address _photoNFT) public{\n     PhotoNFT photoNFT = PhotoNFT(_photoNFT);\n uint photoId = 1;\n photoNFT.approve(auction, photoId);\n}\n\n    function transfertFromPhotoNFT(address seller , address buyer ,address _photoNFT) public payable returns (bool) {\n         PhotoNFT photoNFT = PhotoNFT(_photoNFT);\n        \n\n        uint photoId = 1;  /// [Note]: PhotoID is always 1. Because each photoNFT is unique.\n       \n\n        address ownerBeforeOwnershipTransferred = photoNFT.ownerOf(photoId);\n\n        /// Transfer Ownership of the PhotoNFT from a seller to a buyer\n        transferOwnershipOfPhotoNFT(photoNFT, photoId, buyer);    \n        photoNFTData.updateOwnerOfPhotoNFT(photoNFT, buyer);\n        // photoNFTData.updateStatus(photoNFT, \"Cancelled\");\n\n        /// Event for checking result of transferring ownership of a photoNFT\n        address ownerAfterOwnershipTransferred = photoNFT.ownerOf(photoId);\n         photoNFT.approve(buyer, photoId);\n        emit PhotoNFTOwnershipChanged(photoNFT, photoId, ownerBeforeOwnershipTransferred, ownerAfterOwnershipTransferred);\n\n        /// Mint a photo with a new photoId\n        //string memory tokenURI = photoNFTFactory.getTokenURI(photoData.ipfsHashOfPhoto);  /// [Note]: IPFS hash + URL\n        //photoNFT.mint(msg.sender, tokenURI);\n    }\n\n    ///-----------------------------------------------------\n    /// Methods below are pending methods\n    ///-----------------------------------------------------\n\n    /** \n     * @dev reputation function is that gives reputation to a user who has ownership of being posted photo.\n     * @dev Each user has reputation data in struct\n     */\n    function reputation(address from, address to, uint256 photoId) public returns (uint256, uint256) {\n\n        // Photo storage photo = photos[photoId];\n        // photo.reputation = photo.reputation.add(1);\n\n        // emit AddReputation(photoId, photo.reputation);\n\n        // return (photoId, photo.reputation);\n        return (0, 0);\n    }\n    \n\n    function getReputationCount(uint256 photoId) public view returns (uint256) {\n        uint256 curretReputationCount;\n\n        // Photo memory photo = photos[photoId];\n        // curretReputationCount = photo.reputation;\n\n        return curretReputationCount;\n    }    \n\n}\n",
  "sourcePath": "/home/amal/zbriggithub/NFT-based-photo-marketplace/oldversion/contracts/PhotoNFTMarketplace.sol",
  "compiler": {
    "name": "solc",
    "version": "0.5.16+commit.9c3226ce.Emscripten.clang"
  },
  "schemaVersion": "3.4.1",
  "updatedAt": "2021-06-27T13:49:34.326Z",
  "networkType": "ethereum",
  "devdoc": {
    "methods": {
      "cancelTrade(address,uint256)": {
        "details": "Cancels a trade by the seller."
      },
      "getTrade(uint256)": {
        "details": "- Returns the details for a trade."
      },
      "openTrade(address,uint256)": {
        "details": "Opens a trade by the seller."
      },
      "openTradeWhenCreateNewPhotoNFT(address,uint256,uint256)": {
        "details": "Opens a new trade. Puts _photoId in escrow.",
        "params": {
          "_photoId": "The id for the photoId to trade.",
          "_photoPrice": "The amount of currency for which to trade the photoId."
        }
      },
      "reputation(address,address,uint256)": {
        "details": "reputation function is that gives reputation to a user who has ownership of being posted photo.Each user has reputation data in struct"
      },
      "transferOwnershipOfPhotoNFT(address,uint256,address)": {
        "details": "Executes a trade. Must have approved this contract to transfer the amount of currency specified to the seller. Transfers ownership of the photoId to the filler."
      }
    }
  },
  "userdoc": {
    "methods": {
      "openTradeWhenCreateNewPhotoNFT(address,uint256,uint256)": {
        "notice": "- This method is only executed when a seller create a new PhotoNFT"
      },
      "ownerPhoto(address)": {
        "notice": "*ownerPhoto "
      }
    }
  }
}