{
  "contractName": "PhotoNFTFactory",
  "abi": [
    {
      "inputs": [
        {
          "internalType": "contract PhotoNFTMarketplace",
          "name": "_photoNFTMarketplace",
          "type": "address"
        },
        {
          "internalType": "contract PhotoNFTData",
          "name": "_photoNFTData",
          "type": "address"
        }
      ],
      "payable": false,
      "stateMutability": "nonpayable",
      "type": "constructor"
    },
    {
      "anonymous": false,
      "inputs": [
        {
          "indexed": false,
          "internalType": "uint256",
          "name": "tokenId",
          "type": "uint256"
        },
        {
          "indexed": false,
          "internalType": "uint256",
          "name": "reputationCount",
          "type": "uint256"
        }
      ],
      "name": "AddReputation",
      "type": "event"
    },
    {
      "anonymous": false,
      "inputs": [
        {
          "indexed": false,
          "internalType": "address",
          "name": "owner",
          "type": "address"
        },
        {
          "indexed": false,
          "internalType": "contract PhotoNFT",
          "name": "photoNFT",
          "type": "address"
        },
        {
          "indexed": false,
          "internalType": "string",
          "name": "nftName",
          "type": "string"
        },
        {
          "indexed": false,
          "internalType": "string",
          "name": "nftSymbol",
          "type": "string"
        },
        {
          "indexed": false,
          "internalType": "uint256",
          "name": "photoPrice",
          "type": "uint256"
        },
        {
          "indexed": false,
          "internalType": "string",
          "name": "ipfsHashOfPhoto",
          "type": "string"
        },
        {
          "indexed": false,
          "internalType": "string",
          "name": "typeOfSale",
          "type": "string"
        }
      ],
      "name": "PhotoNFTCreated",
      "type": "event"
    },
    {
      "constant": true,
      "inputs": [
        {
          "internalType": "uint256",
          "name": "",
          "type": "uint256"
        }
      ],
      "name": "photoAddresses",
      "outputs": [
        {
          "internalType": "address",
          "name": "",
          "type": "address"
        }
      ],
      "payable": false,
      "stateMutability": "view",
      "type": "function"
    },
    {
      "constant": true,
      "inputs": [],
      "name": "photoNFTData",
      "outputs": [
        {
          "internalType": "contract PhotoNFTData",
          "name": "",
          "type": "address"
        }
      ],
      "payable": false,
      "stateMutability": "view",
      "type": "function"
    },
    {
      "constant": true,
      "inputs": [],
      "name": "photoNFTMarketplace",
      "outputs": [
        {
          "internalType": "contract PhotoNFTMarketplace",
          "name": "",
          "type": "address"
        }
      ],
      "payable": false,
      "stateMutability": "view",
      "type": "function"
    },
    {
      "constant": false,
      "inputs": [
        {
          "internalType": "string",
          "name": "nftName",
          "type": "string"
        },
        {
          "internalType": "string",
          "name": "nftSymbol",
          "type": "string"
        },
        {
          "internalType": "uint256",
          "name": "photoPrice",
          "type": "uint256"
        },
        {
          "internalType": "string",
          "name": "ipfsHashOfPhoto",
          "type": "string"
        },
        {
          "internalType": "string",
          "name": "typeOfSale",
          "type": "string"
        }
      ],
      "name": "createNewPhotoNFT",
      "outputs": [
        {
          "internalType": "bool",
          "name": "",
          "type": "bool"
        }
      ],
      "payable": false,
      "stateMutability": "nonpayable",
      "type": "function"
    },
    {
      "constant": true,
      "inputs": [],
      "name": "baseTokenURI",
      "outputs": [
        {
          "internalType": "string",
          "name": "",
          "type": "string"
        }
      ],
      "payable": false,
      "stateMutability": "pure",
      "type": "function"
    },
    {
      "constant": true,
      "inputs": [
        {
          "internalType": "string",
          "name": "_ipfsHashOfPhoto",
          "type": "string"
        }
      ],
      "name": "getTokenURI",
      "outputs": [
        {
          "internalType": "string",
          "name": "",
          "type": "string"
        }
      ],
      "payable": false,
      "stateMutability": "view",
      "type": "function"
    }
  ],
  "bytecode": "0x608060405234801561001057600080fd5b50604051620026b8380380620026b883398101604081905261003191610084565b600280546001600160a01b03199081166001600160a01b03948516179182905560038054821693851693909317909255600180549190931691161790556100f7565b805161007e816100e0565b92915050565b6000806040838503121561009757600080fd5b60006100a38585610073565b92505060206100b485828601610073565b9150509250929050565b600061007e826100d4565b600061007e826100be565b6001600160a01b031690565b6100e9816100c9565b81146100f457600080fd5b50565b6125b180620001076000396000f3fe60806040523480156200001157600080fd5b50600436106200006a5760003560e01c8063c4188f11146200006f578063d3e1f6e31462000091578063d547cfb714620000b7578063d9b7b0a014620000c1578063dc0985c314620000e7578063ec039514146200010d575b600080fd5b6200007962000117565b60405162000088919062000b09565b60405180910390f35b620000a8620000a2366004620006d0565b62000126565b60405162000088919062000b3c565b620000a862000143565b620000d8620000d236600462000709565b62000172565b60405162000088919062000af9565b620000fe620000f8366004620007ec565b6200037e565b60405162000088919062000930565b62000079620003a6565b6002546001600160a01b031681565b60606200013d6200013662000143565b83620003b5565b92915050565b60408051808201909152601581527468747470733a2f2f697066732e696f2f697066732f60581b602082015290565b6000336060620001828562000126565b90506000828989848a896040516200019a9062000623565b620001ab96959493929190620009d1565b604051809103906000f080158015620001c8573d6000803e3d6000fd5b50600080546001810182558180527f290decd9548b62a8d60345a988386fc84ba6bc95484008f6362f93160ef3e5630180546001600160a01b0319166001600160a01b0384811691909117909155600354604051631e11035f60e01b81529394501691631e11035f916200024d9185908e908e9033908f908f908f9060040162000a52565b602060405180830381600087803b1580156200026857600080fd5b505af11580156200027d573d6000803e3d6000fd5b505050506040513d601f19601f82011682018060405250620002a39190810190620006a7565b50600354604051634dd5bfa560e11b81526001600160a01b0390911690639bab7f4a90620002d690849060040162000b19565b602060405180830381600087803b158015620002f157600080fd5b505af115801562000306573d6000803e3d6000fd5b505050506040513d601f19601f820116820180604052506200032c9190810190620006a7565b507fd73a84dcf62676cf8c6548495ff73053313f1a3d59f3fc81ddb99de05ec2b2b833828b8b8b8b8b6040516200036a979695949392919062000940565b60405180910390a150505095945050505050565b600081815481106200038c57fe5b6000918252602090912001546001600160a01b0316905081565b6003546001600160a01b031681565b6060620003f38383604051806020016040528060008152506040518060200160405280600081525060405180602001604052806000815250620003fa565b9392505050565b6060808690506060869050606086905060608690506060869050606081518351855187518951010101016040519080825280601f01601f1916602001820160405280156200044f576020820181803883390190505b509050806000805b8851811015620004ac578881815181106200046e57fe5b602001015160f81c60f81b8383806001019450815181106200048c57fe5b60200101906001600160f81b031916908160001a90535060010162000457565b5060005b87518110156200050557878181518110620004c757fe5b602001015160f81c60f81b838380600101945081518110620004e557fe5b60200101906001600160f81b031916908160001a905350600101620004b0565b5060005b86518110156200055e578681815181106200052057fe5b602001015160f81c60f81b8383806001019450815181106200053e57fe5b60200101906001600160f81b031916908160001a90535060010162000509565b5060005b8551811015620005b7578581815181106200057957fe5b602001015160f81c60f81b8383806001019450815181106200059757fe5b60200101906001600160f81b031916908160001a90535060010162000562565b5060005b84518110156200061057848181518110620005d257fe5b602001015160f81c60f81b838380600101945081518110620005f057fe5b60200101906001600160f81b031916908160001a905350600101620005bb565b50909d9c50505050505050505050505050565b6118e28062000c8d83390190565b80516200013d8162000c67565b600082601f8301126200065057600080fd5b813562000667620006618262000b77565b62000b4f565b915080825260208301602083018583830111156200068457600080fd5b6200069183828462000bf9565b50505092915050565b80356200013d8162000c81565b600060208284031215620006ba57600080fd5b6000620006c8848462000631565b949350505050565b600060208284031215620006e357600080fd5b813567ffffffffffffffff811115620006fb57600080fd5b620006c8848285016200063e565b600080600080600060a086880312156200072257600080fd5b853567ffffffffffffffff8111156200073a57600080fd5b62000748888289016200063e565b955050602086013567ffffffffffffffff8111156200076657600080fd5b62000774888289016200063e565b945050604062000787888289016200069a565b935050606086013567ffffffffffffffff811115620007a557600080fd5b620007b3888289016200063e565b925050608086013567ffffffffffffffff811115620007d157600080fd5b620007df888289016200063e565b9150509295509295909350565b600060208284031215620007ff57600080fd5b6000620006c884846200069a565b60006200081b838362000834565b505060200190565b6200082e8162000be4565b82525050565b6200082e8162000bcf565b60006200084c8262000bac565b62000858818562000bba565b9350620008658362000ba0565b8060005b83811015620008a2576200087d8262000c4f565b6200088988826200080d565b9750620008968362000bb4565b92505060010162000869565b509495945050505050565b6200082e8162000bdc565b6200082e8162000bec565b6000620008d08262000bb0565b620008dc818562000bba565b9350620008ee81856020860162000c05565b620008f98162000c5d565b9093019392505050565b60006200091260048362000bba565b6327b832b760e11b815260200192915050565b6200082e8162000be1565b602081016200013d828462000834565b60e0810162000950828a62000823565b6200095f6020830189620008b8565b8181036040830152620009738188620008c3565b90508181036060830152620009898187620008c3565b90506200099a608083018662000925565b81810360a0830152620009ae8185620008c3565b905081810360c0830152620009c48184620008c3565b9998505050505050505050565b60c08101620009e1828962000834565b8181036020830152620009f58188620008c3565b9050818103604083015262000a0b8187620008c3565b9050818103606083015262000a218186620008c3565b905062000a32608083018562000925565b81810360a083015262000a468184620008c3565b98975050505050505050565b610100808252810162000a66818b6200083f565b905062000a77602083018a620008b8565b818103604083015262000a8b8189620008c3565b9050818103606083015262000aa18188620008c3565b905062000ab2608083018762000823565b62000ac160a083018662000925565b81810360c083015262000ad58185620008c3565b905081810360e083015262000aeb8184620008c3565b9a9950505050505050505050565b602081016200013d8284620008ad565b602081016200013d8284620008b8565b6040810162000b298284620008b8565b8181036020830152620003f38162000903565b60208082528101620003f38184620008c3565b60405181810167ffffffffffffffff8111828210171562000b6f57600080fd5b604052919050565b600067ffffffffffffffff82111562000b8f57600080fd5b506020601f91909101601f19160190565b60009081526020902090565b5490565b5190565b60010190565b90815260200190565b6001600160a01b031690565b60006200013d8262000bc3565b151590565b90565b60006200013d825b60006200013d8262000bcf565b82818337506000910152565b60005b8381101562000c2257818101518382015260200162000c08565b8381111562000c32576000848401525b50505050565b60006200013d62000c498362000be1565b62000bc3565b60006200013d825462000c38565b601f01601f191690565b62000c728162000bdc565b811462000c7e57600080fd5b50565b62000c728162000be156fe60806040523480156200001157600080fd5b50604051620018e2380380620018e28339810160408190526200003491620004ce565b84848181620000536301ffc9a760e01b6001600160e01b03620000f316565b6200006e6380ac58cd60e01b6001600160e01b03620000f316565b6200008963780e9d6360e01b6001600160e01b03620000f316565b81516200009e906009906020850190620003b6565b508051620000b490600a906020840190620003b6565b50620000d0635b5e139f60e01b6001600160e01b03620000f316565b50505050620000e686846200013060201b60201c565b505050505050506200067b565b6001600160e01b031980821614156200010b57600080fd5b6001600160e01b0319166000908152602081905260409020805460ff19166001179055565b600080620001466001600160e01b036200018216565b600c8054600101905590506200016684826001600160e01b03620001a716565b6200017b81846001600160e01b03620001eb16565b5092915050565b6000620001a16001600c546200022f60201b62000b681790919060201c565b90505b90565b620001be82826200024b60201b62000b811760201c565b620001d382826001600160e01b036200031716565b620001e7816001600160e01b036200035516565b5050565b620001ff826001600160e01b036200039916565b6200020957600080fd5b6000828152600b6020908152604090912082516200022a92840190620003b6565b505050565b6000828201838110156200024257600080fd5b90505b92915050565b6001600160a01b0382166200025f57600080fd5b62000273816001600160e01b036200039916565b156200027e57600080fd5b600081815260016020818152604080842080546001600160a01b0319166001600160a01b03881690811790915584526003825290922054620002cc929091906200022f811b62000b6817901c565b6001600160a01b0383166000818152600360205260408082209390935591518392907fddf252ad1be2c89b69c2b068fc378daa952ba7f163c4a11628f55a4df523b3ef908290a45050565b6001600160a01b0390911660009081526005602081815260408084208054868652600684529185208290559282526001810183559183529091200155565b600780546000838152600860205260408120829055600182018355919091527fa66cc928b5edb82af9bd49922954155ab7b0942694bea4ce44661d9a8736c6880155565b6000908152600160205260409020546001600160a01b0316151590565b828054600181600116156101000203166002900490600052602060002090601f016020900481019282601f10620003f957805160ff191683800117855562000429565b8280016001018555821562000429579182015b82811115620004295782518255916020019190600101906200040c565b50620004379291506200043b565b5090565b620001a491905b8082111562000437576000815560010162000442565b8051620002458162000656565b600082601f8301126200047757600080fd5b81516200048e6200048882620005e9565b620005c2565b91508082526020830160208301858383011115620004ab57600080fd5b620004b883828462000623565b50505092915050565b8051620002458162000670565b60008060008060008060c08789031215620004e857600080fd5b6000620004f6898962000458565b96505060208701516001600160401b038111156200051357600080fd5b6200052189828a0162000465565b95505060408701516001600160401b038111156200053e57600080fd5b6200054c89828a0162000465565b94505060608701516001600160401b038111156200056957600080fd5b6200057789828a0162000465565b93505060806200058a89828a01620004c1565b92505060a08701516001600160401b03811115620005a757600080fd5b620005b589828a0162000465565b9150509295509295509295565b6040518181016001600160401b0381118282101715620005e157600080fd5b604052919050565b60006001600160401b038211156200060057600080fd5b506020601f91909101601f19160190565b60006001600160a01b03821662000245565b60005b838110156200064057818101518382015260200162000626565b8381111562000650576000848401525b50505050565b620006618162000611565b81146200066d57600080fd5b50565b6200066181620001a4565b611257806200068b6000396000f3fe608060405234801561001057600080fd5b50600436106101165760003560e01c80636352211e116100a2578063b4a5b64611610071578063b4a5b64614610230578063b88d4fde14610238578063c87b56dd1461024b578063d0def5211461025e578063e985e9c51461027157610116565b80636352211e146101ef57806370a082311461020257806395d89b4114610215578063a22cb4651461021d57610116565b806318160ddd116100e957806318160ddd1461018e57806323b872dd146101a35780632f745c59146101b657806342842e0e146101c95780634f6ccce7146101dc57610116565b806301ffc9a71461011b57806306fdde0314610144578063081812fc14610159578063095ea7b314610179575b600080fd5b61012e610129366004610fd2565b610284565b60405161013b91906110e0565b60405180910390f35b61014c6102a3565b60405161013b91906110ee565b61016c61016736600461100e565b61033a565b60405161013b919061108e565b61018c610187366004610fa2565b61036a565b005b610196610417565b60405161013b91906110ff565b61018c6101b1366004610e64565b61041d565b6101966101c4366004610fa2565b610440565b61018c6101d7366004610e64565b61048e565b6101966101ea36600461100e565b6104a9565b61016c6101fd36600461100e565b6104dd565b610196610210366004610e0c565b6104ff565b61014c610530565b61018c61022b366004610f2a565b610591565b610196610616565b61018c610246366004610eb1565b61061c565b61014c61025936600461100e565b610642565b61012e61026c366004610f5a565b6106f5565b61012e61027f366004610e2a565b610726565b6001600160e01b03191660009081526020819052604090205460ff1690565b60098054604080516020601f600260001961010060018816150201909516949094049384018190048102820181019092528281526060939092909183018282801561032f5780601f106103045761010080835404028352916020019161032f565b820191906000526020600020905b81548152906001019060200180831161031257829003601f168201915b505050505090505b90565b600061034582610754565b61034e57600080fd5b506000908152600260205260409020546001600160a01b031690565b6000610375826104dd565b9050806001600160a01b0316836001600160a01b0316141561039657600080fd5b336001600160a01b03821614806103b257506103b28133610726565b6103bb57600080fd5b60008281526002602052604080822080546001600160a01b0319166001600160a01b0387811691821790925591518593918516917f8c5be1e5ebec7d5bd14f71427d1e84f3dd0314c0f7b2291e5b200ac8c7c3b92591a4505050565b60075490565b6104273382610771565b61043057600080fd5b61043b8383836107d0565b505050565b600061044b836104ff565b821061045657600080fd5b6001600160a01b038316600090815260056020526040902080548390811061047a57fe5b906000526020600020015490505b92915050565b61043b8383836040518060200160405280600081525061061c565b60006104b3610417565b82106104be57600080fd5b600782815481106104cb57fe5b90600052602060002001549050919050565b6000818152600160205260408120546001600160a01b03168061048857600080fd5b60006001600160a01b03821661051457600080fd5b506001600160a01b031660009081526003602052604090205490565b600a8054604080516020601f600260001961010060018816150201909516949094049384018190048102820181019092528281526060939092909183018282801561032f5780601f106103045761010080835404028352916020019161032f565b6001600160a01b0382163314156105a757600080fd5b3360008181526004602090815260408083206001600160a01b038716808552925291829020805460ff191685151517905590519091907f17307eab39ab6107e8899845ad3d59bd9653f200f220920489ca2b5937696c319061060a9085906110e0565b60405180910390a35050565b600c5481565b61062784848461041d565b610633848484846107ef565b61063c57600080fd5b50505050565b606061064d82610754565b61065657600080fd5b6000828152600b602090815260409182902080548351601f6002600019610100600186161502019093169290920491820184900484028101840190945280845290918301828280156106e95780601f106106be576101008083540402835291602001916106e9565b820191906000526020600020905b8154815290600101906020018083116106cc57829003601f168201915b50505050509050919050565b6000806107006108b4565b600c80546001019055905061071584826108d0565b61071f81846108f1565b5092915050565b6001600160a01b03918216600090815260046020908152604080832093909416825291909152205460ff1690565b6000908152600160205260409020546001600160a01b0316151590565b60008061077d836104dd565b9050806001600160a01b0316846001600160a01b031614806107b85750836001600160a01b03166107ad8461033a565b6001600160a01b0316145b806107c857506107c88185610726565b949350505050565b6107db838383610922565b6107e58382610a2f565b61043b8282610b24565b6000610803846001600160a01b0316610b62565b61080f575060016107c8565b604051630a85bd0160e11b81526000906001600160a01b0386169063150b7a02906108449033908a908990899060040161109c565b602060405180830381600087803b15801561085e57600080fd5b505af1158015610872573d6000803e3d6000fd5b505050506040513d601f19601f820116820180604052506108969190810190610ff0565b6001600160e01b031916630a85bd0160e11b14915050949350505050565b600c546000906108cb90600163ffffffff610b6816565b905090565b6108da8282610b81565b6108e48282610b24565b6108ed81610c33565b5050565b6108fa82610754565b61090357600080fd5b6000828152600b60209081526040909120825161043b92840190610cc9565b826001600160a01b0316610935826104dd565b6001600160a01b03161461094857600080fd5b6001600160a01b03821661095b57600080fd5b61096481610c77565b6001600160a01b03831660009081526003602052604090205461098e90600163ffffffff610cb416565b6001600160a01b0380851660009081526003602052604080822093909355908416815220546109c490600163ffffffff610b6816565b6001600160a01b038084166000818152600360209081526040808320959095558582526001905283812080546001600160a01b031916831790559251849391928716917fddf252ad1be2c89b69c2b068fc378daa952ba7f163c4a11628f55a4df523b3ef91a4505050565b6001600160a01b038216600090815260056020526040812054610a5990600163ffffffff610cb416565b600083815260066020526040902054909150808214610af4576001600160a01b0384166000908152600560205260408120805484908110610a9657fe5b906000526020600020015490508060056000876001600160a01b03166001600160a01b031681526020019081526020016000208381548110610ad457fe5b600091825260208083209091019290925591825260069052604090208190555b6001600160a01b0384166000908152600560205260409020805490610b1d906000198301610d47565b5050505050565b6001600160a01b0390911660009081526005602081815260408084208054868652600684529185208290559282526001810183559183529091200155565b3b151590565b600082820183811015610b7a57600080fd5b9392505050565b6001600160a01b038216610b9457600080fd5b610b9d81610754565b15610ba757600080fd5b600081815260016020818152604080842080546001600160a01b0319166001600160a01b0388169081179091558452600390915290912054610be891610b68565b6001600160a01b0383166000818152600360205260408082209390935591518392907fddf252ad1be2c89b69c2b068fc378daa952ba7f163c4a11628f55a4df523b3ef908290a45050565b600780546000838152600860205260408120829055600182018355919091527fa66cc928b5edb82af9bd49922954155ab7b0942694bea4ce44661d9a8736c6880155565b6000818152600260205260409020546001600160a01b031615610cb157600081815260026020526040902080546001600160a01b03191690555b50565b600082821115610cc357600080fd5b50900390565b828054600181600116156101000203166002900490600052602060002090601f016020900481019282601f10610d0a57805160ff1916838001178555610d37565b82800160010185558215610d37579182015b82811115610d37578251825591602001919060010190610d1c565b50610d43929150610d67565b5090565b81548183558181111561043b5760008381526020902061043b9181019083015b61033791905b80821115610d435760008155600101610d6d565b8035610488816111e5565b8035610488816111f9565b803561048881611202565b805161048881611202565b600082601f830112610dbe57600080fd5b8135610dd1610dcc82611134565b61110d565b91508082526020830160208301858383011115610ded57600080fd5b610df88382846111a3565b50505092915050565b80356104888161120b565b600060208284031215610e1e57600080fd5b60006107c88484610d81565b60008060408385031215610e3d57600080fd5b6000610e498585610d81565b9250506020610e5a85828601610d81565b9150509250929050565b600080600060608486031215610e7957600080fd5b6000610e858686610d81565b9350506020610e9686828701610d81565b9250506040610ea786828701610e01565b9150509250925092565b60008060008060808587031215610ec757600080fd5b6000610ed38787610d81565b9450506020610ee487828801610d81565b9350506040610ef587828801610e01565b925050606085013567ffffffffffffffff811115610f1257600080fd5b610f1e87828801610dad565b91505092959194509250565b60008060408385031215610f3d57600080fd5b6000610f498585610d81565b9250506020610e5a85828601610d8c565b60008060408385031215610f6d57600080fd5b6000610f798585610d81565b925050602083013567ffffffffffffffff811115610f9657600080fd5b610e5a85828601610dad565b60008060408385031215610fb557600080fd5b6000610fc18585610d81565b9250506020610e5a85828601610e01565b600060208284031215610fe457600080fd5b60006107c88484610d97565b60006020828403121561100257600080fd5b60006107c88484610da2565b60006020828403121561102057600080fd5b60006107c88484610e01565b61103581611192565b82525050565b61103581611169565b61103581611174565b60006110588261115c565b6110628185611160565b93506110728185602086016111af565b61107b816111db565b9093019392505050565b61103581610337565b60208101610488828461103b565b608081016110aa828761102c565b6110b7602083018661103b565b6110c46040830185611085565b81810360608301526110d6818461104d565b9695505050505050565b602081016104888284611044565b60208082528101610b7a818461104d565b602081016104888284611085565b60405181810167ffffffffffffffff8111828210171561112c57600080fd5b604052919050565b600067ffffffffffffffff82111561114b57600080fd5b506020601f91909101601f19160190565b5190565b90815260200190565b600061048882611186565b151590565b6001600160e01b03191690565b6001600160a01b031690565b600061048882600061048882611169565b82818337506000910152565b60005b838110156111ca5781810151838201526020016111b2565b8381111561063c5750506000910152565b601f01601f191690565b6111ee81611169565b8114610cb157600080fd5b6111ee81611174565b6111ee81611179565b6111ee8161033756fea365627a7a72315820c61fa04339483d6568f2c9d7deee9bf6107212813e79df240e53f62b3195d34b6c6578706572696d656e74616cf564736f6c63430005100040a365627a7a7231582062303f30d6f19225c0f11637e1ee39abb18504ff8a142ce0edd4e55a6132543e6c6578706572696d656e74616cf564736f6c63430005100040",
  "source": "pragma solidity ^0.5.16;\npragma experimental ABIEncoderV2;\n\nimport { SafeMath } from \"./openzeppelin-solidity/contracts/math/SafeMath.sol\";\nimport { Strings } from \"./libraries/Strings.sol\";\nimport { PhotoNFTFactoryStorages } from \"./photo-nft-factory/commons/PhotoNFTFactoryStorages.sol\";\nimport { PhotoNFT } from \"./PhotoNFT.sol\";\nimport { PhotoNFTMarketplace } from \"./PhotoNFTMarketplace.sol\";\nimport { PhotoNFTData } from \"./PhotoNFTData.sol\";\n\n\n/**\n * @notice - This is the factory contract for a NFT of photo\n */\ncontract PhotoNFTFactory is PhotoNFTFactoryStorages {\n    using SafeMath for uint256;\n    using Strings for string;    \n\n    address[] public photoAddresses;\n    address PHOTO_NFT_MARKETPLACE;\n\n    PhotoNFTMarketplace public photoNFTMarketplace;\n    PhotoNFTData public photoNFTData;\n\n    constructor(PhotoNFTMarketplace _photoNFTMarketplace, PhotoNFTData _photoNFTData) public {\n        photoNFTMarketplace = _photoNFTMarketplace;\n        photoNFTData = _photoNFTData;\n        PHOTO_NFT_MARKETPLACE = address(photoNFTMarketplace);\n    }\n\n    /**\n     * @notice - Create a new photoNFT when a seller (owner) upload a photo onto IPFS\n     */\n    function createNewPhotoNFT(string memory nftName, string memory nftSymbol, uint photoPrice, string memory ipfsHashOfPhoto, string memory typeOfSale) public returns (bool) {\n        address owner = msg.sender;  /// [Note]: Initial owner of photoNFT is msg.sender\n        string memory tokenURI = getTokenURI(ipfsHashOfPhoto);  /// [Note]: IPFS hash + URL\n        PhotoNFT photoNFT = new PhotoNFT(owner, nftName, nftSymbol, tokenURI, photoPrice, typeOfSale);\n        photoAddresses.push(address(photoNFT));\n\n        /// Save metadata of a photoNFT created\n        photoNFTData.saveMetadataOfPhotoNFT(photoAddresses, photoNFT, nftName, nftSymbol, msg.sender, photoPrice, ipfsHashOfPhoto, typeOfSale);\n        photoNFTData.updateStatus(photoNFT, \"Open\");\n\n        emit PhotoNFTCreated(msg.sender, photoNFT, nftName, nftSymbol, photoPrice, ipfsHashOfPhoto, typeOfSale);\n    }\n\n\n    ///-----------------\n    /// Getter methods\n    ///-----------------\n    function baseTokenURI() public pure returns (string memory) {\n        return \"https://ipfs.io/ipfs/\";\n    }\n\n    function getTokenURI(string memory _ipfsHashOfPhoto) public view returns (string memory) {\n        return Strings.strConcat(baseTokenURI(), _ipfsHashOfPhoto);\n    }\n\n}\n",
  "sourcePath": "/home/amal/zbriggithub/NFT-based-photo-marketplace/oldversion/contracts/PhotoNFTFactory.sol",
  "compiler": {
    "name": "solc",
    "version": "0.5.16+commit.9c3226ce.Emscripten.clang"
  },
  "schemaVersion": "3.4.1",
  "updatedAt": "2021-06-27T13:49:10.068Z",
  "networkType": "ethereum",
  "devdoc": {
    "methods": {}
  },
  "userdoc": {
    "methods": {
      "baseTokenURI()": {
        "notice": "----------------- Getter methods -----------------"
      },
      "createNewPhotoNFT(string,string,uint256,string,string)": {
        "notice": "- Create a new photoNFT when a seller (owner) upload a photo onto IPFS"
      }
    },
    "notice": "- This is the factory contract for a NFT of photo"
  }
}