{
  "contractName": "PhotoNFTData",
  "abi": [
    {
      "inputs": [],
      "payable": false,
      "stateMutability": "nonpayable",
      "type": "constructor"
    },
    {
      "constant": true,
      "inputs": [
        {
          "internalType": "uint256",
          "name": "",
          "type": "uint256"
        }
      ],
      "name": "photoAddresses",
      "outputs": [
        {
          "internalType": "address",
          "name": "",
          "type": "address"
        }
      ],
      "payable": false,
      "stateMutability": "view",
      "type": "function"
    },
    {
      "constant": true,
      "inputs": [
        {
          "internalType": "uint256",
          "name": "",
          "type": "uint256"
        }
      ],
      "name": "photos",
      "outputs": [
        {
          "internalType": "contract PhotoNFT",
          "name": "photoNFT",
          "type": "address"
        },
        {
          "internalType": "string",
          "name": "photoNFTName",
          "type": "string"
        },
        {
          "internalType": "string",
          "name": "photoNFTSymbol",
          "type": "string"
        },
        {
          "internalType": "address",
          "name": "ownerAddress",
          "type": "address"
        },
        {
          "internalType": "uint256",
          "name": "photoPrice",
          "type": "uint256"
        },
        {
          "internalType": "string",
          "name": "ipfsHashOfPhoto",
          "type": "string"
        },
        {
          "internalType": "string",
          "name": "typeOfSale",
          "type": "string"
        },
        {
          "internalType": "string",
          "name": "status",
          "type": "string"
        },
        {
          "internalType": "uint256",
          "name": "reputation",
          "type": "uint256"
        }
      ],
      "payable": false,
      "stateMutability": "view",
      "type": "function"
    },
    {
      "constant": false,
      "inputs": [
        {
          "internalType": "address[]",
          "name": "_photoAddresses",
          "type": "address[]"
        },
        {
          "internalType": "contract PhotoNFT",
          "name": "_photoNFT",
          "type": "address"
        },
        {
          "internalType": "string",
          "name": "_photoNFTName",
          "type": "string"
        },
        {
          "internalType": "string",
          "name": "_photoNFTSymbol",
          "type": "string"
        },
        {
          "internalType": "address",
          "name": "_ownerAddress",
          "type": "address"
        },
        {
          "internalType": "uint256",
          "name": "_photoPrice",
          "type": "uint256"
        },
        {
          "internalType": "string",
          "name": "_ipfsHashOfPhoto",
          "type": "string"
        },
        {
          "internalType": "string",
          "name": "_typeOfSale",
          "type": "string"
        }
      ],
      "name": "saveMetadataOfPhotoNFT",
      "outputs": [
        {
          "internalType": "bool",
          "name": "",
          "type": "bool"
        }
      ],
      "payable": false,
      "stateMutability": "nonpayable",
      "type": "function"
    },
    {
      "constant": false,
      "inputs": [
        {
          "internalType": "contract PhotoNFT",
          "name": "_photoNFT",
          "type": "address"
        },
        {
          "internalType": "address",
          "name": "_newOwner",
          "type": "address"
        }
      ],
      "name": "updateOwnerOfPhotoNFT",
      "outputs": [
        {
          "internalType": "bool",
          "name": "",
          "type": "bool"
        }
      ],
      "payable": false,
      "stateMutability": "nonpayable",
      "type": "function"
    },
    {
      "constant": false,
      "inputs": [
        {
          "internalType": "contract PhotoNFT",
          "name": "_photoNFT",
          "type": "address"
        },
        {
          "internalType": "string",
          "name": "_newStatus",
          "type": "string"
        }
      ],
      "name": "updateStatus",
      "outputs": [
        {
          "internalType": "bool",
          "name": "",
          "type": "bool"
        }
      ],
      "payable": false,
      "stateMutability": "nonpayable",
      "type": "function"
    },
    {
      "constant": true,
      "inputs": [
        {
          "internalType": "uint256",
          "name": "index",
          "type": "uint256"
        }
      ],
      "name": "getPhoto",
      "outputs": [
        {
          "components": [
            {
              "internalType": "contract PhotoNFT",
              "name": "photoNFT",
              "type": "address"
            },
            {
              "internalType": "string",
              "name": "photoNFTName",
              "type": "string"
            },
            {
              "internalType": "string",
              "name": "photoNFTSymbol",
              "type": "string"
            },
            {
              "internalType": "address",
              "name": "ownerAddress",
              "type": "address"
            },
            {
              "internalType": "uint256",
              "name": "photoPrice",
              "type": "uint256"
            },
            {
              "internalType": "string",
              "name": "ipfsHashOfPhoto",
              "type": "string"
            },
            {
              "internalType": "string",
              "name": "typeOfSale",
              "type": "string"
            },
            {
              "internalType": "string",
              "name": "status",
              "type": "string"
            },
            {
              "internalType": "uint256",
              "name": "reputation",
              "type": "uint256"
            }
          ],
          "internalType": "struct PhotoNFTDataObjects.Photo",
          "name": "_photo",
          "type": "tuple"
        }
      ],
      "payable": false,
      "stateMutability": "view",
      "type": "function"
    },
    {
      "constant": true,
      "inputs": [
        {
          "internalType": "contract PhotoNFT",
          "name": "photoNFT",
          "type": "address"
        }
      ],
      "name": "getPhotoIndex",
      "outputs": [
        {
          "internalType": "uint256",
          "name": "_photoIndex",
          "type": "uint256"
        }
      ],
      "payable": false,
      "stateMutability": "view",
      "type": "function"
    },
    {
      "constant": true,
      "inputs": [
        {
          "internalType": "contract PhotoNFT",
          "name": "photoNFT",
          "type": "address"
        }
      ],
      "name": "getPhotoByNFTAddress",
      "outputs": [
        {
          "components": [
            {
              "internalType": "contract PhotoNFT",
              "name": "photoNFT",
              "type": "address"
            },
            {
              "internalType": "string",
              "name": "photoNFTName",
              "type": "string"
            },
            {
              "internalType": "string",
              "name": "photoNFTSymbol",
              "type": "string"
            },
            {
              "internalType": "address",
              "name": "ownerAddress",
              "type": "address"
            },
            {
              "internalType": "uint256",
              "name": "photoPrice",
              "type": "uint256"
            },
            {
              "internalType": "string",
              "name": "ipfsHashOfPhoto",
              "type": "string"
            },
            {
              "internalType": "string",
              "name": "typeOfSale",
              "type": "string"
            },
            {
              "internalType": "string",
              "name": "status",
              "type": "string"
            },
            {
              "internalType": "uint256",
              "name": "reputation",
              "type": "uint256"
            }
          ],
          "internalType": "struct PhotoNFTDataObjects.Photo",
          "name": "_photo",
          "type": "tuple"
        }
      ],
      "payable": false,
      "stateMutability": "view",
      "type": "function"
    },
    {
      "constant": true,
      "inputs": [],
      "name": "getAllPhotos",
      "outputs": [
        {
          "components": [
            {
              "internalType": "contract PhotoNFT",
              "name": "photoNFT",
              "type": "address"
            },
            {
              "internalType": "string",
              "name": "photoNFTName",
              "type": "string"
            },
            {
              "internalType": "string",
              "name": "photoNFTSymbol",
              "type": "string"
            },
            {
              "internalType": "address",
              "name": "ownerAddress",
              "type": "address"
            },
            {
              "internalType": "uint256",
              "name": "photoPrice",
              "type": "uint256"
            },
            {
              "internalType": "string",
              "name": "ipfsHashOfPhoto",
              "type": "string"
            },
            {
              "internalType": "string",
              "name": "typeOfSale",
              "type": "string"
            },
            {
              "internalType": "string",
              "name": "status",
              "type": "string"
            },
            {
              "internalType": "uint256",
              "name": "reputation",
              "type": "uint256"
            }
          ],
          "internalType": "struct PhotoNFTDataObjects.Photo[]",
          "name": "_photos",
          "type": "tuple[]"
        }
      ],
      "payable": false,
      "stateMutability": "view",
      "type": "function"
    }
  ],
  "bytecode": "0x608060405234801561001057600080fd5b50611b39806100206000396000f3fe608060405234801561001057600080fd5b50600436106100935760003560e01c80637fd6c405116100665780637fd6c405146101095780639bab7f4a14610129578063af2a5d6f1461013c578063b6be128a14610164578063dc0985c31461017757610093565b80631e11035f146100985780631f4342be146100c157806348c31171146100e15780637cb1479b146100f6575b600080fd5b6100ab6100a63660046114f1565b610197565b6040516100b891906118f7565b60405180910390f35b6100d46100cf366004611618565b610363565b6040516100b891906119cf565b6100e96103b9565b6040516100b891906118e6565b6100ab61010436600461163e565b610740565b61011c610117366004611618565b6107d0565b6040516100b891906119be565b6100ab610137366004611678565b610b8a565b61014f61014a3660046116c0565b610bd7565b6040516100b899989796959493929190611905565b61011c6101723660046116c0565b610ef9565b61018a6101853660046116c0565b611263565b6040516100b891906118d8565b60006101a161128a565b5060408051610120810182526001600160a01b038a8116825260208083018b81528385018b905289831660608501526080840189905260a0840188905260c084018790528451808601909552600485526327b832b760e11b8583015260e08401949094526000610100840181905280546001810180835591805284517f290decd9548b62a8d60345a988386fc84ba6bc95484008f6362f93160ef3e563600990920291820180546001600160a01b031916919095161784559451805194959194869493610292937f290decd9548b62a8d60345a988386fc84ba6bc95484008f6362f93160ef3e564019201906112e8565b50604082015180516102ae9160028401916020909101906112e8565b5060608201516003820180546001600160a01b0319166001600160a01b039092169190911790556080820151600482015560a082015180516102fa9160058401916020909101906112e8565b5060c082015180516103169160068401916020909101906112e8565b5060e082015180516103329160078401916020909101906112e8565b5061010091909101516008909101555089516103559060019060208d0190611366565b505098975050505050505050565b60008181805b6001548110156103b157826001600160a01b03166001828154811061038a57fe5b6000918252602090912001546001600160a01b031614156103a9578091505b600101610369565b509392505050565b60606000805480602002602001604051908101604052809291908181526020016000905b8282101561073657600084815260209081902060408051610120810182526009860290920180546001600160a01b03168352600180820180548451600261010094831615949094026000190190911692909204601f8101879004870283018701909452838252939491938583019391929091908301828280156104a15780601f10610476576101008083540402835291602001916104a1565b820191906000526020600020905b81548152906001019060200180831161048457829003601f168201915b5050509183525050600282810180546040805160206001841615610100026000190190931694909404601f810183900483028501830190915280845293810193908301828280156105335780601f1061050857610100808354040283529160200191610533565b820191906000526020600020905b81548152906001019060200180831161051657829003601f168201915b505050918352505060038201546001600160a01b03166020808301919091526004830154604080840191909152600584018054825160026101006001841615026000190190921691909104601f8101859004850282018501909352828152606090940193929091908301828280156105ec5780601f106105c1576101008083540402835291602001916105ec565b820191906000526020600020905b8154815290600101906020018083116105cf57829003601f168201915b505050918352505060068201805460408051602060026001851615610100026000190190941693909304601f81018490048402820184019092528181529382019392918301828280156106805780601f1061065557610100808354040283529160200191610680565b820191906000526020600020905b81548152906001019060200180831161066357829003601f168201915b505050918352505060078201805460408051602060026001851615610100026000190190941693909304601f81018490048402820184019092528181529382019392918301828280156107145780601f106106e957610100808354040283529160200191610714565b820191906000526020600020905b8154815290600101906020018083116106f757829003601f168201915b50505050508152602001600882015481525050815260200190600101906103dd565b5050505090505b90565b60008061074c84610363565b9050600080828154811061075c57fe5b9060005260206000209060090201905060006001600160a01b0316846001600160a01b031614156107a85760405162461bcd60e51b815260040161079f906119ae565b60405180910390fd5b60030180546001600160a01b0319166001600160a01b03949094169390931790925592915050565b6107d861128a565b816000805b60015481101561082557826001600160a01b0316600182815481106107fe57fe5b6000918252602090912001546001600160a01b0316141561081d578091505b6001016107dd565b5061082e61128a565b6000828154811061083b57fe5b60009182526020918290206040805161012081018252600990930290910180546001600160a01b03168352600180820180548451601f600260001995841615610100029590950190921693909304908101879004870283018701909452838252939491938583019391929091908301828280156108f95780601f106108ce576101008083540402835291602001916108f9565b820191906000526020600020905b8154815290600101906020018083116108dc57829003601f168201915b5050509183525050600282810180546040805160206001841615610100026000190190931694909404601f8101839004830285018301909152808452938101939083018282801561098b5780601f106109605761010080835404028352916020019161098b565b820191906000526020600020905b81548152906001019060200180831161096e57829003601f168201915b505050918352505060038201546001600160a01b03166020808301919091526004830154604080840191909152600584018054825160026101006001841615026000190190921691909104601f810185900485028201850190935282815260609094019392909190830182828015610a445780601f10610a1957610100808354040283529160200191610a44565b820191906000526020600020905b815481529060010190602001808311610a2757829003601f168201915b505050918352505060068201805460408051602060026001851615610100026000190190941693909304601f8101849004840282018401909252818152938201939291830182828015610ad85780601f10610aad57610100808354040283529160200191610ad8565b820191906000526020600020905b815481529060010190602001808311610abb57829003601f168201915b505050918352505060078201805460408051602060026001851615610100026000190190941693909304601f8101849004840282018401909252818152938201939291830182828015610b6c5780601f10610b4157610100808354040283529160200191610b6c565b820191906000526020600020905b815481529060010190602001808311610b4f57829003601f168201915b50505091835250506008919091015460209091015295945050505050565b600080610b9684610363565b90506000808281548110610ba657fe5b9060005260206000209060090201905083816007019080519060200190610bce9291906112e8565b50505092915050565b60008181548110610be457fe5b600091825260209182902060099091020180546001808301805460408051601f60026000199685161561010002969096019093169490940491820187900487028401870190528083526001600160a01b039093169550929390929190830182828015610c915780601f10610c6657610100808354040283529160200191610c91565b820191906000526020600020905b815481529060010190602001808311610c7457829003601f168201915b50505060028085018054604080516020601f6000196101006001871615020190941695909504928301859004850281018501909152818152959695945090925090830182828015610d235780601f10610cf857610100808354040283529160200191610d23565b820191906000526020600020905b815481529060010190602001808311610d0657829003601f168201915b505050506003830154600484015460058501805460408051602060026101006001861615026000190190941693909304601f810184900484028201840190925281815296976001600160a01b039095169693955090830182828015610dc95780601f10610d9e57610100808354040283529160200191610dc9565b820191906000526020600020905b815481529060010190602001808311610dac57829003601f168201915b5050505060068301805460408051602060026001851615610100026000190190941693909304601f8101849004840282018401909252818152949594935090830182828015610e595780601f10610e2e57610100808354040283529160200191610e59565b820191906000526020600020905b815481529060010190602001808311610e3c57829003601f168201915b5050505060078301805460408051602060026001851615610100026000190190941693909304601f8101849004840282018401909252818152949594935090830182828015610ee95780601f10610ebe57610100808354040283529160200191610ee9565b820191906000526020600020905b815481529060010190602001808311610ecc57829003601f168201915b5050505050908060080154905089565b610f0161128a565b610f0961128a565b60008381548110610f1657fe5b60009182526020918290206040805161012081018252600990930290910180546001600160a01b03168352600180820180548451601f60026000199584161561010002959095019092169390930490810187900487028301870190945283825293949193858301939192909190830182828015610fd45780601f10610fa957610100808354040283529160200191610fd4565b820191906000526020600020905b815481529060010190602001808311610fb757829003601f168201915b5050509183525050600282810180546040805160206001841615610100026000190190931694909404601f810183900483028501830190915280845293810193908301828280156110665780601f1061103b57610100808354040283529160200191611066565b820191906000526020600020905b81548152906001019060200180831161104957829003601f168201915b505050918352505060038201546001600160a01b03166020808301919091526004830154604080840191909152600584018054825160026101006001841615026000190190921691909104601f81018590048502820185019093528281526060909401939290919083018282801561111f5780601f106110f45761010080835404028352916020019161111f565b820191906000526020600020905b81548152906001019060200180831161110257829003601f168201915b505050918352505060068201805460408051602060026001851615610100026000190190941693909304601f81018490048402820184019092528181529382019392918301828280156111b35780601f10611188576101008083540402835291602001916111b3565b820191906000526020600020905b81548152906001019060200180831161119657829003601f168201915b505050918352505060078201805460408051602060026001851615610100026000190190941693909304601f81018490048402820184019092528181529382019392918301828280156112475780601f1061121c57610100808354040283529160200191611247565b820191906000526020600020905b81548152906001019060200180831161122a57829003601f168201915b5050509183525050600891909101546020909101529392505050565b6001818154811061127057fe5b6000918252602090912001546001600160a01b0316905081565b60405180610120016040528060006001600160a01b03168152602001606081526020016060815260200160006001600160a01b0316815260200160008152602001606081526020016060815260200160608152602001600081525090565b828054600181600116156101000203166002900490600052602060002090601f016020900481019282601f1061132957805160ff1916838001178555611356565b82800160010185558215611356579182015b8281111561135657825182559160200191906001019061133b565b506113629291506113c7565b5090565b8280548282559060005260206000209081019282156113bb579160200282015b828111156113bb57825182546001600160a01b0319166001600160a01b03909116178255602090920191600190910190611386565b506113629291506113e1565b61073d91905b8082111561136257600081556001016113cd565b61073d91905b808211156113625780546001600160a01b03191681556001016113e7565b803561141081611acd565b92915050565b600082601f83011261142757600080fd5b813561143a61143582611a04565b6119dd565b9150818183526020840193506020810190508385602084028201111561145f57600080fd5b60005b8381101561148b57816114758882611405565b8452506020928301929190910190600101611462565b5050505092915050565b803561141081611ae4565b600082601f8301126114b157600080fd5b81356114bf61143582611a25565b915080825260208301602083018583830111156114db57600080fd5b610bce838284611a87565b803561141081611aed565b600080600080600080600080610100898b03121561150e57600080fd5b883567ffffffffffffffff81111561152557600080fd5b6115318b828c01611416565b98505060206115428b828c01611495565b975050604089013567ffffffffffffffff81111561155f57600080fd5b61156b8b828c016114a0565b965050606089013567ffffffffffffffff81111561158857600080fd5b6115948b828c016114a0565b95505060806115a58b828c01611405565b94505060a06115b68b828c016114e6565b93505060c089013567ffffffffffffffff8111156115d357600080fd5b6115df8b828c016114a0565b92505060e089013567ffffffffffffffff8111156115fc57600080fd5b6116088b828c016114a0565b9150509295985092959890939650565b60006020828403121561162a57600080fd5b60006116368484611495565b949350505050565b6000806040838503121561165157600080fd5b600061165d8585611495565b925050602061166e85828601611405565b9150509250929050565b6000806040838503121561168b57600080fd5b60006116978585611495565b925050602083013567ffffffffffffffff8111156116b457600080fd5b61166e858286016114a0565b6000602082840312156116d257600080fd5b600061163684846114e6565b60006116ea8383611801565b9392505050565b6116fa81611a60565b82525050565b600061170b82611a53565b6117158185611a57565b93508360208202850161172785611a4d565b8060005b85811015611761578484038952815161174485826116de565b945061174f83611a4d565b60209a909a019992505060010161172b565b5091979650505050505050565b6116fa81611a6b565b6116fa81611a70565b600061178b82611a53565b6117958185611a57565b93506117a5818560208601611a93565b6117ae81611ac3565b9093019392505050565b60006117c5602783611a57565b7f41206e6577206f776e657220616464726573732073686f756c64206265206e6f8152667420656d70747960c81b602082015260400192915050565b80516000906101208401906118168582611777565b506020830151848203602086015261182e8282611780565b915050604083015184820360408601526118488282611780565b915050606083015161185d60608601826116f1565b50608083015161187060808601826118cf565b5060a083015184820360a08601526118888282611780565b91505060c083015184820360c08601526118a28282611780565b91505060e083015184820360e08601526118bc8282611780565b9150506101008301516103b16101008601825b6116fa8161073d565b6020810161141082846116f1565b602080825281016116ea8184611700565b60208101611410828461176e565b6101208101611914828c611777565b8181036020830152611926818b611780565b9050818103604083015261193a818a611780565b905061194960608301896116f1565b61195660808301886118cf565b81810360a08301526119688187611780565b905081810360c083015261197c8186611780565b905081810360e08301526119908185611780565b90506119a06101008301846118cf565b9a9950505050505050505050565b60208082528101611410816117b8565b602080825281016116ea8184611801565b6020810161141082846118cf565b60405181810167ffffffffffffffff811182821017156119fc57600080fd5b604052919050565b600067ffffffffffffffff821115611a1b57600080fd5b5060209081020190565b600067ffffffffffffffff821115611a3c57600080fd5b506020601f91909101601f19160190565b60200190565b5190565b90815260200190565b600061141082611a7b565b151590565b600061141082611a60565b6001600160a01b031690565b82818337506000910152565b60005b83811015611aae578181015183820152602001611a96565b83811115611abd576000848401525b50505050565b601f01601f191690565b611ad681611a60565b8114611ae157600080fd5b50565b611ad681611a70565b611ad68161073d56fea365627a7a72315820d29d59b61ab7b8803c78f19aad5a5d0441eb463e5d0d2c8482b444cc080794db6c6578706572696d656e74616cf564736f6c63430005100040",
  "source": "pragma solidity ^0.5.16;\npragma experimental ABIEncoderV2;\n\nimport { PhotoNFTDataStorages } from \"./photo-nft-data/commons/PhotoNFTDataStorages.sol\";\nimport { PhotoNFT } from \"./PhotoNFT.sol\";\n\n\n/**\n * @notice - This is the storage contract for photoNFTs\n */\ncontract PhotoNFTData is PhotoNFTDataStorages {\n\n    address[] public photoAddresses;\n\n    constructor() public {}\n\n    /**\n     * @notice - Save metadata of a photoNFT\n     */\n    function saveMetadataOfPhotoNFT(\n        address[] memory _photoAddresses, \n        PhotoNFT _photoNFT, \n        string memory _photoNFTName, \n        string memory _photoNFTSymbol, \n        address _ownerAddress, \n        uint _photoPrice, \n        string memory _ipfsHashOfPhoto,\n        string memory _typeOfSale\n    ) public returns (bool) {\n        /// Save metadata of a photoNFT of photo\n        Photo memory photo = Photo({\n            photoNFT: _photoNFT,\n            photoNFTName: _photoNFTName,\n            photoNFTSymbol: _photoNFTSymbol,\n            ownerAddress: _ownerAddress,\n            photoPrice: _photoPrice,\n            ipfsHashOfPhoto: _ipfsHashOfPhoto,\n            typeOfSale: _typeOfSale,\n            status: \"Open\",\n            reputation: 0\n        });\n        photos.push(photo);\n\n        /// Update photoAddresses\n        photoAddresses = _photoAddresses;     \n    }\n\n    /**\n     * @notice - Update owner address of a photoNFT by transferring ownership\n     */\n    function updateOwnerOfPhotoNFT(PhotoNFT _photoNFT, address _newOwner) public returns (bool) {\n        /// Identify photo's index\n        uint photoIndex = getPhotoIndex(_photoNFT);\n\n        /// Update metadata of a photoNFT of photo\n        Photo storage photo = photos[photoIndex];\n        require (_newOwner != address(0), \"A new owner address should be not empty\");\n        photo.ownerAddress = _newOwner;  \n    }\n\n    /**\n     * @notice - Update status (\"Open\" or \"Cancelled\")\n     */\n    function updateStatus(PhotoNFT _photoNFT, string memory _newStatus) public returns (bool) {\n        /// Identify photo's index\n        uint photoIndex = getPhotoIndex(_photoNFT);\n\n        /// Update metadata of a photoNFT of photo\n        Photo storage photo = photos[photoIndex];\n        photo.status = _newStatus;  \n    }\n\n\n    ///-----------------\n    /// Getter methods\n    ///-----------------\n    function getPhoto(uint index) public view returns (Photo memory _photo) {\n        Photo memory photo = photos[index];\n        return photo;\n    }\n\n    function getPhotoIndex(PhotoNFT photoNFT) public view returns (uint _photoIndex) {\n        address PHOTO_NFT = address(photoNFT);\n\n        /// Identify member's index\n        uint photoIndex;\n        for (uint i=0; i < photoAddresses.length; i++) {\n            if (photoAddresses[i] == PHOTO_NFT) {\n                photoIndex = i;\n            }\n        }\n\n        return photoIndex;   \n    }\n\n    function getPhotoByNFTAddress(PhotoNFT photoNFT) public view returns (Photo memory _photo) {\n        address PHOTO_NFT = address(photoNFT);\n\n        /// Identify member's index\n        uint photoIndex;\n        for (uint i=0; i < photoAddresses.length; i++) {\n            if (photoAddresses[i] == PHOTO_NFT) {\n                photoIndex = i;\n            }\n        }\n\n        Photo memory photo = photos[photoIndex];\n        return photo;\n    }\n\n    function getAllPhotos() public view returns (Photo[] memory _photos) {\n        return photos;\n    }\n\n}\n",
  "sourcePath": "/home/amal/zbriggithub/NFT-based-photo-marketplace/oldversion/contracts/PhotoNFTData.sol",
  "compiler": {
    "name": "solc",
    "version": "0.5.16+commit.9c3226ce.Emscripten.clang"
  },
  "schemaVersion": "3.4.1",
  "updatedAt": "2021-06-27T13:49:10.104Z",
  "networkType": "ethereum",
  "devdoc": {
    "methods": {}
  },
  "userdoc": {
    "methods": {
      "getPhoto(uint256)": {
        "notice": "----------------- Getter methods -----------------"
      },
      "saveMetadataOfPhotoNFT(address[],address,string,string,address,uint256,string,string)": {
        "notice": "- Save metadata of a photoNFT"
      },
      "updateOwnerOfPhotoNFT(address,address)": {
        "notice": "- Update owner address of a photoNFT by transferring ownership"
      },
      "updateStatus(address,string)": {
        "notice": "- Update status (\"Open\" or \"Cancelled\")"
      }
    },
    "notice": "- This is the storage contract for photoNFTs"
  }
}