{
  "contractName": "PhotoNFTMarketplace",
  "abi": [
    {
      "inputs": [
        {
          "internalType": "contract PhotoNFTData",
          "name": "_photoNFTData",
          "type": "address"
        }
      ],
      "payable": false,
      "stateMutability": "nonpayable",
      "type": "constructor"
    },
    {
      "anonymous": false,
      "inputs": [
        {
          "indexed": false,
          "internalType": "contract PhotoNFT",
          "name": "photoNFT",
          "type": "address"
        },
        {
          "indexed": false,
          "internalType": "uint256",
          "name": "photoId",
          "type": "uint256"
        },
        {
          "indexed": false,
          "internalType": "address",
          "name": "ownerBeforeOwnershipTransferred",
          "type": "address"
        },
        {
          "indexed": false,
          "internalType": "address",
          "name": "ownerAfterOwnershipTransferred",
          "type": "address"
        }
      ],
      "name": "PhotoNFTOwnershipChanged",
      "type": "event"
    },
    {
      "anonymous": false,
      "inputs": [
        {
          "indexed": false,
          "internalType": "uint256",
          "name": "ad",
          "type": "uint256"
        },
        {
          "indexed": false,
          "internalType": "bytes32",
          "name": "status",
          "type": "bytes32"
        }
      ],
      "name": "TradeStatusChange",
      "type": "event"
    },
    {
      "constant": true,
      "inputs": [],
      "name": "PHOTO_NFT_MARKETPLACE",
      "outputs": [
        {
          "internalType": "address",
          "name": "",
          "type": "address"
        }
      ],
      "payable": false,
      "stateMutability": "view",
      "type": "function"
    },
    {
      "constant": false,
      "inputs": [
        {
          "internalType": "contract PhotoNFT",
          "name": "photoNFT",
          "type": "address"
        },
        {
          "internalType": "uint256",
          "name": "_photoId",
          "type": "uint256"
        }
      ],
      "name": "cancelTrade",
      "outputs": [],
      "payable": false,
      "stateMutability": "nonpayable",
      "type": "function"
    },
    {
      "constant": true,
      "inputs": [
        {
          "internalType": "uint256",
          "name": "_photoId",
          "type": "uint256"
        }
      ],
      "name": "getTrade",
      "outputs": [
        {
          "components": [
            {
              "internalType": "address",
              "name": "seller",
              "type": "address"
            },
            {
              "internalType": "uint256",
              "name": "photoId",
              "type": "uint256"
            },
            {
              "internalType": "uint256",
              "name": "photoPrice",
              "type": "uint256"
            },
            {
              "internalType": "bytes32",
              "name": "status",
              "type": "bytes32"
            }
          ],
          "internalType": "struct PhotoNFTTradable.Trade",
          "name": "trade_",
          "type": "tuple"
        }
      ],
      "payable": false,
      "stateMutability": "view",
      "type": "function"
    },
    {
      "constant": false,
      "inputs": [
        {
          "internalType": "contract PhotoNFT",
          "name": "photoNFT",
          "type": "address"
        },
        {
          "internalType": "uint256",
          "name": "_photoId",
          "type": "uint256"
        }
      ],
      "name": "openTrade",
      "outputs": [],
      "payable": false,
      "stateMutability": "nonpayable",
      "type": "function"
    },
    {
      "constant": false,
      "inputs": [
        {
          "internalType": "contract PhotoNFT",
          "name": "photoNFT",
          "type": "address"
        },
        {
          "internalType": "uint256",
          "name": "_photoId",
          "type": "uint256"
        },
        {
          "internalType": "uint256",
          "name": "_photoPrice",
          "type": "uint256"
        }
      ],
      "name": "openTradeWhenCreateNewPhotoNFT",
      "outputs": [],
      "payable": false,
      "stateMutability": "nonpayable",
      "type": "function"
    },
    {
      "constant": true,
      "inputs": [],
      "name": "photoNFT",
      "outputs": [
        {
          "internalType": "contract PhotoNFT",
          "name": "",
          "type": "address"
        }
      ],
      "payable": false,
      "stateMutability": "view",
      "type": "function"
    },
    {
      "constant": true,
      "inputs": [],
      "name": "photoNFTData",
      "outputs": [
        {
          "internalType": "contract PhotoNFTData",
          "name": "",
          "type": "address"
        }
      ],
      "payable": false,
      "stateMutability": "view",
      "type": "function"
    },
    {
      "constant": true,
      "inputs": [
        {
          "internalType": "uint256",
          "name": "",
          "type": "uint256"
        }
      ],
      "name": "trades",
      "outputs": [
        {
          "internalType": "address",
          "name": "seller",
          "type": "address"
        },
        {
          "internalType": "uint256",
          "name": "photoId",
          "type": "uint256"
        },
        {
          "internalType": "uint256",
          "name": "photoPrice",
          "type": "uint256"
        },
        {
          "internalType": "bytes32",
          "name": "status",
          "type": "bytes32"
        }
      ],
      "payable": false,
      "stateMutability": "view",
      "type": "function"
    },
    {
      "constant": false,
      "inputs": [
        {
          "internalType": "contract PhotoNFT",
          "name": "_photoNFT",
          "type": "address"
        },
        {
          "internalType": "uint256",
          "name": "_photoId",
          "type": "uint256"
        },
        {
          "internalType": "address",
          "name": "_buyer",
          "type": "address"
        }
      ],
      "name": "transferOwnershipOfPhotoNFT",
      "outputs": [],
      "payable": false,
      "stateMutability": "nonpayable",
      "type": "function"
    },
    {
      "constant": false,
      "inputs": [
        {
          "internalType": "address",
          "name": "_photoNFT",
          "type": "address"
        }
      ],
      "name": "ownerPhoto",
      "outputs": [
        {
          "internalType": "address",
          "name": "",
          "type": "address"
        }
      ],
      "payable": false,
      "stateMutability": "nonpayable",
      "type": "function"
    },
    {
      "constant": false,
      "inputs": [
        {
          "internalType": "contract PhotoNFT",
          "name": "_photoNFT",
          "type": "address"
        }
      ],
      "name": "buyPhotoNFT",
      "outputs": [
        {
          "internalType": "bool",
          "name": "",
          "type": "bool"
        }
      ],
      "payable": true,
      "stateMutability": "payable",
      "type": "function"
    },
    {
      "constant": false,
      "inputs": [
        {
          "internalType": "contract PhotoNFT",
          "name": "_photoNFT",
          "type": "address"
        }
      ],
      "name": "transfertPhotoNFT",
      "outputs": [
        {
          "internalType": "bool",
          "name": "",
          "type": "bool"
        }
      ],
      "payable": true,
      "stateMutability": "payable",
      "type": "function"
    },
    {
      "constant": false,
      "inputs": [
        {
          "internalType": "address",
          "name": "seller",
          "type": "address"
        },
        {
          "internalType": "address",
          "name": "buyer",
          "type": "address"
        },
        {
          "internalType": "address",
          "name": "_photoNFT",
          "type": "address"
        }
      ],
      "name": "transfertFromPhotoNFT",
      "outputs": [
        {
          "internalType": "bool",
          "name": "",
          "type": "bool"
        }
      ],
      "payable": true,
      "stateMutability": "payable",
      "type": "function"
    },
    {
      "constant": false,
      "inputs": [
        {
          "internalType": "address",
          "name": "from",
          "type": "address"
        },
        {
          "internalType": "address",
          "name": "to",
          "type": "address"
        },
        {
          "internalType": "uint256",
          "name": "photoId",
          "type": "uint256"
        }
      ],
      "name": "reputation",
      "outputs": [
        {
          "internalType": "uint256",
          "name": "",
          "type": "uint256"
        },
        {
          "internalType": "uint256",
          "name": "",
          "type": "uint256"
        }
      ],
      "payable": false,
      "stateMutability": "nonpayable",
      "type": "function"
    },
    {
      "constant": true,
      "inputs": [
        {
          "internalType": "uint256",
          "name": "photoId",
          "type": "uint256"
        }
      ],
      "name": "getReputationCount",
      "outputs": [
        {
          "internalType": "uint256",
          "name": "",
          "type": "uint256"
        }
      ],
      "payable": false,
      "stateMutability": "view",
      "type": "function"
    }
  ],
  "bytecode": "0x60806040523480156200001157600080fd5b5060405162001d3638038062001d3683398101604081905262000034916200007c565b600180546001600160a01b039092166001600160a01b03199283168117909155600060035560058054909216179055620000e5565b80516200007681620000cb565b92915050565b6000602082840312156200008f57600080fd5b60006200009d848462000069565b949350505050565b60006200007682620000bf565b60006200007682620000a5565b6001600160a01b031690565b620000d681620000b2565b8114620000e257600080fd5b50565b611c4180620000f56000396000f3fe6080604052600436106100e85760003560e01c80634fe71d131161008a5780639058e131116100595780639058e1311461026a578063a2793daf1461028a578063e61b28db146102b8578063ec039514146102da576100e8565b80634fe71d13146101db578063759c4bf3146101fd5780637cc0c9bd1461021d57806380a279c41461024a576100e8565b80632db25e05116100c65780632db25e0514610159578063493c21761461018657806349b1d3e7146101a85780634a8de542146101c8576100e8565b8063122ddedb146100ed57806316f946ef146101165780631e6c598e14610129575b600080fd5b6101006100fb366004611560565b6102ef565b60405161010d91906119ab565b60405180910390f35b61010061012436600461160e565b610531565b34801561013557600080fd5b506101496101443660046116ff565b6108f4565b60405161010d949392919061196d565b34801561016557600080fd5b506101796101743660046116ff565b610927565b60405161010d9190611a95565b34801561019257600080fd5b506101a66101a1366004611666565b610983565b005b3480156101b457600080fd5b506101a66101c3366004611698565b610a79565b6101006101d636600461160e565b610b89565b3480156101e757600080fd5b506101f0610ee7565b60405161010d9190611907565b34801561020957600080fd5b506101a661021836600461162c565b610ef6565b34801561022957600080fd5b5061023d6102383660046116ff565b611083565b60405161010d9190611aa3565b34801561025657600080fd5b506101a661026536600461162c565b611089565b34801561027657600080fd5b506101f061028536600461151c565b6111e3565b34801561029657600080fd5b506102aa6102a53660046115ad565b61127e565b60405161010d929190611ae5565b3480156102c457600080fd5b506102cd611289565b60405161010d91906119b9565b3480156102e657600080fd5b506102cd611298565b60405163095ea7b360e01b815260009082906001906001600160a01b0383169063095ea7b390610325908890859060040161194b565b600060405180830381600087803b15801561033f57600080fd5b505af1158015610353573d6000803e3d6000fd5b50506040516331a9108f60e11b8152600092506001600160a01b0385169150636352211e90610386908590600401611aa3565b60206040518083038186803b15801561039e57600080fd5b505afa1580156103b2573d6000803e3d6000fd5b505050506040513d601f19601f820116820180604052506103d69190810190611542565b90506103e3838388610983565b600554604051637cb1479b60e01b81526001600160a01b0390911690637cb1479b906104159086908a906004016119c7565b602060405180830381600087803b15801561042f57600080fd5b505af1158015610443573d6000803e3d6000fd5b505050506040513d601f19601f8201168201806040525061046791908101906115f0565b506040516331a9108f60e11b81526000906001600160a01b03851690636352211e90610497908690600401611aa3565b60206040518083038186803b1580156104af57600080fd5b505afa1580156104c3573d6000803e3d6000fd5b505050506040513d601f19601f820116820180604052506104e79190810190611542565b90507fa8ffd0052cf94298cdb4d728ccaebde44f94e7568e31b2129a24a8b2e10fea8c8484848460405161051e9493929190611a20565b60405180910390a1505050509392505050565b60008161053c6112d6565b600554604051637fd6c40560e01b81526001600160a01b0390911690637fd6c4059061056c9085906004016119b9565b60006040518083038186803b15801561058457600080fd5b505afa158015610598573d6000803e3d6000fd5b505050506040513d6000823e601f3d908101601f191682016040526105c091908101906116ca565b606081015160808201519192509081903481146105f85760405162461bcd60e51b81526004016105ef90611a85565b60405180910390fd5b6040516001600160a01b0383169082156108fc029083906000818181858888f1935050505015801561062e573d6000803e3d6000fd5b5060405163095ea7b360e01b815233906001906001600160a01b0388169063095ea7b390610662908590859060040161194b565b600060405180830381600087803b15801561067c57600080fd5b505af1158015610690573d6000803e3d6000fd5b50506040516331a9108f60e11b8152600092506001600160a01b038a169150636352211e906106c3908590600401611aa3565b60206040518083038186803b1580156106db57600080fd5b505afa1580156106ef573d6000803e3d6000fd5b505050506040513d601f19601f820116820180604052506107139190810190611542565b9050610720888385610983565b600554604051637cb1479b60e01b81526001600160a01b0390911690637cb1479b90610752908b9087906004016119c7565b602060405180830381600087803b15801561076c57600080fd5b505af1158015610780573d6000803e3d6000fd5b505050506040513d601f19601f820116820180604052506107a491908101906115f0565b50600554604051634dd5bfa560e11b81526001600160a01b0390911690639bab7f4a906107d5908b906004016119e2565b602060405180830381600087803b1580156107ef57600080fd5b505af1158015610803573d6000803e3d6000fd5b505050506040513d601f19601f8201168201806040525061082791908101906115f0565b506040516331a9108f60e11b81526000906001600160a01b038a1690636352211e90610857908690600401611aa3565b60206040518083038186803b15801561086f57600080fd5b505afa158015610883573d6000803e3d6000fd5b505050506040513d601f19601f820116820180604052506108a79190810190611542565b90507fa8ffd0052cf94298cdb4d728ccaebde44f94e7568e31b2129a24a8b2e10fea8c898484846040516108de9493929190611a20565b60405180910390a1505050505050505050919050565b600260208190526000918252604090912080546001820154928201546003909201546001600160a01b0390911692919084565b61092f61132d565b61093761132d565b5050600090815260026020818152604092839020835160808101855281546001600160a01b03168152600182015492810192909252918201549281019290925260030154606082015290565b8261098c61132d565b61099584610927565b905080606001516327b832b760e11b146109c15760405162461bcd60e51b81526004016105ef90611a75565b6109cc8585856112a7565b60208101516040516323b872dd60e01b81526001600160a01b038416916323b872dd91610a0091309188919060040161193d565b600060405180830381600087803b158015610a1a57600080fd5b505af1158015610a2e573d6000803e3d6000fd5b505050506810d85b98d95b1b195960ba1b610a4885610927565b60600152604051600080516020611bdf83398151915290610a6a908690611ab1565b60405180910390a15050505050565b6040516323b872dd60e01b81526001600160a01b038416906323b872dd90610aa990339030908790600401611915565b600060405180830381600087803b158015610ac357600080fd5b505af1158015610ad7573d6000803e3d6000fd5b50506003805460019081018083556040805160808101825233815260208082018a81528284018a81526327b832b760e11b60608501908152600096875260029384905295859020935184546001600160a01b0319166001600160a01b0390911617845590519583019590955593519381019390935590519183019190915590549051600080516020611bdf8339815191529350610b7c92506000199190910190611acb565b60405180910390a1505050565b600081610b946112d6565b600554604051637fd6c40560e01b81526001600160a01b0390911690637fd6c40590610bc49085906004016119b9565b60006040518083038186803b158015610bdc57600080fd5b505afa158015610bf0573d6000803e3d6000fd5b505050506040513d6000823e601f3d908101601f19168201604052610c1891908101906116ca565b606081015160405163095ea7b360e01b815291925090819033906001906001600160a01b0387169063095ea7b390610c56908590859060040161194b565b600060405180830381600087803b158015610c7057600080fd5b505af1158015610c84573d6000803e3d6000fd5b50506040516331a9108f60e11b8152600092506001600160a01b0389169150636352211e90610cb7908590600401611aa3565b60206040518083038186803b158015610ccf57600080fd5b505afa158015610ce3573d6000803e3d6000fd5b505050506040513d601f19601f82011682018060405250610d079190810190611542565b9050610d14878385610983565b600554604051637cb1479b60e01b81526001600160a01b0390911690637cb1479b90610d46908a9087906004016119c7565b602060405180830381600087803b158015610d6057600080fd5b505af1158015610d74573d6000803e3d6000fd5b505050506040513d601f19601f82011682018060405250610d9891908101906115f0565b50600554604051634dd5bfa560e11b81526001600160a01b0390911690639bab7f4a90610dc9908a906004016119e2565b602060405180830381600087803b158015610de357600080fd5b505af1158015610df7573d6000803e3d6000fd5b505050506040513d601f19601f82011682018060405250610e1b91908101906115f0565b506040516331a9108f60e11b81526000906001600160a01b03891690636352211e90610e4b908690600401611aa3565b60206040518083038186803b158015610e6357600080fd5b505afa158015610e77573d6000803e3d6000fd5b505050506040513d601f19601f82011682018060405250610e9b9190810190611542565b90507fa8ffd0052cf94298cdb4d728ccaebde44f94e7568e31b2129a24a8b2e10fea8c88848484604051610ed29493929190611a20565b60405180910390a15050505050505050919050565b6004546001600160a01b031681565b600154604051634dd5bfa560e11b81526001600160a01b0390911690639bab7f4a90610f269085906004016119e2565b602060405180830381600087803b158015610f4057600080fd5b505af1158015610f54573d6000803e3d6000fd5b505050506040513d601f19601f82011682018060405250610f7891908101906115f0565b50600081815260026020526040902080546001600160a01b03163314610fb05760405162461bcd60e51b81526004016105ef90611a55565b80600301546327b832b760e11b14610fda5760405162461bcd60e51b81526004016105ef90611a75565b805460018201546040516323b872dd60e01b81526001600160a01b03868116936323b872dd936110129330939092169160040161193d565b600060405180830381600087803b15801561102c57600080fd5b505af1158015611040573d6000803e3d6000fd5b505050600083815260026020526040908190206810d85b98d95b1b195960ba1b60039091015551600080516020611bdf8339815191529150610b7c908490611ab1565b50600090565b600154604051634dd5bfa560e11b81526001600160a01b0390911690639bab7f4a906110b9908590600401611a01565b602060405180830381600087803b1580156110d357600080fd5b505af11580156110e7573d6000803e3d6000fd5b505050506040513d601f19601f8201168201806040525061110b91908101906115f0565b50600081815260026020526040902080546001600160a01b031633146111435760405162461bcd60e51b81526004016105ef90611a65565b60018101546040516323b872dd60e01b81526001600160a01b038516916323b872dd91611177913391309190600401611915565b600060405180830381600087803b15801561119157600080fd5b505af11580156111a5573d6000803e3d6000fd5b505050600083815260026020526040908190206327b832b760e11b60039091015551600080516020611bdf8339815191529150610b7c908490611acb565b6000816111ee6112d6565b600554604051637fd6c40560e01b81526001600160a01b0390911690637fd6c4059061121e9085906004016119b9565b60006040518083038186803b15801561123657600080fd5b505afa15801561124a573d6000803e3d6000fd5b505050506040513d6000823e601f3d908101601f1916820160405261127291908101906116ca565b60600151949350505050565b600080935093915050565b6000546001600160a01b031681565b6005546001600160a01b031681565b60009182526002602052604090912080546001600160a01b0319166001600160a01b0390921691909117905550565b60405180610100016040528060006001600160a01b03168152602001606081526020016060815260200160006001600160a01b03168152602001600081526020016060815260200160608152602001600081525090565b60408051608081018252600080825260208201819052918101829052606081019190915290565b803561135f81611bac565b92915050565b805161135f81611bac565b805161135f81611bc3565b803561135f81611bcc565b805161135f81611bcc565b600082601f8301126113a257600080fd5b81516113b56113b082611b1a565b611af3565b915080825260208301602083018583830111156113d157600080fd5b6113dc838284611b80565b50505092915050565b600061010082840312156113f857600080fd5b611403610100611af3565b905060006114118484611386565b825250602082015167ffffffffffffffff81111561142e57600080fd5b61143a84828501611391565b602083015250604082015167ffffffffffffffff81111561145a57600080fd5b61146684828501611391565b604083015250606061147a84828501611365565b606083015250608061148e84828501611511565b60808301525060a082015167ffffffffffffffff8111156114ae57600080fd5b6114ba84828501611391565b60a08301525060c082015167ffffffffffffffff8111156114da57600080fd5b6114e684828501611391565b60c08301525060e06114fa84828501611511565b60e08301525092915050565b803561135f81611bd5565b805161135f81611bd5565b60006020828403121561152e57600080fd5b600061153a8484611354565b949350505050565b60006020828403121561155457600080fd5b600061153a8484611365565b60008060006060848603121561157557600080fd5b60006115818686611354565b935050602061159286828701611354565b92505060406115a386828701611354565b9150509250925092565b6000806000606084860312156115c257600080fd5b60006115ce8686611354565b93505060206115df86828701611354565b92505060406115a386828701611506565b60006020828403121561160257600080fd5b600061153a8484611370565b60006020828403121561162057600080fd5b600061153a848461137b565b6000806040838503121561163f57600080fd5b600061164b858561137b565b925050602061165c85828601611506565b9150509250929050565b60008060006060848603121561167b57600080fd5b6000611687868661137b565b935050602061159286828701611506565b6000806000606084860312156116ad57600080fd5b60006116b9868661137b565b93505060206115df86828701611506565b6000602082840312156116dc57600080fd5b815167ffffffffffffffff8111156116f357600080fd5b61153a848285016113e5565b60006020828403121561171157600080fd5b600061153a8484611506565b61172681611b75565b82525050565b61172681611b4b565b61172681611b56565b61172681611b5b565b61172681611b5e565b600061175d602683611b42565b7f54726164652063616e2062652063616e63656c6c6564206f6e6c79206279207381526532b63632b91760d11b602082015260400192915050565b60006117a5602183611b42565b7f54726164652063616e206265206f70656e206f6e6c792062792073656c6c65728152601760f91b602082015260400192915050565b60006117e8601283611b42565b712a3930b2329034b9903737ba1027b832b71760711b815260200192915050565b6810d85b98d95b1b195960ba1b9052565b6000611827600983611b42565b6810d85b98d95b1b195960ba1b815260200192915050565b6327b832b760e11b9052565b6000611858600483611b42565b6327b832b760e11b815260200192915050565b6000611878602a83611b42565b7f6d73672e76616c75652073686f756c6420626520657175616c20746f2074686581526908189d5e505b5bdd5b9d60b21b602082015260400192915050565b805160808301906118c8848261172c565b5060208201516118db602085018261173e565b5060408201516118ee604085018261173e565b506060820151611901606085018261173e565b50505050565b6020810161135f828461172c565b60608101611923828661171d565b611930602083018561172c565b61153a604083018461173e565b60608101611923828661172c565b60408101611959828561172c565b611966602083018461173e565b9392505050565b6080810161197b828761172c565b611988602083018661173e565b611995604083018561173e565b6119a2606083018461173e565b95945050505050565b6020810161135f8284611735565b6020810161135f8284611747565b604081016119d58285611747565b611966602083018461172c565b604081016119f08284611747565b81810360208301526119668161181a565b60408101611a0f8284611747565b81810360208301526119668161184b565b60808101611a2e8287611747565b611a3b602083018661173e565b611a48604083018561172c565b6119a2606083018461172c565b6020808252810161135f81611750565b6020808252810161135f81611798565b6020808252810161135f816117db565b6020808252810161135f8161186b565b6080810161135f82846118b7565b6020810161135f828461173e565b60408101611abf828461173e565b61135f60208301611809565b60408101611ad9828461173e565b61135f6020830161183f565b60408101611959828561173e565b60405181810167ffffffffffffffff81118282101715611b1257600080fd5b604052919050565b600067ffffffffffffffff821115611b3157600080fd5b506020601f91909101601f19160190565b90815260200190565b600061135f82611b69565b151590565b90565b600061135f82611b4b565b6001600160a01b031690565b600061135f82611b5e565b60005b83811015611b9b578181015183820152602001611b83565b838111156119015750506000910152565b611bb581611b4b565b8114611bc057600080fd5b50565b611bb581611b56565b611bb581611b5e565b611bb581611b5b56fe4d38ed2c5ea671a5ccddc331f0ebebd94a60aaf6e572543497485d4d148f9edfa365627a7a7231582085c9147b127be4605da6ab1f4bb9fb590c170c2f59a0c98a594e32c4850d550c6c6578706572696d656e74616cf564736f6c63430005100040",
  "source": "pragma solidity ^0.5.16;\npragma experimental ABIEncoderV2;\n\n//import { ERC20 } from './openzeppelin-solidity/contracts/token/ERC20/ERC20.sol';\nimport { SafeMath } from \"./openzeppelin-solidity/contracts/math/SafeMath.sol\";\nimport { PhotoNFT } from \"./PhotoNFT.sol\";\nimport { PhotoNFTTradable } from \"./PhotoNFTTradable.sol\";\nimport { PhotoNFTMarketplaceEvents } from \"./photo-nft-marketplace/commons/PhotoNFTMarketplaceEvents.sol\";\nimport { PhotoNFTData } from \"./PhotoNFTData.sol\";\n\n\n\n\ncontract PhotoNFTMarketplace is PhotoNFTTradable, PhotoNFTMarketplaceEvents {\n    using SafeMath for uint256;\n\n    address public PHOTO_NFT_MARKETPLACE;\n\n    PhotoNFTData public photoNFTData;\n\n    constructor(PhotoNFTData _photoNFTData) public PhotoNFTTradable(_photoNFTData) {\n        photoNFTData = _photoNFTData;\n        address payable PHOTO_NFT_MARKETPLACE = address(uint160(address(this)));\n    }\n\n    /** \n     * @notice - Buy function is that buy NFT token and ownership transfer. (Reference from IERC721.sol)\n     * @notice - msg.sender buy NFT with ETH (msg.value)\n     * @notice - PhotoID is always 1. Because each photoNFT is unique.\n     */\n\n     /***ownerPhoto */\n\n\n     function ownerPhoto (address _photoNFT) public returns  (address){\n        PhotoNFT photoNFT = PhotoNFT(_photoNFT);\n        PhotoNFTData.Photo memory photo = photoNFTData.getPhotoByNFTAddress(photoNFT);\n        address _seller = photo.ownerAddress;\n        return _seller;\n     }\n\n\n    function buyPhotoNFT(PhotoNFT _photoNFT) public payable returns (bool) {\n        PhotoNFT photoNFT = _photoNFT;\n\n        PhotoNFTData.Photo memory photo = photoNFTData.getPhotoByNFTAddress(photoNFT);\n        address _seller = photo.ownerAddress;                     /// Owner\n        address payable seller = address(uint160(_seller));  /// Convert owner address with payable\n        uint buyAmount = photo.photoPrice;\n        require (msg.value == buyAmount, \"msg.value should be equal to the buyAmount\");\n \n        /// Bought-amount is transferred into a seller wallet\n        seller.transfer(buyAmount);\n\n        /// Approve a buyer address as a receiver before NFT's transferFrom method is executed\n        address buyer = msg.sender;\n        uint photoId = 1;  /// [Note]: PhotoID is always 1. Because each photoNFT is unique.\n        photoNFT.approve(buyer, photoId);\n\n        address ownerBeforeOwnershipTransferred = photoNFT.ownerOf(photoId);\n\n        /// Transfer Ownership of the PhotoNFT from a seller to a buyer\n        transferOwnershipOfPhotoNFT(photoNFT, photoId, buyer);    \n        photoNFTData.updateOwnerOfPhotoNFT(photoNFT, buyer);\n        photoNFTData.updateStatus(photoNFT, \"Cancelled\");\n\n        /// Event for checking result of transferring ownership of a photoNFT\n        address ownerAfterOwnershipTransferred = photoNFT.ownerOf(photoId);\n        emit PhotoNFTOwnershipChanged(photoNFT, photoId, ownerBeforeOwnershipTransferred, ownerAfterOwnershipTransferred);\n\n        /// Mint a photo with a new photoId\n        //string memory tokenURI = photoNFTFactory.getTokenURI(photoData.ipfsHashOfPhoto);  /// [Note]: IPFS hash + URL\n        //photoNFT.mint(msg.sender, tokenURI);\n    }\n\n\n\n//transfert photo\nfunction transfertPhotoNFT(PhotoNFT _photoNFT) public payable returns (bool) {\n        PhotoNFT photoNFT = _photoNFT;\n\n        PhotoNFTData.Photo memory photo = photoNFTData.getPhotoByNFTAddress(photoNFT);\n        address _seller = photo.ownerAddress;                     /// Owner\n        address payable seller = address(uint160(_seller));  /// Convert owner address with payable\n        \n     \n \n        \n\n        /// Approve a buyer address as a receiver before NFT's transferFrom method is executed\n        address buyer = msg.sender;\n        uint photoId = 1;  /// [Note]: PhotoID is always 1. Because each photoNFT is unique.\n        photoNFT.approve(buyer, photoId);\n\n        address ownerBeforeOwnershipTransferred = photoNFT.ownerOf(photoId);\n\n        /// Transfer Ownership of the PhotoNFT from a seller to a buyer\n        transferOwnershipOfPhotoNFT(photoNFT, photoId, buyer);    \n        photoNFTData.updateOwnerOfPhotoNFT(photoNFT, buyer);\n        photoNFTData.updateStatus(photoNFT, \"Cancelled\");\n\n        /// Event for checking result of transferring ownership of a photoNFT\n        address ownerAfterOwnershipTransferred = photoNFT.ownerOf(photoId);\n        emit PhotoNFTOwnershipChanged(photoNFT, photoId, ownerBeforeOwnershipTransferred, ownerAfterOwnershipTransferred);\n\n        /// Mint a photo with a new photoId\n        //string memory tokenURI = photoNFTFactory.getTokenURI(photoData.ipfsHashOfPhoto);  /// [Note]: IPFS hash + URL\n        //photoNFT.mint(msg.sender, tokenURI);\n    }\n\n\n    function transfertFromPhotoNFT(address seller , address buyer ,address _photoNFT) public payable returns (bool) {\n         PhotoNFT photoNFT = PhotoNFT(_photoNFT);\n        \n\n        uint photoId = 1;  /// [Note]: PhotoID is always 1. Because each photoNFT is unique.\n        photoNFT.approve(buyer, photoId);\n\n        address ownerBeforeOwnershipTransferred = photoNFT.ownerOf(photoId);\n\n        /// Transfer Ownership of the PhotoNFT from a seller to a buyer\n        transferOwnershipOfPhotoNFT(photoNFT, photoId, buyer);    \n        photoNFTData.updateOwnerOfPhotoNFT(photoNFT, buyer);\n        // photoNFTData.updateStatus(photoNFT, \"Cancelled\");\n\n        /// Event for checking result of transferring ownership of a photoNFT\n        address ownerAfterOwnershipTransferred = photoNFT.ownerOf(photoId);\n        emit PhotoNFTOwnershipChanged(photoNFT, photoId, ownerBeforeOwnershipTransferred, ownerAfterOwnershipTransferred);\n\n        /// Mint a photo with a new photoId\n        //string memory tokenURI = photoNFTFactory.getTokenURI(photoData.ipfsHashOfPhoto);  /// [Note]: IPFS hash + URL\n        //photoNFT.mint(msg.sender, tokenURI);\n    }\n\n    ///-----------------------------------------------------\n    /// Methods below are pending methods\n    ///-----------------------------------------------------\n\n    /** \n     * @dev reputation function is that gives reputation to a user who has ownership of being posted photo.\n     * @dev Each user has reputation data in struct\n     */\n    function reputation(address from, address to, uint256 photoId) public returns (uint256, uint256) {\n\n        // Photo storage photo = photos[photoId];\n        // photo.reputation = photo.reputation.add(1);\n\n        // emit AddReputation(photoId, photo.reputation);\n\n        // return (photoId, photo.reputation);\n        return (0, 0);\n    }\n    \n\n    function getReputationCount(uint256 photoId) public view returns (uint256) {\n        uint256 curretReputationCount;\n\n        // Photo memory photo = photos[photoId];\n        // curretReputationCount = photo.reputation;\n\n        return curretReputationCount;\n    }    \n\n}\n",
  "sourcePath": "/home/amal/zbriggithub/NFT-based-photo-marketplace/oldversion/contracts/PhotoNFTMarketplace.sol",
  "compiler": {
    "name": "solc",
    "version": "0.5.16+commit.9c3226ce.Emscripten.clang"
  },
  "schemaVersion": "3.4.1",
  "updatedAt": "2021-06-18T10:09:22.493Z",
  "networkType": "ethereum",
  "devdoc": {
    "methods": {
      "cancelTrade(address,uint256)": {
        "details": "Cancels a trade by the seller."
      },
      "getTrade(uint256)": {
        "details": "- Returns the details for a trade."
      },
      "openTrade(address,uint256)": {
        "details": "Opens a trade by the seller."
      },
      "openTradeWhenCreateNewPhotoNFT(address,uint256,uint256)": {
        "details": "Opens a new trade. Puts _photoId in escrow.",
        "params": {
          "_photoId": "The id for the photoId to trade.",
          "_photoPrice": "The amount of currency for which to trade the photoId."
        }
      },
      "reputation(address,address,uint256)": {
        "details": "reputation function is that gives reputation to a user who has ownership of being posted photo.Each user has reputation data in struct"
      },
      "transferOwnershipOfPhotoNFT(address,uint256,address)": {
        "details": "Executes a trade. Must have approved this contract to transfer the amount of currency specified to the seller. Transfers ownership of the photoId to the filler."
      }
    }
  },
  "userdoc": {
    "methods": {
      "openTradeWhenCreateNewPhotoNFT(address,uint256,uint256)": {
        "notice": "- This method is only executed when a seller create a new PhotoNFT"
      },
      "ownerPhoto(address)": {
        "notice": "*ownerPhoto "
      }
    }
  }
}