{
  "contractName": "PhotoNFTFactory",
  "abi": [
    {
      "inputs": [
        {
          "internalType": "contract PhotoNFTMarketplace",
          "name": "_photoNFTMarketplace",
          "type": "address"
        },
        {
          "internalType": "contract PhotoNFTData",
          "name": "_photoNFTData",
          "type": "address"
        }
      ],
      "payable": false,
      "stateMutability": "nonpayable",
      "type": "constructor"
    },
    {
      "anonymous": false,
      "inputs": [
        {
          "indexed": false,
          "internalType": "uint256",
          "name": "tokenId",
          "type": "uint256"
        },
        {
          "indexed": false,
          "internalType": "uint256",
          "name": "reputationCount",
          "type": "uint256"
        }
      ],
      "name": "AddReputation",
      "type": "event"
    },
    {
      "anonymous": false,
      "inputs": [
        {
          "indexed": false,
          "internalType": "address",
          "name": "owner",
          "type": "address"
        },
        {
          "indexed": false,
          "internalType": "contract PhotoNFT",
          "name": "photoNFT",
          "type": "address"
        },
        {
          "indexed": false,
          "internalType": "string",
          "name": "nftName",
          "type": "string"
        },
        {
          "indexed": false,
          "internalType": "string",
          "name": "nftSymbol",
          "type": "string"
        },
        {
          "indexed": false,
          "internalType": "uint256",
          "name": "photoPrice",
          "type": "uint256"
        },
        {
          "indexed": false,
          "internalType": "string",
          "name": "ipfsHashOfPhoto",
          "type": "string"
        },
        {
          "indexed": false,
          "internalType": "string",
          "name": "addresEmail",
          "type": "string"
        },
        {
          "indexed": false,
          "internalType": "uint256",
          "name": "redevance",
          "type": "uint256"
        },
        {
          "indexed": false,
          "internalType": "address",
          "name": "seller",
          "type": "address"
        },
        {
          "indexed": false,
          "internalType": "string",
          "name": "statusPhoto",
          "type": "string"
        }
      ],
      "name": "PhotoNFTCreated",
      "type": "event"
    },
    {
      "anonymous": false,
      "inputs": [
        {
          "indexed": false,
          "internalType": "contract PhotoNFT",
          "name": "photoNFT",
          "type": "address"
        },
        {
          "indexed": false,
          "internalType": "string",
          "name": "status",
          "type": "string"
        }
      ],
      "name": "withdrawNFT",
      "type": "event"
    },
    {
      "constant": true,
      "inputs": [
        {
          "internalType": "uint256",
          "name": "",
          "type": "uint256"
        }
      ],
      "name": "photoAddresses",
      "outputs": [
        {
          "internalType": "address",
          "name": "",
          "type": "address"
        }
      ],
      "payable": false,
      "stateMutability": "view",
      "type": "function"
    },
    {
      "constant": true,
      "inputs": [],
      "name": "photoNFTData",
      "outputs": [
        {
          "internalType": "contract PhotoNFTData",
          "name": "",
          "type": "address"
        }
      ],
      "payable": false,
      "stateMutability": "view",
      "type": "function"
    },
    {
      "constant": true,
      "inputs": [],
      "name": "photoNFTMarketplace",
      "outputs": [
        {
          "internalType": "contract PhotoNFTMarketplace",
          "name": "",
          "type": "address"
        }
      ],
      "payable": false,
      "stateMutability": "view",
      "type": "function"
    },
    {
      "constant": false,
      "inputs": [
        {
          "internalType": "string",
          "name": "nftName",
          "type": "string"
        },
        {
          "internalType": "string",
          "name": "nftSymbol",
          "type": "string"
        },
        {
          "internalType": "uint256",
          "name": "photoPrice",
          "type": "uint256"
        },
        {
          "internalType": "string",
          "name": "ipfsHashOfPhoto",
          "type": "string"
        },
        {
          "internalType": "string",
          "name": "addresEmail",
          "type": "string"
        },
        {
          "internalType": "uint256",
          "name": "redevance",
          "type": "uint256"
        }
      ],
      "name": "createNewPhotoNFT",
      "outputs": [
        {
          "internalType": "bool",
          "name": "",
          "type": "bool"
        }
      ],
      "payable": false,
      "stateMutability": "nonpayable",
      "type": "function"
    },
    {
      "constant": false,
      "inputs": [
        {
          "internalType": "contract PhotoNFT",
          "name": "photoNFT",
          "type": "address"
        }
      ],
      "name": "withdraw",
      "outputs": [],
      "payable": false,
      "stateMutability": "nonpayable",
      "type": "function"
    },
    {
      "constant": true,
      "inputs": [],
      "name": "baseTokenURI",
      "outputs": [
        {
          "internalType": "string",
          "name": "",
          "type": "string"
        }
      ],
      "payable": false,
      "stateMutability": "pure",
      "type": "function"
    },
    {
      "constant": true,
      "inputs": [
        {
          "internalType": "string",
          "name": "_ipfsHashOfPhoto",
          "type": "string"
        }
      ],
      "name": "getTokenURI",
      "outputs": [
        {
          "internalType": "string",
          "name": "",
          "type": "string"
        }
      ],
      "payable": false,
      "stateMutability": "view",
      "type": "function"
    }
  ],
  "bytecode": "0x60806040523480156200001157600080fd5b50604051620029be380380620029be83398101604081905262000034916200008a565b600280546001600160a01b03199081166001600160a01b039485161791829055600380548216938516939093179092556001805491909316911617905562000109565b80516200008481620000ef565b92915050565b600080604083850312156200009e57600080fd5b6000620000ac858562000077565b9250506020620000bf8582860162000077565b9150509250929050565b60006200008482620000e3565b60006200008482620000c9565b6001600160a01b031690565b620000fa81620000d6565b81146200010657600080fd5b50565b6128a580620001196000396000f3fe60806040523480156200001157600080fd5b5060043610620000885760003560e01c8063d3e1f6e31162000063578063d3e1f6e314620000ee578063d547cfb71462000114578063dc0985c3146200011e578063ec03951414620001445762000088565b80633a52232e146200008d57806351cff8d914620000bc578063c4188f1114620000d5575b600080fd5b620000a46200009e3660046200091f565b6200014e565b604051620000b3919062000d8a565b60405180910390f35b620000d3620000cd366004620008c5565b62000429565b005b620000df6200050b565b604051620000b3919062000d9a565b62000105620000ff366004620008e6565b6200051a565b604051620000b3919062000df1565b6200010562000537565b620001356200012f36600462000a16565b62000566565b604051620000b3919062000b5a565b620000df6200058e565b6000338060606200015f876200051a565b90506000838b8b848c8b8b8960405162000179906200080b565b6200018c98979695949392919062000c35565b604051809103906000f080158015620001a9573d6000803e3d6000fd5b50905060008190806001815401808255809150509060018203906000526020600020016000909192909190916101000a8154816001600160a01b0302191690836001600160a01b0316021790555050600360009054906101000a90046001600160a01b03166001600160a01b031663e75fd5976000838d338e8e8e8e8c6040518a63ffffffff1660e01b81526004016200024c9998979695949392919062000cd8565b602060405180830381600087803b1580156200026757600080fd5b505af11580156200027c573d6000803e3d6000fd5b505050506040513d601f19601f82011682018060405250620002a291908101906200089c565b50600354604051634dd5bfa560e11b81526001600160a01b0390911690639bab7f4a90620002d590849060040162000dce565b602060405180830381600087803b158015620002f057600080fd5b505af115801562000305573d6000803e3d6000fd5b505050506040513d601f19601f820116820180604052506200032b91908101906200089c565b506040805180820182526004808252631b5a5b9d60e21b6020830152600354925163226e435760e01b815291926001600160a01b03169163226e4357916200037891869186910162000daa565b602060405180830381600087803b1580156200039357600080fd5b505af1158015620003a8573d6000803e3d6000fd5b505050506040513d601f19601f82011682018060405250620003ce91908101906200089c565b507f381ba97f157c06c594fb37764ca26b2ba31d8484ddfabb261d8b308de130849633838e8e8e8e8e8e8c8a604051620004129a9998979695949392919062000b6a565b60405180910390a150505050509695505050505050565b604080518082018252600480825263313ab93760e11b6020830152600354925163226e435760e01b815291926001600160a01b03169163226e4357916200047591869186910162000daa565b602060405180830381600087803b1580156200049057600080fd5b505af1158015620004a5573d6000803e3d6000fd5b505050506040513d601f19601f82011682018060405250620004cb91908101906200089c565b507fe2638ec75d8f71d43b93e774f17a0a8f0721b9752a638502c7d3a9985c7926218282604051620004ff92919062000daa565b60405180910390a15050565b6002546001600160a01b031681565b6060620005316200052a62000537565b836200059d565b92915050565b60408051808201909152601581527468747470733a2f2f697066732e696f2f697066732f60581b602082015290565b600081815481106200057457fe5b6000918252602090912001546001600160a01b0316905081565b6003546001600160a01b031681565b6060620005db8383604051806020016040528060008152506040518060200160405280600081525060405180602001604052806000815250620005e2565b9392505050565b6060808690506060869050606086905060608690506060869050606081518351855187518951010101016040519080825280601f01601f19166020018201604052801562000637576020820181803883390190505b509050806000805b885181101562000694578881815181106200065657fe5b602001015160f81c60f81b8383806001019450815181106200067457fe5b60200101906001600160f81b031916908160001a9053506001016200063f565b5060005b8751811015620006ed57878181518110620006af57fe5b602001015160f81c60f81b838380600101945081518110620006cd57fe5b60200101906001600160f81b031916908160001a90535060010162000698565b5060005b865181101562000746578681815181106200070857fe5b602001015160f81c60f81b8383806001019450815181106200072657fe5b60200101906001600160f81b031916908160001a905350600101620006f1565b5060005b85518110156200079f578581815181106200076157fe5b602001015160f81c60f81b8383806001019450815181106200077f57fe5b60200101906001600160f81b031916908160001a9053506001016200074a565b5060005b8451811015620007f857848181518110620007ba57fe5b602001015160f81c60f81b838380600101945081518110620007d857fe5b60200101906001600160f81b031916908160001a905350600101620007a3565b50909d9c50505050505050505050505050565b6119118062000f5283390190565b8051620005318162000f21565b8035620005318162000f3b565b600082601f8301126200084557600080fd5b81356200085c620008568262000e2c565b62000e04565b915080825260208301602083018583830111156200087957600080fd5b6200088683828462000eb3565b50505092915050565b8035620005318162000f46565b600060208284031215620008af57600080fd5b6000620008bd848462000819565b949350505050565b600060208284031215620008d857600080fd5b6000620008bd848462000826565b600060208284031215620008f957600080fd5b813567ffffffffffffffff8111156200091157600080fd5b620008bd8482850162000833565b60008060008060008060c087890312156200093957600080fd5b863567ffffffffffffffff8111156200095157600080fd5b6200095f89828a0162000833565b965050602087013567ffffffffffffffff8111156200097d57600080fd5b6200098b89828a0162000833565b95505060406200099e89828a016200088f565b945050606087013567ffffffffffffffff811115620009bc57600080fd5b620009ca89828a0162000833565b935050608087013567ffffffffffffffff811115620009e857600080fd5b620009f689828a0162000833565b92505060a062000a0989828a016200088f565b9150509295509295509295565b60006020828403121562000a2957600080fd5b6000620008bd84846200088f565b600062000a45838362000a5e565b505060200190565b62000a588162000ea6565b82525050565b62000a588162000e84565b600062000a768262000e61565b62000a82818562000e6f565b935062000a8f8362000e55565b8060005b8381101562000acc5762000aa78262000f09565b62000ab3888262000a37565b975062000ac08362000e69565b92505060010162000a93565b509495945050505050565b62000a588162000e91565b62000a588162000e96565b600062000afa8262000e65565b62000b06818562000e6f565b935062000b1881856020860162000ebf565b62000b238162000f17565b9093019392505050565b600062000b3c60048362000e6f565b6327b832b760e11b815260200192915050565b62000a588162000ea3565b6020810162000531828462000a5e565b610140810162000b7b828d62000a4d565b62000b8a602083018c62000ae2565b818103604083015262000b9e818b62000aed565b9050818103606083015262000bb4818a62000aed565b905062000bc5608083018962000b4f565b81810360a083015262000bd9818862000aed565b905081810360c083015262000bef818762000aed565b905062000c0060e083018662000b4f565b62000c1061010083018562000a5e565b81810361012083015262000c25818462000aed565b9c9b505050505050505050505050565b610100810162000c46828b62000a5e565b818103602083015262000c5a818a62000aed565b9050818103604083015262000c70818962000aed565b9050818103606083015262000c86818862000aed565b905062000c97608083018762000b4f565b81810360a083015262000cab818662000aed565b905062000cbc60c083018562000b4f565b62000ccb60e083018462000a5e565b9998505050505050505050565b610120808252810162000cec818c62000a69565b905062000cfd602083018b62000ae2565b818103604083015262000d11818a62000aed565b905062000d22606083018962000a4d565b62000d31608083018862000b4f565b81810360a083015262000d45818762000aed565b905081810360c083015262000d5b818662000aed565b905062000d6c60e083018562000b4f565b62000d7c61010083018462000a5e565b9a9950505050505050505050565b6020810162000531828462000ad7565b6020810162000531828462000ae2565b6040810162000dba828562000ae2565b8181036020830152620008bd818462000aed565b6040810162000dde828462000ae2565b8181036020830152620005db8162000b2d565b60208082528101620005db818462000aed565b60405181810167ffffffffffffffff8111828210171562000e2457600080fd5b604052919050565b600067ffffffffffffffff82111562000e4457600080fd5b506020601f91909101601f19160190565b60009081526020902090565b5490565b5190565b60010190565b90815260200190565b6001600160a01b031690565b6000620005318262000e78565b151590565b6000620005318262000e84565b90565b6000620005318262000e96565b82818337506000910152565b60005b8381101562000edc57818101518382015260200162000ec2565b8381111562000eec576000848401525b50505050565b60006200053162000f038362000ea3565b62000e78565b600062000531825462000ef2565b601f01601f191690565b62000f2c8162000e91565b811462000f3857600080fd5b50565b62000f2c8162000e96565b62000f2c8162000ea356fe60806040523480156200001157600080fd5b5060405162001911380380620019118339810160408190526200003491620004d0565b86868181620000536301ffc9a760e01b6001600160e01b03620000f516565b6200006e6380ac58cd60e01b6001600160e01b03620000f516565b6200008963780e9d6360e01b6001600160e01b03620000f516565b81516200009e906009906020850190620003b8565b508051620000b490600a906020840190620003b8565b50620000d0635b5e139f60e01b6001600160e01b03620000f516565b50505050620000e688866200013260201b60201c565b505050505050505050620006aa565b6001600160e01b031980821614156200010d57600080fd5b6001600160e01b0319166000908152602081905260409020805460ff19166001179055565b600080620001486001600160e01b036200018416565b600c8054600101905590506200016884826001600160e01b03620001a916565b6200017d81846001600160e01b03620001ed16565b5092915050565b6000620001a36001600c546200023160201b62000b681790919060201c565b90505b90565b620001c082826200024d60201b62000b811760201c565b620001d582826001600160e01b036200031916565b620001e9816001600160e01b036200035716565b5050565b62000201826001600160e01b036200039b16565b6200020b57600080fd5b6000828152600b6020908152604090912082516200022c92840190620003b8565b505050565b6000828201838110156200024457600080fd5b90505b92915050565b6001600160a01b0382166200026157600080fd5b62000275816001600160e01b036200039b16565b156200028057600080fd5b600081815260016020818152604080842080546001600160a01b0319166001600160a01b03881690811790915584526003825290922054620002ce9290919062000231811b62000b6817901c565b6001600160a01b0383166000818152600360205260408082209390935591518392907fddf252ad1be2c89b69c2b068fc378daa952ba7f163c4a11628f55a4df523b3ef908290a45050565b6001600160a01b0390911660009081526005602081815260408084208054868652600684529185208290559282526001810183559183529091200155565b600780546000838152600860205260408120829055600182018355919091527fa66cc928b5edb82af9bd49922954155ab7b0942694bea4ce44661d9a8736c6880155565b6000908152600160205260409020546001600160a01b0316151590565b828054600181600116156101000203166002900490600052602060002090601f016020900481019282601f10620003fb57805160ff19168380011785556200042b565b828001600101855582156200042b579182015b828111156200042b5782518255916020019190600101906200040e565b50620004399291506200043d565b5090565b620001a691905b8082111562000439576000815560010162000444565b8051620002478162000685565b600082601f8301126200047957600080fd5b8151620004906200048a8262000618565b620005f1565b91508082526020830160208301858383011115620004ad57600080fd5b620004ba83828462000652565b50505092915050565b805162000247816200069f565b600080600080600080600080610100898b031215620004ee57600080fd5b6000620004fc8b8b6200045a565b98505060208901516001600160401b038111156200051957600080fd5b620005278b828c0162000467565b97505060408901516001600160401b038111156200054457600080fd5b620005528b828c0162000467565b96505060608901516001600160401b038111156200056f57600080fd5b6200057d8b828c0162000467565b9550506080620005908b828c01620004c3565b94505060a08901516001600160401b03811115620005ad57600080fd5b620005bb8b828c0162000467565b93505060c0620005ce8b828c01620004c3565b92505060e0620005e18b828c016200045a565b9150509295985092959890939650565b6040518181016001600160401b03811182821017156200061057600080fd5b604052919050565b60006001600160401b038211156200062f57600080fd5b506020601f91909101601f19160190565b60006001600160a01b03821662000247565b60005b838110156200066f57818101518382015260200162000655565b838111156200067f576000848401525b50505050565b620006908162000640565b81146200069c57600080fd5b50565b6200069081620001a6565b61125780620006ba6000396000f3fe608060405234801561001057600080fd5b50600436106101165760003560e01c80636352211e116100a2578063b4a5b64611610071578063b4a5b64614610230578063b88d4fde14610238578063c87b56dd1461024b578063d0def5211461025e578063e985e9c51461027157610116565b80636352211e146101ef57806370a082311461020257806395d89b4114610215578063a22cb4651461021d57610116565b806318160ddd116100e957806318160ddd1461018e57806323b872dd146101a35780632f745c59146101b657806342842e0e146101c95780634f6ccce7146101dc57610116565b806301ffc9a71461011b57806306fdde0314610144578063081812fc14610159578063095ea7b314610179575b600080fd5b61012e610129366004610fd2565b610284565b60405161013b91906110e0565b60405180910390f35b61014c6102a3565b60405161013b91906110ee565b61016c61016736600461100e565b61033a565b60405161013b919061108e565b61018c610187366004610fa2565b61036a565b005b610196610417565b60405161013b91906110ff565b61018c6101b1366004610e64565b61041d565b6101966101c4366004610fa2565b610440565b61018c6101d7366004610e64565b61048e565b6101966101ea36600461100e565b6104a9565b61016c6101fd36600461100e565b6104dd565b610196610210366004610e0c565b6104ff565b61014c610530565b61018c61022b366004610f2a565b610591565b610196610616565b61018c610246366004610eb1565b61061c565b61014c61025936600461100e565b610642565b61012e61026c366004610f5a565b6106f5565b61012e61027f366004610e2a565b610726565b6001600160e01b03191660009081526020819052604090205460ff1690565b60098054604080516020601f600260001961010060018816150201909516949094049384018190048102820181019092528281526060939092909183018282801561032f5780601f106103045761010080835404028352916020019161032f565b820191906000526020600020905b81548152906001019060200180831161031257829003601f168201915b505050505090505b90565b600061034582610754565b61034e57600080fd5b506000908152600260205260409020546001600160a01b031690565b6000610375826104dd565b9050806001600160a01b0316836001600160a01b0316141561039657600080fd5b336001600160a01b03821614806103b257506103b28133610726565b6103bb57600080fd5b60008281526002602052604080822080546001600160a01b0319166001600160a01b0387811691821790925591518593918516917f8c5be1e5ebec7d5bd14f71427d1e84f3dd0314c0f7b2291e5b200ac8c7c3b92591a4505050565b60075490565b6104273382610771565b61043057600080fd5b61043b8383836107d0565b505050565b600061044b836104ff565b821061045657600080fd5b6001600160a01b038316600090815260056020526040902080548390811061047a57fe5b906000526020600020015490505b92915050565b61043b8383836040518060200160405280600081525061061c565b60006104b3610417565b82106104be57600080fd5b600782815481106104cb57fe5b90600052602060002001549050919050565b6000818152600160205260408120546001600160a01b03168061048857600080fd5b60006001600160a01b03821661051457600080fd5b506001600160a01b031660009081526003602052604090205490565b600a8054604080516020601f600260001961010060018816150201909516949094049384018190048102820181019092528281526060939092909183018282801561032f5780601f106103045761010080835404028352916020019161032f565b6001600160a01b0382163314156105a757600080fd5b3360008181526004602090815260408083206001600160a01b038716808552925291829020805460ff191685151517905590519091907f17307eab39ab6107e8899845ad3d59bd9653f200f220920489ca2b5937696c319061060a9085906110e0565b60405180910390a35050565b600c5481565b61062784848461041d565b610633848484846107ef565b61063c57600080fd5b50505050565b606061064d82610754565b61065657600080fd5b6000828152600b602090815260409182902080548351601f6002600019610100600186161502019093169290920491820184900484028101840190945280845290918301828280156106e95780601f106106be576101008083540402835291602001916106e9565b820191906000526020600020905b8154815290600101906020018083116106cc57829003601f168201915b50505050509050919050565b6000806107006108b4565b600c80546001019055905061071584826108d0565b61071f81846108f1565b5092915050565b6001600160a01b03918216600090815260046020908152604080832093909416825291909152205460ff1690565b6000908152600160205260409020546001600160a01b0316151590565b60008061077d836104dd565b9050806001600160a01b0316846001600160a01b031614806107b85750836001600160a01b03166107ad8461033a565b6001600160a01b0316145b806107c857506107c88185610726565b949350505050565b6107db838383610922565b6107e58382610a2f565b61043b8282610b24565b6000610803846001600160a01b0316610b62565b61080f575060016107c8565b604051630a85bd0160e11b81526000906001600160a01b0386169063150b7a02906108449033908a908990899060040161109c565b602060405180830381600087803b15801561085e57600080fd5b505af1158015610872573d6000803e3d6000fd5b505050506040513d601f19601f820116820180604052506108969190810190610ff0565b6001600160e01b031916630a85bd0160e11b14915050949350505050565b600c546000906108cb90600163ffffffff610b6816565b905090565b6108da8282610b81565b6108e48282610b24565b6108ed81610c33565b5050565b6108fa82610754565b61090357600080fd5b6000828152600b60209081526040909120825161043b92840190610cc9565b826001600160a01b0316610935826104dd565b6001600160a01b03161461094857600080fd5b6001600160a01b03821661095b57600080fd5b61096481610c77565b6001600160a01b03831660009081526003602052604090205461098e90600163ffffffff610cb416565b6001600160a01b0380851660009081526003602052604080822093909355908416815220546109c490600163ffffffff610b6816565b6001600160a01b038084166000818152600360209081526040808320959095558582526001905283812080546001600160a01b031916831790559251849391928716917fddf252ad1be2c89b69c2b068fc378daa952ba7f163c4a11628f55a4df523b3ef91a4505050565b6001600160a01b038216600090815260056020526040812054610a5990600163ffffffff610cb416565b600083815260066020526040902054909150808214610af4576001600160a01b0384166000908152600560205260408120805484908110610a9657fe5b906000526020600020015490508060056000876001600160a01b03166001600160a01b031681526020019081526020016000208381548110610ad457fe5b600091825260208083209091019290925591825260069052604090208190555b6001600160a01b0384166000908152600560205260409020805490610b1d906000198301610d47565b5050505050565b6001600160a01b0390911660009081526005602081815260408084208054868652600684529185208290559282526001810183559183529091200155565b3b151590565b600082820183811015610b7a57600080fd5b9392505050565b6001600160a01b038216610b9457600080fd5b610b9d81610754565b15610ba757600080fd5b600081815260016020818152604080842080546001600160a01b0319166001600160a01b0388169081179091558452600390915290912054610be891610b68565b6001600160a01b0383166000818152600360205260408082209390935591518392907fddf252ad1be2c89b69c2b068fc378daa952ba7f163c4a11628f55a4df523b3ef908290a45050565b600780546000838152600860205260408120829055600182018355919091527fa66cc928b5edb82af9bd49922954155ab7b0942694bea4ce44661d9a8736c6880155565b6000818152600260205260409020546001600160a01b031615610cb157600081815260026020526040902080546001600160a01b03191690555b50565b600082821115610cc357600080fd5b50900390565b828054600181600116156101000203166002900490600052602060002090601f016020900481019282601f10610d0a57805160ff1916838001178555610d37565b82800160010185558215610d37579182015b82811115610d37578251825591602001919060010190610d1c565b50610d43929150610d67565b5090565b81548183558181111561043b5760008381526020902061043b9181019083015b61033791905b80821115610d435760008155600101610d6d565b8035610488816111e5565b8035610488816111f9565b803561048881611202565b805161048881611202565b600082601f830112610dbe57600080fd5b8135610dd1610dcc82611134565b61110d565b91508082526020830160208301858383011115610ded57600080fd5b610df88382846111a3565b50505092915050565b80356104888161120b565b600060208284031215610e1e57600080fd5b60006107c88484610d81565b60008060408385031215610e3d57600080fd5b6000610e498585610d81565b9250506020610e5a85828601610d81565b9150509250929050565b600080600060608486031215610e7957600080fd5b6000610e858686610d81565b9350506020610e9686828701610d81565b9250506040610ea786828701610e01565b9150509250925092565b60008060008060808587031215610ec757600080fd5b6000610ed38787610d81565b9450506020610ee487828801610d81565b9350506040610ef587828801610e01565b925050606085013567ffffffffffffffff811115610f1257600080fd5b610f1e87828801610dad565b91505092959194509250565b60008060408385031215610f3d57600080fd5b6000610f498585610d81565b9250506020610e5a85828601610d8c565b60008060408385031215610f6d57600080fd5b6000610f798585610d81565b925050602083013567ffffffffffffffff811115610f9657600080fd5b610e5a85828601610dad565b60008060408385031215610fb557600080fd5b6000610fc18585610d81565b9250506020610e5a85828601610e01565b600060208284031215610fe457600080fd5b60006107c88484610d97565b60006020828403121561100257600080fd5b60006107c88484610da2565b60006020828403121561102057600080fd5b60006107c88484610e01565b61103581611192565b82525050565b61103581611169565b61103581611174565b60006110588261115c565b6110628185611160565b93506110728185602086016111af565b61107b816111db565b9093019392505050565b61103581610337565b60208101610488828461103b565b608081016110aa828761102c565b6110b7602083018661103b565b6110c46040830185611085565b81810360608301526110d6818461104d565b9695505050505050565b602081016104888284611044565b60208082528101610b7a818461104d565b602081016104888284611085565b60405181810167ffffffffffffffff8111828210171561112c57600080fd5b604052919050565b600067ffffffffffffffff82111561114b57600080fd5b506020601f91909101601f19160190565b5190565b90815260200190565b600061048882611186565b151590565b6001600160e01b03191690565b6001600160a01b031690565b600061048882600061048882611169565b82818337506000910152565b60005b838110156111ca5781810151838201526020016111b2565b8381111561063c5750506000910152565b601f01601f191690565b6111ee81611169565b8114610cb157600080fd5b6111ee81611174565b6111ee81611179565b6111ee8161033756fea365627a7a723158208f3ecd4f885142036a2cd18def4b15301a534497b32e9d99363dd294482d28c16c6578706572696d656e74616cf564736f6c63430005100040a365627a7a72315820a4bcba6e6ddbd936404dddfbfa3464f3b4332e5cf4f8ac847cfcb66997a0b1356c6578706572696d656e74616cf564736f6c63430005100040",
  "source": "pragma solidity ^0.5.16;\npragma experimental ABIEncoderV2;\n\nimport { SafeMath } from \"./openzeppelin-solidity/contracts/math/SafeMath.sol\";\nimport { Strings } from \"./libraries/Strings.sol\";\nimport { PhotoNFTFactoryStorages } from \"./photo-nft-factory/commons/PhotoNFTFactoryStorages.sol\";\nimport { PhotoNFT } from \"./PhotoNFT.sol\";\nimport { PhotoNFTMarketplace } from \"./PhotoNFTMarketplace.sol\";\nimport { PhotoNFTData } from \"./PhotoNFTData.sol\";\n\n\n/**\n * @notice - This is the factory contract for a NFT of photo\n */\ncontract PhotoNFTFactory is PhotoNFTFactoryStorages {\n     event withdrawNFT (PhotoNFT photoNFT,string status);\n    using SafeMath for uint256;\n    using Strings for string;    \n\n    address[] public photoAddresses;\n    address PHOTO_NFT_MARKETPLACE;\n\n    PhotoNFTMarketplace public photoNFTMarketplace;\n    PhotoNFTData public photoNFTData;\n\n    constructor(PhotoNFTMarketplace _photoNFTMarketplace, PhotoNFTData _photoNFTData) public {\n        photoNFTMarketplace = _photoNFTMarketplace;\n        photoNFTData = _photoNFTData;\n        PHOTO_NFT_MARKETPLACE = address(photoNFTMarketplace);\n    }\n\n    /**\n     * @notice - Create a new photoNFT when a seller (owner) upload a photo onto IPFS\n     */\n    function createNewPhotoNFT(string memory nftName, string memory nftSymbol, uint photoPrice, string memory ipfsHashOfPhoto, string memory addresEmail,uint redevance) public returns (bool) {\n        address owner = msg.sender;  \n        /// [Note]: Initial owner of photoNFT is msg.sender\n        address seller = msg.sender;\n        string memory tokenURI = getTokenURI(ipfsHashOfPhoto);  /// [Note]: IPFS hash + URL\n        PhotoNFT photoNFT = new PhotoNFT(owner, nftName, nftSymbol, tokenURI, photoPrice, addresEmail, redevance, seller);\n        photoAddresses.push(address(photoNFT));\n\n        /// Save metadata of a photoNFT created\n        photoNFTData.saveMetadataOfPhotoNFT(photoAddresses, photoNFT,  nftSymbol, msg.sender, photoPrice, ipfsHashOfPhoto, addresEmail,redevance, seller);\n        photoNFTData.updateStatus(photoNFT, \"Open\");\n        string memory statusPhoto=\"mint\";\n        photoNFTData.updateStatusPhoto(photoNFT, statusPhoto);\n        \n\n        emit PhotoNFTCreated(msg.sender, photoNFT, nftName, nftSymbol, photoPrice, ipfsHashOfPhoto, addresEmail,redevance,seller,statusPhoto);\n    }\n\nfunction withdraw(PhotoNFT photoNFT) public {\n    string memory status=\"burn\";\n    photoNFTData.updateStatusPhoto(photoNFT,status);\n    emit withdrawNFT (photoNFT, status);\n}\n\n\n    ///-----------------\n    /// Getter methods\n    ///-----------------\n    function baseTokenURI() public pure returns (string memory) {\n        return \"https://ipfs.io/ipfs/\";\n    }\n\n    function getTokenURI(string memory _ipfsHashOfPhoto) public view returns (string memory) {\n        return Strings.strConcat(baseTokenURI(), _ipfsHashOfPhoto);\n    }\n\n}\n",
  "sourcePath": "/Users/amal/Documents/NFT-based-photo-marketplace/oldversion/contracts/PhotoNFTFactory.sol",
  "compiler": {
    "name": "solc",
    "version": "0.5.16+commit.9c3226ce.Emscripten.clang"
  },
  "schemaVersion": "3.4.2",
  "updatedAt": "2021-08-12T09:06:53.220Z",
  "networkType": "ethereum",
  "devdoc": {
    "methods": {}
  },
  "userdoc": {
    "methods": {
      "baseTokenURI()": {
        "notice": "----------------- Getter methods -----------------"
      },
      "createNewPhotoNFT(string,string,uint256,string,string,uint256)": {
        "notice": "- Create a new photoNFT when a seller (owner) upload a photo onto IPFS"
      }
    },
    "notice": "- This is the factory contract for a NFT of photo"
  }
}