{
  "contractName": "PhotoNFTFactory",
  "abi": [
    {
      "inputs": [
        {
          "internalType": "contract PhotoNFTMarketplace",
          "name": "_photoNFTMarketplace",
          "type": "address"
        },
        {
          "internalType": "contract PhotoNFTData",
          "name": "_photoNFTData",
          "type": "address"
        }
      ],
      "payable": false,
      "stateMutability": "nonpayable",
      "type": "constructor"
    },
    {
      "anonymous": false,
      "inputs": [
        {
          "indexed": false,
          "internalType": "uint256",
          "name": "tokenId",
          "type": "uint256"
        },
        {
          "indexed": false,
          "internalType": "uint256",
          "name": "reputationCount",
          "type": "uint256"
        }
      ],
      "name": "AddReputation",
      "type": "event"
    },
    {
      "anonymous": false,
      "inputs": [
        {
          "indexed": false,
          "internalType": "address",
          "name": "owner",
          "type": "address"
        },
        {
          "indexed": false,
          "internalType": "contract PhotoNFT",
          "name": "photoNFT",
          "type": "address"
        },
        {
          "indexed": false,
          "internalType": "string",
          "name": "nftName",
          "type": "string"
        },
        {
          "indexed": false,
          "internalType": "string",
          "name": "nftSymbol",
          "type": "string"
        },
        {
          "indexed": false,
          "internalType": "uint256",
          "name": "photoPrice",
          "type": "uint256"
        },
        {
          "indexed": false,
          "internalType": "string",
          "name": "ipfsHashOfPhoto",
          "type": "string"
        },
        {
          "indexed": false,
          "internalType": "string",
          "name": "addresEmail",
          "type": "string"
        },
        {
          "indexed": false,
          "internalType": "uint256",
          "name": "redevance",
          "type": "uint256"
        },
        {
          "indexed": false,
          "internalType": "address",
          "name": "seller",
          "type": "address"
        }
      ],
      "name": "PhotoNFTCreated",
      "type": "event"
    },
    {
      "constant": true,
      "inputs": [
        {
          "internalType": "uint256",
          "name": "",
          "type": "uint256"
        }
      ],
      "name": "photoAddresses",
      "outputs": [
        {
          "internalType": "address",
          "name": "",
          "type": "address"
        }
      ],
      "payable": false,
      "stateMutability": "view",
      "type": "function"
    },
    {
      "constant": true,
      "inputs": [],
      "name": "photoNFTData",
      "outputs": [
        {
          "internalType": "contract PhotoNFTData",
          "name": "",
          "type": "address"
        }
      ],
      "payable": false,
      "stateMutability": "view",
      "type": "function"
    },
    {
      "constant": true,
      "inputs": [],
      "name": "photoNFTMarketplace",
      "outputs": [
        {
          "internalType": "contract PhotoNFTMarketplace",
          "name": "",
          "type": "address"
        }
      ],
      "payable": false,
      "stateMutability": "view",
      "type": "function"
    },
    {
      "constant": false,
      "inputs": [
        {
          "internalType": "string",
          "name": "nftName",
          "type": "string"
        },
        {
          "internalType": "string",
          "name": "nftSymbol",
          "type": "string"
        },
        {
          "internalType": "uint256",
          "name": "photoPrice",
          "type": "uint256"
        },
        {
          "internalType": "string",
          "name": "ipfsHashOfPhoto",
          "type": "string"
        },
        {
          "internalType": "string",
          "name": "addresEmail",
          "type": "string"
        },
        {
          "internalType": "uint256",
          "name": "redevance",
          "type": "uint256"
        }
      ],
      "name": "createNewPhotoNFT",
      "outputs": [
        {
          "internalType": "bool",
          "name": "",
          "type": "bool"
        }
      ],
      "payable": false,
      "stateMutability": "nonpayable",
      "type": "function"
    },
    {
      "constant": true,
      "inputs": [],
      "name": "baseTokenURI",
      "outputs": [
        {
          "internalType": "string",
          "name": "",
          "type": "string"
        }
      ],
      "payable": false,
      "stateMutability": "pure",
      "type": "function"
    },
    {
      "constant": true,
      "inputs": [
        {
          "internalType": "string",
          "name": "_ipfsHashOfPhoto",
          "type": "string"
        }
      ],
      "name": "getTokenURI",
      "outputs": [
        {
          "internalType": "string",
          "name": "",
          "type": "string"
        }
      ],
      "payable": false,
      "stateMutability": "view",
      "type": "function"
    }
  ],
  "bytecode": "0x608060405234801561001057600080fd5b506040516200271b3803806200271b83398101604081905261003191610084565b600280546001600160a01b03199081166001600160a01b03948516179182905560038054821693851693909317909255600180549190931691161790556100f7565b805161007e816100e0565b92915050565b6000806040838503121561009757600080fd5b60006100a38585610073565b92505060206100b485828601610073565b9150509250929050565b600061007e826100d4565b600061007e826100be565b6001600160a01b031690565b6100e9816100c9565b81146100f457600080fd5b50565b61261480620001076000396000f3fe60806040523480156200001157600080fd5b50600436106200006a5760003560e01c80633a52232e146200006f578063c4188f11146200009e578063d3e1f6e314620000b7578063d547cfb714620000dd578063dc0985c314620000e7578063ec039514146200010d575b600080fd5b620000866200008036600462000732565b62000117565b60405162000095919062000b2d565b60405180910390f35b620000a86200034c565b60405162000095919062000b3d565b620000ce620000c8366004620006f9565b6200035b565b60405162000095919062000b70565b620000ce62000378565b620000fe620000f836600462000829565b620003a7565b6040516200009591906200096d565b620000a8620003cf565b60003380606062000128876200035b565b90506000838b8b848c8b8b8960405162000142906200064c565b6200015598979695949392919062000a31565b604051809103906000f08015801562000172573d6000803e3d6000fd5b50905060008190806001815401808255809150509060018203906000526020600020016000909192909190916101000a8154816001600160a01b0302191690836001600160a01b0316021790555050600360009054906101000a90046001600160a01b03166001600160a01b031663e75fd5976000838d338e8e8e8e8c6040518a63ffffffff1660e01b8152600401620002159998979695949392919062000ad4565b602060405180830381600087803b1580156200023057600080fd5b505af115801562000245573d6000803e3d6000fd5b505050506040513d601f19601f820116820180604052506200026b9190810190620006d0565b50600354604051634dd5bfa560e11b81526001600160a01b0390911690639bab7f4a906200029e90849060040162000b4d565b602060405180830381600087803b158015620002b957600080fd5b505af1158015620002ce573d6000803e3d6000fd5b505050506040513d601f19601f82011682018060405250620002f49190810190620006d0565b507f2802c1bc27d5f2df5c585519af4dc9795e9553824bdd05bbbec27ae7b5c59ad133828d8d8d8d8d8d8b60405162000336999897969594939291906200097d565b60405180910390a1505050509695505050505050565b6002546001600160a01b031681565b6060620003726200036b62000378565b83620003de565b92915050565b60408051808201909152601581527468747470733a2f2f697066732e696f2f697066732f60581b602082015290565b60008181548110620003b557fe5b6000918252602090912001546001600160a01b0316905081565b6003546001600160a01b031681565b60606200041c838360405180602001604052806000815250604051806020016040528060008152506040518060200160405280600081525062000423565b9392505050565b6060808690506060869050606086905060608690506060869050606081518351855187518951010101016040519080825280601f01601f19166020018201604052801562000478576020820181803883390190505b509050806000805b8851811015620004d5578881815181106200049757fe5b602001015160f81c60f81b838380600101945081518110620004b557fe5b60200101906001600160f81b031916908160001a90535060010162000480565b5060005b87518110156200052e57878181518110620004f057fe5b602001015160f81c60f81b8383806001019450815181106200050e57fe5b60200101906001600160f81b031916908160001a905350600101620004d9565b5060005b865181101562000587578681815181106200054957fe5b602001015160f81c60f81b8383806001019450815181106200056757fe5b60200101906001600160f81b031916908160001a90535060010162000532565b5060005b8551811015620005e057858181518110620005a257fe5b602001015160f81c60f81b838380600101945081518110620005c057fe5b60200101906001600160f81b031916908160001a9053506001016200058b565b5060005b84518110156200063957848181518110620005fb57fe5b602001015160f81c60f81b8383806001019450815181106200061957fe5b60200101906001600160f81b031916908160001a905350600101620005e4565b50909d9c50505050505050505050505050565b6119118062000cc183390190565b8051620003728162000c9b565b600082601f8301126200067957600080fd5b8135620006906200068a8262000bab565b62000b83565b91508082526020830160208301858383011115620006ad57600080fd5b620006ba83828462000c2d565b50505092915050565b8035620003728162000cb5565b600060208284031215620006e357600080fd5b6000620006f184846200065a565b949350505050565b6000602082840312156200070c57600080fd5b813567ffffffffffffffff8111156200072457600080fd5b620006f18482850162000667565b60008060008060008060c087890312156200074c57600080fd5b863567ffffffffffffffff8111156200076457600080fd5b6200077289828a0162000667565b965050602087013567ffffffffffffffff8111156200079057600080fd5b6200079e89828a0162000667565b9550506040620007b189828a01620006c3565b945050606087013567ffffffffffffffff811115620007cf57600080fd5b620007dd89828a0162000667565b935050608087013567ffffffffffffffff811115620007fb57600080fd5b6200080989828a0162000667565b92505060a06200081c89828a01620006c3565b9150509295509295509295565b6000602082840312156200083c57600080fd5b6000620006f18484620006c3565b600062000858838362000871565b505060200190565b6200086b8162000c18565b82525050565b6200086b8162000c03565b6000620008898262000be0565b62000895818562000bee565b9350620008a28362000bd4565b8060005b83811015620008df57620008ba8262000c83565b620008c688826200084a565b9750620008d38362000be8565b925050600101620008a6565b509495945050505050565b6200086b8162000c10565b6200086b8162000c20565b60006200090d8262000be4565b62000919818562000bee565b93506200092b81856020860162000c39565b620009368162000c91565b9093019392505050565b60006200094f60048362000bee565b6327b832b760e11b815260200192915050565b6200086b8162000c15565b6020810162000372828462000871565b61012081016200098e828c62000860565b6200099d602083018b620008f5565b8181036040830152620009b1818a62000900565b90508181036060830152620009c7818962000900565b9050620009d8608083018862000962565b81810360a0830152620009ec818762000900565b905081810360c083015262000a02818662000900565b905062000a1360e083018562000962565b62000a2361010083018462000871565b9a9950505050505050505050565b610100810162000a42828b62000871565b818103602083015262000a56818a62000900565b9050818103604083015262000a6c818962000900565b9050818103606083015262000a82818862000900565b905062000a93608083018762000962565b81810360a083015262000aa7818662000900565b905062000ab860c083018562000962565b62000ac760e083018462000871565b9998505050505050505050565b610120808252810162000ae8818c6200087c565b905062000af9602083018b620008f5565b818103604083015262000b0d818a62000900565b905062000b1e606083018962000860565b620009d8608083018862000962565b60208101620003728284620008ea565b60208101620003728284620008f5565b6040810162000b5d8284620008f5565b81810360208301526200041c8162000940565b602080825281016200041c818462000900565b60405181810167ffffffffffffffff8111828210171562000ba357600080fd5b604052919050565b600067ffffffffffffffff82111562000bc357600080fd5b506020601f91909101601f19160190565b60009081526020902090565b5490565b5190565b60010190565b90815260200190565b6001600160a01b031690565b6000620003728262000bf7565b151590565b90565b600062000372825b6000620003728262000c03565b82818337506000910152565b60005b8381101562000c5657818101518382015260200162000c3c565b8381111562000c66576000848401525b50505050565b60006200037262000c7d8362000c15565b62000bf7565b600062000372825462000c6c565b601f01601f191690565b62000ca68162000c10565b811462000cb257600080fd5b50565b62000ca68162000c1556fe60806040523480156200001157600080fd5b5060405162001911380380620019118339810160408190526200003491620004d0565b86868181620000536301ffc9a760e01b6001600160e01b03620000f516565b6200006e6380ac58cd60e01b6001600160e01b03620000f516565b6200008963780e9d6360e01b6001600160e01b03620000f516565b81516200009e906009906020850190620003b8565b508051620000b490600a906020840190620003b8565b50620000d0635b5e139f60e01b6001600160e01b03620000f516565b50505050620000e688866200013260201b60201c565b505050505050505050620006aa565b6001600160e01b031980821614156200010d57600080fd5b6001600160e01b0319166000908152602081905260409020805460ff19166001179055565b600080620001486001600160e01b036200018416565b600c8054600101905590506200016884826001600160e01b03620001a916565b6200017d81846001600160e01b03620001ed16565b5092915050565b6000620001a36001600c546200023160201b62000b681790919060201c565b90505b90565b620001c082826200024d60201b62000b811760201c565b620001d582826001600160e01b036200031916565b620001e9816001600160e01b036200035716565b5050565b62000201826001600160e01b036200039b16565b6200020b57600080fd5b6000828152600b6020908152604090912082516200022c92840190620003b8565b505050565b6000828201838110156200024457600080fd5b90505b92915050565b6001600160a01b0382166200026157600080fd5b62000275816001600160e01b036200039b16565b156200028057600080fd5b600081815260016020818152604080842080546001600160a01b0319166001600160a01b03881690811790915584526003825290922054620002ce9290919062000231811b62000b6817901c565b6001600160a01b0383166000818152600360205260408082209390935591518392907fddf252ad1be2c89b69c2b068fc378daa952ba7f163c4a11628f55a4df523b3ef908290a45050565b6001600160a01b0390911660009081526005602081815260408084208054868652600684529185208290559282526001810183559183529091200155565b600780546000838152600860205260408120829055600182018355919091527fa66cc928b5edb82af9bd49922954155ab7b0942694bea4ce44661d9a8736c6880155565b6000908152600160205260409020546001600160a01b0316151590565b828054600181600116156101000203166002900490600052602060002090601f016020900481019282601f10620003fb57805160ff19168380011785556200042b565b828001600101855582156200042b579182015b828111156200042b5782518255916020019190600101906200040e565b50620004399291506200043d565b5090565b620001a691905b8082111562000439576000815560010162000444565b8051620002478162000685565b600082601f8301126200047957600080fd5b8151620004906200048a8262000618565b620005f1565b91508082526020830160208301858383011115620004ad57600080fd5b620004ba83828462000652565b50505092915050565b805162000247816200069f565b600080600080600080600080610100898b031215620004ee57600080fd5b6000620004fc8b8b6200045a565b98505060208901516001600160401b038111156200051957600080fd5b620005278b828c0162000467565b97505060408901516001600160401b038111156200054457600080fd5b620005528b828c0162000467565b96505060608901516001600160401b038111156200056f57600080fd5b6200057d8b828c0162000467565b9550506080620005908b828c01620004c3565b94505060a08901516001600160401b03811115620005ad57600080fd5b620005bb8b828c0162000467565b93505060c0620005ce8b828c01620004c3565b92505060e0620005e18b828c016200045a565b9150509295985092959890939650565b6040518181016001600160401b03811182821017156200061057600080fd5b604052919050565b60006001600160401b038211156200062f57600080fd5b506020601f91909101601f19160190565b60006001600160a01b03821662000247565b60005b838110156200066f57818101518382015260200162000655565b838111156200067f576000848401525b50505050565b620006908162000640565b81146200069c57600080fd5b50565b6200069081620001a6565b61125780620006ba6000396000f3fe608060405234801561001057600080fd5b50600436106101165760003560e01c80636352211e116100a2578063b4a5b64611610071578063b4a5b64614610230578063b88d4fde14610238578063c87b56dd1461024b578063d0def5211461025e578063e985e9c51461027157610116565b80636352211e146101ef57806370a082311461020257806395d89b4114610215578063a22cb4651461021d57610116565b806318160ddd116100e957806318160ddd1461018e57806323b872dd146101a35780632f745c59146101b657806342842e0e146101c95780634f6ccce7146101dc57610116565b806301ffc9a71461011b57806306fdde0314610144578063081812fc14610159578063095ea7b314610179575b600080fd5b61012e610129366004610fd2565b610284565b60405161013b91906110e0565b60405180910390f35b61014c6102a3565b60405161013b91906110ee565b61016c61016736600461100e565b61033a565b60405161013b919061108e565b61018c610187366004610fa2565b61036a565b005b610196610417565b60405161013b91906110ff565b61018c6101b1366004610e64565b61041d565b6101966101c4366004610fa2565b610440565b61018c6101d7366004610e64565b61048e565b6101966101ea36600461100e565b6104a9565b61016c6101fd36600461100e565b6104dd565b610196610210366004610e0c565b6104ff565b61014c610530565b61018c61022b366004610f2a565b610591565b610196610616565b61018c610246366004610eb1565b61061c565b61014c61025936600461100e565b610642565b61012e61026c366004610f5a565b6106f5565b61012e61027f366004610e2a565b610726565b6001600160e01b03191660009081526020819052604090205460ff1690565b60098054604080516020601f600260001961010060018816150201909516949094049384018190048102820181019092528281526060939092909183018282801561032f5780601f106103045761010080835404028352916020019161032f565b820191906000526020600020905b81548152906001019060200180831161031257829003601f168201915b505050505090505b90565b600061034582610754565b61034e57600080fd5b506000908152600260205260409020546001600160a01b031690565b6000610375826104dd565b9050806001600160a01b0316836001600160a01b0316141561039657600080fd5b336001600160a01b03821614806103b257506103b28133610726565b6103bb57600080fd5b60008281526002602052604080822080546001600160a01b0319166001600160a01b0387811691821790925591518593918516917f8c5be1e5ebec7d5bd14f71427d1e84f3dd0314c0f7b2291e5b200ac8c7c3b92591a4505050565b60075490565b6104273382610771565b61043057600080fd5b61043b8383836107d0565b505050565b600061044b836104ff565b821061045657600080fd5b6001600160a01b038316600090815260056020526040902080548390811061047a57fe5b906000526020600020015490505b92915050565b61043b8383836040518060200160405280600081525061061c565b60006104b3610417565b82106104be57600080fd5b600782815481106104cb57fe5b90600052602060002001549050919050565b6000818152600160205260408120546001600160a01b03168061048857600080fd5b60006001600160a01b03821661051457600080fd5b506001600160a01b031660009081526003602052604090205490565b600a8054604080516020601f600260001961010060018816150201909516949094049384018190048102820181019092528281526060939092909183018282801561032f5780601f106103045761010080835404028352916020019161032f565b6001600160a01b0382163314156105a757600080fd5b3360008181526004602090815260408083206001600160a01b038716808552925291829020805460ff191685151517905590519091907f17307eab39ab6107e8899845ad3d59bd9653f200f220920489ca2b5937696c319061060a9085906110e0565b60405180910390a35050565b600c5481565b61062784848461041d565b610633848484846107ef565b61063c57600080fd5b50505050565b606061064d82610754565b61065657600080fd5b6000828152600b602090815260409182902080548351601f6002600019610100600186161502019093169290920491820184900484028101840190945280845290918301828280156106e95780601f106106be576101008083540402835291602001916106e9565b820191906000526020600020905b8154815290600101906020018083116106cc57829003601f168201915b50505050509050919050565b6000806107006108b4565b600c80546001019055905061071584826108d0565b61071f81846108f1565b5092915050565b6001600160a01b03918216600090815260046020908152604080832093909416825291909152205460ff1690565b6000908152600160205260409020546001600160a01b0316151590565b60008061077d836104dd565b9050806001600160a01b0316846001600160a01b031614806107b85750836001600160a01b03166107ad8461033a565b6001600160a01b0316145b806107c857506107c88185610726565b949350505050565b6107db838383610922565b6107e58382610a2f565b61043b8282610b24565b6000610803846001600160a01b0316610b62565b61080f575060016107c8565b604051630a85bd0160e11b81526000906001600160a01b0386169063150b7a02906108449033908a908990899060040161109c565b602060405180830381600087803b15801561085e57600080fd5b505af1158015610872573d6000803e3d6000fd5b505050506040513d601f19601f820116820180604052506108969190810190610ff0565b6001600160e01b031916630a85bd0160e11b14915050949350505050565b600c546000906108cb90600163ffffffff610b6816565b905090565b6108da8282610b81565b6108e48282610b24565b6108ed81610c33565b5050565b6108fa82610754565b61090357600080fd5b6000828152600b60209081526040909120825161043b92840190610cc9565b826001600160a01b0316610935826104dd565b6001600160a01b03161461094857600080fd5b6001600160a01b03821661095b57600080fd5b61096481610c77565b6001600160a01b03831660009081526003602052604090205461098e90600163ffffffff610cb416565b6001600160a01b0380851660009081526003602052604080822093909355908416815220546109c490600163ffffffff610b6816565b6001600160a01b038084166000818152600360209081526040808320959095558582526001905283812080546001600160a01b031916831790559251849391928716917fddf252ad1be2c89b69c2b068fc378daa952ba7f163c4a11628f55a4df523b3ef91a4505050565b6001600160a01b038216600090815260056020526040812054610a5990600163ffffffff610cb416565b600083815260066020526040902054909150808214610af4576001600160a01b0384166000908152600560205260408120805484908110610a9657fe5b906000526020600020015490508060056000876001600160a01b03166001600160a01b031681526020019081526020016000208381548110610ad457fe5b600091825260208083209091019290925591825260069052604090208190555b6001600160a01b0384166000908152600560205260409020805490610b1d906000198301610d47565b5050505050565b6001600160a01b0390911660009081526005602081815260408084208054868652600684529185208290559282526001810183559183529091200155565b3b151590565b600082820183811015610b7a57600080fd5b9392505050565b6001600160a01b038216610b9457600080fd5b610b9d81610754565b15610ba757600080fd5b600081815260016020818152604080842080546001600160a01b0319166001600160a01b0388169081179091558452600390915290912054610be891610b68565b6001600160a01b0383166000818152600360205260408082209390935591518392907fddf252ad1be2c89b69c2b068fc378daa952ba7f163c4a11628f55a4df523b3ef908290a45050565b600780546000838152600860205260408120829055600182018355919091527fa66cc928b5edb82af9bd49922954155ab7b0942694bea4ce44661d9a8736c6880155565b6000818152600260205260409020546001600160a01b031615610cb157600081815260026020526040902080546001600160a01b03191690555b50565b600082821115610cc357600080fd5b50900390565b828054600181600116156101000203166002900490600052602060002090601f016020900481019282601f10610d0a57805160ff1916838001178555610d37565b82800160010185558215610d37579182015b82811115610d37578251825591602001919060010190610d1c565b50610d43929150610d67565b5090565b81548183558181111561043b5760008381526020902061043b9181019083015b61033791905b80821115610d435760008155600101610d6d565b8035610488816111e5565b8035610488816111f9565b803561048881611202565b805161048881611202565b600082601f830112610dbe57600080fd5b8135610dd1610dcc82611134565b61110d565b91508082526020830160208301858383011115610ded57600080fd5b610df88382846111a3565b50505092915050565b80356104888161120b565b600060208284031215610e1e57600080fd5b60006107c88484610d81565b60008060408385031215610e3d57600080fd5b6000610e498585610d81565b9250506020610e5a85828601610d81565b9150509250929050565b600080600060608486031215610e7957600080fd5b6000610e858686610d81565b9350506020610e9686828701610d81565b9250506040610ea786828701610e01565b9150509250925092565b60008060008060808587031215610ec757600080fd5b6000610ed38787610d81565b9450506020610ee487828801610d81565b9350506040610ef587828801610e01565b925050606085013567ffffffffffffffff811115610f1257600080fd5b610f1e87828801610dad565b91505092959194509250565b60008060408385031215610f3d57600080fd5b6000610f498585610d81565b9250506020610e5a85828601610d8c565b60008060408385031215610f6d57600080fd5b6000610f798585610d81565b925050602083013567ffffffffffffffff811115610f9657600080fd5b610e5a85828601610dad565b60008060408385031215610fb557600080fd5b6000610fc18585610d81565b9250506020610e5a85828601610e01565b600060208284031215610fe457600080fd5b60006107c88484610d97565b60006020828403121561100257600080fd5b60006107c88484610da2565b60006020828403121561102057600080fd5b60006107c88484610e01565b61103581611192565b82525050565b61103581611169565b61103581611174565b60006110588261115c565b6110628185611160565b93506110728185602086016111af565b61107b816111db565b9093019392505050565b61103581610337565b60208101610488828461103b565b608081016110aa828761102c565b6110b7602083018661103b565b6110c46040830185611085565b81810360608301526110d6818461104d565b9695505050505050565b602081016104888284611044565b60208082528101610b7a818461104d565b602081016104888284611085565b60405181810167ffffffffffffffff8111828210171561112c57600080fd5b604052919050565b600067ffffffffffffffff82111561114b57600080fd5b506020601f91909101601f19160190565b5190565b90815260200190565b600061048882611186565b151590565b6001600160e01b03191690565b6001600160a01b031690565b600061048882600061048882611169565b82818337506000910152565b60005b838110156111ca5781810151838201526020016111b2565b8381111561063c5750506000910152565b601f01601f191690565b6111ee81611169565b8114610cb157600080fd5b6111ee81611174565b6111ee81611179565b6111ee8161033756fea365627a7a723158208f3ecd4f885142036a2cd18def4b15301a534497b32e9d99363dd294482d28c16c6578706572696d656e74616cf564736f6c63430005100040a365627a7a7231582054ef124f63ccba38cbffd80bd32642ac558947fd131f66d0024a156c2cf286b46c6578706572696d656e74616cf564736f6c63430005100040",
  "source": "pragma solidity ^0.5.16;\npragma experimental ABIEncoderV2;\n\nimport { SafeMath } from \"./openzeppelin-solidity/contracts/math/SafeMath.sol\";\nimport { Strings } from \"./libraries/Strings.sol\";\nimport { PhotoNFTFactoryStorages } from \"./photo-nft-factory/commons/PhotoNFTFactoryStorages.sol\";\nimport { PhotoNFT } from \"./PhotoNFT.sol\";\nimport { PhotoNFTMarketplace } from \"./PhotoNFTMarketplace.sol\";\nimport { PhotoNFTData } from \"./PhotoNFTData.sol\";\n\n\n/**\n * @notice - This is the factory contract for a NFT of photo\n */\ncontract PhotoNFTFactory is PhotoNFTFactoryStorages {\n    using SafeMath for uint256;\n    using Strings for string;    \n\n    address[] public photoAddresses;\n    address PHOTO_NFT_MARKETPLACE;\n\n    PhotoNFTMarketplace public photoNFTMarketplace;\n    PhotoNFTData public photoNFTData;\n\n    constructor(PhotoNFTMarketplace _photoNFTMarketplace, PhotoNFTData _photoNFTData) public {\n        photoNFTMarketplace = _photoNFTMarketplace;\n        photoNFTData = _photoNFTData;\n        PHOTO_NFT_MARKETPLACE = address(photoNFTMarketplace);\n    }\n\n    /**\n     * @notice - Create a new photoNFT when a seller (owner) upload a photo onto IPFS\n     */\n    function createNewPhotoNFT(string memory nftName, string memory nftSymbol, uint photoPrice, string memory ipfsHashOfPhoto, string memory addresEmail,uint redevance) public returns (bool) {\n        address owner = msg.sender;  \n        /// [Note]: Initial owner of photoNFT is msg.sender\n        address seller = msg.sender;\n        string memory tokenURI = getTokenURI(ipfsHashOfPhoto);  /// [Note]: IPFS hash + URL\n        PhotoNFT photoNFT = new PhotoNFT(owner, nftName, nftSymbol, tokenURI, photoPrice, addresEmail, redevance, seller);\n        photoAddresses.push(address(photoNFT));\n\n        /// Save metadata of a photoNFT created\n        photoNFTData.saveMetadataOfPhotoNFT(photoAddresses, photoNFT,  nftSymbol, msg.sender, photoPrice, ipfsHashOfPhoto, addresEmail,redevance, seller);\n        photoNFTData.updateStatus(photoNFT, \"Open\");\n\n        emit PhotoNFTCreated(msg.sender, photoNFT, nftName, nftSymbol, photoPrice, ipfsHashOfPhoto, addresEmail,redevance,seller);\n    }\n\n\n    ///-----------------\n    /// Getter methods\n    ///-----------------\n    function baseTokenURI() public pure returns (string memory) {\n        return \"https://ipfs.io/ipfs/\";\n    }\n\n    function getTokenURI(string memory _ipfsHashOfPhoto) public view returns (string memory) {\n        return Strings.strConcat(baseTokenURI(), _ipfsHashOfPhoto);\n    }\n\n}\n",
  "sourcePath": "/Users/amal/Documents/NFT-based-photo-marketplace/oldversion/contracts/PhotoNFTFactory.sol",
  "compiler": {
    "name": "solc",
    "version": "0.5.16+commit.9c3226ce.Emscripten.clang"
  },
  "schemaVersion": "3.4.2",
  "updatedAt": "2021-07-28T20:00:23.372Z",
  "networkType": "ethereum",
  "devdoc": {
    "methods": {}
  },
  "userdoc": {
    "methods": {
      "baseTokenURI()": {
        "notice": "----------------- Getter methods -----------------"
      },
      "createNewPhotoNFT(string,string,uint256,string,string,uint256)": {
        "notice": "- Create a new photoNFT when a seller (owner) upload a photo onto IPFS"
      }
    },
    "notice": "- This is the factory contract for a NFT of photo"
  }
}