{
  "contractName": "NFTDetailsReedem",
  "abi": [
    {
      "inputs": [],
      "payable": false,
      "stateMutability": "nonpayable",
      "type": "constructor"
    },
    {
      "anonymous": false,
      "inputs": [
        {
          "indexed": false,
          "internalType": "contract PhotoNFT",
          "name": "photoNft",
          "type": "address"
        },
        {
          "indexed": false,
          "internalType": "string",
          "name": "name",
          "type": "string"
        },
        {
          "indexed": false,
          "internalType": "string",
          "name": "city",
          "type": "string"
        },
        {
          "indexed": false,
          "internalType": "string",
          "name": "firstLine",
          "type": "string"
        },
        {
          "indexed": false,
          "internalType": "string",
          "name": "secondLine",
          "type": "string"
        },
        {
          "indexed": false,
          "internalType": "string",
          "name": "codePostal",
          "type": "string"
        },
        {
          "indexed": false,
          "internalType": "string",
          "name": "country",
          "type": "string"
        },
        {
          "indexed": false,
          "internalType": "string",
          "name": "addressEmail",
          "type": "string"
        }
      ],
      "name": "DetailsRedeem",
      "type": "event"
    },
    {
      "constant": true,
      "inputs": [
        {
          "internalType": "uint256",
          "name": "",
          "type": "uint256"
        }
      ],
      "name": "allDetailsReedem",
      "outputs": [
        {
          "internalType": "contract PhotoNFT",
          "name": "photoNFT",
          "type": "address"
        },
        {
          "internalType": "string",
          "name": "name",
          "type": "string"
        },
        {
          "internalType": "string",
          "name": "city",
          "type": "string"
        },
        {
          "internalType": "string",
          "name": "firstLine",
          "type": "string"
        },
        {
          "internalType": "string",
          "name": "codePostal",
          "type": "string"
        },
        {
          "internalType": "string",
          "name": "secondLine",
          "type": "string"
        },
        {
          "internalType": "string",
          "name": "country",
          "type": "string"
        },
        {
          "internalType": "string",
          "name": "addressEmail",
          "type": "string"
        }
      ],
      "payable": false,
      "stateMutability": "view",
      "type": "function"
    },
    {
      "constant": true,
      "inputs": [
        {
          "internalType": "uint256",
          "name": "",
          "type": "uint256"
        }
      ],
      "name": "photoAddresses",
      "outputs": [
        {
          "internalType": "address",
          "name": "",
          "type": "address"
        }
      ],
      "payable": false,
      "stateMutability": "view",
      "type": "function"
    },
    {
      "constant": false,
      "inputs": [
        {
          "internalType": "contract PhotoNFT",
          "name": "_photoNFT",
          "type": "address"
        },
        {
          "internalType": "string",
          "name": "_name",
          "type": "string"
        },
        {
          "internalType": "string",
          "name": "_city",
          "type": "string"
        },
        {
          "internalType": "string",
          "name": "_firstLine",
          "type": "string"
        },
        {
          "internalType": "string",
          "name": "_secondLine",
          "type": "string"
        },
        {
          "internalType": "string",
          "name": "_codePostal",
          "type": "string"
        },
        {
          "internalType": "string",
          "name": "_country",
          "type": "string"
        },
        {
          "internalType": "string",
          "name": "_addressEmail",
          "type": "string"
        }
      ],
      "name": "saveMetadataOfPhotoNFT",
      "outputs": [
        {
          "internalType": "bool",
          "name": "",
          "type": "bool"
        }
      ],
      "payable": false,
      "stateMutability": "nonpayable",
      "type": "function"
    },
    {
      "constant": true,
      "inputs": [
        {
          "internalType": "contract PhotoNFT",
          "name": "photoNFT",
          "type": "address"
        }
      ],
      "name": "getPhotoByNFTAddress",
      "outputs": [
        {
          "components": [
            {
              "internalType": "contract PhotoNFT",
              "name": "photoNFT",
              "type": "address"
            },
            {
              "internalType": "string",
              "name": "name",
              "type": "string"
            },
            {
              "internalType": "string",
              "name": "city",
              "type": "string"
            },
            {
              "internalType": "string",
              "name": "firstLine",
              "type": "string"
            },
            {
              "internalType": "string",
              "name": "codePostal",
              "type": "string"
            },
            {
              "internalType": "string",
              "name": "secondLine",
              "type": "string"
            },
            {
              "internalType": "string",
              "name": "country",
              "type": "string"
            },
            {
              "internalType": "string",
              "name": "addressEmail",
              "type": "string"
            }
          ],
          "internalType": "struct NFTDetailsReedemObjects.NFTDetailsReedem",
          "name": "_photo",
          "type": "tuple"
        }
      ],
      "payable": false,
      "stateMutability": "view",
      "type": "function"
    },
    {
      "constant": true,
      "inputs": [],
      "name": "getAllDetailsReedem",
      "outputs": [
        {
          "components": [
            {
              "internalType": "contract PhotoNFT",
              "name": "photoNFT",
              "type": "address"
            },
            {
              "internalType": "string",
              "name": "name",
              "type": "string"
            },
            {
              "internalType": "string",
              "name": "city",
              "type": "string"
            },
            {
              "internalType": "string",
              "name": "firstLine",
              "type": "string"
            },
            {
              "internalType": "string",
              "name": "codePostal",
              "type": "string"
            },
            {
              "internalType": "string",
              "name": "secondLine",
              "type": "string"
            },
            {
              "internalType": "string",
              "name": "country",
              "type": "string"
            },
            {
              "internalType": "string",
              "name": "addressEmail",
              "type": "string"
            }
          ],
          "internalType": "struct NFTDetailsReedemObjects.NFTDetailsReedem[]",
          "name": "_detailsRedeem",
          "type": "tuple[]"
        }
      ],
      "payable": false,
      "stateMutability": "view",
      "type": "function"
    }
  ],
  "bytecode": "0x608060405234801561001057600080fd5b50611705806100206000396000f3fe608060405234801561001057600080fd5b50600436106100575760003560e01c806313d8848b1461005c5780637fd6c405146100855780638212e861146100a5578063dc0985c3146100ba578063eaaa6d79146100da575b600080fd5b61006f61006a3660046111cc565b610101565b60405161007c919061150d565b60405180910390f35b6100986100933660046111a6565b6102d8565b60405161007c91906115c2565b6100ad61078a565b60405161007c91906114fc565b6100cd6100c8366004611324565b610c03565b60405161007c91906114ee565b6100ed6100e8366004611324565b610c2a565b60405161007c98979695949392919061151b565b600061010b611050565b5060408051610100810182526001600160a01b038b8116825260208083018c81529383018b9052606083018a90526080830188905260a0830189905260c0830187905260e08301869052600080546001810180835591805284517f290decd9548b62a8d60345a988386fc84ba6bc95484008f6362f93160ef3e563600890920291820180546001600160a01b0319169190951617845594518051949591948694936101da937f290decd9548b62a8d60345a988386fc84ba6bc95484008f6362f93160ef3e5640192019061109e565b50604082015180516101f691600284019160209091019061109e565b506060820151805161021291600384019160209091019061109e565b506080820151805161022e91600484019160209091019061109e565b5060a0820151805161024a91600584019160209091019061109e565b5060c0820151805161026691600684019160209091019061109e565b5060e0820151805161028291600784019160209091019061109e565b505050507f7f41ce7f5ff8dc7751e416aba76c39e34c7d35a580b439e8ecc95d9787b0f5cb8a8a8a8a898b8a8a6040516102c398979695949392919061151b565b60405180910390a15098975050505050505050565b6102e0611050565b816000805b60005481101561033257826001600160a01b03166000828154811061030657fe5b60009182526020909120600890910201546001600160a01b0316141561032a578091505b6001016102e5565b5061033b611050565b6000828154811061034857fe5b600091825260209182902060408051610100808201835260089490940290920180546001600160a01b03168352600180820180548451600293821615909702600019011691909104601f81018790048702860187019093528285529294909385820193909290918301828280156104005780601f106103d557610100808354040283529160200191610400565b820191906000526020600020905b8154815290600101906020018083116103e357829003601f168201915b5050509183525050600282810180546040805160206001841615610100026000190190931694909404601f810183900483028501830190915280845293810193908301828280156104925780601f1061046757610100808354040283529160200191610492565b820191906000526020600020905b81548152906001019060200180831161047557829003601f168201915b505050918352505060038201805460408051602060026001851615610100026000190190941693909304601f81018490048402820184019092528181529382019392918301828280156105265780601f106104fb57610100808354040283529160200191610526565b820191906000526020600020905b81548152906001019060200180831161050957829003601f168201915b505050918352505060048201805460408051602060026001851615610100026000190190941693909304601f81018490048402820184019092528181529382019392918301828280156105ba5780601f1061058f576101008083540402835291602001916105ba565b820191906000526020600020905b81548152906001019060200180831161059d57829003601f168201915b505050918352505060058201805460408051602060026001851615610100026000190190941693909304601f810184900484028201840190925281815293820193929183018282801561064e5780601f106106235761010080835404028352916020019161064e565b820191906000526020600020905b81548152906001019060200180831161063157829003601f168201915b505050918352505060068201805460408051602060026001851615610100026000190190941693909304601f81018490048402820184019092528181529382019392918301828280156106e25780601f106106b7576101008083540402835291602001916106e2565b820191906000526020600020905b8154815290600101906020018083116106c557829003601f168201915b505050918352505060078201805460408051602060026001851615610100026000190190941693909304601f81018490048402820184019092528181529382019392918301828280156107765780601f1061074b57610100808354040283529160200191610776565b820191906000526020600020905b81548152906001019060200180831161075957829003601f168201915b505050919092525091979650505050505050565b60606000805480602002602001604051908101604052809291908181526020016000905b82821015610bf95760008481526020908190206040805161010080820183526008870290930180546001600160a01b03168252600180820180548551600293821615909702600019011691909104601f8101879004870286018701909452838552919490938582019390929183018282801561086b5780601f106108405761010080835404028352916020019161086b565b820191906000526020600020905b81548152906001019060200180831161084e57829003601f168201915b5050509183525050600282810180546040805160206001841615610100026000190190931694909404601f810183900483028501830190915280845293810193908301828280156108fd5780601f106108d2576101008083540402835291602001916108fd565b820191906000526020600020905b8154815290600101906020018083116108e057829003601f168201915b505050918352505060038201805460408051602060026001851615610100026000190190941693909304601f81018490048402820184019092528181529382019392918301828280156109915780601f1061096657610100808354040283529160200191610991565b820191906000526020600020905b81548152906001019060200180831161097457829003601f168201915b505050918352505060048201805460408051602060026001851615610100026000190190941693909304601f8101849004840282018401909252818152938201939291830182828015610a255780601f106109fa57610100808354040283529160200191610a25565b820191906000526020600020905b815481529060010190602001808311610a0857829003601f168201915b505050918352505060058201805460408051602060026001851615610100026000190190941693909304601f8101849004840282018401909252818152938201939291830182828015610ab95780601f10610a8e57610100808354040283529160200191610ab9565b820191906000526020600020905b815481529060010190602001808311610a9c57829003601f168201915b505050918352505060068201805460408051602060026001851615610100026000190190941693909304601f8101849004840282018401909252818152938201939291830182828015610b4d5780601f10610b2257610100808354040283529160200191610b4d565b820191906000526020600020905b815481529060010190602001808311610b3057829003601f168201915b505050918352505060078201805460408051602060026001851615610100026000190190941693909304601f8101849004840282018401909252818152938201939291830182828015610be15780601f10610bb657610100808354040283529160200191610be1565b820191906000526020600020905b815481529060010190602001808311610bc457829003601f168201915b505050505081525050815260200190600101906107ae565b5050505090505b90565b60018181548110610c1057fe5b6000918252602090912001546001600160a01b0316905081565b60008181548110610c3757fe5b600091825260209182902060089091020180546001808301805460408051601f60026000199685161561010002969096019093169490940491820187900487028401870190528083526001600160a01b039093169550929390929190830182828015610ce45780601f10610cb957610100808354040283529160200191610ce4565b820191906000526020600020905b815481529060010190602001808311610cc757829003601f168201915b50505060028085018054604080516020601f6000196101006001871615020190941695909504928301859004850281018501909152818152959695945090925090830182828015610d765780601f10610d4b57610100808354040283529160200191610d76565b820191906000526020600020905b815481529060010190602001808311610d5957829003601f168201915b5050505060038301805460408051602060026001851615610100026000190190941693909304601f8101849004840282018401909252818152949594935090830182828015610e065780601f10610ddb57610100808354040283529160200191610e06565b820191906000526020600020905b815481529060010190602001808311610de957829003601f168201915b5050505060048301805460408051602060026001851615610100026000190190941693909304601f8101849004840282018401909252818152949594935090830182828015610e965780601f10610e6b57610100808354040283529160200191610e96565b820191906000526020600020905b815481529060010190602001808311610e7957829003601f168201915b5050505060058301805460408051602060026001851615610100026000190190941693909304601f8101849004840282018401909252818152949594935090830182828015610f265780601f10610efb57610100808354040283529160200191610f26565b820191906000526020600020905b815481529060010190602001808311610f0957829003601f168201915b5050505060068301805460408051602060026001851615610100026000190190941693909304601f8101849004840282018401909252818152949594935090830182828015610fb65780601f10610f8b57610100808354040283529160200191610fb6565b820191906000526020600020905b815481529060010190602001808311610f9957829003601f168201915b5050505060078301805460408051602060026001851615610100026000190190941693909304601f81018490048402820184019092528181529495949350908301828280156110465780601f1061101b57610100808354040283529160200191611046565b820191906000526020600020905b81548152906001019060200180831161102957829003601f168201915b5050505050905088565b60405180610100016040528060006001600160a01b03168152602001606081526020016060815260200160608152602001606081526020016060815260200160608152602001606081525090565b828054600181600116156101000203166002900490600052602060002090601f016020900481019282601f106110df57805160ff191683800117855561110c565b8280016001018555821561110c579182015b8281111561110c5782518255916020019190600101906110f1565b5061111892915061111c565b5090565b610c0091905b808211156111185760008155600101611122565b8035611141816116a2565b92915050565b600082601f83011261115857600080fd5b813561116b611166826115fa565b6115d3565b9150808252602083016020830185838301111561118757600080fd5b61119283828461165c565b50505092915050565b8035611141816116b9565b6000602082840312156111b857600080fd5b60006111c48484611136565b949350505050565b600080600080600080600080610100898b0312156111e957600080fd5b60006111f58b8b611136565b985050602089013567ffffffffffffffff81111561121257600080fd5b61121e8b828c01611147565b975050604089013567ffffffffffffffff81111561123b57600080fd5b6112478b828c01611147565b965050606089013567ffffffffffffffff81111561126457600080fd5b6112708b828c01611147565b955050608089013567ffffffffffffffff81111561128d57600080fd5b6112998b828c01611147565b94505060a089013567ffffffffffffffff8111156112b657600080fd5b6112c28b828c01611147565b93505060c089013567ffffffffffffffff8111156112df57600080fd5b6112eb8b828c01611147565b92505060e089013567ffffffffffffffff81111561130857600080fd5b6113148b828c01611147565b9150509295985092959890939650565b60006020828403121561133657600080fd5b60006111c4848461119b565b600061134e838361141c565b9392505050565b61135e81611635565b82525050565b600061136f82611628565b611379818561162c565b93508360208202850161138b85611622565b8060005b858110156113c557848403895281516113a88582611342565b94506113b383611622565b60209a909a019992505060010161138f565b5091979650505050505050565b61135e81611640565b61135e81611645565b60006113ef82611628565b6113f9818561162c565b9350611409818560208601611668565b61141281611698565b9093019392505050565b805160009061010084019061143185826113db565b506020830151848203602086015261144982826113e4565b9150506040830151848203604086015261146382826113e4565b9150506060830151848203606086015261147d82826113e4565b9150506080830151848203608086015261149782826113e4565b91505060a083015184820360a08601526114b182826113e4565b91505060c083015184820360c08601526114cb82826113e4565b91505060e083015184820360e08601526114e582826113e4565b95945050505050565b602081016111418284611355565b6020808252810161134e8184611364565b6020810161114182846113d2565b610100810161152a828b6113db565b818103602083015261153c818a6113e4565b9050818103604083015261155081896113e4565b9050818103606083015261156481886113e4565b9050818103608083015261157881876113e4565b905081810360a083015261158c81866113e4565b905081810360c08301526115a081856113e4565b905081810360e08301526115b481846113e4565b9a9950505050505050505050565b6020808252810161134e818461141c565b60405181810167ffffffffffffffff811182821017156115f257600080fd5b604052919050565b600067ffffffffffffffff82111561161157600080fd5b506020601f91909101601f19160190565b60200190565b5190565b90815260200190565b600061114182611650565b151590565b600061114182611635565b6001600160a01b031690565b82818337506000910152565b60005b8381101561168357818101518382015260200161166b565b83811115611692576000848401525b50505050565b601f01601f191690565b6116ab81611645565b81146116b657600080fd5b50565b6116ab81610c0056fea365627a7a72315820a47e1494f4421030ea507ca5bcfab8eaee68cf4af515a9ad7135f723ced97ff56c6578706572696d656e74616cf564736f6c63430005100040",
  "source": "pragma solidity ^0.5.16;\npragma experimental ABIEncoderV2;\n\nimport { NFTDetailsReedemStorages} from \"./nft-data-reedem/commons/NFTDetailsReedemStorages.sol\";\nimport { PhotoNFT } from \"./PhotoNFT.sol\";\n\n\n/**\n * @notice - This is the storage contract for photoNFTs\n */\ncontract NFTDetailsReedem is NFTDetailsReedemStorages{\n\n    address[] public photoAddresses;\n\n    constructor() public {}\n     event DetailsRedeem(  PhotoNFT photoNft ,string name,string city ,string firstLine ,string secondLine,string codePostal,string country,string addressEmail);  \n\n    /**\n     * @notice - Save metadata of a photoNFT\n     */\n    function saveMetadataOfPhotoNFT(\n        //address[] memory _photoAddresses, \n        PhotoNFT _photoNFT, \n        \n        string memory _name, \n        string memory _city, \n        string memory _firstLine, \n        string memory _secondLine,\n        string memory _codePostal,\n        string memory _country,\n        string memory _addressEmail\n       \n       \n    ) public returns (bool) {\n      \n       NFTDetailsReedem memory detailsReedem = NFTDetailsReedem ({\n\n\n           photoNFT : _photoNFT,\n      name: _name,\n        city: _city,\n         firstLine: _firstLine,\n        \n     codePostal:_codePostal,\n        secondLine: _secondLine,\n        country:_country,\n        addressEmail:_addressEmail\n        });\n        allDetailsReedem.push(detailsReedem);\n\n \nemit DetailsRedeem(_photoNFT, _name, _city,  _firstLine, _codePostal, _secondLine, _country, _addressEmail);    \n    }\n\n  \n\n    \n\n\n  \n\n    function getPhotoByNFTAddress(PhotoNFT photoNFT) public view returns (NFTDetailsReedem memory _photo) {\n        address PHOTO_NFT = address(photoNFT);\n\n        /// Identify member's index\n        uint photoIndex;\n        for (uint i=0; i < allDetailsReedem.length; i++) {\n            if (address (allDetailsReedem[i].photoNFT) == PHOTO_NFT) {\n                photoIndex = i;\n            }\n        }\n\n        NFTDetailsReedem memory detailsReedem= allDetailsReedem[photoIndex];\n        return detailsReedem;\n    }\n\n    function getAllDetailsReedem() public view returns ( NFTDetailsReedem[] memory _detailsRedeem) {\n        return allDetailsReedem;\n    }\n\n}\n",
  "sourcePath": "/Users/amal/Documents/NFT-based-photo-marketplace/oldversion/contracts/NFTDetailsReedem.sol",
  "compiler": {
    "name": "solc",
    "version": "0.5.16+commit.9c3226ce.Emscripten.clang"
  },
  "schemaVersion": "3.4.2",
  "updatedAt": "2021-08-12T09:08:10.484Z",
  "networkType": "ethereum",
  "devdoc": {
    "methods": {}
  },
  "userdoc": {
    "methods": {
      "saveMetadataOfPhotoNFT(address,string,string,string,string,string,string,string)": {
        "notice": "- Save metadata of a photoNFT"
      }
    },
    "notice": "- This is the storage contract for photoNFTs"
  }
}