{
  "contractName": "PaymentSplitter",
  "abi": [
    {
      "inputs": [
        {
          "internalType": "address[]",
          "name": "payees",
          "type": "address[]"
        },
        {
          "internalType": "uint256[]",
          "name": "shares",
          "type": "uint256[]"
        }
      ],
      "payable": true,
      "stateMutability": "payable",
      "type": "constructor"
    },
    {
      "anonymous": false,
      "inputs": [
        {
          "indexed": false,
          "internalType": "address",
          "name": "account",
          "type": "address"
        },
        {
          "indexed": false,
          "internalType": "uint256",
          "name": "shares",
          "type": "uint256"
        }
      ],
      "name": "PayeeAdded",
      "type": "event"
    },
    {
      "anonymous": false,
      "inputs": [
        {
          "indexed": false,
          "internalType": "address",
          "name": "from",
          "type": "address"
        },
        {
          "indexed": false,
          "internalType": "uint256",
          "name": "amount",
          "type": "uint256"
        }
      ],
      "name": "PaymentReceived",
      "type": "event"
    },
    {
      "anonymous": false,
      "inputs": [
        {
          "indexed": false,
          "internalType": "address",
          "name": "to",
          "type": "address"
        },
        {
          "indexed": false,
          "internalType": "uint256",
          "name": "amount",
          "type": "uint256"
        }
      ],
      "name": "PaymentReleased",
      "type": "event"
    },
    {
      "payable": true,
      "stateMutability": "payable",
      "type": "fallback"
    },
    {
      "constant": true,
      "inputs": [],
      "name": "totalShares",
      "outputs": [
        {
          "internalType": "uint256",
          "name": "",
          "type": "uint256"
        }
      ],
      "payable": false,
      "stateMutability": "view",
      "type": "function"
    },
    {
      "constant": true,
      "inputs": [],
      "name": "totalReleased",
      "outputs": [
        {
          "internalType": "uint256",
          "name": "",
          "type": "uint256"
        }
      ],
      "payable": false,
      "stateMutability": "view",
      "type": "function"
    },
    {
      "constant": true,
      "inputs": [
        {
          "internalType": "address",
          "name": "account",
          "type": "address"
        }
      ],
      "name": "shares",
      "outputs": [
        {
          "internalType": "uint256",
          "name": "",
          "type": "uint256"
        }
      ],
      "payable": false,
      "stateMutability": "view",
      "type": "function"
    },
    {
      "constant": true,
      "inputs": [
        {
          "internalType": "address",
          "name": "account",
          "type": "address"
        }
      ],
      "name": "released",
      "outputs": [
        {
          "internalType": "uint256",
          "name": "",
          "type": "uint256"
        }
      ],
      "payable": false,
      "stateMutability": "view",
      "type": "function"
    },
    {
      "constant": true,
      "inputs": [
        {
          "internalType": "uint256",
          "name": "index",
          "type": "uint256"
        }
      ],
      "name": "payee",
      "outputs": [
        {
          "internalType": "address",
          "name": "",
          "type": "address"
        }
      ],
      "payable": false,
      "stateMutability": "view",
      "type": "function"
    },
    {
      "constant": false,
      "inputs": [
        {
          "internalType": "address payable",
          "name": "account",
          "type": "address"
        }
      ],
      "name": "release",
      "outputs": [],
      "payable": false,
      "stateMutability": "nonpayable",
      "type": "function"
    }
  ],
  "bytecode": "0x60806040526040516107123803806107128339818101604052604081101561002657600080fd5b810190808051604051939291908464010000000082111561004657600080fd5b90830190602082018581111561005b57600080fd5b825186602082028301116401000000008211171561007857600080fd5b82525081516020918201928201910280838360005b838110156100a557818101518382015260200161008d565b50505050905001604052602001805160405193929190846401000000008211156100ce57600080fd5b9083019060208201858111156100e357600080fd5b825186602082028301116401000000008211171561010057600080fd5b82525081516020918201928201910280838360005b8381101561012d578181015183820152602001610115565b50505050905001604052505050805182511461014857600080fd5b600082511161015657600080fd5b60005b82518110156101a05761019883828151811061017157fe5b602002602001015183838151811061018557fe5b60200260200101516101a860201b60201c565b600101610159565b5050506102c0565b6001600160a01b0382166101bb57600080fd5b600081116101c857600080fd5b6001600160a01b038216600090815260026020526040902054156101eb57600080fd5b60048054600181019091557f8a35acfbc15ff81a39ae7d344fd709f28e8600b4aa8c65c6b64bfe7fe36bd19b0180546001600160a01b0319166001600160a01b03841690811790915560009081526002602090815260408220839055905461025c9183906102a7811b61039517901c565b600055604080516001600160a01b03841681526020810183905281517f40c340f65e17194d14ddddb073d3c9f888e3cb52b5aae0c6c7706b4fbc905fac929181900390910190a15050565b6000828201838110156102b957600080fd5b9392505050565b610443806102cf6000396000f3fe6080604052600436106100555760003560e01c806319165587146100915780633a98ef39146100c65780638b83209b146100ed5780639852595c14610133578063ce7c2ac214610166578063e33b7de314610199575b6040805133815234602082015281517f6ef95f06320e7a25a04a175ca677b7052bdd97131872c2192525a629f51be770929181900390910190a1005b34801561009d57600080fd5b506100c4600480360360208110156100b457600080fd5b50356001600160a01b03166101ae565b005b3480156100d257600080fd5b506100db610329565b60408051918252519081900360200190f35b3480156100f957600080fd5b506101176004803603602081101561011057600080fd5b503561032f565b604080516001600160a01b039092168252519081900360200190f35b34801561013f57600080fd5b506100db6004803603602081101561015657600080fd5b50356001600160a01b0316610359565b34801561017257600080fd5b506100db6004803603602081101561018957600080fd5b50356001600160a01b0316610374565b3480156101a557600080fd5b506100db61038f565b6001600160a01b0381166000908152600260205260409020546101d057600080fd5b60006101e76001544761039590919063ffffffff16565b6001600160a01b0383166000908152600360209081526040808320548354600290935290832054939450919261024592916102399161022d90879063ffffffff6103b016565b9063ffffffff6103d716565b9063ffffffff6103f916565b90508061025157600080fd5b6001600160a01b03831660009081526003602052604090205461027a908263ffffffff61039516565b6001600160a01b0384166000908152600360205260409020556001546102a6908263ffffffff61039516565b6001556040516001600160a01b0384169082156108fc029083906000818181858888f193505050501580156102df573d6000803e3d6000fd5b50604080516001600160a01b03851681526020810183905281517fdf20fd1e76bc69d672e4814fafb2c449bba3a5369d8359adf9e05e6fde87b056929181900390910190a1505050565b60005490565b60006004828154811061033e57fe5b6000918252602090912001546001600160a01b031692915050565b6001600160a01b031660009081526003602052604090205490565b6001600160a01b031660009081526002602052604090205490565b60015490565b6000828201838110156103a757600080fd5b90505b92915050565b6000826103bf575060006103aa565b828202828482816103cc57fe5b04146103a757600080fd5b60008082116103e557600080fd5b60008284816103f057fe5b04949350505050565b60008282111561040857600080fd5b5090039056fea265627a7a723158200c18e3d63f65d84d062b7fc905e75ceb5f6bf33351ef6e58d677c6d158fa32fd64736f6c63430005100032",
  "source": "pragma solidity ^0.5.0;\n\nimport \"../math/SafeMath.sol\";\n\n/**\n * @title PaymentSplitter\n * @dev This contract can be used when payments need to be received by a group\n * of people and split proportionately to some number of shares they own.\n */\ncontract PaymentSplitter {\n    using SafeMath for uint256;\n\n    event PayeeAdded(address account, uint256 shares);\n    event PaymentReleased(address to, uint256 amount);\n    event PaymentReceived(address from, uint256 amount);\n\n    uint256 private _totalShares;\n    uint256 private _totalReleased;\n\n    mapping(address => uint256) private _shares;\n    mapping(address => uint256) private _released;\n    address[] private _payees;\n\n    /**\n     * @dev Constructor\n     */\n    constructor (address[] memory payees, uint256[] memory shares) public payable {\n        require(payees.length == shares.length);\n        require(payees.length > 0);\n\n        for (uint256 i = 0; i < payees.length; i++) {\n            _addPayee(payees[i], shares[i]);\n        }\n    }\n\n    /**\n     * @dev payable fallback\n     */\n    function () external payable {\n        emit PaymentReceived(msg.sender, msg.value);\n    }\n\n    /**\n     * @return the total shares of the contract.\n     */\n    function totalShares() public view returns (uint256) {\n        return _totalShares;\n    }\n\n    /**\n     * @return the total amount already released.\n     */\n    function totalReleased() public view returns (uint256) {\n        return _totalReleased;\n    }\n\n    /**\n     * @return the shares of an account.\n     */\n    function shares(address account) public view returns (uint256) {\n        return _shares[account];\n    }\n\n    /**\n     * @return the amount already released to an account.\n     */\n    function released(address account) public view returns (uint256) {\n        return _released[account];\n    }\n\n    /**\n     * @return the address of a payee.\n     */\n    function payee(uint256 index) public view returns (address) {\n        return _payees[index];\n    }\n\n    /**\n     * @dev Release one of the payee's proportional payment.\n     * @param account Whose payments will be released.\n     */\n    function release(address payable account) public {\n        require(_shares[account] > 0);\n\n        uint256 totalReceived = address(this).balance.add(_totalReleased);\n        uint256 payment = totalReceived.mul(_shares[account]).div(_totalShares).sub(_released[account]);\n\n        require(payment != 0);\n\n        _released[account] = _released[account].add(payment);\n        _totalReleased = _totalReleased.add(payment);\n\n        account.transfer(payment);\n        emit PaymentReleased(account, payment);\n    }\n\n    /**\n     * @dev Add a new payee to the contract.\n     * @param account The address of the payee to add.\n     * @param shares_ The number of shares owned by the payee.\n     */\n    function _addPayee(address account, uint256 shares_) private {\n        require(account != address(0));\n        require(shares_ > 0);\n        require(_shares[account] == 0);\n\n        _payees.push(account);\n        _shares[account] = shares_;\n        _totalShares = _totalShares.add(shares_);\n        emit PayeeAdded(account, shares_);\n    }\n}\n",
  "sourcePath": "/Users/amal/Documents/NFT-based-photo-marketplace/oldversion/contracts/openzeppelin-solidity/contracts/payment/PaymentSplitter.sol",
  "compiler": {
    "name": "solc",
    "version": "0.5.16+commit.9c3226ce.Emscripten.clang"
  },
  "schemaVersion": "3.4.2",
  "updatedAt": "2021-08-04T07:57:32.209Z",
  "devdoc": {
    "details": "This contract can be used when payments need to be received by a group of people and split proportionately to some number of shares they own.",
    "methods": {
      "constructor": {
        "details": "Constructor"
      },
      "payee(uint256)": {
        "return": "the address of a payee."
      },
      "release(address)": {
        "details": "Release one of the payee's proportional payment.",
        "params": {
          "account": "Whose payments will be released."
        }
      },
      "released(address)": {
        "return": "the amount already released to an account."
      },
      "shares(address)": {
        "return": "the shares of an account."
      },
      "totalReleased()": {
        "return": "the total amount already released."
      },
      "totalShares()": {
        "return": "the total shares of the contract."
      }
    },
    "title": "PaymentSplitter"
  },
  "userdoc": {
    "methods": {}
  }
}