{
  "contractName": "PhotoNFTData",
  "abi": [
    {
      "inputs": [],
      "payable": false,
      "stateMutability": "nonpayable",
      "type": "constructor"
    },
    {
      "constant": true,
      "inputs": [
        {
          "internalType": "uint256",
          "name": "",
          "type": "uint256"
        }
      ],
      "name": "photoAddresses",
      "outputs": [
        {
          "internalType": "address",
          "name": "",
          "type": "address"
        }
      ],
      "payable": false,
      "stateMutability": "view",
      "type": "function"
    },
    {
      "constant": true,
      "inputs": [
        {
          "internalType": "uint256",
          "name": "",
          "type": "uint256"
        }
      ],
      "name": "photos",
      "outputs": [
        {
          "internalType": "contract PhotoNFT",
          "name": "photoNFT",
          "type": "address"
        },
        {
          "internalType": "string",
          "name": "addresEmail",
          "type": "string"
        },
        {
          "internalType": "string",
          "name": "photoNFTSymbol",
          "type": "string"
        },
        {
          "internalType": "address",
          "name": "ownerAddress",
          "type": "address"
        },
        {
          "internalType": "uint256",
          "name": "photoPrice",
          "type": "uint256"
        },
        {
          "internalType": "string",
          "name": "ipfsHashOfPhoto",
          "type": "string"
        },
        {
          "internalType": "uint256",
          "name": "redevance",
          "type": "uint256"
        },
        {
          "internalType": "address",
          "name": "seller",
          "type": "address"
        },
        {
          "internalType": "string",
          "name": "status",
          "type": "string"
        },
        {
          "internalType": "uint256",
          "name": "reputation",
          "type": "uint256"
        }
      ],
      "payable": false,
      "stateMutability": "view",
      "type": "function"
    },
    {
      "constant": false,
      "inputs": [
        {
          "internalType": "address[]",
          "name": "_photoAddresses",
          "type": "address[]"
        },
        {
          "internalType": "contract PhotoNFT",
          "name": "_photoNFT",
          "type": "address"
        },
        {
          "internalType": "string",
          "name": "_photoNFTSymbol",
          "type": "string"
        },
        {
          "internalType": "address",
          "name": "_ownerAddress",
          "type": "address"
        },
        {
          "internalType": "uint256",
          "name": "_photoPrice",
          "type": "uint256"
        },
        {
          "internalType": "string",
          "name": "_ipfsHashOfPhoto",
          "type": "string"
        },
        {
          "internalType": "string",
          "name": "addresEmail",
          "type": "string"
        },
        {
          "internalType": "uint256",
          "name": "_redevance",
          "type": "uint256"
        },
        {
          "internalType": "address",
          "name": "seller",
          "type": "address"
        }
      ],
      "name": "saveMetadataOfPhotoNFT",
      "outputs": [
        {
          "internalType": "bool",
          "name": "",
          "type": "bool"
        }
      ],
      "payable": false,
      "stateMutability": "nonpayable",
      "type": "function"
    },
    {
      "constant": false,
      "inputs": [
        {
          "internalType": "contract PhotoNFT",
          "name": "_photoNFT",
          "type": "address"
        },
        {
          "internalType": "address",
          "name": "_newOwner",
          "type": "address"
        }
      ],
      "name": "updateSellerOfPhotoNFT",
      "outputs": [
        {
          "internalType": "bool",
          "name": "",
          "type": "bool"
        }
      ],
      "payable": false,
      "stateMutability": "nonpayable",
      "type": "function"
    },
    {
      "constant": false,
      "inputs": [
        {
          "internalType": "contract PhotoNFT",
          "name": "_photoNFT",
          "type": "address"
        },
        {
          "internalType": "string",
          "name": "_newStatus",
          "type": "string"
        }
      ],
      "name": "updateStatus",
      "outputs": [
        {
          "internalType": "bool",
          "name": "",
          "type": "bool"
        }
      ],
      "payable": false,
      "stateMutability": "nonpayable",
      "type": "function"
    },
    {
      "constant": true,
      "inputs": [
        {
          "internalType": "uint256",
          "name": "index",
          "type": "uint256"
        }
      ],
      "name": "getPhoto",
      "outputs": [
        {
          "components": [
            {
              "internalType": "contract PhotoNFT",
              "name": "photoNFT",
              "type": "address"
            },
            {
              "internalType": "string",
              "name": "addresEmail",
              "type": "string"
            },
            {
              "internalType": "string",
              "name": "photoNFTSymbol",
              "type": "string"
            },
            {
              "internalType": "address",
              "name": "ownerAddress",
              "type": "address"
            },
            {
              "internalType": "uint256",
              "name": "photoPrice",
              "type": "uint256"
            },
            {
              "internalType": "string",
              "name": "ipfsHashOfPhoto",
              "type": "string"
            },
            {
              "internalType": "uint256",
              "name": "redevance",
              "type": "uint256"
            },
            {
              "internalType": "address",
              "name": "seller",
              "type": "address"
            },
            {
              "internalType": "string",
              "name": "status",
              "type": "string"
            },
            {
              "internalType": "uint256",
              "name": "reputation",
              "type": "uint256"
            }
          ],
          "internalType": "struct PhotoNFTDataObjects.Photo",
          "name": "_photo",
          "type": "tuple"
        }
      ],
      "payable": false,
      "stateMutability": "view",
      "type": "function"
    },
    {
      "constant": true,
      "inputs": [
        {
          "internalType": "contract PhotoNFT",
          "name": "photoNFT",
          "type": "address"
        }
      ],
      "name": "getPhotoIndex",
      "outputs": [
        {
          "internalType": "uint256",
          "name": "_photoIndex",
          "type": "uint256"
        }
      ],
      "payable": false,
      "stateMutability": "view",
      "type": "function"
    },
    {
      "constant": true,
      "inputs": [
        {
          "internalType": "contract PhotoNFT",
          "name": "photoNFT",
          "type": "address"
        }
      ],
      "name": "getPhotoByNFTAddress",
      "outputs": [
        {
          "components": [
            {
              "internalType": "contract PhotoNFT",
              "name": "photoNFT",
              "type": "address"
            },
            {
              "internalType": "string",
              "name": "addresEmail",
              "type": "string"
            },
            {
              "internalType": "string",
              "name": "photoNFTSymbol",
              "type": "string"
            },
            {
              "internalType": "address",
              "name": "ownerAddress",
              "type": "address"
            },
            {
              "internalType": "uint256",
              "name": "photoPrice",
              "type": "uint256"
            },
            {
              "internalType": "string",
              "name": "ipfsHashOfPhoto",
              "type": "string"
            },
            {
              "internalType": "uint256",
              "name": "redevance",
              "type": "uint256"
            },
            {
              "internalType": "address",
              "name": "seller",
              "type": "address"
            },
            {
              "internalType": "string",
              "name": "status",
              "type": "string"
            },
            {
              "internalType": "uint256",
              "name": "reputation",
              "type": "uint256"
            }
          ],
          "internalType": "struct PhotoNFTDataObjects.Photo",
          "name": "_photo",
          "type": "tuple"
        }
      ],
      "payable": false,
      "stateMutability": "view",
      "type": "function"
    },
    {
      "constant": true,
      "inputs": [],
      "name": "getAllPhotos",
      "outputs": [
        {
          "components": [
            {
              "internalType": "contract PhotoNFT",
              "name": "photoNFT",
              "type": "address"
            },
            {
              "internalType": "string",
              "name": "addresEmail",
              "type": "string"
            },
            {
              "internalType": "string",
              "name": "photoNFTSymbol",
              "type": "string"
            },
            {
              "internalType": "address",
              "name": "ownerAddress",
              "type": "address"
            },
            {
              "internalType": "uint256",
              "name": "photoPrice",
              "type": "uint256"
            },
            {
              "internalType": "string",
              "name": "ipfsHashOfPhoto",
              "type": "string"
            },
            {
              "internalType": "uint256",
              "name": "redevance",
              "type": "uint256"
            },
            {
              "internalType": "address",
              "name": "seller",
              "type": "address"
            },
            {
              "internalType": "string",
              "name": "status",
              "type": "string"
            },
            {
              "internalType": "uint256",
              "name": "reputation",
              "type": "uint256"
            }
          ],
          "internalType": "struct PhotoNFTDataObjects.Photo[]",
          "name": "_photos",
          "type": "tuple[]"
        }
      ],
      "payable": false,
      "stateMutability": "view",
      "type": "function"
    }
  ],
  "bytecode": "0x608060405234801561001057600080fd5b506119b4806100206000396000f3fe608060405234801561001057600080fd5b50600436106100935760003560e01c8063af2a5d6f11610066578063af2a5d6f14610116578063b6be128a1461013f578063d376e96814610152578063dc0985c314610165578063e75fd5971461018557610093565b80631f4342be1461009857806348c31171146100c15780637fd6c405146100d65780639bab7f4a146100f6575b600080fd5b6100ab6100a636600461147d565b610198565b6040516100b8919061184a565b60405180910390f35b6100c96101ee565b6040516100b89190611759565b6100e96100e436600461147d565b610506565b6040516100b89190611839565b6101096101043660046114dd565b610851565b6040516100b8919061176a565b610129610124366004611525565b61089e565b6040516100b89a99989796959493929190611778565b6100e961014d366004611525565b610b46565b6101096101603660046114a3565b610e41565b610178610173366004611525565b610ed1565b6040516100b8919061174b565b61010961019336600461135a565b610ef8565b60008181805b6001548110156101e657826001600160a01b0316600182815481106101bf57fe5b6000918252602090912001546001600160a01b031614156101de578091505b60010161019e565b509392505050565b60606000805480602002602001604051908101604052809291908181526020016000905b828210156104fc5760008481526020908190206040805161014081018252600a860290920180546001600160a01b03168352600180820180548451600261010094831615949094026000190190911692909204601f8101879004870283018701909452838252939491938583019391929091908301828280156102d65780601f106102ab576101008083540402835291602001916102d6565b820191906000526020600020905b8154815290600101906020018083116102b957829003601f168201915b5050509183525050600282810180546040805160206001841615610100026000190190931694909404601f810183900483028501830190915280845293810193908301828280156103685780601f1061033d57610100808354040283529160200191610368565b820191906000526020600020905b81548152906001019060200180831161034b57829003601f168201915b505050918352505060038201546001600160a01b03166020808301919091526004830154604080840191909152600584018054825160026101006001841615026000190190921691909104601f8101859004850282018501909352828152606090940193929091908301828280156104215780601f106103f657610100808354040283529160200191610421565b820191906000526020600020905b81548152906001019060200180831161040457829003601f168201915b5050509183525050600682015460208083019190915260078301546001600160a01b0316604080840191909152600884018054825160026101006001841615026000190190921691909104601f8101859004850282018501909352828152606090940193929091908301828280156104da5780601f106104af576101008083540402835291602001916104da565b820191906000526020600020905b8154815290600101906020018083116104bd57829003601f168201915b5050505050815260200160098201548152505081526020019060010190610212565b5050505090505b90565b61050e6110e3565b816000805b60015481101561055b57826001600160a01b03166001828154811061053457fe5b6000918252602090912001546001600160a01b03161415610553578091505b600101610513565b506105646110e3565b6000828154811061057157fe5b60009182526020918290206040805161014081018252600a90930290910180546001600160a01b03168352600180820180548451601f6002600019958416156101000295909501909216939093049081018790048702830187019094528382529394919385830193919290919083018282801561062f5780601f106106045761010080835404028352916020019161062f565b820191906000526020600020905b81548152906001019060200180831161061257829003601f168201915b5050509183525050600282810180546040805160206001841615610100026000190190931694909404601f810183900483028501830190915280845293810193908301828280156106c15780601f10610696576101008083540402835291602001916106c1565b820191906000526020600020905b8154815290600101906020018083116106a457829003601f168201915b505050918352505060038201546001600160a01b03166020808301919091526004830154604080840191909152600584018054825160026101006001841615026000190190921691909104601f81018590048502820185019093528281526060909401939290919083018282801561077a5780601f1061074f5761010080835404028352916020019161077a565b820191906000526020600020905b81548152906001019060200180831161075d57829003601f168201915b5050509183525050600682015460208083019190915260078301546001600160a01b0316604080840191909152600884018054825160026101006001841615026000190190921691909104601f8101859004850282018501909352828152606090940193929091908301828280156108335780601f1061080857610100808354040283529160200191610833565b820191906000526020600020905b81548152906001019060200180831161081657829003601f168201915b50505091835250506009919091015460209091015295945050505050565b60008061085d84610198565b9050600080828154811061086d57fe5b90600052602060002090600a0201905083816008019080519060200190610895929190611151565b50505092915050565b600081815481106108ab57fe5b6000918252602091829020600a9091020180546001808301805460408051601f60026000199685161561010002969096019093169490940491820187900487028401870190528083526001600160a01b0390931695509293909291908301828280156109585780601f1061092d57610100808354040283529160200191610958565b820191906000526020600020905b81548152906001019060200180831161093b57829003601f168201915b50505060028085018054604080516020601f60001961010060018716150201909416959095049283018590048502810185019091528181529596959450909250908301828280156109ea5780601f106109bf576101008083540402835291602001916109ea565b820191906000526020600020905b8154815290600101906020018083116109cd57829003601f168201915b505050506003830154600484015460058501805460408051602060026101006001861615026000190190941693909304601f810184900484028201840190925281815296976001600160a01b039095169693955090830182828015610a905780601f10610a6557610100808354040283529160200191610a90565b820191906000526020600020905b815481529060010190602001808311610a7357829003601f168201915b505050506006830154600784015460088501805460408051602060026101006001861615026000190190941693909304601f8101849004840282018401909252818152969794966001600160a01b03909416955090830182828015610b365780601f10610b0b57610100808354040283529160200191610b36565b820191906000526020600020905b815481529060010190602001808311610b1957829003601f168201915b505050505090806009015490508a565b610b4e6110e3565b610b566110e3565b60008381548110610b6357fe5b60009182526020918290206040805161014081018252600a90930290910180546001600160a01b03168352600180820180548451601f60026000199584161561010002959095019092169390930490810187900487028301870190945283825293949193858301939192909190830182828015610c215780601f10610bf657610100808354040283529160200191610c21565b820191906000526020600020905b815481529060010190602001808311610c0457829003601f168201915b5050509183525050600282810180546040805160206001841615610100026000190190931694909404601f81018390048302850183019091528084529381019390830182828015610cb35780601f10610c8857610100808354040283529160200191610cb3565b820191906000526020600020905b815481529060010190602001808311610c9657829003601f168201915b505050918352505060038201546001600160a01b03166020808301919091526004830154604080840191909152600584018054825160026101006001841615026000190190921691909104601f810185900485028201850190935282815260609094019392909190830182828015610d6c5780601f10610d4157610100808354040283529160200191610d6c565b820191906000526020600020905b815481529060010190602001808311610d4f57829003601f168201915b5050509183525050600682015460208083019190915260078301546001600160a01b0316604080840191909152600884018054825160026101006001841615026000190190921691909104601f810185900485028201850190935282815260609094019392909190830182828015610e255780601f10610dfa57610100808354040283529160200191610e25565b820191906000526020600020905b815481529060010190602001808311610e0857829003601f168201915b5050509183525050600991909101546020909101529392505050565b600080610e4d84610198565b90506000808281548110610e5d57fe5b90600052602060002090600a0201905060006001600160a01b0316846001600160a01b03161415610ea95760405162461bcd60e51b8152600401610ea090611829565b60405180910390fd5b60070180546001600160a01b0319166001600160a01b03949094169390931790925592915050565b60018181548110610ede57fe5b6000918252602090912001546001600160a01b0316905081565b6000610f026110e3565b5060408051610140810182526001600160a01b038b8116825260208083018881528385018d90528b83166060850152608084018b905260a084018a905260c0840188905286831660e08501528451808601909552600485526327b832b760e11b858301526101008401949094526000610120840181905280546001810180835591805284517f290decd9548b62a8d60345a988386fc84ba6bc95484008f6362f93160ef3e563600a90920291820180546001600160a01b031916919095161784559451805194959194869493610ffc937f290decd9548b62a8d60345a988386fc84ba6bc95484008f6362f93160ef3e56401920190611151565b5060408201518051611018916002840191602090910190611151565b5060608201516003820180546001600160a01b0319166001600160a01b039092169190911790556080820151600482015560a08201518051611064916005840191602090910190611151565b5060c0820151600682015560e08201516007820180546001600160a01b0319166001600160a01b0390921691909117905561010082015180516110b1916008840191602090910190611151565b506101209190910151600990910155508a516110d49060019060208e01906111cf565b50509998505050505050505050565b60405180610140016040528060006001600160a01b03168152602001606081526020016060815260200160006001600160a01b0316815260200160008152602001606081526020016000815260200160006001600160a01b0316815260200160608152602001600081525090565b828054600181600116156101000203166002900490600052602060002090601f016020900481019282601f1061119257805160ff19168380011785556111bf565b828001600101855582156111bf579182015b828111156111bf5782518255916020019190600101906111a4565b506111cb929150611230565b5090565b828054828255906000526020600020908101928215611224579160200282015b8281111561122457825182546001600160a01b0319166001600160a01b039091161782556020909201916001909101906111ef565b506111cb92915061124a565b61050391905b808211156111cb5760008155600101611236565b61050391905b808211156111cb5780546001600160a01b0319168155600101611250565b803561127981611948565b92915050565b600082601f83011261129057600080fd5b81356112a361129e8261187f565b611858565b915081818352602084019350602081019050838560208402820111156112c857600080fd5b60005b838110156112f457816112de888261126e565b84525060209283019291909101906001016112cb565b5050505092915050565b80356112798161195f565b600082601f83011261131a57600080fd5b813561132861129e826118a0565b9150808252602083016020830185838301111561134457600080fd5b610895838284611902565b803561127981611968565b60008060008060008060008060006101208a8c03121561137957600080fd5b893567ffffffffffffffff81111561139057600080fd5b61139c8c828d0161127f565b99505060206113ad8c828d016112fe565b98505060408a013567ffffffffffffffff8111156113ca57600080fd5b6113d68c828d01611309565b97505060606113e78c828d0161126e565b96505060806113f88c828d0161134f565b95505060a08a013567ffffffffffffffff81111561141557600080fd5b6114218c828d01611309565b94505060c08a013567ffffffffffffffff81111561143e57600080fd5b61144a8c828d01611309565b93505060e061145b8c828d0161134f565b92505061010061146d8c828d0161126e565b9150509295985092959850929598565b60006020828403121561148f57600080fd5b600061149b84846112fe565b949350505050565b600080604083850312156114b657600080fd5b60006114c285856112fe565b92505060206114d38582860161126e565b9150509250929050565b600080604083850312156114f057600080fd5b60006114fc85856112fe565b925050602083013567ffffffffffffffff81111561151957600080fd5b6114d385828601611309565b60006020828403121561153757600080fd5b600061149b848461134f565b600061154f8383611666565b9392505050565b61155f816118db565b82525050565b6000611570826118ce565b61157a81856118d2565b93508360208202850161158c856118c8565b8060005b858110156115c657848403895281516115a98582611543565b94506115b4836118c8565b60209a909a0199925050600101611590565b5091979650505050505050565b61155f816118e6565b61155f816118eb565b60006115f0826118ce565b6115fa81856118d2565b935061160a81856020860161190e565b6116138161193e565b9093019392505050565b600061162a6027836118d2565b7f41206e6577206f776e657220616464726573732073686f756c64206265206e6f8152667420656d70747960c81b602082015260400192915050565b805160009061014084019061167b85826115dc565b506020830151848203602086015261169382826115e5565b915050604083015184820360408601526116ad82826115e5565b91505060608301516116c26060860182611556565b5060808301516116d56080860182611742565b5060a083015184820360a08601526116ed82826115e5565b91505060c083015161170260c0860182611742565b5060e083015161171560e0860182611556565b5061010083015184820361010086015261172f82826115e5565b9150506101208301516101e66101208601825b61155f81610503565b602081016112798284611556565b6020808252810161154f8184611565565b6020810161127982846115d3565b6101408101611787828d6115dc565b8181036020830152611799818c6115e5565b905081810360408301526117ad818b6115e5565b90506117bc606083018a611556565b6117c96080830189611742565b81810360a08301526117db81886115e5565b90506117ea60c0830187611742565b6117f760e0830186611556565b81810361010083015261180a81856115e5565b905061181a610120830184611742565b9b9a5050505050505050505050565b602080825281016112798161161d565b6020808252810161154f8184611666565b602081016112798284611742565b60405181810167ffffffffffffffff8111828210171561187757600080fd5b604052919050565b600067ffffffffffffffff82111561189657600080fd5b5060209081020190565b600067ffffffffffffffff8211156118b757600080fd5b506020601f91909101601f19160190565b60200190565b5190565b90815260200190565b6000611279826118f6565b151590565b6000611279826118db565b6001600160a01b031690565b82818337506000910152565b60005b83811015611929578181015183820152602001611911565b83811115611938576000848401525b50505050565b601f01601f191690565b611951816118db565b811461195c57600080fd5b50565b611951816118eb565b6119518161050356fea365627a7a72315820ebf767d3d84a59a1fc30917d05d5c3352b411a68702b3d3dca647669dbb7eca96c6578706572696d656e74616cf564736f6c63430005100040",
  "source": "pragma solidity ^0.5.16;\npragma experimental ABIEncoderV2;\n\nimport { PhotoNFTDataStorages } from \"./photo-nft-data/commons/PhotoNFTDataStorages.sol\";\nimport { PhotoNFT } from \"./PhotoNFT.sol\";\n\n\n/**\n * @notice - This is the storage contract for photoNFTs\n */\ncontract PhotoNFTData is PhotoNFTDataStorages {\n\n    address[] public photoAddresses;\n\n    constructor() public {}\n\n    /**\n     * @notice - Save metadata of a photoNFT\n     */\n    function saveMetadataOfPhotoNFT(\n        address[] memory _photoAddresses, \n        PhotoNFT _photoNFT, \n        // string memory _photoNFTName, \n        string memory _photoNFTSymbol, \n        address _ownerAddress, \n        uint _photoPrice, \n        string memory _ipfsHashOfPhoto,\n        // string memory _typeOfSale,\n         string memory addresEmail,\n        uint _redevance,\n        address seller\n       \n    ) public returns (bool) {\n        /// Save metadata of a photoNFT of photo\n        Photo memory photo = Photo({\n            photoNFT: _photoNFT,\n            // photoNFTName: _photoNFTName,\n            photoNFTSymbol: _photoNFTSymbol,\n            ownerAddress: _ownerAddress,\n            photoPrice: _photoPrice,\n            ipfsHashOfPhoto: _ipfsHashOfPhoto,\n            // typeOfSale: _typeOfSale,\n            addresEmail:addresEmail,\n            redevance: _redevance,\n            seller: seller,\n            status: \"Open\",\n            reputation: 0\n            \n        });\n        photos.push(photo);\n\n        /// Update photoAddresses\n        photoAddresses = _photoAddresses;     \n    }\n\n    /**\n     * @notice - Update owner address of a photoNFT by transferring ownership\n     */\n    function updateSellerOfPhotoNFT(PhotoNFT _photoNFT, address _newOwner) public returns (bool) {\n        /// Identify photo's index\n        uint photoIndex = getPhotoIndex(_photoNFT);\n\n        /// Update metadata of a photoNFT of photo\n        Photo storage photo = photos[photoIndex];\n        require (_newOwner != address(0), \"A new owner address should be not empty\");\n        photo.seller = _newOwner;  \n    }\n\n    /**\n     * @notice - Update status (\"Open\" or \"Cancelled\")\n     */\n    function updateStatus(PhotoNFT _photoNFT, string memory _newStatus) public returns (bool) {\n        /// Identify photo's index\n        uint photoIndex = getPhotoIndex(_photoNFT);\n\n        /// Update metadata of a photoNFT of photo\n        Photo storage photo = photos[photoIndex];\n        photo.status = _newStatus;  \n    }\n\n\n    ///-----------------\n    /// Getter methods\n    ///-----------------\n    function getPhoto(uint index) public view returns (Photo memory _photo) {\n        Photo memory photo = photos[index];\n        return photo;\n    }\n\n    function getPhotoIndex(PhotoNFT photoNFT) public view returns (uint _photoIndex) {\n        address PHOTO_NFT = address(photoNFT);\n\n        /// Identify member's index\n        uint photoIndex;\n        for (uint i=0; i < photoAddresses.length; i++) {\n            if (photoAddresses[i] == PHOTO_NFT) {\n                photoIndex = i;\n            }\n        }\n\n        return photoIndex;   \n    }\n\n    function getPhotoByNFTAddress(PhotoNFT photoNFT) public view returns (Photo memory _photo) {\n        address PHOTO_NFT = address(photoNFT);\n\n        /// Identify member's index\n        uint photoIndex;\n        for (uint i=0; i < photoAddresses.length; i++) {\n            if (photoAddresses[i] == PHOTO_NFT) {\n                photoIndex = i;\n            }\n        }\n\n        Photo memory photo = photos[photoIndex];\n        return photo;\n    }\n\n    function getAllPhotos() public view returns (Photo[] memory _photos) {\n        return photos;\n    }\n\n}\n",
  "sourcePath": "/Users/amal/Documents/NFT-based-photo-marketplace/oldversion/contracts/PhotoNFTData.sol",
  "compiler": {
    "name": "solc",
    "version": "0.5.16+commit.9c3226ce.Emscripten.clang"
  },
  "schemaVersion": "3.4.2",
  "updatedAt": "2021-08-05T13:58:54.396Z",
  "networkType": "ethereum",
  "devdoc": {
    "methods": {}
  },
  "userdoc": {
    "methods": {
      "getPhoto(uint256)": {
        "notice": "----------------- Getter methods -----------------"
      },
      "saveMetadataOfPhotoNFT(address[],address,string,address,uint256,string,string,uint256,address)": {
        "notice": "- Save metadata of a photoNFT"
      },
      "updateSellerOfPhotoNFT(address,address)": {
        "notice": "- Update owner address of a photoNFT by transferring ownership"
      },
      "updateStatus(address,string)": {
        "notice": "- Update status (\"Open\" or \"Cancelled\")"
      }
    },
    "notice": "- This is the storage contract for photoNFTs"
  }
}