{
  "contractName": "PhotoNFTData",
  "abi": [
    {
      "inputs": [],
      "payable": false,
      "stateMutability": "nonpayable",
      "type": "constructor"
    },
    {
      "constant": true,
      "inputs": [
        {
          "internalType": "uint256",
          "name": "",
          "type": "uint256"
        }
      ],
      "name": "photoAddresses",
      "outputs": [
        {
          "internalType": "address",
          "name": "",
          "type": "address"
        }
      ],
      "payable": false,
      "stateMutability": "view",
      "type": "function"
    },
    {
      "constant": true,
      "inputs": [
        {
          "internalType": "uint256",
          "name": "",
          "type": "uint256"
        }
      ],
      "name": "photos",
      "outputs": [
        {
          "internalType": "contract PhotoNFT",
          "name": "photoNFT",
          "type": "address"
        },
        {
          "internalType": "string",
          "name": "addresEmail",
          "type": "string"
        },
        {
          "internalType": "string",
          "name": "photoNFTSymbol",
          "type": "string"
        },
        {
          "internalType": "address",
          "name": "ownerAddress",
          "type": "address"
        },
        {
          "internalType": "uint256",
          "name": "photoPrice",
          "type": "uint256"
        },
        {
          "internalType": "string",
          "name": "ipfsHashOfPhoto",
          "type": "string"
        },
        {
          "internalType": "uint256",
          "name": "redevance",
          "type": "uint256"
        },
        {
          "internalType": "address",
          "name": "seller",
          "type": "address"
        },
        {
          "internalType": "string",
          "name": "status",
          "type": "string"
        },
        {
          "internalType": "string",
          "name": "statusPhoto",
          "type": "string"
        }
      ],
      "payable": false,
      "stateMutability": "view",
      "type": "function"
    },
    {
      "constant": false,
      "inputs": [
        {
          "internalType": "address[]",
          "name": "_photoAddresses",
          "type": "address[]"
        },
        {
          "internalType": "contract PhotoNFT",
          "name": "_photoNFT",
          "type": "address"
        },
        {
          "internalType": "string",
          "name": "_photoNFTSymbol",
          "type": "string"
        },
        {
          "internalType": "address",
          "name": "_ownerAddress",
          "type": "address"
        },
        {
          "internalType": "uint256",
          "name": "_photoPrice",
          "type": "uint256"
        },
        {
          "internalType": "string",
          "name": "_ipfsHashOfPhoto",
          "type": "string"
        },
        {
          "internalType": "string",
          "name": "addresEmail",
          "type": "string"
        },
        {
          "internalType": "uint256",
          "name": "_redevance",
          "type": "uint256"
        },
        {
          "internalType": "address",
          "name": "seller",
          "type": "address"
        }
      ],
      "name": "saveMetadataOfPhotoNFT",
      "outputs": [
        {
          "internalType": "bool",
          "name": "",
          "type": "bool"
        }
      ],
      "payable": false,
      "stateMutability": "nonpayable",
      "type": "function"
    },
    {
      "constant": false,
      "inputs": [
        {
          "internalType": "contract PhotoNFT",
          "name": "_photoNFT",
          "type": "address"
        },
        {
          "internalType": "address",
          "name": "_newOwner",
          "type": "address"
        }
      ],
      "name": "updateSellerOfPhotoNFT",
      "outputs": [
        {
          "internalType": "bool",
          "name": "",
          "type": "bool"
        }
      ],
      "payable": false,
      "stateMutability": "nonpayable",
      "type": "function"
    },
    {
      "constant": false,
      "inputs": [
        {
          "internalType": "contract PhotoNFT",
          "name": "_photoNFT",
          "type": "address"
        },
        {
          "internalType": "string",
          "name": "_newStatus",
          "type": "string"
        }
      ],
      "name": "updateStatus",
      "outputs": [
        {
          "internalType": "bool",
          "name": "",
          "type": "bool"
        }
      ],
      "payable": false,
      "stateMutability": "nonpayable",
      "type": "function"
    },
    {
      "constant": false,
      "inputs": [
        {
          "internalType": "contract PhotoNFT",
          "name": "_photoNFT",
          "type": "address"
        },
        {
          "internalType": "string",
          "name": "_newStatus",
          "type": "string"
        }
      ],
      "name": "updateStatusPhoto",
      "outputs": [
        {
          "internalType": "bool",
          "name": "",
          "type": "bool"
        }
      ],
      "payable": false,
      "stateMutability": "nonpayable",
      "type": "function"
    },
    {
      "constant": true,
      "inputs": [
        {
          "internalType": "uint256",
          "name": "index",
          "type": "uint256"
        }
      ],
      "name": "getPhoto",
      "outputs": [
        {
          "components": [
            {
              "internalType": "contract PhotoNFT",
              "name": "photoNFT",
              "type": "address"
            },
            {
              "internalType": "string",
              "name": "addresEmail",
              "type": "string"
            },
            {
              "internalType": "string",
              "name": "photoNFTSymbol",
              "type": "string"
            },
            {
              "internalType": "address",
              "name": "ownerAddress",
              "type": "address"
            },
            {
              "internalType": "uint256",
              "name": "photoPrice",
              "type": "uint256"
            },
            {
              "internalType": "string",
              "name": "ipfsHashOfPhoto",
              "type": "string"
            },
            {
              "internalType": "uint256",
              "name": "redevance",
              "type": "uint256"
            },
            {
              "internalType": "address",
              "name": "seller",
              "type": "address"
            },
            {
              "internalType": "string",
              "name": "status",
              "type": "string"
            },
            {
              "internalType": "string",
              "name": "statusPhoto",
              "type": "string"
            }
          ],
          "internalType": "struct PhotoNFTDataObjects.Photo",
          "name": "_photo",
          "type": "tuple"
        }
      ],
      "payable": false,
      "stateMutability": "view",
      "type": "function"
    },
    {
      "constant": true,
      "inputs": [
        {
          "internalType": "contract PhotoNFT",
          "name": "photoNFT",
          "type": "address"
        }
      ],
      "name": "getPhotoIndex",
      "outputs": [
        {
          "internalType": "uint256",
          "name": "_photoIndex",
          "type": "uint256"
        }
      ],
      "payable": false,
      "stateMutability": "view",
      "type": "function"
    },
    {
      "constant": true,
      "inputs": [
        {
          "internalType": "contract PhotoNFT",
          "name": "photoNFT",
          "type": "address"
        }
      ],
      "name": "getPhotoByNFTAddress",
      "outputs": [
        {
          "components": [
            {
              "internalType": "contract PhotoNFT",
              "name": "photoNFT",
              "type": "address"
            },
            {
              "internalType": "string",
              "name": "addresEmail",
              "type": "string"
            },
            {
              "internalType": "string",
              "name": "photoNFTSymbol",
              "type": "string"
            },
            {
              "internalType": "address",
              "name": "ownerAddress",
              "type": "address"
            },
            {
              "internalType": "uint256",
              "name": "photoPrice",
              "type": "uint256"
            },
            {
              "internalType": "string",
              "name": "ipfsHashOfPhoto",
              "type": "string"
            },
            {
              "internalType": "uint256",
              "name": "redevance",
              "type": "uint256"
            },
            {
              "internalType": "address",
              "name": "seller",
              "type": "address"
            },
            {
              "internalType": "string",
              "name": "status",
              "type": "string"
            },
            {
              "internalType": "string",
              "name": "statusPhoto",
              "type": "string"
            }
          ],
          "internalType": "struct PhotoNFTDataObjects.Photo",
          "name": "_photo",
          "type": "tuple"
        }
      ],
      "payable": false,
      "stateMutability": "view",
      "type": "function"
    },
    {
      "constant": true,
      "inputs": [],
      "name": "getAllPhotos",
      "outputs": [
        {
          "components": [
            {
              "internalType": "contract PhotoNFT",
              "name": "photoNFT",
              "type": "address"
            },
            {
              "internalType": "string",
              "name": "addresEmail",
              "type": "string"
            },
            {
              "internalType": "string",
              "name": "photoNFTSymbol",
              "type": "string"
            },
            {
              "internalType": "address",
              "name": "ownerAddress",
              "type": "address"
            },
            {
              "internalType": "uint256",
              "name": "photoPrice",
              "type": "uint256"
            },
            {
              "internalType": "string",
              "name": "ipfsHashOfPhoto",
              "type": "string"
            },
            {
              "internalType": "uint256",
              "name": "redevance",
              "type": "uint256"
            },
            {
              "internalType": "address",
              "name": "seller",
              "type": "address"
            },
            {
              "internalType": "string",
              "name": "status",
              "type": "string"
            },
            {
              "internalType": "string",
              "name": "statusPhoto",
              "type": "string"
            }
          ],
          "internalType": "struct PhotoNFTDataObjects.Photo[]",
          "name": "_photos",
          "type": "tuple[]"
        }
      ],
      "payable": false,
      "stateMutability": "view",
      "type": "function"
    }
  ],
  "bytecode": "0x608060405234801561001057600080fd5b50611c27806100206000396000f3fe608060405234801561001057600080fd5b506004361061009e5760003560e01c8063af2a5d6f11610066578063af2a5d6f14610121578063b6be128a1461014a578063d376e9681461015d578063dc0985c314610170578063e75fd597146101905761009e565b80631f4342be146100a3578063226e4357146100cc57806348c31171146100ec5780637fd6c405146101015780639bab7f4a146100cc575b600080fd5b6100b66100b13660046116d8565b6101a3565b6040516100c39190611abd565b60405180910390f35b6100df6100da366004611738565b6101f9565b6040516100c391906119d7565b6100f4610246565b6040516100c391906119c6565b61011461010f3660046116d8565b6105e8565b6040516100c39190611aac565b61013461012f366004611780565b6109bd565b6040516100c39a999897969594939291906119e5565b610114610158366004611780565b610cef565b6100df61016b3660046116fe565b611074565b61018361017e366004611780565b611104565b6040516100c391906119b8565b6100df61019e3660046115b5565b61112b565b60008181805b6001548110156101f157826001600160a01b0316600182815481106101ca57fe5b6000918252602090912001546001600160a01b031614156101e9578091505b6001016101a9565b509392505050565b600080610205846101a3565b9050600080828154811061021557fe5b90600052602060002090600a020190508381600801908051906020019061023d92919061133e565b50505092915050565b60606000805480602002602001604051908101604052809291908181526020016000905b828210156105de5760008481526020908190206040805161014081018252600a860290920180546001600160a01b03168352600180820180548451600261010094831615949094026000190190911692909204601f81018790048702830187019094528382529394919385830193919290919083018282801561032e5780601f106103035761010080835404028352916020019161032e565b820191906000526020600020905b81548152906001019060200180831161031157829003601f168201915b5050509183525050600282810180546040805160206001841615610100026000190190931694909404601f810183900483028501830190915280845293810193908301828280156103c05780601f10610395576101008083540402835291602001916103c0565b820191906000526020600020905b8154815290600101906020018083116103a357829003601f168201915b505050918352505060038201546001600160a01b03166020808301919091526004830154604080840191909152600584018054825160026101006001841615026000190190921691909104601f8101859004850282018501909352828152606090940193929091908301828280156104795780601f1061044e57610100808354040283529160200191610479565b820191906000526020600020905b81548152906001019060200180831161045c57829003601f168201915b5050509183525050600682015460208083019190915260078301546001600160a01b0316604080840191909152600884018054825160026101006001841615026000190190921691909104601f8101859004850282018501909352828152606090940193929091908301828280156105325780601f1061050757610100808354040283529160200191610532565b820191906000526020600020905b81548152906001019060200180831161051557829003601f168201915b505050918352505060098201805460408051602060026001851615610100026000190190941693909304601f81018490048402820184019092528181529382019392918301828280156105c65780601f1061059b576101008083540402835291602001916105c6565b820191906000526020600020905b8154815290600101906020018083116105a957829003601f168201915b5050505050815250508152602001906001019061026a565b5050505090505b90565b6105f06113bc565b816000805b60015481101561063d57826001600160a01b03166001828154811061061657fe5b6000918252602090912001546001600160a01b03161415610635578091505b6001016105f5565b506106466113bc565b6000828154811061065357fe5b60009182526020918290206040805161014081018252600a90930290910180546001600160a01b03168352600180820180548451601f600260001995841615610100029590950190921693909304908101879004870283018701909452838252939491938583019391929091908301828280156107115780601f106106e657610100808354040283529160200191610711565b820191906000526020600020905b8154815290600101906020018083116106f457829003601f168201915b5050509183525050600282810180546040805160206001841615610100026000190190931694909404601f810183900483028501830190915280845293810193908301828280156107a35780601f10610778576101008083540402835291602001916107a3565b820191906000526020600020905b81548152906001019060200180831161078657829003601f168201915b505050918352505060038201546001600160a01b03166020808301919091526004830154604080840191909152600584018054825160026101006001841615026000190190921691909104601f81018590048502820185019093528281526060909401939290919083018282801561085c5780601f106108315761010080835404028352916020019161085c565b820191906000526020600020905b81548152906001019060200180831161083f57829003601f168201915b5050509183525050600682015460208083019190915260078301546001600160a01b0316604080840191909152600884018054825160026101006001841615026000190190921691909104601f8101859004850282018501909352828152606090940193929091908301828280156109155780601f106108ea57610100808354040283529160200191610915565b820191906000526020600020905b8154815290600101906020018083116108f857829003601f168201915b505050918352505060098201805460408051602060026001851615610100026000190190941693909304601f81018490048402820184019092528181529382019392918301828280156109a95780601f1061097e576101008083540402835291602001916109a9565b820191906000526020600020905b81548152906001019060200180831161098c57829003601f168201915b505050919092525091979650505050505050565b600081815481106109ca57fe5b6000918252602091829020600a9091020180546001808301805460408051601f60026000199685161561010002969096019093169490940491820187900487028401870190528083526001600160a01b039093169550929390929190830182828015610a775780601f10610a4c57610100808354040283529160200191610a77565b820191906000526020600020905b815481529060010190602001808311610a5a57829003601f168201915b50505060028085018054604080516020601f6000196101006001871615020190941695909504928301859004850281018501909152818152959695945090925090830182828015610b095780601f10610ade57610100808354040283529160200191610b09565b820191906000526020600020905b815481529060010190602001808311610aec57829003601f168201915b505050506003830154600484015460058501805460408051602060026101006001861615026000190190941693909304601f810184900484028201840190925281815296976001600160a01b039095169693955090830182828015610baf5780601f10610b8457610100808354040283529160200191610baf565b820191906000526020600020905b815481529060010190602001808311610b9257829003601f168201915b505050506006830154600784015460088501805460408051602060026101006001861615026000190190941693909304601f8101849004840282018401909252818152969794966001600160a01b03909416955090830182828015610c555780601f10610c2a57610100808354040283529160200191610c55565b820191906000526020600020905b815481529060010190602001808311610c3857829003601f168201915b5050505060098301805460408051602060026001851615610100026000190190941693909304601f8101849004840282018401909252818152949594935090830182828015610ce55780601f10610cba57610100808354040283529160200191610ce5565b820191906000526020600020905b815481529060010190602001808311610cc857829003601f168201915b505050505090508a565b610cf76113bc565b610cff6113bc565b60008381548110610d0c57fe5b60009182526020918290206040805161014081018252600a90930290910180546001600160a01b03168352600180820180548451601f60026000199584161561010002959095019092169390930490810187900487028301870190945283825293949193858301939192909190830182828015610dca5780601f10610d9f57610100808354040283529160200191610dca565b820191906000526020600020905b815481529060010190602001808311610dad57829003601f168201915b5050509183525050600282810180546040805160206001841615610100026000190190931694909404601f81018390048302850183019091528084529381019390830182828015610e5c5780601f10610e3157610100808354040283529160200191610e5c565b820191906000526020600020905b815481529060010190602001808311610e3f57829003601f168201915b505050918352505060038201546001600160a01b03166020808301919091526004830154604080840191909152600584018054825160026101006001841615026000190190921691909104601f810185900485028201850190935282815260609094019392909190830182828015610f155780601f10610eea57610100808354040283529160200191610f15565b820191906000526020600020905b815481529060010190602001808311610ef857829003601f168201915b5050509183525050600682015460208083019190915260078301546001600160a01b0316604080840191909152600884018054825160026101006001841615026000190190921691909104601f810185900485028201850190935282815260609094019392909190830182828015610fce5780601f10610fa357610100808354040283529160200191610fce565b820191906000526020600020905b815481529060010190602001808311610fb157829003601f168201915b505050918352505060098201805460408051602060026001851615610100026000190190941693909304601f81018490048402820184019092528181529382019392918301828280156110625780601f1061103757610100808354040283529160200191611062565b820191906000526020600020905b81548152906001019060200180831161104557829003601f168201915b50505091909252509195945050505050565b600080611080846101a3565b9050600080828154811061109057fe5b90600052602060002090600a0201905060006001600160a01b0316846001600160a01b031614156110dc5760405162461bcd60e51b81526004016110d390611a9c565b60405180910390fd5b60070180546001600160a01b0319166001600160a01b03949094169390931790925592915050565b6001818154811061111157fe5b6000918252602090912001546001600160a01b0316905081565b60006111356113bc565b5060408051610140810182526001600160a01b038b8116825260208083018881528385018d90528b83166060850152608084018b905260a084018a905260c0840188905286831660e08501528451808601865260048082526327b832b760e11b8285015261010086019190915285518087019096528552631b5a5b9d60e21b85830152610120840194909452600080546001810180835591805284517f290decd9548b62a8d60345a988386fc84ba6bc95484008f6362f93160ef3e563600a90920291820180546001600160a01b031916919095161784559451805194959194869493611246937f290decd9548b62a8d60345a988386fc84ba6bc95484008f6362f93160ef3e5640192019061133e565b506040820151805161126291600284019160209091019061133e565b5060608201516003820180546001600160a01b0319166001600160a01b039092169190911790556080820151600482015560a082015180516112ae91600584019160209091019061133e565b5060c0820151600682015560e08201516007820180546001600160a01b0319166001600160a01b0390921691909117905561010082015180516112fb91600884019160209091019061133e565b50610120820151805161131891600984019160209091019061133e565b50508c5161132f92506001915060208e019061142a565b50509998505050505050505050565b828054600181600116156101000203166002900490600052602060002090601f016020900481019282601f1061137f57805160ff19168380011785556113ac565b828001600101855582156113ac579182015b828111156113ac578251825591602001919060010190611391565b506113b892915061148b565b5090565b60405180610140016040528060006001600160a01b03168152602001606081526020016060815260200160006001600160a01b0316815260200160008152602001606081526020016000815260200160006001600160a01b0316815260200160608152602001606081525090565b82805482825590600052602060002090810192821561147f579160200282015b8281111561147f57825182546001600160a01b0319166001600160a01b0390911617825560209092019160019091019061144a565b506113b89291506114a5565b6105e591905b808211156113b85760008155600101611491565b6105e591905b808211156113b85780546001600160a01b03191681556001016114ab565b80356114d481611bbb565b92915050565b600082601f8301126114eb57600080fd5b81356114fe6114f982611af2565b611acb565b9150818183526020840193506020810190508385602084028201111561152357600080fd5b60005b8381101561154f578161153988826114c9565b8452506020928301929190910190600101611526565b5050505092915050565b80356114d481611bd2565b600082601f83011261157557600080fd5b81356115836114f982611b13565b9150808252602083016020830185838301111561159f57600080fd5b61023d838284611b75565b80356114d481611bdb565b60008060008060008060008060006101208a8c0312156115d457600080fd5b893567ffffffffffffffff8111156115eb57600080fd5b6115f78c828d016114da565b99505060206116088c828d01611559565b98505060408a013567ffffffffffffffff81111561162557600080fd5b6116318c828d01611564565b97505060606116428c828d016114c9565b96505060806116538c828d016115aa565b95505060a08a013567ffffffffffffffff81111561167057600080fd5b61167c8c828d01611564565b94505060c08a013567ffffffffffffffff81111561169957600080fd5b6116a58c828d01611564565b93505060e06116b68c828d016115aa565b9250506101006116c88c828d016114c9565b9150509295985092959850929598565b6000602082840312156116ea57600080fd5b60006116f68484611559565b949350505050565b6000806040838503121561171157600080fd5b600061171d8585611559565b925050602061172e858286016114c9565b9150509250929050565b6000806040838503121561174b57600080fd5b60006117578585611559565b925050602083013567ffffffffffffffff81111561177457600080fd5b61172e85828601611564565b60006020828403121561179257600080fd5b60006116f684846115aa565b60006117aa83836118c1565b9392505050565b6117ba81611b4e565b82525050565b60006117cb82611b41565b6117d58185611b45565b9350836020820285016117e785611b3b565b8060005b858110156118215784840389528151611804858261179e565b945061180f83611b3b565b60209a909a01999250506001016117eb565b5091979650505050505050565b6117ba81611b59565b6117ba81611b5e565b600061184b82611b41565b6118558185611b45565b9350611865818560208601611b81565b61186e81611bb1565b9093019392505050565b6000611885602783611b45565b7f41206e6577206f776e657220616464726573732073686f756c64206265206e6f8152667420656d70747960c81b602082015260400192915050565b80516000906101408401906118d68582611837565b50602083015184820360208601526118ee8282611840565b915050604083015184820360408601526119088282611840565b915050606083015161191d60608601826117b1565b50608083015161193060808601826119af565b5060a083015184820360a08601526119488282611840565b91505060c083015161195d60c08601826119af565b5060e083015161197060e08601826117b1565b5061010083015184820361010086015261198a8282611840565b9150506101208301518482036101208601526119a68282611840565b95945050505050565b6117ba816105e5565b602081016114d482846117b1565b602080825281016117aa81846117c0565b602081016114d4828461182e565b61014081016119f4828d611837565b8181036020830152611a06818c611840565b90508181036040830152611a1a818b611840565b9050611a29606083018a6117b1565b611a3660808301896119af565b81810360a0830152611a488188611840565b9050611a5760c08301876119af565b611a6460e08301866117b1565b818103610100830152611a778185611840565b9050818103610120830152611a8c8184611840565b9c9b505050505050505050505050565b602080825281016114d481611878565b602080825281016117aa81846118c1565b602081016114d482846119af565b60405181810167ffffffffffffffff81118282101715611aea57600080fd5b604052919050565b600067ffffffffffffffff821115611b0957600080fd5b5060209081020190565b600067ffffffffffffffff821115611b2a57600080fd5b506020601f91909101601f19160190565b60200190565b5190565b90815260200190565b60006114d482611b69565b151590565b60006114d482611b4e565b6001600160a01b031690565b82818337506000910152565b60005b83811015611b9c578181015183820152602001611b84565b83811115611bab576000848401525b50505050565b601f01601f191690565b611bc481611b4e565b8114611bcf57600080fd5b50565b611bc481611b5e565b611bc4816105e556fea365627a7a72315820258b266148ba507baf3d31e79d67ee4ccd79031b29400073d06d51f5254e5e3c6c6578706572696d656e74616cf564736f6c63430005100040",
  "source": "pragma solidity ^0.5.16;\npragma experimental ABIEncoderV2;\n\nimport { PhotoNFTDataStorages } from \"./photo-nft-data/commons/PhotoNFTDataStorages.sol\";\nimport { PhotoNFT } from \"./PhotoNFT.sol\";\n\n\n/**\n * @notice - This is the storage contract for photoNFTs\n */\ncontract PhotoNFTData is PhotoNFTDataStorages {\n\n    address[] public photoAddresses;\n\n    constructor() public {}\n\n    /**\n     * @notice - Save metadata of a photoNFT\n     */\n    function saveMetadataOfPhotoNFT(\n        address[] memory _photoAddresses, \n        PhotoNFT _photoNFT, \n        // string memory _photoNFTName, \n        string memory _photoNFTSymbol, \n        address _ownerAddress, \n        uint _photoPrice, \n        string memory _ipfsHashOfPhoto,\n        // string memory _typeOfSale,\n         string memory addresEmail,\n        uint _redevance,\n        address seller\n       \n    ) public returns (bool) {\n        /// Save metadata of a photoNFT of photo\n        Photo memory photo = Photo({\n            photoNFT: _photoNFT,\n            // photoNFTName: _photoNFTName,\n            photoNFTSymbol: _photoNFTSymbol,\n            ownerAddress: _ownerAddress,\n            photoPrice: _photoPrice,\n            ipfsHashOfPhoto: _ipfsHashOfPhoto,\n            // typeOfSale: _typeOfSale,\n            addresEmail:addresEmail,\n            redevance: _redevance,\n            seller: seller,\n            status: \"Open\",\n            statusPhoto:\"mint\"\n            // reputation: 0\n            \n        });\n        photos.push(photo);\n\n        /// Update photoAddresses\n        photoAddresses = _photoAddresses;     \n    }\n\n    /**\n     * @notice - Update owner address of a photoNFT by transferring ownership\n     */\n    function updateSellerOfPhotoNFT(PhotoNFT _photoNFT, address _newOwner) public returns (bool) {\n        /// Identify photo's index\n        uint photoIndex = getPhotoIndex(_photoNFT);\n\n        /// Update metadata of a photoNFT of photo\n        Photo storage photo = photos[photoIndex];\n        require (_newOwner != address(0), \"A new owner address should be not empty\");\n        photo.seller = _newOwner;  \n    }\n\n    /**\n     * @notice - Update status (\"Open\" or \"Cancelled\")\n     */\n    function updateStatus(PhotoNFT _photoNFT, string memory _newStatus) public returns (bool) {\n        /// Identify photo's index\n        uint photoIndex = getPhotoIndex(_photoNFT);\n\n        /// Update metadata of a photoNFT of photo\n        Photo storage photo = photos[photoIndex];\n        photo.status = _newStatus;  \n    }\n\n  function updateStatusPhoto(PhotoNFT _photoNFT, string memory _newStatus) public returns (bool) {\n        /// Identify photo's index\n        uint photoIndex = getPhotoIndex(_photoNFT);\n\n        /// Update metadata of a photoNFT of photo\n        Photo storage photo = photos[photoIndex];\n        photo.status = _newStatus;  \n    }\n    ///-----------------\n    /// Getter methods\n    ///-----------------\n    function getPhoto(uint index) public view returns (Photo memory _photo) {\n        Photo memory photo = photos[index];\n        return photo;\n    }\n\n    function getPhotoIndex(PhotoNFT photoNFT) public view returns (uint _photoIndex) {\n        address PHOTO_NFT = address(photoNFT);\n\n        /// Identify member's index\n        uint photoIndex;\n        for (uint i=0; i < photoAddresses.length; i++) {\n            if (photoAddresses[i] == PHOTO_NFT) {\n                photoIndex = i;\n            }\n        }\n\n        return photoIndex;   \n    }\n\n    function getPhotoByNFTAddress(PhotoNFT photoNFT) public view returns (Photo memory _photo) {\n        address PHOTO_NFT = address(photoNFT);\n\n        /// Identify member's index\n        uint photoIndex;\n        for (uint i=0; i < photoAddresses.length; i++) {\n            if (photoAddresses[i] == PHOTO_NFT) {\n                photoIndex = i;\n            }\n        }\n\n        Photo memory photo = photos[photoIndex];\n        return photo;\n    }\n\n    function getAllPhotos() public view returns (Photo[] memory _photos) {\n        return photos;\n    }\n\n}\n",
  "sourcePath": "/Users/amal/Documents/NFT-based-photo-marketplace/oldversion/contracts/PhotoNFTData.sol",
  "compiler": {
    "name": "solc",
    "version": "0.5.16+commit.9c3226ce.Emscripten.clang"
  },
  "schemaVersion": "3.4.2",
  "updatedAt": "2021-08-12T09:06:53.230Z",
  "networkType": "ethereum",
  "devdoc": {
    "methods": {}
  },
  "userdoc": {
    "methods": {
      "getPhoto(uint256)": {
        "notice": "----------------- Getter methods -----------------"
      },
      "saveMetadataOfPhotoNFT(address[],address,string,address,uint256,string,string,uint256,address)": {
        "notice": "- Save metadata of a photoNFT"
      },
      "updateSellerOfPhotoNFT(address,address)": {
        "notice": "- Update owner address of a photoNFT by transferring ownership"
      },
      "updateStatus(address,string)": {
        "notice": "- Update status (\"Open\" or \"Cancelled\")"
      }
    },
    "notice": "- This is the storage contract for photoNFTs"
  }
}