{
  "contractName": "PhotoNFTMarketplace",
  "abi": [
    {
      "inputs": [
        {
          "internalType": "contract PhotoNFTData",
          "name": "_photoNFTData",
          "type": "address"
        }
      ],
      "payable": false,
      "stateMutability": "nonpayable",
      "type": "constructor"
    },
    {
      "anonymous": false,
      "inputs": [
        {
          "indexed": false,
          "internalType": "contract PhotoNFT",
          "name": "photoNFT",
          "type": "address"
        },
        {
          "indexed": false,
          "internalType": "uint256",
          "name": "photoId",
          "type": "uint256"
        },
        {
          "indexed": false,
          "internalType": "address",
          "name": "ownerBeforeOwnershipTransferred",
          "type": "address"
        },
        {
          "indexed": false,
          "internalType": "address",
          "name": "ownerAfterOwnershipTransferred",
          "type": "address"
        }
      ],
      "name": "PhotoNFTOwnershipChanged",
      "type": "event"
    },
    {
      "anonymous": false,
      "inputs": [
        {
          "indexed": false,
          "internalType": "uint256",
          "name": "ad",
          "type": "uint256"
        },
        {
          "indexed": false,
          "internalType": "bytes32",
          "name": "status",
          "type": "bytes32"
        }
      ],
      "name": "TradeStatusChange",
      "type": "event"
    },
    {
      "constant": true,
      "inputs": [],
      "name": "PHOTO_NFT_MARKETPLACE",
      "outputs": [
        {
          "internalType": "address",
          "name": "",
          "type": "address"
        }
      ],
      "payable": false,
      "stateMutability": "view",
      "type": "function"
    },
    {
      "constant": false,
      "inputs": [
        {
          "internalType": "contract PhotoNFT",
          "name": "photoNFT",
          "type": "address"
        },
        {
          "internalType": "uint256",
          "name": "_photoId",
          "type": "uint256"
        }
      ],
      "name": "cancelTrade",
      "outputs": [],
      "payable": false,
      "stateMutability": "nonpayable",
      "type": "function"
    },
    {
      "constant": true,
      "inputs": [
        {
          "internalType": "uint256",
          "name": "_photoId",
          "type": "uint256"
        }
      ],
      "name": "getTrade",
      "outputs": [
        {
          "components": [
            {
              "internalType": "address",
              "name": "seller",
              "type": "address"
            },
            {
              "internalType": "uint256",
              "name": "photoId",
              "type": "uint256"
            },
            {
              "internalType": "uint256",
              "name": "photoPrice",
              "type": "uint256"
            },
            {
              "internalType": "bytes32",
              "name": "status",
              "type": "bytes32"
            }
          ],
          "internalType": "struct PhotoNFTTradable.Trade",
          "name": "trade_",
          "type": "tuple"
        }
      ],
      "payable": false,
      "stateMutability": "view",
      "type": "function"
    },
    {
      "constant": false,
      "inputs": [
        {
          "internalType": "contract PhotoNFT",
          "name": "photoNFT",
          "type": "address"
        },
        {
          "internalType": "uint256",
          "name": "_photoId",
          "type": "uint256"
        }
      ],
      "name": "openTrade",
      "outputs": [],
      "payable": false,
      "stateMutability": "nonpayable",
      "type": "function"
    },
    {
      "constant": false,
      "inputs": [
        {
          "internalType": "contract PhotoNFT",
          "name": "photoNFT",
          "type": "address"
        },
        {
          "internalType": "uint256",
          "name": "_photoId",
          "type": "uint256"
        },
        {
          "internalType": "uint256",
          "name": "_photoPrice",
          "type": "uint256"
        }
      ],
      "name": "openTradeWhenCreateNewPhotoNFT",
      "outputs": [],
      "payable": false,
      "stateMutability": "nonpayable",
      "type": "function"
    },
    {
      "constant": true,
      "inputs": [],
      "name": "photoNFT",
      "outputs": [
        {
          "internalType": "contract PhotoNFT",
          "name": "",
          "type": "address"
        }
      ],
      "payable": false,
      "stateMutability": "view",
      "type": "function"
    },
    {
      "constant": true,
      "inputs": [],
      "name": "photoNFTData",
      "outputs": [
        {
          "internalType": "contract PhotoNFTData",
          "name": "",
          "type": "address"
        }
      ],
      "payable": false,
      "stateMutability": "view",
      "type": "function"
    },
    {
      "constant": true,
      "inputs": [
        {
          "internalType": "uint256",
          "name": "",
          "type": "uint256"
        }
      ],
      "name": "trades",
      "outputs": [
        {
          "internalType": "address",
          "name": "seller",
          "type": "address"
        },
        {
          "internalType": "uint256",
          "name": "photoId",
          "type": "uint256"
        },
        {
          "internalType": "uint256",
          "name": "photoPrice",
          "type": "uint256"
        },
        {
          "internalType": "bytes32",
          "name": "status",
          "type": "bytes32"
        }
      ],
      "payable": false,
      "stateMutability": "view",
      "type": "function"
    },
    {
      "constant": false,
      "inputs": [
        {
          "internalType": "contract PhotoNFT",
          "name": "_photoNFT",
          "type": "address"
        },
        {
          "internalType": "uint256",
          "name": "_photoId",
          "type": "uint256"
        },
        {
          "internalType": "address",
          "name": "_buyer",
          "type": "address"
        }
      ],
      "name": "transferOwnershipOfPhotoNFT",
      "outputs": [],
      "payable": false,
      "stateMutability": "nonpayable",
      "type": "function"
    },
    {
      "constant": false,
      "inputs": [
        {
          "internalType": "address",
          "name": "_photoNFT",
          "type": "address"
        }
      ],
      "name": "ownerPhoto",
      "outputs": [
        {
          "internalType": "address",
          "name": "",
          "type": "address"
        }
      ],
      "payable": false,
      "stateMutability": "nonpayable",
      "type": "function"
    },
    {
      "constant": false,
      "inputs": [
        {
          "internalType": "address payable",
          "name": "_from",
          "type": "address"
        },
        {
          "internalType": "address",
          "name": "_to",
          "type": "address"
        },
        {
          "internalType": "address",
          "name": "_photoId",
          "type": "address"
        },
        {
          "internalType": "uint256",
          "name": "amount",
          "type": "uint256"
        }
      ],
      "name": "approveAndTransfer",
      "outputs": [
        {
          "internalType": "bool",
          "name": "",
          "type": "bool"
        }
      ],
      "payable": false,
      "stateMutability": "nonpayable",
      "type": "function"
    },
    {
      "constant": false,
      "inputs": [
        {
          "internalType": "contract PhotoNFT",
          "name": "_photoNFT",
          "type": "address"
        }
      ],
      "name": "buyPhotoNFT",
      "outputs": [
        {
          "internalType": "bool",
          "name": "",
          "type": "bool"
        }
      ],
      "payable": true,
      "stateMutability": "payable",
      "type": "function"
    },
    {
      "constant": false,
      "inputs": [
        {
          "internalType": "contract PhotoNFT",
          "name": "_photoNFT",
          "type": "address"
        }
      ],
      "name": "transfertPhotoNFT",
      "outputs": [
        {
          "internalType": "bool",
          "name": "",
          "type": "bool"
        }
      ],
      "payable": true,
      "stateMutability": "payable",
      "type": "function"
    },
    {
      "constant": false,
      "inputs": [
        {
          "internalType": "address",
          "name": "auction",
          "type": "address"
        },
        {
          "internalType": "address",
          "name": "_photoNFT",
          "type": "address"
        }
      ],
      "name": "approvePhoto",
      "outputs": [],
      "payable": false,
      "stateMutability": "nonpayable",
      "type": "function"
    },
    {
      "constant": false,
      "inputs": [
        {
          "internalType": "address",
          "name": "seller",
          "type": "address"
        },
        {
          "internalType": "address",
          "name": "buyer",
          "type": "address"
        },
        {
          "internalType": "address",
          "name": "_photoNFT",
          "type": "address"
        }
      ],
      "name": "transfertFromPhotoNFT",
      "outputs": [
        {
          "internalType": "bool",
          "name": "",
          "type": "bool"
        }
      ],
      "payable": true,
      "stateMutability": "payable",
      "type": "function"
    },
    {
      "constant": false,
      "inputs": [
        {
          "internalType": "address",
          "name": "from",
          "type": "address"
        },
        {
          "internalType": "address",
          "name": "to",
          "type": "address"
        },
        {
          "internalType": "uint256",
          "name": "photoId",
          "type": "uint256"
        }
      ],
      "name": "reputation",
      "outputs": [
        {
          "internalType": "uint256",
          "name": "",
          "type": "uint256"
        },
        {
          "internalType": "uint256",
          "name": "",
          "type": "uint256"
        }
      ],
      "payable": false,
      "stateMutability": "nonpayable",
      "type": "function"
    },
    {
      "constant": true,
      "inputs": [
        {
          "internalType": "uint256",
          "name": "photoId",
          "type": "uint256"
        }
      ],
      "name": "getReputationCount",
      "outputs": [
        {
          "internalType": "uint256",
          "name": "",
          "type": "uint256"
        }
      ],
      "payable": false,
      "stateMutability": "view",
      "type": "function"
    }
  ],
  "bytecode": "0x60806040523480156200001157600080fd5b50604051620021c3380380620021c383398101604081905262000034916200007c565b600180546001600160a01b039092166001600160a01b03199283168117909155600060035560058054909216179055620000e5565b80516200007681620000cb565b92915050565b6000602082840312156200008f57600080fd5b60006200009d848462000069565b949350505050565b60006200007682620000bf565b60006200007682620000a5565b6001600160a01b031690565b620000d681620000b2565b8114620000e257600080fd5b50565b6120ce80620000f56000396000f3fe6080604052600436106100fe5760003560e01c806368ba452b116100955780639058e131116100645780639058e131146102a05780639b92ed72146102c0578063a2793daf146102e0578063e61b28db1461030e578063ec03951414610330576100fe565b806368ba452b14610213578063759c4bf3146102335780637cc0c9bd1461025357806380a279c414610280576100fe565b8063493c2176116100d1578063493c21761461019c57806349b1d3e7146101be5780634a8de542146101de5780634fe71d13146101f1576100fe565b8063122ddedb1461010357806316f946ef1461012c5780631e6c598e1461013f5780632db25e051461016f575b600080fd5b6101166101113660046119f7565b610345565b6040516101239190611e38565b60405180910390f35b61011661013a366004611aa5565b610587565b34801561014b57600080fd5b5061015f61015a366004611b8c565b61094a565b6040516101239493929190611dfa565b34801561017b57600080fd5b5061018f61018a366004611b8c565b61097d565b6040516101239190611f22565b3480156101a857600080fd5b506101bc6101b7366004611af3565b6109d9565b005b3480156101ca57600080fd5b506101bc6101d9366004611b25565b610acf565b6101166101ec366004611aa5565b610bdf565b3480156101fd57600080fd5b50610206610f3d565b6040516101239190611d94565b34801561021f57600080fd5b506101bc61022e3660046119bd565b610f4c565b34801561023f57600080fd5b506101bc61024e366004611ac3565b610fb7565b34801561025f57600080fd5b5061027361026e366004611b8c565b611144565b6040516101239190611f30565b34801561028c57600080fd5b506101bc61029b366004611ac3565b61114a565b3480156102ac57600080fd5b506102066102bb366004611920565b6112a4565b3480156102cc57600080fd5b506101166102db36600461195c565b61133f565b3480156102ec57600080fd5b506103006102fb366004611a44565b611627565b604051610123929190611f72565b34801561031a57600080fd5b50610323611632565b6040516101239190611e46565b34801561033c57600080fd5b50610323611641565b6040516331a9108f60e11b8152600090829060019083906001600160a01b03841690636352211e9061037b908590600401611f30565b60206040518083038186803b15801561039357600080fd5b505afa1580156103a7573d6000803e3d6000fd5b505050506040513d601f19601f820116820180604052506103cb919081019061193e565b90506103d88383886109d9565b600554604051631a6edd2d60e31b81526001600160a01b039091169063d376e9689061040a9086908a90600401611e54565b602060405180830381600087803b15801561042457600080fd5b505af1158015610438573d6000803e3d6000fd5b505050506040513d601f19601f8201168201806040525061045c9190810190611a87565b506040516331a9108f60e11b81526000906001600160a01b03851690636352211e9061048c908690600401611f30565b60206040518083038186803b1580156104a457600080fd5b505afa1580156104b8573d6000803e3d6000fd5b505050506040513d601f19601f820116820180604052506104dc919081019061193e565b60405163095ea7b360e01b81529091506001600160a01b0385169063095ea7b39061050d908a908790600401611dd8565b600060405180830381600087803b15801561052757600080fd5b505af115801561053b573d6000803e3d6000fd5b505050507fa8ffd0052cf94298cdb4d728ccaebde44f94e7568e31b2129a24a8b2e10fea8c848484846040516105749493929190611ead565b60405180910390a1505050509392505050565b60008161059261167f565b600554604051637fd6c40560e01b81526001600160a01b0390911690637fd6c405906105c2908590600401611e46565b60006040518083038186803b1580156105da57600080fd5b505afa1580156105ee573d6000803e3d6000fd5b505050506040513d6000823e601f3d908101601f191682016040526106169190810190611b57565b6060810151608082015191925090819034811461064e5760405162461bcd60e51b815260040161064590611f12565b60405180910390fd5b6040516001600160a01b0383169082156108fc029083906000818181858888f19350505050158015610684573d6000803e3d6000fd5b5060405163095ea7b360e01b815233906001906001600160a01b0388169063095ea7b3906106b89085908590600401611dd8565b600060405180830381600087803b1580156106d257600080fd5b505af11580156106e6573d6000803e3d6000fd5b50506040516331a9108f60e11b8152600092506001600160a01b038a169150636352211e90610719908590600401611f30565b60206040518083038186803b15801561073157600080fd5b505afa158015610745573d6000803e3d6000fd5b505050506040513d601f19601f82011682018060405250610769919081019061193e565b90506107768883856109d9565b600554604051631a6edd2d60e31b81526001600160a01b039091169063d376e968906107a8908b908790600401611e54565b602060405180830381600087803b1580156107c257600080fd5b505af11580156107d6573d6000803e3d6000fd5b505050506040513d601f19601f820116820180604052506107fa9190810190611a87565b50600554604051634dd5bfa560e11b81526001600160a01b0390911690639bab7f4a9061082b908b90600401611e6f565b602060405180830381600087803b15801561084557600080fd5b505af1158015610859573d6000803e3d6000fd5b505050506040513d601f19601f8201168201806040525061087d9190810190611a87565b506040516331a9108f60e11b81526000906001600160a01b038a1690636352211e906108ad908690600401611f30565b60206040518083038186803b1580156108c557600080fd5b505afa1580156108d9573d6000803e3d6000fd5b505050506040513d601f19601f820116820180604052506108fd919081019061193e565b90507fa8ffd0052cf94298cdb4d728ccaebde44f94e7568e31b2129a24a8b2e10fea8c898484846040516109349493929190611ead565b60405180910390a1505050505050505050919050565b600260208190526000918252604090912080546001820154928201546003909201546001600160a01b0390911692919084565b6109856116ed565b61098d6116ed565b5050600090815260026020818152604092839020835160808101855281546001600160a01b03168152600182015492810192909252918201549281019290925260030154606082015290565b826109e26116ed565b6109eb8461097d565b905080606001516327b832b760e11b14610a175760405162461bcd60e51b815260040161064590611f02565b610a22858585611650565b60208101516040516323b872dd60e01b81526001600160a01b038416916323b872dd91610a56913091889190600401611dca565b600060405180830381600087803b158015610a7057600080fd5b505af1158015610a84573d6000803e3d6000fd5b505050506810d85b98d95b1b195960ba1b610a9e8561097d565b6060015260405160008051602061206c83398151915290610ac0908690611f3e565b60405180910390a15050505050565b6040516323b872dd60e01b81526001600160a01b038416906323b872dd90610aff90339030908790600401611da2565b600060405180830381600087803b158015610b1957600080fd5b505af1158015610b2d573d6000803e3d6000fd5b50506003805460019081018083556040805160808101825233815260208082018a81528284018a81526327b832b760e11b60608501908152600096875260029384905295859020935184546001600160a01b0319166001600160a01b039091161784559051958301959095559351938101939093559051918301919091559054905160008051602061206c8339815191529350610bd292506000199190910190611f58565b60405180910390a1505050565b600081610bea61167f565b600554604051637fd6c40560e01b81526001600160a01b0390911690637fd6c40590610c1a908590600401611e46565b60006040518083038186803b158015610c3257600080fd5b505afa158015610c46573d6000803e3d6000fd5b505050506040513d6000823e601f3d908101601f19168201604052610c6e9190810190611b57565b606081015160405163095ea7b360e01b815291925090819033906001906001600160a01b0387169063095ea7b390610cac9085908590600401611dd8565b600060405180830381600087803b158015610cc657600080fd5b505af1158015610cda573d6000803e3d6000fd5b50506040516331a9108f60e11b8152600092506001600160a01b0389169150636352211e90610d0d908590600401611f30565b60206040518083038186803b158015610d2557600080fd5b505afa158015610d39573d6000803e3d6000fd5b505050506040513d601f19601f82011682018060405250610d5d919081019061193e565b9050610d6a8783856109d9565b600554604051631a6edd2d60e31b81526001600160a01b039091169063d376e96890610d9c908a908790600401611e54565b602060405180830381600087803b158015610db657600080fd5b505af1158015610dca573d6000803e3d6000fd5b505050506040513d601f19601f82011682018060405250610dee9190810190611a87565b50600554604051634dd5bfa560e11b81526001600160a01b0390911690639bab7f4a90610e1f908a90600401611e6f565b602060405180830381600087803b158015610e3957600080fd5b505af1158015610e4d573d6000803e3d6000fd5b505050506040513d601f19601f82011682018060405250610e719190810190611a87565b506040516331a9108f60e11b81526000906001600160a01b03891690636352211e90610ea1908690600401611f30565b60206040518083038186803b158015610eb957600080fd5b505afa158015610ecd573d6000803e3d6000fd5b505050506040513d601f19601f82011682018060405250610ef1919081019061193e565b90507fa8ffd0052cf94298cdb4d728ccaebde44f94e7568e31b2129a24a8b2e10fea8c88848484604051610f289493929190611ead565b60405180910390a15050505050505050919050565b6004546001600160a01b031681565b60405163095ea7b360e01b815281906001906001600160a01b0383169063095ea7b390610f7f9087908590600401611dd8565b600060405180830381600087803b158015610f9957600080fd5b505af1158015610fad573d6000803e3d6000fd5b5050505050505050565b600154604051634dd5bfa560e11b81526001600160a01b0390911690639bab7f4a90610fe7908590600401611e6f565b602060405180830381600087803b15801561100157600080fd5b505af1158015611015573d6000803e3d6000fd5b505050506040513d601f19601f820116820180604052506110399190810190611a87565b50600081815260026020526040902080546001600160a01b031633146110715760405162461bcd60e51b815260040161064590611ee2565b80600301546327b832b760e11b1461109b5760405162461bcd60e51b815260040161064590611f02565b805460018201546040516323b872dd60e01b81526001600160a01b03868116936323b872dd936110d393309390921691600401611dca565b600060405180830381600087803b1580156110ed57600080fd5b505af1158015611101573d6000803e3d6000fd5b505050600083815260026020526040908190206810d85b98d95b1b195960ba1b6003909101555160008051602061206c8339815191529150610bd2908490611f3e565b50600090565b600154604051634dd5bfa560e11b81526001600160a01b0390911690639bab7f4a9061117a908590600401611e8e565b602060405180830381600087803b15801561119457600080fd5b505af11580156111a8573d6000803e3d6000fd5b505050506040513d601f19601f820116820180604052506111cc9190810190611a87565b50600081815260026020526040902080546001600160a01b031633146112045760405162461bcd60e51b815260040161064590611ef2565b60018101546040516323b872dd60e01b81526001600160a01b038516916323b872dd91611238913391309190600401611da2565b600060405180830381600087803b15801561125257600080fd5b505af1158015611266573d6000803e3d6000fd5b505050600083815260026020526040908190206327b832b760e11b6003909101555160008051602061206c8339815191529150610bd2908490611f58565b6000816112af61167f565b600554604051637fd6c40560e01b81526001600160a01b0390911690637fd6c405906112df908590600401611e46565b60006040518083038186803b1580156112f757600080fd5b505afa15801561130b573d6000803e3d6000fd5b505050506040513d6000823e601f3d908101601f191682016040526113339190810190611b57565b60e00151949350505050565b60008261134a61167f565b600554604051637fd6c40560e01b81526001600160a01b0390911690637fd6c4059061137a908590600401611e46565b60006040518083038186803b15801561139257600080fd5b505afa1580156113a6573d6000803e3d6000fd5b505050506040513d6000823e601f3d908101601f191682016040526113ce9190810190611b57565b9050600060648260c001518602816113e257fe5b049050876001600160a01b03166108fc829081150290604051600060405180830381858888f1935050505015801561141e573d6000803e3d6000fd5b5060405163095ea7b360e01b81526001906001600160a01b0385169063095ea7b390611450908b908590600401611dd8565b600060405180830381600087803b15801561146a57600080fd5b505af115801561147e573d6000803e3d6000fd5b5050505061148d84828a6109d9565b600554604051631a6edd2d60e31b81526001600160a01b039091169063d376e968906114bf9087908c90600401611e54565b602060405180830381600087803b1580156114d957600080fd5b505af11580156114ed573d6000803e3d6000fd5b505050506040513d601f19601f820116820180604052506115119190810190611a87565b50600554604051634dd5bfa560e11b81526001600160a01b0390911690639bab7f4a90611542908790600401611e6f565b602060405180830381600087803b15801561155c57600080fd5b505af1158015611570573d6000803e3d6000fd5b505050506040513d601f19601f820116820180604052506115949190810190611a87565b506040516331a9108f60e11b81526000906001600160a01b03861690636352211e906115c4908590600401611f30565b60206040518083038186803b1580156115dc57600080fd5b505afa1580156115f0573d6000803e3d6000fd5b505050506040513d601f19601f82011682018060405250611614919081019061193e565b506001955050505050505b949350505050565b600080935093915050565b6000546001600160a01b031681565b6005546001600160a01b031681565b60009182526002602052604090912080546001600160a01b0319166001600160a01b0390921691909117905550565b60405180610140016040528060006001600160a01b03168152602001606081526020016060815260200160006001600160a01b0316815260200160008152602001606081526020016000815260200160006001600160a01b0316815260200160608152602001606081525090565b60408051608081018252600080825260208201819052918101829052606081019190915290565b803561171f81612039565b92915050565b805161171f81612039565b805161171f81612050565b803561171f81612059565b805161171f81612059565b600082601f83011261176257600080fd5b815161177561177082611fa7565b611f80565b9150808252602083016020830185838301111561179157600080fd5b61179c83828461200d565b50505092915050565b600061014082840312156117b857600080fd5b6117c3610140611f80565b905060006117d18484611746565b825250602082015167ffffffffffffffff8111156117ee57600080fd5b6117fa84828501611751565b602083015250604082015167ffffffffffffffff81111561181a57600080fd5b61182684828501611751565b604083015250606061183a84828501611725565b606083015250608061184e84828501611915565b60808301525060a082015167ffffffffffffffff81111561186e57600080fd5b61187a84828501611751565b60a08301525060c061188e84828501611915565b60c08301525060e06118a284828501611725565b60e08301525061010082015167ffffffffffffffff8111156118c357600080fd5b6118cf84828501611751565b6101008301525061012082015167ffffffffffffffff8111156118f157600080fd5b6118fd84828501611751565b6101208301525092915050565b803561171f81612062565b805161171f81612062565b60006020828403121561193257600080fd5b600061161f8484611714565b60006020828403121561195057600080fd5b600061161f8484611725565b6000806000806080858703121561197257600080fd5b600061197e8787611714565b945050602061198f87828801611714565b93505060406119a087828801611714565b92505060606119b18782880161190a565b91505092959194509250565b600080604083850312156119d057600080fd5b60006119dc8585611714565b92505060206119ed85828601611714565b9150509250929050565b600080600060608486031215611a0c57600080fd5b6000611a188686611714565b9350506020611a2986828701611714565b9250506040611a3a86828701611714565b9150509250925092565b600080600060608486031215611a5957600080fd5b6000611a658686611714565b9350506020611a7686828701611714565b9250506040611a3a8682870161190a565b600060208284031215611a9957600080fd5b600061161f8484611730565b600060208284031215611ab757600080fd5b600061161f848461173b565b60008060408385031215611ad657600080fd5b6000611ae2858561173b565b92505060206119ed8582860161190a565b600080600060608486031215611b0857600080fd5b6000611b14868661173b565b9350506020611a298682870161190a565b600080600060608486031215611b3a57600080fd5b6000611b46868661173b565b9350506020611a768682870161190a565b600060208284031215611b6957600080fd5b815167ffffffffffffffff811115611b8057600080fd5b61161f848285016117a5565b600060208284031215611b9e57600080fd5b600061161f848461190a565b611bb381612002565b82525050565b611bb381611fd8565b611bb381611fe3565b611bb381611fe8565b611bb381611feb565b6000611bea602683611fcf565b7f54726164652063616e2062652063616e63656c6c6564206f6e6c79206279207381526532b63632b91760d11b602082015260400192915050565b6000611c32602183611fcf565b7f54726164652063616e206265206f70656e206f6e6c792062792073656c6c65728152601760f91b602082015260400192915050565b6000611c75601283611fcf565b712a3930b2329034b9903737ba1027b832b71760711b815260200192915050565b6810d85b98d95b1b195960ba1b9052565b6000611cb4600983611fcf565b6810d85b98d95b1b195960ba1b815260200192915050565b6327b832b760e11b9052565b6000611ce5600483611fcf565b6327b832b760e11b815260200192915050565b6000611d05602a83611fcf565b7f6d73672e76616c75652073686f756c6420626520657175616c20746f2074686581526908189d5e505b5bdd5b9d60b21b602082015260400192915050565b80516080830190611d558482611bb9565b506020820151611d686020850182611bcb565b506040820151611d7b6040850182611bcb565b506060820151611d8e6060850182611bcb565b50505050565b6020810161171f8284611bb9565b60608101611db08286611baa565b611dbd6020830185611bb9565b61161f6040830184611bcb565b60608101611db08286611bb9565b60408101611de68285611bb9565b611df36020830184611bcb565b9392505050565b60808101611e088287611bb9565b611e156020830186611bcb565b611e226040830185611bcb565b611e2f6060830184611bcb565b95945050505050565b6020810161171f8284611bc2565b6020810161171f8284611bd4565b60408101611e628285611bd4565b611df36020830184611bb9565b60408101611e7d8284611bd4565b8181036020830152611df381611ca7565b60408101611e9c8284611bd4565b8181036020830152611df381611cd8565b60808101611ebb8287611bd4565b611ec86020830186611bcb565b611ed56040830185611bb9565b611e2f6060830184611bb9565b6020808252810161171f81611bdd565b6020808252810161171f81611c25565b6020808252810161171f81611c68565b6020808252810161171f81611cf8565b6080810161171f8284611d44565b6020810161171f8284611bcb565b60408101611f4c8284611bcb565b61171f60208301611c96565b60408101611f668284611bcb565b61171f60208301611ccc565b60408101611de68285611bcb565b60405181810167ffffffffffffffff81118282101715611f9f57600080fd5b604052919050565b600067ffffffffffffffff821115611fbe57600080fd5b506020601f91909101601f19160190565b90815260200190565b600061171f82611ff6565b151590565b90565b600061171f82611fd8565b6001600160a01b031690565b600061171f82611feb565b60005b83811015612028578181015183820152602001612010565b83811115611d8e5750506000910152565b61204281611fd8565b811461204d57600080fd5b50565b61204281611fe3565b61204281611feb565b61204281611fe856fe4d38ed2c5ea671a5ccddc331f0ebebd94a60aaf6e572543497485d4d148f9edfa365627a7a72315820d8ce0564ef6c299476089d9735b9c525ced47c7059545f15acb3b94bf9fead9e6c6578706572696d656e74616cf564736f6c63430005100040",
  "source": "pragma solidity ^0.5.16;\npragma experimental ABIEncoderV2;\n\n//import { ERC20 } from './openzeppelin-solidity/contracts/token/ERC20/ERC20.sol';\nimport { SafeMath } from \"./openzeppelin-solidity/contracts/math/SafeMath.sol\";\nimport { PhotoNFT } from \"./PhotoNFT.sol\";\nimport { PhotoNFTTradable } from \"./PhotoNFTTradable.sol\";\nimport { PhotoNFTMarketplaceEvents } from \"./photo-nft-marketplace/commons/PhotoNFTMarketplaceEvents.sol\";\nimport { PhotoNFTData } from \"./PhotoNFTData.sol\";\n\n\n\n\ncontract PhotoNFTMarketplace is PhotoNFTTradable, PhotoNFTMarketplaceEvents {\n    using SafeMath for uint256;\n\n    address public PHOTO_NFT_MARKETPLACE;\n\n    PhotoNFTData public photoNFTData;\n\n    constructor(PhotoNFTData _photoNFTData) public PhotoNFTTradable(_photoNFTData) {\n        photoNFTData = _photoNFTData;\n        address payable PHOTO_NFT_MARKETPLACE = address(uint160(address(this)));\n    }\n\n    /** \n     * @notice - Buy function is that buy NFT token and ownership transfer. (Reference from IERC721.sol)\n     * @notice - msg.sender buy NFT with ETH (msg.value)\n     * @notice - PhotoID is always 1. Because each photoNFT is unique.\n     */\n\n     /***ownerPhoto */\n\n\n     function ownerPhoto (address _photoNFT) public returns  (address){\n        PhotoNFT photoNFT = PhotoNFT(_photoNFT);\n        PhotoNFTData.Photo memory photo = photoNFTData.getPhotoByNFTAddress(photoNFT);\n        address _seller = photo.seller;\n        return _seller;\n     }\n   function approveAndTransfer(address payable _from, address _to, address _photoId, uint amount ) public returns(bool) {\n       //PhotoNFT remoteContract = PhotoNFT(_photoId);\n     \n    \n       PhotoNFT photoNFT = PhotoNFT(_photoId);\n\n           PhotoNFTData.Photo memory photo = photoNFTData.getPhotoByNFTAddress(photoNFT);\n           uint amountRedevance = (amount*photo.redevance)/100;\n           _from.transfer(amountRedevance);\n       uint i = 1;\n        photoNFT.approve(_to, i);\n        transferOwnershipOfPhotoNFT(photoNFT,i , _to); \n        photoNFTData.updateSellerOfPhotoNFT(photoNFT, _to);\n        photoNFTData.updateStatus(photoNFT, \"Cancelled\");\n\n        /// Event for checking result of transferring ownership of a photoNFT\n        address ownerAfterOwnershipTransferred = photoNFT.ownerOf(i);\n        return true;\n    } \n\n    function buyPhotoNFT(PhotoNFT _photoNFT) public payable returns (bool) {\n        PhotoNFT photoNFT = _photoNFT;\n\n        PhotoNFTData.Photo memory photo = photoNFTData.getPhotoByNFTAddress(photoNFT);\n        address _seller = photo.ownerAddress;                     /// Owner\n        address payable seller = address(uint160(_seller));  /// Convert owner address with payable\n        uint buyAmount = photo.photoPrice;\n        require (msg.value == buyAmount, \"msg.value should be equal to the buyAmount\");\n \n        /// Bought-amount is transferred into a seller wallet\n        seller.transfer(buyAmount);\n\n        /// Approve a buyer address as a receiver before NFT's transferFrom method is executed\n        address buyer = msg.sender;\n        uint photoId = 1;  /// [Note]: PhotoID is always 1. Because each photoNFT is unique.\n        photoNFT.approve(buyer, photoId);\n\n        address ownerBeforeOwnershipTransferred = photoNFT.ownerOf(photoId);\n\n        /// Transfer Ownership of the PhotoNFT from a seller to a buyer\n        transferOwnershipOfPhotoNFT(photoNFT, photoId, buyer);    \n        photoNFTData.updateSellerOfPhotoNFT(photoNFT, buyer);\n        photoNFTData.updateStatus(photoNFT, \"Cancelled\");\n\n        /// Event for checking result of transferring ownership of a photoNFT\n        address ownerAfterOwnershipTransferred = photoNFT.ownerOf(photoId);\n        emit PhotoNFTOwnershipChanged(photoNFT, photoId, ownerBeforeOwnershipTransferred, ownerAfterOwnershipTransferred);\n\n        /// Mint a photo with a new photoId\n        //string memory tokenURI = photoNFTFactory.getTokenURI(photoData.ipfsHashOfPhoto);  /// [Note]: IPFS hash + URL\n        //photoNFT.mint(msg.sender, tokenURI);\n    }\n\n\n\n//transfert photo\n\nfunction transfertPhotoNFT(PhotoNFT _photoNFT) public payable returns (bool) {\n        PhotoNFT photoNFT = _photoNFT;\n\n        PhotoNFTData.Photo memory photo = photoNFTData.getPhotoByNFTAddress(photoNFT);\n        address _seller = photo.ownerAddress;                     /// Owner\n        address payable seller = address(uint160(_seller));  /// Convert owner address with payable\n        \n     \n \n        \n\n        /// Approve a buyer address as a receiver before NFT's transferFrom method is executed\n        address buyer = msg.sender;\n        uint photoId = 1;  /// [Note]: PhotoID is always 1. Because each photoNFT is unique.\n        photoNFT.approve(buyer, photoId);\n\n        address ownerBeforeOwnershipTransferred = photoNFT.ownerOf(photoId);\n\n        /// Transfer Ownership of the PhotoNFT from a seller to a buyer\n        transferOwnershipOfPhotoNFT(photoNFT, photoId, buyer);    \n        photoNFTData.updateSellerOfPhotoNFT(photoNFT, buyer);\n        photoNFTData.updateStatus(photoNFT, \"Cancelled\");\n\n        /// Event for checking result of transferring ownership of a photoNFT\n        address ownerAfterOwnershipTransferred = photoNFT.ownerOf(photoId);\n        emit PhotoNFTOwnershipChanged(photoNFT, photoId, ownerBeforeOwnershipTransferred, ownerAfterOwnershipTransferred);\n\n        /// Mint a photo with a new photoId\n        //string memory tokenURI = photoNFTFactory.getTokenURI(photoData.ipfsHashOfPhoto);  /// [Note]: IPFS hash + URL\n        //photoNFT.mint(msg.sender, tokenURI);\n    }\n\nfunction approvePhoto(address auction ,address _photoNFT) public{\n     PhotoNFT photoNFT = PhotoNFT(_photoNFT);\n uint photoId = 1;\n photoNFT.approve(auction, photoId);\n}\n\n    function transfertFromPhotoNFT(address seller , address buyer ,address _photoNFT) public payable returns (bool) {\n         PhotoNFT photoNFT = PhotoNFT(_photoNFT);\n        \n\n        uint photoId = 1;  /// [Note]: PhotoID is always 1. Because each photoNFT is unique.\n       \n\n        address ownerBeforeOwnershipTransferred = photoNFT.ownerOf(photoId);\n\n        /// Transfer Ownership of the PhotoNFT from a seller to a buyer\n        transferOwnershipOfPhotoNFT(photoNFT, photoId, buyer);    \n        photoNFTData.updateSellerOfPhotoNFT(photoNFT, buyer);\n        // photoNFTData.updateStatus(photoNFT, \"Cancelled\");\n\n        /// Event for checking result of transferring ownership of a photoNFT\n        address ownerAfterOwnershipTransferred = photoNFT.ownerOf(photoId);\n         photoNFT.approve(buyer, photoId);\n        emit PhotoNFTOwnershipChanged(photoNFT, photoId, ownerBeforeOwnershipTransferred, ownerAfterOwnershipTransferred);\n\n        /// Mint a photo with a new photoId\n        //string memory tokenURI = photoNFTFactory.getTokenURI(photoData.ipfsHashOfPhoto);  /// [Note]: IPFS hash + URL\n        //photoNFT.mint(msg.sender, tokenURI);\n    }\n\n    ///-----------------------------------------------------\n    /// Methods below are pending methods\n    ///-----------------------------------------------------\n\n    /** \n     * @dev reputation function is that gives reputation to a user who has ownership of being posted photo.\n     * @dev Each user has reputation data in struct\n     */\n    function reputation(address from, address to, uint256 photoId) public returns (uint256, uint256) {\n\n        // Photo storage photo = photos[photoId];\n        // photo.reputation = photo.reputation.add(1);\n\n        // emit AddReputation(photoId, photo.reputation);\n\n        // return (photoId, photo.reputation);\n        return (0, 0);\n    }\n    \n\n    function getReputationCount(uint256 photoId) public view returns (uint256) {\n        uint256 curretReputationCount;\n\n        // Photo memory photo = photos[photoId];\n        // curretReputationCount = photo.reputation;\n\n        return curretReputationCount;\n    }    \n\n}\n",
  "sourcePath": "/Users/amal/Documents/NFT-based-photo-marketplace/oldversion/contracts/PhotoNFTMarketplace.sol",
  "compiler": {
    "name": "solc",
    "version": "0.5.16+commit.9c3226ce.Emscripten.clang"
  },
  "schemaVersion": "3.4.2",
  "updatedAt": "2021-08-12T09:07:34.219Z",
  "networkType": "ethereum",
  "devdoc": {
    "methods": {
      "cancelTrade(address,uint256)": {
        "details": "Cancels a trade by the seller."
      },
      "getTrade(uint256)": {
        "details": "- Returns the details for a trade."
      },
      "openTrade(address,uint256)": {
        "details": "Opens a trade by the seller."
      },
      "openTradeWhenCreateNewPhotoNFT(address,uint256,uint256)": {
        "details": "Opens a new trade. Puts _photoId in escrow.",
        "params": {
          "_photoId": "The id for the photoId to trade.",
          "_photoPrice": "The amount of currency for which to trade the photoId."
        }
      },
      "reputation(address,address,uint256)": {
        "details": "reputation function is that gives reputation to a user who has ownership of being posted photo.Each user has reputation data in struct"
      },
      "transferOwnershipOfPhotoNFT(address,uint256,address)": {
        "details": "Executes a trade. Must have approved this contract to transfer the amount of currency specified to the seller. Transfers ownership of the photoId to the filler."
      }
    }
  },
  "userdoc": {
    "methods": {
      "openTradeWhenCreateNewPhotoNFT(address,uint256,uint256)": {
        "notice": "- This method is only executed when a seller create a new PhotoNFT"
      },
      "ownerPhoto(address)": {
        "notice": "*ownerPhoto "
      }
    }
  }
}