{
  "contractName": "PhotoNFT",
  "abi": [
    {
      "inputs": [
        {
          "internalType": "address",
          "name": "owner",
          "type": "address"
        },
        {
          "internalType": "string",
          "name": "_nftName",
          "type": "string"
        },
        {
          "internalType": "string",
          "name": "_nftSymbol",
          "type": "string"
        },
        {
          "internalType": "string",
          "name": "_tokenURI",
          "type": "string"
        },
        {
          "internalType": "uint256",
          "name": "photoPrice",
          "type": "uint256"
        },
        {
          "internalType": "string",
          "name": "adressEmail",
          "type": "string"
        },
        {
          "internalType": "uint256",
          "name": "redevance",
          "type": "uint256"
        },
        {
          "internalType": "address",
          "name": "seller",
          "type": "address"
        }
      ],
      "payable": false,
      "stateMutability": "nonpayable",
      "type": "constructor"
    },
    {
      "anonymous": false,
      "inputs": [
        {
          "indexed": true,
          "internalType": "address",
          "name": "owner",
          "type": "address"
        },
        {
          "indexed": true,
          "internalType": "address",
          "name": "approved",
          "type": "address"
        },
        {
          "indexed": true,
          "internalType": "uint256",
          "name": "tokenId",
          "type": "uint256"
        }
      ],
      "name": "Approval",
      "type": "event"
    },
    {
      "anonymous": false,
      "inputs": [
        {
          "indexed": true,
          "internalType": "address",
          "name": "owner",
          "type": "address"
        },
        {
          "indexed": true,
          "internalType": "address",
          "name": "operator",
          "type": "address"
        },
        {
          "indexed": false,
          "internalType": "bool",
          "name": "approved",
          "type": "bool"
        }
      ],
      "name": "ApprovalForAll",
      "type": "event"
    },
    {
      "anonymous": false,
      "inputs": [
        {
          "indexed": true,
          "internalType": "address",
          "name": "from",
          "type": "address"
        },
        {
          "indexed": true,
          "internalType": "address",
          "name": "to",
          "type": "address"
        },
        {
          "indexed": true,
          "internalType": "uint256",
          "name": "tokenId",
          "type": "uint256"
        }
      ],
      "name": "Transfer",
      "type": "event"
    },
    {
      "constant": false,
      "inputs": [
        {
          "internalType": "address",
          "name": "to",
          "type": "address"
        },
        {
          "internalType": "uint256",
          "name": "tokenId",
          "type": "uint256"
        }
      ],
      "name": "approve",
      "outputs": [],
      "payable": false,
      "stateMutability": "nonpayable",
      "type": "function"
    },
    {
      "constant": true,
      "inputs": [
        {
          "internalType": "address",
          "name": "owner",
          "type": "address"
        }
      ],
      "name": "balanceOf",
      "outputs": [
        {
          "internalType": "uint256",
          "name": "",
          "type": "uint256"
        }
      ],
      "payable": false,
      "stateMutability": "view",
      "type": "function"
    },
    {
      "constant": true,
      "inputs": [],
      "name": "currentPhotoId",
      "outputs": [
        {
          "internalType": "uint256",
          "name": "",
          "type": "uint256"
        }
      ],
      "payable": false,
      "stateMutability": "view",
      "type": "function"
    },
    {
      "constant": true,
      "inputs": [
        {
          "internalType": "uint256",
          "name": "tokenId",
          "type": "uint256"
        }
      ],
      "name": "getApproved",
      "outputs": [
        {
          "internalType": "address",
          "name": "",
          "type": "address"
        }
      ],
      "payable": false,
      "stateMutability": "view",
      "type": "function"
    },
    {
      "constant": true,
      "inputs": [
        {
          "internalType": "address",
          "name": "owner",
          "type": "address"
        },
        {
          "internalType": "address",
          "name": "operator",
          "type": "address"
        }
      ],
      "name": "isApprovedForAll",
      "outputs": [
        {
          "internalType": "bool",
          "name": "",
          "type": "bool"
        }
      ],
      "payable": false,
      "stateMutability": "view",
      "type": "function"
    },
    {
      "constant": true,
      "inputs": [],
      "name": "name",
      "outputs": [
        {
          "internalType": "string",
          "name": "",
          "type": "string"
        }
      ],
      "payable": false,
      "stateMutability": "view",
      "type": "function"
    },
    {
      "constant": true,
      "inputs": [
        {
          "internalType": "uint256",
          "name": "tokenId",
          "type": "uint256"
        }
      ],
      "name": "ownerOf",
      "outputs": [
        {
          "internalType": "address",
          "name": "",
          "type": "address"
        }
      ],
      "payable": false,
      "stateMutability": "view",
      "type": "function"
    },
    {
      "constant": false,
      "inputs": [
        {
          "internalType": "address",
          "name": "from",
          "type": "address"
        },
        {
          "internalType": "address",
          "name": "to",
          "type": "address"
        },
        {
          "internalType": "uint256",
          "name": "tokenId",
          "type": "uint256"
        }
      ],
      "name": "safeTransferFrom",
      "outputs": [],
      "payable": false,
      "stateMutability": "nonpayable",
      "type": "function"
    },
    {
      "constant": false,
      "inputs": [
        {
          "internalType": "address",
          "name": "from",
          "type": "address"
        },
        {
          "internalType": "address",
          "name": "to",
          "type": "address"
        },
        {
          "internalType": "uint256",
          "name": "tokenId",
          "type": "uint256"
        },
        {
          "internalType": "bytes",
          "name": "_data",
          "type": "bytes"
        }
      ],
      "name": "safeTransferFrom",
      "outputs": [],
      "payable": false,
      "stateMutability": "nonpayable",
      "type": "function"
    },
    {
      "constant": false,
      "inputs": [
        {
          "internalType": "address",
          "name": "to",
          "type": "address"
        },
        {
          "internalType": "bool",
          "name": "approved",
          "type": "bool"
        }
      ],
      "name": "setApprovalForAll",
      "outputs": [],
      "payable": false,
      "stateMutability": "nonpayable",
      "type": "function"
    },
    {
      "constant": true,
      "inputs": [
        {
          "internalType": "bytes4",
          "name": "interfaceId",
          "type": "bytes4"
        }
      ],
      "name": "supportsInterface",
      "outputs": [
        {
          "internalType": "bool",
          "name": "",
          "type": "bool"
        }
      ],
      "payable": false,
      "stateMutability": "view",
      "type": "function"
    },
    {
      "constant": true,
      "inputs": [],
      "name": "symbol",
      "outputs": [
        {
          "internalType": "string",
          "name": "",
          "type": "string"
        }
      ],
      "payable": false,
      "stateMutability": "view",
      "type": "function"
    },
    {
      "constant": true,
      "inputs": [
        {
          "internalType": "uint256",
          "name": "index",
          "type": "uint256"
        }
      ],
      "name": "tokenByIndex",
      "outputs": [
        {
          "internalType": "uint256",
          "name": "",
          "type": "uint256"
        }
      ],
      "payable": false,
      "stateMutability": "view",
      "type": "function"
    },
    {
      "constant": true,
      "inputs": [
        {
          "internalType": "address",
          "name": "owner",
          "type": "address"
        },
        {
          "internalType": "uint256",
          "name": "index",
          "type": "uint256"
        }
      ],
      "name": "tokenOfOwnerByIndex",
      "outputs": [
        {
          "internalType": "uint256",
          "name": "",
          "type": "uint256"
        }
      ],
      "payable": false,
      "stateMutability": "view",
      "type": "function"
    },
    {
      "constant": true,
      "inputs": [
        {
          "internalType": "uint256",
          "name": "tokenId",
          "type": "uint256"
        }
      ],
      "name": "tokenURI",
      "outputs": [
        {
          "internalType": "string",
          "name": "",
          "type": "string"
        }
      ],
      "payable": false,
      "stateMutability": "view",
      "type": "function"
    },
    {
      "constant": true,
      "inputs": [],
      "name": "totalSupply",
      "outputs": [
        {
          "internalType": "uint256",
          "name": "",
          "type": "uint256"
        }
      ],
      "payable": false,
      "stateMutability": "view",
      "type": "function"
    },
    {
      "constant": false,
      "inputs": [
        {
          "internalType": "address",
          "name": "from",
          "type": "address"
        },
        {
          "internalType": "address",
          "name": "to",
          "type": "address"
        },
        {
          "internalType": "uint256",
          "name": "tokenId",
          "type": "uint256"
        }
      ],
      "name": "transferFrom",
      "outputs": [],
      "payable": false,
      "stateMutability": "nonpayable",
      "type": "function"
    },
    {
      "constant": false,
      "inputs": [
        {
          "internalType": "address",
          "name": "to",
          "type": "address"
        },
        {
          "internalType": "string",
          "name": "tokenURI",
          "type": "string"
        }
      ],
      "name": "mint",
      "outputs": [
        {
          "internalType": "bool",
          "name": "",
          "type": "bool"
        }
      ],
      "payable": false,
      "stateMutability": "nonpayable",
      "type": "function"
    },
    {
      "constant": false,
      "inputs": [
        {
          "internalType": "uint256",
          "name": "tokenId",
          "type": "uint256"
        }
      ],
      "name": "withdraw",
      "outputs": [],
      "payable": false,
      "stateMutability": "nonpayable",
      "type": "function"
    }
  ],
  "bytecode": "0x60806040523480156200001157600080fd5b5060405162001b5e38038062001b5e8339810160408190526200003491620004d0565b86868181620000536301ffc9a760e01b6001600160e01b03620000f516565b6200006e6380ac58cd60e01b6001600160e01b03620000f516565b6200008963780e9d6360e01b6001600160e01b03620000f516565b81516200009e906009906020850190620003b8565b508051620000b490600a906020840190620003b8565b50620000d0635b5e139f60e01b6001600160e01b03620000f516565b50505050620000e688866200013260201b60201c565b505050505050505050620006aa565b6001600160e01b031980821614156200010d57600080fd5b6001600160e01b0319166000908152602081905260409020805460ff19166001179055565b600080620001486001600160e01b036200018416565b600c8054600101905590506200016884826001600160e01b03620001a916565b6200017d81846001600160e01b03620001ed16565b5092915050565b6000620001a36001600c546200023160201b62000bec1790919060201c565b90505b90565b620001c082826200024d60201b62000c051760201c565b620001d582826001600160e01b036200031916565b620001e9816001600160e01b036200035716565b5050565b62000201826001600160e01b036200039b16565b6200020b57600080fd5b6000828152600b6020908152604090912082516200022c92840190620003b8565b505050565b6000828201838110156200024457600080fd5b90505b92915050565b6001600160a01b0382166200026157600080fd5b62000275816001600160e01b036200039b16565b156200028057600080fd5b600081815260016020818152604080842080546001600160a01b0319166001600160a01b03881690811790915584526003825290922054620002ce9290919062000231811b62000bec17901c565b6001600160a01b0383166000818152600360205260408082209390935591518392907fddf252ad1be2c89b69c2b068fc378daa952ba7f163c4a11628f55a4df523b3ef908290a45050565b6001600160a01b0390911660009081526005602081815260408084208054868652600684529185208290559282526001810183559183529091200155565b600780546000838152600860205260408120829055600182018355919091527fa66cc928b5edb82af9bd49922954155ab7b0942694bea4ce44661d9a8736c6880155565b6000908152600160205260409020546001600160a01b0316151590565b828054600181600116156101000203166002900490600052602060002090601f016020900481019282601f10620003fb57805160ff19168380011785556200042b565b828001600101855582156200042b579182015b828111156200042b5782518255916020019190600101906200040e565b50620004399291506200043d565b5090565b620001a691905b8082111562000439576000815560010162000444565b8051620002478162000685565b600082601f8301126200047957600080fd5b8151620004906200048a8262000618565b620005f1565b91508082526020830160208301858383011115620004ad57600080fd5b620004ba83828462000652565b50505092915050565b805162000247816200069f565b600080600080600080600080610100898b031215620004ee57600080fd5b6000620004fc8b8b6200045a565b98505060208901516001600160401b038111156200051957600080fd5b620005278b828c0162000467565b97505060408901516001600160401b038111156200054457600080fd5b620005528b828c0162000467565b96505060608901516001600160401b038111156200056f57600080fd5b6200057d8b828c0162000467565b9550506080620005908b828c01620004c3565b94505060a08901516001600160401b03811115620005ad57600080fd5b620005bb8b828c0162000467565b93505060c0620005ce8b828c01620004c3565b92505060e0620005e18b828c016200045a565b9150509295985092959890939650565b6040518181016001600160401b03811182821017156200061057600080fd5b604052919050565b60006001600160401b038211156200062f57600080fd5b506020601f91909101601f19160190565b60006001600160a01b03821662000247565b60005b838110156200066f57818101518382015260200162000655565b838111156200067f576000848401525b50505050565b620006908162000640565b81146200069c57600080fd5b50565b6200069081620001a6565b6114a480620006ba6000396000f3fe608060405234801561001057600080fd5b50600436106101215760003560e01c80634f6ccce7116100ad578063b4a5b64611610071578063b4a5b6461461024e578063b88d4fde14610256578063c87b56dd14610269578063d0def5211461027c578063e985e9c51461028f57610121565b80634f6ccce7146101fa5780636352211e1461020d57806370a082311461022057806395d89b4114610233578063a22cb4651461023b57610121565b806318160ddd116100f457806318160ddd1461019957806323b872dd146101ae5780632e1a7d4d146101c15780632f745c59146101d457806342842e0e146101e757610121565b806301ffc9a71461012657806306fdde031461014f578063081812fc14610164578063095ea7b314610184575b600080fd5b61013961013436600461121f565b6102a2565b604051610146919061132d565b60405180910390f35b6101576102c1565b604051610146919061133b565b61017761017236600461125b565b610358565b60405161014691906112db565b6101976101923660046111ef565b610388565b005b6101a1610435565b604051610146919061134c565b6101976101bc3660046110b1565b61043b565b6101976101cf36600461125b565b61045e565b6101a16101e23660046111ef565b61046a565b6101976101f53660046110b1565b6104b8565b6101a161020836600461125b565b6104d3565b61017761021b36600461125b565b610507565b6101a161022e366004611059565b610529565b61015761055a565b610197610249366004611177565b6105bb565b6101a1610640565b6101976102643660046110fe565b610646565b61015761027736600461125b565b61066c565b61013961028a3660046111a7565b61071f565b61013961029d366004611077565b610750565b6001600160e01b03191660009081526020819052604090205460ff1690565b60098054604080516020601f600260001961010060018816150201909516949094049384018190048102820181019092528281526060939092909183018282801561034d5780601f106103225761010080835404028352916020019161034d565b820191906000526020600020905b81548152906001019060200180831161033057829003601f168201915b505050505090505b90565b60006103638261077e565b61036c57600080fd5b506000908152600260205260409020546001600160a01b031690565b600061039382610507565b9050806001600160a01b0316836001600160a01b031614156103b457600080fd5b336001600160a01b03821614806103d057506103d08133610750565b6103d957600080fd5b60008281526002602052604080822080546001600160a01b0319166001600160a01b0387811691821790925591518593918516917f8c5be1e5ebec7d5bd14f71427d1e84f3dd0314c0f7b2291e5b200ac8c7c3b92591a4505050565b60075490565b610445338261079b565b61044e57600080fd5b6104598383836107fa565b505050565b61046781610819565b50565b600061047583610529565b821061048057600080fd5b6001600160a01b03831660009081526005602052604090208054839081106104a457fe5b906000526020600020015490505b92915050565b61045983838360405180602001604052806000815250610646565b60006104dd610435565b82106104e857600080fd5b600782815481106104f557fe5b90600052602060002001549050919050565b6000818152600160205260408120546001600160a01b0316806104b257600080fd5b60006001600160a01b03821661053e57600080fd5b506001600160a01b031660009081526003602052604090205490565b600a8054604080516020601f600260001961010060018816150201909516949094049384018190048102820181019092528281526060939092909183018282801561034d5780601f106103225761010080835404028352916020019161034d565b6001600160a01b0382163314156105d157600080fd5b3360008181526004602090815260408083206001600160a01b038716808552925291829020805460ff191685151517905590519091907f17307eab39ab6107e8899845ad3d59bd9653f200f220920489ca2b5937696c319061063490859061132d565b60405180910390a35050565b600c5481565b61065184848461043b565b61065d8484848461082b565b61066657600080fd5b50505050565b60606106778261077e565b61068057600080fd5b6000828152600b602090815260409182902080548351601f6002600019610100600186161502019093169290920491820184900484028101840190945280845290918301828280156107135780601f106106e857610100808354040283529160200191610713565b820191906000526020600020905b8154815290600101906020018083116106f657829003601f168201915b50505050509050919050565b60008061072a6108f0565b600c80546001019055905061073f848261090c565b610749818461092d565b5092915050565b6001600160a01b03918216600090815260046020908152604080832093909416825291909152205460ff1690565b6000908152600160205260409020546001600160a01b0316151590565b6000806107a783610507565b9050806001600160a01b0316846001600160a01b031614806107e25750836001600160a01b03166107d784610358565b6001600160a01b0316145b806107f257506107f28185610750565b949350505050565b61080583838361095e565b61080f8382610a6b565b6104598282610b60565b61046761082582610507565b82610b9e565b600061083f846001600160a01b0316610be6565b61084b575060016107f2565b604051630a85bd0160e11b81526000906001600160a01b0386169063150b7a02906108809033908a90899089906004016112e9565b602060405180830381600087803b15801561089a57600080fd5b505af11580156108ae573d6000803e3d6000fd5b505050506040513d601f19601f820116820180604052506108d2919081019061123d565b6001600160e01b031916630a85bd0160e11b14915050949350505050565b600c5460009061090790600163ffffffff610bec16565b905090565b6109168282610c05565b6109208282610b60565b61092981610cb7565b5050565b6109368261077e565b61093f57600080fd5b6000828152600b60209081526040909120825161045992840190610ed2565b826001600160a01b031661097182610507565b6001600160a01b03161461098457600080fd5b6001600160a01b03821661099757600080fd5b6109a081610cfb565b6001600160a01b0383166000908152600360205260409020546109ca90600163ffffffff610d3616565b6001600160a01b038085166000908152600360205260408082209390935590841681522054610a0090600163ffffffff610bec16565b6001600160a01b038084166000818152600360209081526040808320959095558582526001905283812080546001600160a01b031916831790559251849391928716917fddf252ad1be2c89b69c2b068fc378daa952ba7f163c4a11628f55a4df523b3ef91a4505050565b6001600160a01b038216600090815260056020526040812054610a9590600163ffffffff610d3616565b600083815260066020526040902054909150808214610b30576001600160a01b0384166000908152600560205260408120805484908110610ad257fe5b906000526020600020015490508060056000876001600160a01b03166001600160a01b031681526020019081526020016000208381548110610b1057fe5b600091825260208083209091019290925591825260069052604090208190555b6001600160a01b0384166000908152600560205260409020805490610b59906000198301610f50565b5050505050565b6001600160a01b0390911660009081526005602081815260408084208054868652600684529185208290559282526001810183559183529091200155565b610ba88282610d4b565b6000818152600b60205260409020546002600019610100600184161502019091160415610929576000818152600b6020526040812061092991610f74565b3b151590565b600082820183811015610bfe57600080fd5b9392505050565b6001600160a01b038216610c1857600080fd5b610c218161077e565b15610c2b57600080fd5b600081815260016020818152604080842080546001600160a01b0319166001600160a01b0388169081179091558452600390915290912054610c6c91610bec565b6001600160a01b0383166000818152600360205260408082209390935591518392907fddf252ad1be2c89b69c2b068fc378daa952ba7f163c4a11628f55a4df523b3ef908290a45050565b600780546000838152600860205260408120829055600182018355919091527fa66cc928b5edb82af9bd49922954155ab7b0942694bea4ce44661d9a8736c6880155565b6000818152600260205260409020546001600160a01b03161561046757600090815260026020526040902080546001600160a01b0319169055565b600082821115610d4557600080fd5b50900390565b610d558282610d77565b610d5f8282610a6b565b60008181526006602052604081205561092981610e36565b816001600160a01b0316610d8a82610507565b6001600160a01b031614610d9d57600080fd5b610da681610cfb565b6001600160a01b038216600090815260036020526040902054610dd090600163ffffffff610d3616565b6001600160a01b0383166000818152600360209081526040808320949094558482526001905282812080546001600160a01b03191690559151839291907fddf252ad1be2c89b69c2b068fc378daa952ba7f163c4a11628f55a4df523b3ef908390a45050565b600754600090610e4d90600163ffffffff610d3616565b60008381526008602052604081205460078054939450909284908110610e6f57fe5b906000526020600020015490508060078381548110610e8a57fe5b60009182526020808320909101929092558281526008909152604090208290556007805490610ebd906000198301610f50565b50505060009182525060086020526040812055565b828054600181600116156101000203166002900490600052602060002090601f016020900481019282601f10610f1357805160ff1916838001178555610f40565b82800160010185558215610f40579182015b82811115610f40578251825591602001919060010190610f25565b50610f4c929150610fb4565b5090565b81548183558181111561045957600083815260209020610459918101908301610fb4565b50805460018160011615610100020316600290046000825580601f10610f9a5750610467565b601f01602090049060005260206000209081019061046791905b61035591905b80821115610f4c5760008155600101610fba565b80356104b281611432565b80356104b281611446565b80356104b28161144f565b80516104b28161144f565b600082601f83011261100b57600080fd5b813561101e61101982611381565b61135a565b9150808252602083016020830185838301111561103a57600080fd5b6110458382846113f0565b50505092915050565b80356104b281611458565b60006020828403121561106b57600080fd5b60006107f28484610fce565b6000806040838503121561108a57600080fd5b60006110968585610fce565b92505060206110a785828601610fce565b9150509250929050565b6000806000606084860312156110c657600080fd5b60006110d28686610fce565b93505060206110e386828701610fce565b92505060406110f48682870161104e565b9150509250925092565b6000806000806080858703121561111457600080fd5b60006111208787610fce565b945050602061113187828801610fce565b93505060406111428782880161104e565b925050606085013567ffffffffffffffff81111561115f57600080fd5b61116b87828801610ffa565b91505092959194509250565b6000806040838503121561118a57600080fd5b60006111968585610fce565b92505060206110a785828601610fd9565b600080604083850312156111ba57600080fd5b60006111c68585610fce565b925050602083013567ffffffffffffffff8111156111e357600080fd5b6110a785828601610ffa565b6000806040838503121561120257600080fd5b600061120e8585610fce565b92505060206110a78582860161104e565b60006020828403121561123157600080fd5b60006107f28484610fe4565b60006020828403121561124f57600080fd5b60006107f28484610fef565b60006020828403121561126d57600080fd5b60006107f2848461104e565b611282816113df565b82525050565b611282816113b6565b611282816113c1565b60006112a5826113a9565b6112af81856113ad565b93506112bf8185602086016113fc565b6112c881611428565b9093019392505050565b61128281610355565b602081016104b28284611288565b608081016112f78287611279565b6113046020830186611288565b61131160408301856112d2565b8181036060830152611323818461129a565b9695505050505050565b602081016104b28284611291565b60208082528101610bfe818461129a565b602081016104b282846112d2565b60405181810167ffffffffffffffff8111828210171561137957600080fd5b604052919050565b600067ffffffffffffffff82111561139857600080fd5b506020601f91909101601f19160190565b5190565b90815260200190565b60006104b2826113d3565b151590565b6001600160e01b03191690565b6001600160a01b031690565b60006104b28260006104b2826113b6565b82818337506000910152565b60005b838110156114175781810151838201526020016113ff565b838111156106665750506000910152565b601f01601f191690565b61143b816113b6565b811461046757600080fd5b61143b816113c1565b61143b816113c6565b61143b8161035556fea365627a7a723158201b772b6af20dcf537986285d8e476ef618ad0f9a75a92312113faf78d82635776c6578706572696d656e74616cf564736f6c63430005100040",
  "source": "pragma solidity ^0.5.16;\npragma experimental ABIEncoderV2;\n\nimport { ERC721Full } from \"./openzeppelin-solidity/contracts/token/ERC721/ERC721Full.sol\";\nimport { SafeMath } from \"./openzeppelin-solidity/contracts/math/SafeMath.sol\";\n\n\n/**\n * @notice - This is the NFT contract for a photo\n */\ncontract PhotoNFT is ERC721Full {\n    using SafeMath for uint256;\n\n    uint256 public currentPhotoId;\n    \n    constructor(\n        address owner,  /// Initial owner (Seller)\n        string memory _nftName, \n        string memory _nftSymbol,\n        string memory _tokenURI, // [Note]: TokenURI is URL include ipfs hash\n        \n        uint photoPrice,\n        // string memory typeOfSale,\n           string memory  adressEmail,\n        uint redevance,\n        address seller\n     \n        //add typeBuy\n    ) \n        public \n        ERC721Full(_nftName, _nftSymbol) \n    {\n        mint(owner, _tokenURI);\n    }\n\n    /** \n     * @dev mint a photoNFT\n     * @dev tokenURI - URL include ipfs hash\n     */\n    function mint(address to, string memory tokenURI) public returns (bool) {\n        /// Mint a new PhotoNFT\n        uint newPhotoId = getNextPhotoId();\n        currentPhotoId++;\n        _mint(to, newPhotoId);\n        _setTokenURI(newPhotoId, tokenURI);\n    }\nfunction withdraw(uint256 tokenId) public {\n    _burn(tokenId);\n}\n\n    ///--------------------------------------\n    /// Getter methods\n    ///--------------------------------------\n\n\n    ///--------------------------------------\n    /// Private methods\n    ///--------------------------------------\n    function getNextPhotoId() private returns (uint nextPhotoId) {\n        return currentPhotoId.add(1);\n    }\n    \n\n}\n",
  "sourcePath": "/Users/amal/Documents/NFT-based-photo-marketplace/oldversion/contracts/PhotoNFT.sol",
  "compiler": {
    "name": "solc",
    "version": "0.5.16+commit.9c3226ce.Emscripten.clang"
  },
  "schemaVersion": "3.4.2",
  "updatedAt": "2021-08-06T11:34:55.004Z",
  "devdoc": {
    "methods": {
      "approve(address,uint256)": {
        "details": "Approves another address to transfer the given token ID The zero address indicates there is no approved address. There can only be one approved address per token at a given time. Can only be called by the token owner or an approved operator.",
        "params": {
          "to": "address to be approved for the given token ID",
          "tokenId": "uint256 ID of the token to be approved"
        }
      },
      "balanceOf(address)": {
        "details": "Gets the balance of the specified address",
        "params": {
          "owner": "address to query the balance of"
        },
        "return": "uint256 representing the amount owned by the passed address"
      },
      "getApproved(uint256)": {
        "details": "Gets the approved address for a token ID, or zero if no address set Reverts if the token ID does not exist.",
        "params": {
          "tokenId": "uint256 ID of the token to query the approval of"
        },
        "return": "address currently approved for the given token ID"
      },
      "isApprovedForAll(address,address)": {
        "details": "Tells whether an operator is approved by a given owner",
        "params": {
          "operator": "operator address which you want to query the approval of",
          "owner": "owner address which you want to query the approval of"
        },
        "return": "bool whether the given operator is approved by the given owner"
      },
      "mint(address,string)": {
        "details": "mint a photoNFTtokenURI - URL include ipfs hash"
      },
      "name()": {
        "details": "Gets the token name",
        "return": "string representing the token name"
      },
      "ownerOf(uint256)": {
        "details": "Gets the owner of the specified token ID",
        "params": {
          "tokenId": "uint256 ID of the token to query the owner of"
        },
        "return": "owner address currently marked as the owner of the given token ID"
      },
      "safeTransferFrom(address,address,uint256)": {
        "details": "Safely transfers the ownership of a given token ID to another address If the target address is a contract, it must implement `onERC721Received`, which is called upon a safe transfer, and return the magic value `bytes4(keccak256(\"onERC721Received(address,address,uint256,bytes)\"))`; otherwise, the transfer is reverted.     * Requires the msg sender to be the owner, approved, or operator",
        "params": {
          "from": "current owner of the token",
          "to": "address to receive the ownership of the given token ID",
          "tokenId": "uint256 ID of the token to be transferred"
        }
      },
      "safeTransferFrom(address,address,uint256,bytes)": {
        "details": "Safely transfers the ownership of a given token ID to another address If the target address is a contract, it must implement `onERC721Received`, which is called upon a safe transfer, and return the magic value `bytes4(keccak256(\"onERC721Received(address,address,uint256,bytes)\"))`; otherwise, the transfer is reverted. Requires the msg sender to be the owner, approved, or operator",
        "params": {
          "_data": "bytes data to send along with a safe transfer check",
          "from": "current owner of the token",
          "to": "address to receive the ownership of the given token ID",
          "tokenId": "uint256 ID of the token to be transferred"
        }
      },
      "setApprovalForAll(address,bool)": {
        "details": "Sets or unsets the approval of a given operator An operator is allowed to transfer all tokens of the sender on their behalf",
        "params": {
          "approved": "representing the status of the approval to be set",
          "to": "operator address to set the approval"
        }
      },
      "supportsInterface(bytes4)": {
        "details": "implement supportsInterface(bytes4) using a lookup table"
      },
      "symbol()": {
        "details": "Gets the token symbol",
        "return": "string representing the token symbol"
      },
      "tokenByIndex(uint256)": {
        "details": "Gets the token ID at a given index of all the tokens in this contract Reverts if the index is greater or equal to the total number of tokens",
        "params": {
          "index": "uint256 representing the index to be accessed of the tokens list"
        },
        "return": "uint256 token ID at the given index of the tokens list"
      },
      "tokenOfOwnerByIndex(address,uint256)": {
        "details": "Gets the token ID at a given index of the tokens list of the requested owner",
        "params": {
          "index": "uint256 representing the index to be accessed of the requested tokens list",
          "owner": "address owning the tokens list to be accessed"
        },
        "return": "uint256 token ID at the given index of the tokens list owned by the requested address"
      },
      "tokenURI(uint256)": {
        "details": "Returns an URI for a given token ID Throws if the token ID does not exist. May return an empty string.",
        "params": {
          "tokenId": "uint256 ID of the token to query"
        }
      },
      "totalSupply()": {
        "details": "Gets the total amount of tokens stored by the contract",
        "return": "uint256 representing the total amount of tokens"
      },
      "transferFrom(address,address,uint256)": {
        "details": "Transfers the ownership of a given token ID to another address Usage of this method is discouraged, use `safeTransferFrom` whenever possible Requires the msg sender to be the owner, approved, or operator",
        "params": {
          "from": "current owner of the token",
          "to": "address to receive the ownership of the given token ID",
          "tokenId": "uint256 ID of the token to be transferred"
        }
      }
    }
  },
  "userdoc": {
    "methods": {},
    "notice": "- This is the NFT contract for a photo"
  }
}