{
  "contractName": "NFTDutchAuction",
  "abi": [
    {
      "inputs": [
        {
          "internalType": "address",
          "name": "_photoNFTMarketplace",
          "type": "address"
        }
      ],
      "payable": false,
      "stateMutability": "nonpayable",
      "type": "constructor"
    },
    {
      "anonymous": false,
      "inputs": [
        {
          "indexed": false,
          "internalType": "uint64",
          "name": "auctionId",
          "type": "uint64"
        },
        {
          "indexed": false,
          "internalType": "address",
          "name": "photoId",
          "type": "address"
        }
      ],
      "name": "AuctionCancelled",
      "type": "event"
    },
    {
      "anonymous": false,
      "inputs": [
        {
          "indexed": false,
          "internalType": "uint64",
          "name": "auctionId",
          "type": "uint64"
        },
        {
          "indexed": false,
          "internalType": "address",
          "name": "photoId",
          "type": "address"
        },
        {
          "indexed": false,
          "internalType": "uint256",
          "name": "startingPrice",
          "type": "uint256"
        },
        {
          "indexed": false,
          "internalType": "uint256",
          "name": "endingPrice",
          "type": "uint256"
        },
        {
          "indexed": false,
          "internalType": "uint256",
          "name": "duration",
          "type": "uint256"
        }
      ],
      "name": "AuctionCreated",
      "type": "event"
    },
    {
      "anonymous": false,
      "inputs": [
        {
          "indexed": false,
          "internalType": "uint64",
          "name": "auctionId",
          "type": "uint64"
        },
        {
          "indexed": false,
          "internalType": "address",
          "name": "photoId",
          "type": "address"
        },
        {
          "indexed": false,
          "internalType": "uint256",
          "name": "totalPrice",
          "type": "uint256"
        },
        {
          "indexed": false,
          "internalType": "address",
          "name": "winner",
          "type": "address"
        }
      ],
      "name": "AuctionSuccessful",
      "type": "event"
    },
    {
      "payable": false,
      "stateMutability": "nonpayable",
      "type": "fallback"
    },
    {
      "constant": true,
      "inputs": [],
      "name": "auctionId",
      "outputs": [
        {
          "internalType": "uint64",
          "name": "",
          "type": "uint64"
        }
      ],
      "payable": false,
      "stateMutability": "view",
      "type": "function"
    },
    {
      "constant": true,
      "inputs": [],
      "name": "photoNFTMarketplace",
      "outputs": [
        {
          "internalType": "contract PhotoNFTMarketplace",
          "name": "",
          "type": "address"
        }
      ],
      "payable": false,
      "stateMutability": "view",
      "type": "function"
    },
    {
      "constant": false,
      "inputs": [
        {
          "internalType": "address",
          "name": "_photoId",
          "type": "address"
        },
        {
          "internalType": "uint256",
          "name": "_startingPrice",
          "type": "uint256"
        },
        {
          "internalType": "uint256",
          "name": "_endingPrice",
          "type": "uint256"
        },
        {
          "internalType": "uint256",
          "name": "_duration",
          "type": "uint256"
        }
      ],
      "name": "createAuction",
      "outputs": [],
      "payable": false,
      "stateMutability": "nonpayable",
      "type": "function"
    },
    {
      "constant": true,
      "inputs": [
        {
          "internalType": "uint64",
          "name": "_auctionId",
          "type": "uint64"
        }
      ],
      "name": "getAuctionByAuctionId",
      "outputs": [
        {
          "internalType": "uint64",
          "name": "id",
          "type": "uint64"
        },
        {
          "internalType": "address",
          "name": "seller",
          "type": "address"
        },
        {
          "internalType": "address",
          "name": "photoId",
          "type": "address"
        },
        {
          "internalType": "uint256",
          "name": "startingPrice",
          "type": "uint256"
        },
        {
          "internalType": "uint256",
          "name": "endingPrice",
          "type": "uint256"
        },
        {
          "internalType": "uint256",
          "name": "duration",
          "type": "uint256"
        },
        {
          "internalType": "uint256",
          "name": "startedAt",
          "type": "uint256"
        }
      ],
      "payable": false,
      "stateMutability": "view",
      "type": "function"
    },
    {
      "constant": true,
      "inputs": [
        {
          "internalType": "address",
          "name": "_photoId",
          "type": "address"
        }
      ],
      "name": "getAuctionByPhotoId",
      "outputs": [
        {
          "internalType": "uint64",
          "name": "id",
          "type": "uint64"
        },
        {
          "internalType": "address",
          "name": "seller",
          "type": "address"
        },
        {
          "internalType": "address",
          "name": "photoId",
          "type": "address"
        },
        {
          "internalType": "uint256",
          "name": "startingPrice",
          "type": "uint256"
        },
        {
          "internalType": "uint256",
          "name": "endingPrice",
          "type": "uint256"
        },
        {
          "internalType": "uint256",
          "name": "duration",
          "type": "uint256"
        },
        {
          "internalType": "uint256",
          "name": "startedAt",
          "type": "uint256"
        }
      ],
      "payable": false,
      "stateMutability": "view",
      "type": "function"
    },
    {
      "constant": false,
      "inputs": [
        {
          "internalType": "uint64",
          "name": "_auctionId",
          "type": "uint64"
        }
      ],
      "name": "cancelAuctionByAuctionId",
      "outputs": [],
      "payable": false,
      "stateMutability": "nonpayable",
      "type": "function"
    },
    {
      "constant": false,
      "inputs": [
        {
          "internalType": "address",
          "name": "_photoId",
          "type": "address"
        }
      ],
      "name": "cancelAuctionByPhotoId",
      "outputs": [],
      "payable": false,
      "stateMutability": "nonpayable",
      "type": "function"
    },
    {
      "constant": false,
      "inputs": [
        {
          "internalType": "address",
          "name": "_photoId",
          "type": "address"
        }
      ],
      "name": "bid",
      "outputs": [],
      "payable": true,
      "stateMutability": "payable",
      "type": "function"
    },
    {
      "constant": true,
      "inputs": [
        {
          "internalType": "uint64",
          "name": "_auctionId",
          "type": "uint64"
        }
      ],
      "name": "getCurrentPriceByAuctionId",
      "outputs": [
        {
          "internalType": "uint256",
          "name": "",
          "type": "uint256"
        }
      ],
      "payable": false,
      "stateMutability": "view",
      "type": "function"
    },
    {
      "constant": true,
      "inputs": [
        {
          "internalType": "address",
          "name": "_photoId",
          "type": "address"
        }
      ],
      "name": "getCurrentPriceByPhotoId",
      "outputs": [
        {
          "internalType": "uint256",
          "name": "",
          "type": "uint256"
        }
      ],
      "payable": false,
      "stateMutability": "view",
      "type": "function"
    }
  ],
  "bytecode": "0x60806040523480156200001157600080fd5b50604051620013bf380380620013bf83398101604081905262000034916200006d565b600380546001600160a01b0319166001600160a01b0392909216919091179055620000c2565b80516200006781620000a8565b92915050565b6000602082840312156200008057600080fd5b60006200008e84846200005a565b949350505050565b60006001600160a01b03821662000067565b620000b38162000096565b8114620000bf57600080fd5b50565b6112ed80620000d26000396000f3fe6080604052600436106100915760003560e01c80637afc7217116100595780637afc7217146101605780639cf5453d1461018d578063b0f4aa7d146101a0578063c4188f11146101c0578063de1cfbd8146101e257610091565b806310782f8f146100a057806312ccdb7a146100cb57806339d1ee40146100ed5780635857b86f1461010d57806361beb1d714610140575b34801561009d57600080fd5b50005b3480156100ac57600080fd5b506100b5610202565b6040516100c29190611119565b60405180910390f35b3480156100d757600080fd5b506100eb6100e6366004610fb3565b610211565b005b3480156100f957600080fd5b506100eb610108366004611076565b61033f565b34801561011957600080fd5b5061012d610128366004611076565b61045a565b6040516100c29796959493929190611149565b34801561014c57600080fd5b506100eb61015b366004610ff7565b6104fe565b34801561016c57600080fd5b5061018061017b366004610fb3565b6109f0565b6040516100c2919061110b565b6100eb61019b366004610fb3565b610a1a565b3480156101ac57600080fd5b506101806101bb366004611076565b610e15565b3480156101cc57600080fd5b506101d5610e36565b6040516100c291906110fd565b3480156101ee57600080fd5b5061012d6101fd366004610fb3565b610e45565b6000546001600160401b031681565b6001600160a01b03811660009081526001602052604090206003810154600160401b90046001600160401b031661024757600080fd5b8054600160401b90046001600160a01b0316331461026457600080fd5b80546001600160401b03908116600090815260026020818152604080842080546001600160e01b03199081168255600182810180546001600160a01b0319908116909155838701889055600393840180546001600160801b03199081169091556001600160a01b038c81168a52968390528589208054909416845583830180549092169091559582019690965501805490931690925584549285015491517f81837f464d4f96968a540befb8ab653e38e9065d4761bed3fc349998c004e4859461033394169290911690611127565b60405180910390a15050565b6001600160401b03808216600090815260026020526040902060038101549091600160401b9091041661037157600080fd5b8054600160401b90046001600160a01b0316331461038e57600080fd5b6001600160401b038216600090815260026020818152604080842080546001600160e01b03199081168255600180830180546001600160a01b0319908116909155838701889055600393840180546001600160801b031990811690915589830180546001600160a01b039081168b5297849052868a2080549095168555928401805490921690915595820196909655018054909316909255915490517f81837f464d4f96968a540befb8ab653e38e9065d4761bed3fc349998c004e48592610333928692911690611127565b6001600160401b038082166000908152600260205260408120600381015491928392839283928392839283929091600160401b90041661049957600080fd5b8054600182015460028301546003909301546001600160401b038084169d6001600160a01b03600160401b9586900481169e509093169b506001600160801b038086169b50600160801b90950490941698508381169750919091049091169350915050565b6001600160801b03831061051157600080fd5b6001600160801b03821061052457600080fd5b6001600160401b0381111561053857600080fd5b603c81101561054657600080fd5b600354604051639058e13160e01b81526001600160a01b039091169033908290639058e1319061057a9089906004016110c7565b602060405180830381600087803b15801561059457600080fd5b505af11580156105a8573d6000803e3d6000fd5b505050506040513d601f19601f820116820180604052506105cc9190810190610fd9565b6001600160a01b0316146105df57600080fd5b6105e7610f3a565b6040518060e001604052806000809054906101000a90046001600160401b03166001600160401b03168152602001336001600160a01b03168152602001876001600160a01b03168152602001866001600160801b03168152602001856001600160801b03168152602001846001600160401b03168152602001426001600160401b031681525090508060016000886001600160a01b03166001600160a01b0316815260200190815260200160002060008201518160000160006101000a8154816001600160401b0302191690836001600160401b0316021790555060208201518160000160086101000a8154816001600160a01b0302191690836001600160a01b0316021790555060408201518160010160006101000a8154816001600160a01b0302191690836001600160a01b0316021790555060608201518160020160006101000a8154816001600160801b0302191690836001600160801b0316021790555060808201518160020160106101000a8154816001600160801b0302191690836001600160801b0316021790555060a08201518160030160006101000a8154816001600160401b0302191690836001600160401b0316021790555060c08201518160030160086101000a8154816001600160401b0302191690836001600160401b0316021790555090505080600260008060009054906101000a90046001600160401b03166001600160401b03166001600160401b0316815260200190815260200160002060008201518160000160006101000a8154816001600160401b0302191690836001600160401b0316021790555060208201518160000160086101000a8154816001600160a01b0302191690836001600160a01b0316021790555060408201518160010160006101000a8154816001600160a01b0302191690836001600160a01b0316021790555060608201518160020160006101000a8154816001600160801b0302191690836001600160801b0316021790555060808201518160020160106101000a8154816001600160801b0302191690836001600160801b0316021790555060a08201518160030160006101000a8154816001600160401b0302191690836001600160401b0316021790555060c08201518160030160086101000a8154816001600160401b0302191690836001600160401b031602179055509050507f15fef2b20020c278cd3e22d5bd13d9362df2c7e697ae3a6541f0a6c347504b976000809054906101000a90046001600160401b03168783606001516001600160801b031684608001516001600160801b03168560a001516001600160401b03166040516109bd9594939291906111ef565b60405180910390a15050600080546001600160401b038082166001011667ffffffffffffffff1990911617905550505050565b6001600160a01b0381166000908152600160205260408120610a1181610e87565b9150505b919050565b6001600160a01b03811660009081526001602052604081206003810154909190600160401b90046001600160401b0316610a5357600080fd5b60028201546001600160801b0316341015610a6d57600080fd5b506003810154426001600160401b03918216908103603c9091029091160380610c325781546001600160a01b03848116600090815260016020818152604080842080546001600160e01b0319908116825581850180546001600160a01b03199081169091556002808401889055600393840180546001600160801b03199081169091558c546001600160401b039081168a529682905285892080549094168455968301805490921690915581018690550180549093169092559051600160401b85049093169316913491849182916108fc851502918591818181858888f19350505050158015610b61573d6000803e3d6000fd5b5060035460405163122ddedb60e01b81526001600160a01b0390911690819063122ddedb90610b9890889033908d906004016110d5565b602060405180830381600087803b158015610bb257600080fd5b505af1158015610bc6573d6000803e3d6000fd5b505050506040513d601f19601f82011682018060405250610bea9190810190611058565b507fec84ed9400d64350a5d3e337618955a46ac32089042913afb9fa756faaf0a38b84893433604051610c2094939291906111b1565b60405180910390a15050505050610e10565b6002820154600160801b90046001600160801b0316341415610d1f5781546001600160a01b03848116600090815260016020818152604080842080546001600160e01b0319908116825581850180546001600160a01b03199081169091556002808401889055600393840180546001600160801b03199081169091558c546001600160401b039081168a529682905285892080549094168455968301805490921690915581018690550180549093169092559051600160401b85049093169316913491849182916108fc851502918591818181858888f19350505050158015610b61573d6000803e3d6000fd5b8154604051600160401b9091046001600160a01b0316903490829081906108fc8415029084906000818181858888f19350505050158015610d64573d6000803e3d6000fd5b5060035460405163122ddedb60e01b81526001600160a01b0390911690819063122ddedb90610d9b90879033908c906004016110d5565b602060405180830381600087803b158015610db557600080fd5b505af1158015610dc9573d6000803e3d6000fd5b505050506040513d601f19601f82011682018060405250610ded9190810190611058565b505050506002830180546001600160801b031916346001600160801b0316179055505b505050565b6001600160401b0381166000908152600260205260408120610a1181610e87565b6004546001600160a01b031681565b6001600160a01b03811660009081526001602052604081206003810154829182918291829182918291600160401b90046001600160401b031661049957600080fd5b6003810154600090600160401b90046001600160401b0316610ea857600080fd5b60038201546001600160401b03600160401b82048116420391168110610ee45750506002810154600160801b90046001600160801b0316610a15565b600283015460038401546001600160801b03808316600160801b9093041691909103906000906001600160401b031683830281610f1d57fe5b60028701546001600160801b0316919005019350610a1592505050565b6040805160e081018252600080825260208201819052918101829052606081018290526080810182905260a0810182905260c081019190915290565b8035610f8181611278565b92915050565b8051610f8181611278565b8051610f818161128f565b8035610f8181611298565b8035610f81816112a1565b600060208284031215610fc557600080fd5b6000610fd18484610f76565b949350505050565b600060208284031215610feb57600080fd5b6000610fd18484610f87565b6000806000806080858703121561100d57600080fd5b60006110198787610f76565b945050602061102a87828801610f9d565b935050604061103b87828801610f9d565b925050606061104c87828801610f9d565b91505092959194509250565b60006020828403121561106a57600080fd5b6000610fd18484610f92565b60006020828403121561108857600080fd5b6000610fd18484610fa8565b61109d81611266565b82525050565b61109d8161123b565b61109d8161126d565b61109d81611257565b61109d8161125a565b60208101610f8182846110a3565b606081016110e382866110a3565b6110f06020830185611094565b610fd160408301846110a3565b60208101610f8182846110ac565b60208101610f8182846110b5565b60208101610f8182846110be565b6040810161113582856110be565b61114260208301846110a3565b9392505050565b60e08101611157828a6110be565b61116460208301896110a3565b61117160408301886110a3565b61117e60608301876110b5565b61118b60808301866110b5565b61119860a08301856110b5565b6111a560c08301846110b5565b98975050505050505050565b608081016111bf82876110be565b6111cc60208301866110a3565b6111d960408301856110b5565b6111e66060830184611094565b95945050505050565b60a081016111fd82886110be565b61120a60208301876110a3565b61121760408301866110b5565b61122460608301856110b5565b61123160808301846110b5565b9695505050505050565b6000610f818261124b565b151590565b6001600160a01b031690565b90565b6001600160401b031690565b6000610f81825b6000610f818261123b565b6112818161123b565b811461128c57600080fd5b50565b61128181611246565b61128181611257565b6112818161125a56fea365627a7a723158205fd4fb0eda617626c39c81e55fa68edeb49f1fe99eef840d211954fe79793fc06c6578706572696d656e74616cf564736f6c63430005100040",
  "source": "pragma solidity ^0.5.16;\npragma experimental ABIEncoderV2;\nimport \"./PhotoNFTMarketplace.sol\";\n\n\n// interface IPhotoMarketPlace {\n//     function  ownerPhoto (uint photoId ) external view returns (address) ;\n//     function  transfertPhotoNFT (PhotoNFT _photoNFT ) external view returns (bool) ;\n//     function transfertFromPhotoNFT(address seller , address buyer ,PhotoNFT _photoNFT) external view  returns (bool); \n// }\n\n    \n\ncontract NFTDutchAuction {\n\n  struct Auction {\n      uint64 id;\n      address seller;\n      address photoId;\n      uint128 startingPrice; // wei\n      uint128 endingPrice; // wei\n      uint64 duration; // seconds\n      uint64 startedAt; // time\n  }\n\n  //ERC721 public NFTContract;\n  \n\n  uint64 public auctionId; // max is 18446744073709551615\n\n  mapping (address => Auction) internal photoIdToAuction;\n  mapping (uint64 => Auction) internal auctionIdToAuction;\n\n//    address payable NFTMarketPlaceContract;\n  // TODO: are arrays of structs even possible?\n  //       use this for making auctions discoverable\n  //mapping(address => Auction[]) internal ownerToAuction;\n  //mapping(uint256 => uint256) internal auctionIdToOwnerIndex;\n\n  event AuctionCreated(uint64 auctionId, address photoId,\n                      uint256 startingPrice, uint256 endingPrice, uint256 duration);\n  event AuctionCancelled(uint64 auctionId, address photoId);\n  event AuctionSuccessful(uint64 auctionId, address photoId, uint256 totalPrice, address winner);\n\n  //constructor(address _NFTAddress) public {\n   //   NFTContract = ERC721(_NFTAddress);\n // }\n\n//   constructor(address _NFTMarketPlaceAddress) public {\n//       NFTMarketPlaceContract = _NFTMarketPlaceAddress;\n//   }\n\n  // return ether that is sent to this contract\n    address PHOTO_NFT_MARKETPLACE;\n   PhotoNFTMarketplace public photoNFTMarketplace;\n   \n\n    constructor(address _photoNFTMarketplace) public {\n        \n        PHOTO_NFT_MARKETPLACE = _photoNFTMarketplace;\n    }\n  function() external {}\n\n  function createAuction(\n      address _photoId, uint256 _startingPrice,\n      uint256 _endingPrice, uint256 _duration) public {\n      // check storage requirements\n      require(_startingPrice < 340282366920938463463374607431768211455); // 128 bits\n      require(_endingPrice < 340282366920938463463374607431768211455); // 128 bits\n      require(_duration <= 18446744073709551615); // 64 bits\n\n      require(_duration >= 1 minutes);\n      PhotoNFTMarketplace instancePhotoNFTMarketplace = PhotoNFTMarketplace(PHOTO_NFT_MARKETPLACE);\n      require(instancePhotoNFTMarketplace.ownerPhoto(_photoId) == msg.sender);\n\n      Auction memory auction = Auction(\n          uint64(auctionId),\n          msg.sender,\n          address(_photoId),\n          uint128(_startingPrice),\n          uint128(_endingPrice),\n          uint64(_duration),\n          uint64(now)\n      );\n\n      photoIdToAuction[_photoId] = auction;\n      auctionIdToAuction[auctionId] = auction;\n\n      emit AuctionCreated(\n          uint64(auctionId),\n          address(_photoId),\n          uint256(auction.startingPrice),\n          uint256(auction.endingPrice),\n          uint256(auction.duration)\n      );\n\n      auctionId++;\n  }\n\n  function getAuctionByAuctionId(uint64 _auctionId) public view returns (\n      uint64 id,\n      address seller,\n      address photoId,\n      uint256 startingPrice,\n      uint256 endingPrice,\n      uint256 duration,\n      uint256 startedAt\n  ) {\n      Auction storage auction = auctionIdToAuction[_auctionId];\n      require(auction.startedAt > 0);\n      return (\n          auction.id,\n          auction.seller,\n          auction.photoId,\n          auction.startingPrice,\n          auction.endingPrice,\n          auction.duration,\n          auction.startedAt\n      );\n  }\n\n  function getAuctionByPhotoId(address _photoId) public view returns (\n      uint64 id,\n      address seller,\n      address photoId,\n      uint256 startingPrice,\n      uint256 endingPrice,\n      uint256 duration,\n      uint256 startedAt\n  ) {\n      Auction storage auction = photoIdToAuction[_photoId];\n      require(auction.startedAt > 0);\n      return (\n          auction.id,\n          auction.seller,\n          auction.photoId,\n          auction.startingPrice,\n          auction.endingPrice,\n          auction.duration,\n          auction.startedAt\n      );\n  }\n\n  function cancelAuctionByAuctionId(uint64 _auctionId) public {\n      Auction storage auction = auctionIdToAuction[_auctionId];\n\n      require(auction.startedAt > 0);\n      require(msg.sender == auction.seller);\n\n      delete auctionIdToAuction[_auctionId];\n      delete photoIdToAuction[auction.photoId];\n\n      emit AuctionCancelled(_auctionId, auction.photoId);\n  }\n\n  function cancelAuctionByPhotoId(address _photoId) public {\n      Auction storage auction = photoIdToAuction[_photoId];\n\n      require(auction.startedAt > 0);\n      require(msg.sender == auction.seller);\n\n      delete auctionIdToAuction[auction.id];\n      delete photoIdToAuction[_photoId];\n\n      emit AuctionCancelled(auction.id, auction.photoId);\n  }\n  function bid(address _photoId) public payable {\n       Auction storage auction = photoIdToAuction[_photoId];\n\n      uint256 secondsPassed = 0;\n      require(auction.startedAt > 0);\n\n    //   uint256 price = getCurrentPrice(msg.value);\n      require(msg.value >= auction.startingPrice);\n      secondsPassed = auction.duration -secondsPassed ;\n\n      secondsPassed =  auction.duration-now;\n      secondsPassed = (auction.duration*60) -secondsPassed ;\n      if( secondsPassed  == 0){\n          address seller = auction.seller;\n      uint64 auctionId_temp = auction.id;\n\n      delete photoIdToAuction[_photoId];\n      delete auctionIdToAuction[auction.id];\n       uint256 sellerProceeds = msg.value;\n         address payable addressSeller = address(uint160(seller));\n       addressSeller.transfer(sellerProceeds);\n\n             PhotoNFTMarketplace instancePhotoNFTMarketplace = PhotoNFTMarketplace(PHOTO_NFT_MARKETPLACE);\n    instancePhotoNFTMarketplace.transfertFromPhotoNFT(seller, msg.sender, _photoId);\n\n      emit AuctionSuccessful(auctionId_temp, _photoId, msg.value, msg.sender);\n      }\n\nelse {\nif(msg.value == auction.endingPrice){\n\n      address seller = auction.seller;\n      uint64 auctionId_temp = auction.id;\n\n      delete photoIdToAuction[_photoId];\n      delete auctionIdToAuction[auction.id];\n\n      \n          uint256 sellerProceeds = msg.value;\n         address payable addressSeller = address(uint160(seller));\n       addressSeller.transfer(sellerProceeds);\n\n             PhotoNFTMarketplace instancePhotoNFTMarketplace = PhotoNFTMarketplace(PHOTO_NFT_MARKETPLACE);\n    instancePhotoNFTMarketplace.transfertFromPhotoNFT(seller, msg.sender, _photoId);\n\n      emit AuctionSuccessful(auctionId_temp, _photoId, msg.value, msg.sender);\n    }  else {\n        address seller = auction.seller;\n      \n         uint256 sellerProceeds = msg.value;\n         address payable addressSeller = address(uint160(seller));\n       addressSeller.transfer(sellerProceeds);\n\n    PhotoNFTMarketplace instancePhotoNFTMarketplace = PhotoNFTMarketplace(PHOTO_NFT_MARKETPLACE);\n    instancePhotoNFTMarketplace.transfertFromPhotoNFT(seller, msg.sender, _photoId);\n\n auction.startingPrice = uint128(msg.value);\n      }\n       \n \n          \n      }\n      \n   \n      }\n\n//   function bid(address _photoId) public payable {\n//       Auction storage auction = photoIdToAuction[_photoId];\n//       require(auction.startedAt > 0);\n\n//       uint256 price = getCurrentPrice(auction);\n//       require(msg.value >= price);\n\n//       address  seller = auction.seller;\n//       uint64 auctionId_temp = auction.id;\n\n//       delete photoIdToAuction[_photoId];\n//       delete auctionIdToAuction[auction.id];\n\n//       if (price > 0) {\n//           uint256 sellerProceeds = price;\n//           address payable addressSeller = address(uint160(seller));\n//           addressSeller.transfer(sellerProceeds);\n//       }\n//        PhotoNFTMarketplace instancePhotoNFTMarketplace = PhotoNFTMarketplace(PHOTO_NFT_MARKETPLACE);\n//     instancePhotoNFTMarketplace.transfertFromPhotoNFT(seller, msg.sender, _photoId);\n\n//       emit AuctionSuccessful(auctionId_temp, _photoId, price, msg.sender);\n//   }\n\n  function getCurrentPriceByAuctionId(uint64 _auctionId) public view returns (uint256) {\n      Auction storage auction = auctionIdToAuction[_auctionId];\n      return getCurrentPrice(auction);\n  }\n\n  function getCurrentPriceByPhotoId(address _photoId) public view returns (uint256) {\n      Auction storage auction = photoIdToAuction[_photoId];\n      return getCurrentPrice(auction);\n  }\n\n  function getCurrentPrice(Auction storage _auction) internal view returns (uint256) {\n      require(_auction.startedAt > 0);\n      uint256 secondsPassed = 0;\n\n      secondsPassed = now - _auction.startedAt;\n\n      if (secondsPassed >= _auction.duration) {\n          return _auction.endingPrice;\n      } else {\n          int256 totalPriceChange = int256(_auction.endingPrice) - int256(_auction.startingPrice);\n\n          int256 currentPriceChange = totalPriceChange * int256(secondsPassed) / int256(_auction.duration);\n\n          int256 currentPrice = int256(_auction.startingPrice) + currentPriceChange;\n\n          return uint256(currentPrice);\n      }\n  }\n}\n",
  "sourcePath": "/home/amal/zbriggithub/NFT-based-photo-marketplace/oldversion/contracts/NFTDutchAuction.sol",
  "compiler": {
    "name": "solc",
    "version": "0.5.16+commit.9c3226ce.Emscripten.clang"
  },
  "schemaVersion": "3.4.1",
  "updatedAt": "2021-06-18T11:13:34.860Z",
  "devdoc": {
    "methods": {}
  },
  "userdoc": {
    "methods": {}
  }
}