{
  "contractName": "NFTDetailsReedem",
  "abi": [
    {
      "inputs": [],
      "payable": false,
      "stateMutability": "nonpayable",
      "type": "constructor"
    },
    {
      "constant": true,
      "inputs": [
        {
          "internalType": "uint256",
          "name": "",
          "type": "uint256"
        }
      ],
      "name": "allDetailsReedem",
      "outputs": [
        {
          "internalType": "contract PhotoNFT",
          "name": "photoNFT",
          "type": "address"
        },
        {
          "internalType": "string",
          "name": "name",
          "type": "string"
        },
        {
          "internalType": "string",
          "name": "city",
          "type": "string"
        },
        {
          "internalType": "string",
          "name": "firstLine",
          "type": "string"
        },
        {
          "internalType": "string",
          "name": "codePostal",
          "type": "string"
        },
        {
          "internalType": "string",
          "name": "secondLine",
          "type": "string"
        },
        {
          "internalType": "string",
          "name": "country",
          "type": "string"
        }
      ],
      "payable": false,
      "stateMutability": "view",
      "type": "function"
    },
    {
      "constant": true,
      "inputs": [
        {
          "internalType": "uint256",
          "name": "",
          "type": "uint256"
        }
      ],
      "name": "photoAddresses",
      "outputs": [
        {
          "internalType": "address",
          "name": "",
          "type": "address"
        }
      ],
      "payable": false,
      "stateMutability": "view",
      "type": "function"
    },
    {
      "constant": false,
      "inputs": [
        {
          "internalType": "contract PhotoNFT",
          "name": "_photoNFT",
          "type": "address"
        },
        {
          "internalType": "string",
          "name": "_name",
          "type": "string"
        },
        {
          "internalType": "string",
          "name": "_city",
          "type": "string"
        },
        {
          "internalType": "string",
          "name": "_firstLine",
          "type": "string"
        },
        {
          "internalType": "string",
          "name": "_secondLine",
          "type": "string"
        },
        {
          "internalType": "string",
          "name": "_codePostal",
          "type": "string"
        },
        {
          "internalType": "string",
          "name": "_country",
          "type": "string"
        }
      ],
      "name": "saveMetadataOfPhotoNFT",
      "outputs": [
        {
          "internalType": "bool",
          "name": "",
          "type": "bool"
        }
      ],
      "payable": false,
      "stateMutability": "nonpayable",
      "type": "function"
    },
    {
      "constant": true,
      "inputs": [
        {
          "internalType": "contract PhotoNFT",
          "name": "photoNFT",
          "type": "address"
        }
      ],
      "name": "getPhotoByNFTAddress",
      "outputs": [
        {
          "components": [
            {
              "internalType": "contract PhotoNFT",
              "name": "photoNFT",
              "type": "address"
            },
            {
              "internalType": "string",
              "name": "name",
              "type": "string"
            },
            {
              "internalType": "string",
              "name": "city",
              "type": "string"
            },
            {
              "internalType": "string",
              "name": "firstLine",
              "type": "string"
            },
            {
              "internalType": "string",
              "name": "codePostal",
              "type": "string"
            },
            {
              "internalType": "string",
              "name": "secondLine",
              "type": "string"
            },
            {
              "internalType": "string",
              "name": "country",
              "type": "string"
            }
          ],
          "internalType": "struct NFTDetailsReedemObjects.NFTDetailsReedem",
          "name": "_photo",
          "type": "tuple"
        }
      ],
      "payable": false,
      "stateMutability": "view",
      "type": "function"
    },
    {
      "constant": true,
      "inputs": [],
      "name": "getAllDetailsReedem",
      "outputs": [
        {
          "components": [
            {
              "internalType": "contract PhotoNFT",
              "name": "photoNFT",
              "type": "address"
            },
            {
              "internalType": "string",
              "name": "name",
              "type": "string"
            },
            {
              "internalType": "string",
              "name": "city",
              "type": "string"
            },
            {
              "internalType": "string",
              "name": "firstLine",
              "type": "string"
            },
            {
              "internalType": "string",
              "name": "codePostal",
              "type": "string"
            },
            {
              "internalType": "string",
              "name": "secondLine",
              "type": "string"
            },
            {
              "internalType": "string",
              "name": "country",
              "type": "string"
            }
          ],
          "internalType": "struct NFTDetailsReedemObjects.NFTDetailsReedem[]",
          "name": "_detailsRedeem",
          "type": "tuple[]"
        }
      ],
      "payable": false,
      "stateMutability": "view",
      "type": "function"
    }
  ],
  "bytecode": "0x608060405234801561001057600080fd5b50611488806100206000396000f3fe608060405234801561001057600080fd5b50600436106100575760003560e01c80637fd6c4051461005c5780638212e86114610085578063d1deb42f1461009a578063dc0985c3146100ba578063eaaa6d79146100da575b600080fd5b61006f61006a366004610f86565b610100565b60405161007c9190611345565b60405180910390f35b61008d610523565b60405161007c9190611295565b6100ad6100a8366004610fac565b61090e565b60405161007c91906112a6565b6100cd6100c83660046110d8565b610a7b565b60405161007c9190611287565b6100ed6100e83660046110d8565b610aa2565b60405161007c97969594939291906112b4565b610108610e38565b816000805b60005481101561015a57826001600160a01b03166000828154811061012e57fe5b60009182526020909120600790910201546001600160a01b03161415610152578091505b60010161010d565b50610163610e38565b6000828154811061017057fe5b60009182526020918290206040805160e081018252600790930290910180546001600160a01b03168352600180820180548451601f6002600019958416156101000295909501909216939093049081018790048702830187019094528382529394919385830193919290919083018282801561022d5780601f106102025761010080835404028352916020019161022d565b820191906000526020600020905b81548152906001019060200180831161021057829003601f168201915b5050509183525050600282810180546040805160206001841615610100026000190190931694909404601f810183900483028501830190915280845293810193908301828280156102bf5780601f10610294576101008083540402835291602001916102bf565b820191906000526020600020905b8154815290600101906020018083116102a257829003601f168201915b505050918352505060038201805460408051602060026001851615610100026000190190941693909304601f81018490048402820184019092528181529382019392918301828280156103535780601f1061032857610100808354040283529160200191610353565b820191906000526020600020905b81548152906001019060200180831161033657829003601f168201915b505050918352505060048201805460408051602060026001851615610100026000190190941693909304601f81018490048402820184019092528181529382019392918301828280156103e75780601f106103bc576101008083540402835291602001916103e7565b820191906000526020600020905b8154815290600101906020018083116103ca57829003601f168201915b505050918352505060058201805460408051602060026001851615610100026000190190941693909304601f810184900484028201840190925281815293820193929183018282801561047b5780601f106104505761010080835404028352916020019161047b565b820191906000526020600020905b81548152906001019060200180831161045e57829003601f168201915b505050918352505060068201805460408051602060026001851615610100026000190190941693909304601f810184900484028201840190925281815293820193929183018282801561050f5780601f106104e45761010080835404028352916020019161050f565b820191906000526020600020905b8154815290600101906020018083116104f257829003601f168201915b505050919092525091979650505050505050565b60606000805480602002602001604051908101604052809291908181526020016000905b828210156109045760008481526020908190206040805160e0810182526007860290920180546001600160a01b03168352600180820180548451600261010094831615949094026000190190911692909204601f81018790048702830187019094528382529394919385830193919290919083018282801561060a5780601f106105df5761010080835404028352916020019161060a565b820191906000526020600020905b8154815290600101906020018083116105ed57829003601f168201915b5050509183525050600282810180546040805160206001841615610100026000190190931694909404601f8101839004830285018301909152808452938101939083018282801561069c5780601f106106715761010080835404028352916020019161069c565b820191906000526020600020905b81548152906001019060200180831161067f57829003601f168201915b505050918352505060038201805460408051602060026001851615610100026000190190941693909304601f81018490048402820184019092528181529382019392918301828280156107305780601f1061070557610100808354040283529160200191610730565b820191906000526020600020905b81548152906001019060200180831161071357829003601f168201915b505050918352505060048201805460408051602060026001851615610100026000190190941693909304601f81018490048402820184019092528181529382019392918301828280156107c45780601f10610799576101008083540402835291602001916107c4565b820191906000526020600020905b8154815290600101906020018083116107a757829003601f168201915b505050918352505060058201805460408051602060026001851615610100026000190190941693909304601f81018490048402820184019092528181529382019392918301828280156108585780601f1061082d57610100808354040283529160200191610858565b820191906000526020600020905b81548152906001019060200180831161083b57829003601f168201915b505050918352505060068201805460408051602060026001851615610100026000190190941693909304601f81018490048402820184019092528181529382019392918301828280156108ec5780601f106108c1576101008083540402835291602001916108ec565b820191906000526020600020905b8154815290600101906020018083116108cf57829003601f168201915b50505050508152505081526020019060010190610547565b5050505090505b90565b6000610918610e38565b506040805160e0810182526001600160a01b038a8116825260208083018b81529383018a9052606083018990526080830187905260a0830188905260c08301869052600080546001810180835591805284517f290decd9548b62a8d60345a988386fc84ba6bc95484008f6362f93160ef3e563600790920291820180546001600160a01b0319169190951617845594518051949591948694936109df937f290decd9548b62a8d60345a988386fc84ba6bc95484008f6362f93160ef3e56401920190610e7e565b50604082015180516109fb916002840191602090910190610e7e565b5060608201518051610a17916003840191602090910190610e7e565b5060808201518051610a33916004840191602090910190610e7e565b5060a08201518051610a4f916005840191602090910190610e7e565b5060c08201518051610a6b916006840191602090910190610e7e565b5050505050979650505050505050565b60018181548110610a8857fe5b6000918252602090912001546001600160a01b0316905081565b60008181548110610aaf57fe5b600091825260209182902060079091020180546001808301805460408051601f60026000199685161561010002969096019093169490940491820187900487028401870190528083526001600160a01b039093169550929390929190830182828015610b5c5780601f10610b3157610100808354040283529160200191610b5c565b820191906000526020600020905b815481529060010190602001808311610b3f57829003601f168201915b50505060028085018054604080516020601f6000196101006001871615020190941695909504928301859004850281018501909152818152959695945090925090830182828015610bee5780601f10610bc357610100808354040283529160200191610bee565b820191906000526020600020905b815481529060010190602001808311610bd157829003601f168201915b5050505060038301805460408051602060026001851615610100026000190190941693909304601f8101849004840282018401909252818152949594935090830182828015610c7e5780601f10610c5357610100808354040283529160200191610c7e565b820191906000526020600020905b815481529060010190602001808311610c6157829003601f168201915b5050505060048301805460408051602060026001851615610100026000190190941693909304601f8101849004840282018401909252818152949594935090830182828015610d0e5780601f10610ce357610100808354040283529160200191610d0e565b820191906000526020600020905b815481529060010190602001808311610cf157829003601f168201915b5050505060058301805460408051602060026001851615610100026000190190941693909304601f8101849004840282018401909252818152949594935090830182828015610d9e5780601f10610d7357610100808354040283529160200191610d9e565b820191906000526020600020905b815481529060010190602001808311610d8157829003601f168201915b5050505060068301805460408051602060026001851615610100026000190190941693909304601f8101849004840282018401909252818152949594935090830182828015610e2e5780601f10610e0357610100808354040283529160200191610e2e565b820191906000526020600020905b815481529060010190602001808311610e1157829003601f168201915b5050505050905087565b6040518060e0016040528060006001600160a01b031681526020016060815260200160608152602001606081526020016060815260200160608152602001606081525090565b828054600181600116156101000203166002900490600052602060002090601f016020900481019282601f10610ebf57805160ff1916838001178555610eec565b82800160010185558215610eec579182015b82811115610eec578251825591602001919060010190610ed1565b50610ef8929150610efc565b5090565b61090b91905b80821115610ef85760008155600101610f02565b8035610f2181611425565b92915050565b600082601f830112610f3857600080fd5b8135610f4b610f468261137d565b611356565b91508082526020830160208301858383011115610f6757600080fd5b610f728382846113df565b50505092915050565b8035610f218161143c565b600060208284031215610f9857600080fd5b6000610fa48484610f16565b949350505050565b600080600080600080600060e0888a031215610fc757600080fd5b6000610fd38a8a610f16565b975050602088013567ffffffffffffffff811115610ff057600080fd5b610ffc8a828b01610f27565b965050604088013567ffffffffffffffff81111561101957600080fd5b6110258a828b01610f27565b955050606088013567ffffffffffffffff81111561104257600080fd5b61104e8a828b01610f27565b945050608088013567ffffffffffffffff81111561106b57600080fd5b6110778a828b01610f27565b93505060a088013567ffffffffffffffff81111561109457600080fd5b6110a08a828b01610f27565b92505060c088013567ffffffffffffffff8111156110bd57600080fd5b6110c98a828b01610f27565b91505092959891949750929550565b6000602082840312156110ea57600080fd5b6000610fa48484610f7b565b600061110283836111d0565b9392505050565b611112816113b8565b82525050565b6000611123826113ab565b61112d81856113af565b93508360208202850161113f856113a5565b8060005b85811015611179578484038952815161115c85826110f6565b9450611167836113a5565b60209a909a0199925050600101611143565b5091979650505050505050565b611112816113c3565b611112816113c8565b60006111a3826113ab565b6111ad81856113af565b93506111bd8185602086016113eb565b6111c68161141b565b9093019392505050565b805160009060e08401906111e4858261118f565b50602083015184820360208601526111fc8282611198565b915050604083015184820360408601526112168282611198565b915050606083015184820360608601526112308282611198565b9150506080830151848203608086015261124a8282611198565b91505060a083015184820360a08601526112648282611198565b91505060c083015184820360c086015261127e8282611198565b95945050505050565b60208101610f218284611109565b602080825281016111028184611118565b60208101610f218284611186565b60e081016112c2828a61118f565b81810360208301526112d48189611198565b905081810360408301526112e88188611198565b905081810360608301526112fc8187611198565b905081810360808301526113108186611198565b905081810360a08301526113248185611198565b905081810360c08301526113388184611198565b9998505050505050505050565b6020808252810161110281846111d0565b60405181810167ffffffffffffffff8111828210171561137557600080fd5b604052919050565b600067ffffffffffffffff82111561139457600080fd5b506020601f91909101601f19160190565b60200190565b5190565b90815260200190565b6000610f21826113d3565b151590565b6000610f21826113b8565b6001600160a01b031690565b82818337506000910152565b60005b838110156114065781810151838201526020016113ee565b83811115611415576000848401525b50505050565b601f01601f191690565b61142e816113c8565b811461143957600080fd5b50565b61142e8161090b56fea365627a7a723158202b2c98bac6d7eaa312d4e6e61b411d9c1793f53ee9306f68426ceaf01a3ee1fc6c6578706572696d656e74616cf564736f6c63430005100040",
  "source": "pragma solidity ^0.5.16;\npragma experimental ABIEncoderV2;\n\nimport { NFTDetailsReedemStorages} from \"./nft-data-reedem/commons/NFTDetailsReedemStorages.sol\";\nimport { PhotoNFT } from \"./PhotoNFT.sol\";\n\n\n/**\n * @notice - This is the storage contract for photoNFTs\n */\ncontract NFTDetailsReedem is NFTDetailsReedemStorages{\n\n    address[] public photoAddresses;\n\n    constructor() public {}\n\n    /**\n     * @notice - Save metadata of a photoNFT\n     */\n    function saveMetadataOfPhotoNFT(\n        //address[] memory _photoAddresses, \n        PhotoNFT _photoNFT, \n        // string memory _photoNFTName, \n        string memory _name, \n        string memory _city, \n        string memory _firstLine, \n        string memory _secondLine,\n        string memory _codePostal,\n        string memory _country\n       \n       \n    ) public returns (bool) {\n      \n       NFTDetailsReedem memory detailsReedem = NFTDetailsReedem ({\n\n\n           photoNFT : _photoNFT,\n      name: _name,\n        city: _city,\n         firstLine: _firstLine,\n        \n     codePostal:_codePostal,\n        secondLine: _secondLine,\n        country:_country\n        });\n        allDetailsReedem.push(detailsReedem);\n\n        /// Update photoAddresses\n        //photoAddresses = _photoAddresses;     \n    }\n\n  \n\n    \n\n\n  \n\n    function getPhotoByNFTAddress(PhotoNFT photoNFT) public view returns (NFTDetailsReedem memory _photo) {\n        address PHOTO_NFT = address(photoNFT);\n\n        /// Identify member's index\n        uint photoIndex;\n        for (uint i=0; i < allDetailsReedem.length; i++) {\n            if (address (allDetailsReedem[i].photoNFT) == PHOTO_NFT) {\n                photoIndex = i;\n            }\n        }\n\n        NFTDetailsReedem memory detailsReedem= allDetailsReedem[photoIndex];\n        return detailsReedem;\n    }\n\n    function getAllDetailsReedem() public view returns ( NFTDetailsReedem[] memory _detailsRedeem) {\n        return allDetailsReedem;\n    }\n\n}\n",
  "sourcePath": "/Users/amal/Documents/NFT-based-photo-marketplace/oldversion/contracts/NFTDetailsReedem.sol",
  "compiler": {
    "name": "solc",
    "version": "0.5.16+commit.9c3226ce.Emscripten.clang"
  },
  "schemaVersion": "3.4.2",
  "updatedAt": "2021-08-03T08:37:06.161Z",
  "networkType": "ethereum",
  "devdoc": {
    "methods": {}
  },
  "userdoc": {
    "methods": {
      "saveMetadataOfPhotoNFT(address,string,string,string,string,string,string)": {
        "notice": "- Save metadata of a photoNFT"
      }
    },
    "notice": "- This is the storage contract for photoNFTs"
  }
}