{
  "contractName": "PhotoNFTData",
  "abi": [
    {
      "inputs": [],
      "payable": false,
      "stateMutability": "nonpayable",
      "type": "constructor"
    },
    {
      "constant": true,
      "inputs": [
        {
          "internalType": "uint256",
          "name": "",
          "type": "uint256"
        }
      ],
      "name": "photoAddresses",
      "outputs": [
        {
          "internalType": "address",
          "name": "",
          "type": "address"
        }
      ],
      "payable": false,
      "stateMutability": "view",
      "type": "function"
    },
    {
      "constant": true,
      "inputs": [
        {
          "internalType": "uint256",
          "name": "",
          "type": "uint256"
        }
      ],
      "name": "photos",
      "outputs": [
        {
          "internalType": "contract PhotoNFT",
          "name": "photoNFT",
          "type": "address"
        },
        {
          "internalType": "string",
          "name": "photoNFTSymbol",
          "type": "string"
        },
        {
          "internalType": "address",
          "name": "ownerAddress",
          "type": "address"
        },
        {
          "internalType": "uint256",
          "name": "photoPrice",
          "type": "uint256"
        },
        {
          "internalType": "string",
          "name": "ipfsHashOfPhoto",
          "type": "string"
        },
        {
          "internalType": "string",
          "name": "typeOfSale",
          "type": "string"
        },
        {
          "internalType": "uint256",
          "name": "redevance",
          "type": "uint256"
        },
        {
          "internalType": "address",
          "name": "seller",
          "type": "address"
        },
        {
          "internalType": "string",
          "name": "status",
          "type": "string"
        },
        {
          "internalType": "uint256",
          "name": "reputation",
          "type": "uint256"
        }
      ],
      "payable": false,
      "stateMutability": "view",
      "type": "function"
    },
    {
      "constant": false,
      "inputs": [
        {
          "internalType": "address[]",
          "name": "_photoAddresses",
          "type": "address[]"
        },
        {
          "internalType": "contract PhotoNFT",
          "name": "_photoNFT",
          "type": "address"
        },
        {
          "internalType": "string",
          "name": "_photoNFTSymbol",
          "type": "string"
        },
        {
          "internalType": "address",
          "name": "_ownerAddress",
          "type": "address"
        },
        {
          "internalType": "uint256",
          "name": "_photoPrice",
          "type": "uint256"
        },
        {
          "internalType": "string",
          "name": "_ipfsHashOfPhoto",
          "type": "string"
        },
        {
          "internalType": "string",
          "name": "_typeOfSale",
          "type": "string"
        },
        {
          "internalType": "uint256",
          "name": "_redevance",
          "type": "uint256"
        },
        {
          "internalType": "address",
          "name": "seller",
          "type": "address"
        }
      ],
      "name": "saveMetadataOfPhotoNFT",
      "outputs": [
        {
          "internalType": "bool",
          "name": "",
          "type": "bool"
        }
      ],
      "payable": false,
      "stateMutability": "nonpayable",
      "type": "function"
    },
    {
      "constant": false,
      "inputs": [
        {
          "internalType": "contract PhotoNFT",
          "name": "_photoNFT",
          "type": "address"
        },
        {
          "internalType": "address",
          "name": "_newOwner",
          "type": "address"
        }
      ],
      "name": "updateSellerOfPhotoNFT",
      "outputs": [
        {
          "internalType": "bool",
          "name": "",
          "type": "bool"
        }
      ],
      "payable": false,
      "stateMutability": "nonpayable",
      "type": "function"
    },
    {
      "constant": false,
      "inputs": [
        {
          "internalType": "contract PhotoNFT",
          "name": "_photoNFT",
          "type": "address"
        },
        {
          "internalType": "string",
          "name": "_newStatus",
          "type": "string"
        }
      ],
      "name": "updateStatus",
      "outputs": [
        {
          "internalType": "bool",
          "name": "",
          "type": "bool"
        }
      ],
      "payable": false,
      "stateMutability": "nonpayable",
      "type": "function"
    },
    {
      "constant": true,
      "inputs": [
        {
          "internalType": "uint256",
          "name": "index",
          "type": "uint256"
        }
      ],
      "name": "getPhoto",
      "outputs": [
        {
          "components": [
            {
              "internalType": "contract PhotoNFT",
              "name": "photoNFT",
              "type": "address"
            },
            {
              "internalType": "string",
              "name": "photoNFTSymbol",
              "type": "string"
            },
            {
              "internalType": "address",
              "name": "ownerAddress",
              "type": "address"
            },
            {
              "internalType": "uint256",
              "name": "photoPrice",
              "type": "uint256"
            },
            {
              "internalType": "string",
              "name": "ipfsHashOfPhoto",
              "type": "string"
            },
            {
              "internalType": "string",
              "name": "typeOfSale",
              "type": "string"
            },
            {
              "internalType": "uint256",
              "name": "redevance",
              "type": "uint256"
            },
            {
              "internalType": "address",
              "name": "seller",
              "type": "address"
            },
            {
              "internalType": "string",
              "name": "status",
              "type": "string"
            },
            {
              "internalType": "uint256",
              "name": "reputation",
              "type": "uint256"
            }
          ],
          "internalType": "struct PhotoNFTDataObjects.Photo",
          "name": "_photo",
          "type": "tuple"
        }
      ],
      "payable": false,
      "stateMutability": "view",
      "type": "function"
    },
    {
      "constant": true,
      "inputs": [
        {
          "internalType": "contract PhotoNFT",
          "name": "photoNFT",
          "type": "address"
        }
      ],
      "name": "getPhotoIndex",
      "outputs": [
        {
          "internalType": "uint256",
          "name": "_photoIndex",
          "type": "uint256"
        }
      ],
      "payable": false,
      "stateMutability": "view",
      "type": "function"
    },
    {
      "constant": true,
      "inputs": [
        {
          "internalType": "contract PhotoNFT",
          "name": "photoNFT",
          "type": "address"
        }
      ],
      "name": "getPhotoByNFTAddress",
      "outputs": [
        {
          "components": [
            {
              "internalType": "contract PhotoNFT",
              "name": "photoNFT",
              "type": "address"
            },
            {
              "internalType": "string",
              "name": "photoNFTSymbol",
              "type": "string"
            },
            {
              "internalType": "address",
              "name": "ownerAddress",
              "type": "address"
            },
            {
              "internalType": "uint256",
              "name": "photoPrice",
              "type": "uint256"
            },
            {
              "internalType": "string",
              "name": "ipfsHashOfPhoto",
              "type": "string"
            },
            {
              "internalType": "string",
              "name": "typeOfSale",
              "type": "string"
            },
            {
              "internalType": "uint256",
              "name": "redevance",
              "type": "uint256"
            },
            {
              "internalType": "address",
              "name": "seller",
              "type": "address"
            },
            {
              "internalType": "string",
              "name": "status",
              "type": "string"
            },
            {
              "internalType": "uint256",
              "name": "reputation",
              "type": "uint256"
            }
          ],
          "internalType": "struct PhotoNFTDataObjects.Photo",
          "name": "_photo",
          "type": "tuple"
        }
      ],
      "payable": false,
      "stateMutability": "view",
      "type": "function"
    },
    {
      "constant": true,
      "inputs": [],
      "name": "getAllPhotos",
      "outputs": [
        {
          "components": [
            {
              "internalType": "contract PhotoNFT",
              "name": "photoNFT",
              "type": "address"
            },
            {
              "internalType": "string",
              "name": "photoNFTSymbol",
              "type": "string"
            },
            {
              "internalType": "address",
              "name": "ownerAddress",
              "type": "address"
            },
            {
              "internalType": "uint256",
              "name": "photoPrice",
              "type": "uint256"
            },
            {
              "internalType": "string",
              "name": "ipfsHashOfPhoto",
              "type": "string"
            },
            {
              "internalType": "string",
              "name": "typeOfSale",
              "type": "string"
            },
            {
              "internalType": "uint256",
              "name": "redevance",
              "type": "uint256"
            },
            {
              "internalType": "address",
              "name": "seller",
              "type": "address"
            },
            {
              "internalType": "string",
              "name": "status",
              "type": "string"
            },
            {
              "internalType": "uint256",
              "name": "reputation",
              "type": "uint256"
            }
          ],
          "internalType": "struct PhotoNFTDataObjects.Photo[]",
          "name": "_photos",
          "type": "tuple[]"
        }
      ],
      "payable": false,
      "stateMutability": "view",
      "type": "function"
    }
  ],
  "bytecode": "0x608060405234801561001057600080fd5b506119b0806100206000396000f3fe608060405234801561001057600080fd5b50600436106100935760003560e01c8063af2a5d6f11610066578063af2a5d6f14610116578063b6be128a1461013f578063d376e96814610152578063dc0985c314610165578063e75fd5971461018557610093565b80631f4342be1461009857806348c31171146100c15780637fd6c405146100d65780639bab7f4a146100f6575b600080fd5b6100ab6100a6366004611479565b610198565b6040516100b89190611846565b60405180910390f35b6100c96101ee565b6040516100b89190611755565b6100e96100e4366004611479565b610504565b6040516100b89190611835565b6101096101043660046114d9565b61084d565b6040516100b89190611766565b610129610124366004611521565b61089a565b6040516100b89a99989796959493929190611774565b6100e961014d366004611521565b610b44565b61010961016036600461149f565b610e3d565b610178610173366004611521565b610ecd565b6040516100b89190611747565b610109610193366004611356565b610ef4565b60008181805b6001548110156101e657826001600160a01b0316600182815481106101bf57fe5b6000918252602090912001546001600160a01b031614156101de578091505b60010161019e565b509392505050565b60606000805480602002602001604051908101604052809291908181526020016000905b828210156104fa5760008481526020908190206040805161014081018252600a860290920180546001600160a01b03168352600180820180548451600261010094831615949094026000190190911692909204601f8101879004870283018701909452838252939491938583019391929091908301828280156102d65780601f106102ab576101008083540402835291602001916102d6565b820191906000526020600020905b8154815290600101906020018083116102b957829003601f168201915b50505091835250506002828101546001600160a01b0316602080840191909152600384015460408085019190915260048501805482516101006001831615026000190190911694909404601f81018490048402850184019092528184526060909401939183018282801561038b5780601f106103605761010080835404028352916020019161038b565b820191906000526020600020905b81548152906001019060200180831161036e57829003601f168201915b505050918352505060058201805460408051602060026001851615610100026000190190941693909304601f810184900484028201840190925281815293820193929183018282801561041f5780601f106103f45761010080835404028352916020019161041f565b820191906000526020600020905b81548152906001019060200180831161040257829003601f168201915b5050509183525050600682015460208083019190915260078301546001600160a01b0316604080840191909152600884018054825160026101006001841615026000190190921691909104601f8101859004850282018501909352828152606090940193929091908301828280156104d85780601f106104ad576101008083540402835291602001916104d8565b820191906000526020600020905b8154815290600101906020018083116104bb57829003601f168201915b5050505050815260200160098201548152505081526020019060010190610212565b5050505090505b90565b61050c6110df565b816000805b60015481101561055957826001600160a01b03166001828154811061053257fe5b6000918252602090912001546001600160a01b03161415610551578091505b600101610511565b506105626110df565b6000828154811061056f57fe5b60009182526020918290206040805161014081018252600a90930290910180546001600160a01b03168352600180820180548451601f6002600019958416156101000295909501909216939093049081018790048702830187019094528382529394919385830193919290919083018282801561062d5780601f106106025761010080835404028352916020019161062d565b820191906000526020600020905b81548152906001019060200180831161061057829003601f168201915b50505091835250506002828101546001600160a01b0316602080840191909152600384015460408085019190915260048501805482516101006001831615026000190190911694909404601f8101849004840285018401909252818452606090940193918301828280156106e25780601f106106b7576101008083540402835291602001916106e2565b820191906000526020600020905b8154815290600101906020018083116106c557829003601f168201915b505050918352505060058201805460408051602060026001851615610100026000190190941693909304601f81018490048402820184019092528181529382019392918301828280156107765780601f1061074b57610100808354040283529160200191610776565b820191906000526020600020905b81548152906001019060200180831161075957829003601f168201915b5050509183525050600682015460208083019190915260078301546001600160a01b0316604080840191909152600884018054825160026101006001841615026000190190921691909104601f81018590048502820185019093528281526060909401939290919083018282801561082f5780601f106108045761010080835404028352916020019161082f565b820191906000526020600020905b81548152906001019060200180831161081257829003601f168201915b50505091835250506009919091015460209091015295945050505050565b60008061085984610198565b9050600080828154811061086957fe5b90600052602060002090600a020190508381600801908051906020019061089192919061114d565b50505092915050565b600081815481106108a757fe5b6000918252602091829020600a9091020180546001808301805460408051601f60026000199685161561010002969096019093169490940491820187900487028401870190528083526001600160a01b0390931695509293909291908301828280156109545780601f1061092957610100808354040283529160200191610954565b820191906000526020600020905b81548152906001019060200180831161093757829003601f168201915b5050505060028381015460038501546004860180546040805160206101006001851615026000190190931696909604601f810183900483028701830190915280865296976001600160a01b03909416969295509293929091908301828280156109fe5780601f106109d3576101008083540402835291602001916109fe565b820191906000526020600020905b8154815290600101906020018083116109e157829003601f168201915b5050505060058301805460408051602060026001851615610100026000190190941693909304601f8101849004840282018401909252818152949594935090830182828015610a8e5780601f10610a6357610100808354040283529160200191610a8e565b820191906000526020600020905b815481529060010190602001808311610a7157829003601f168201915b505050506006830154600784015460088501805460408051602060026101006001861615026000190190941693909304601f8101849004840282018401909252818152969794966001600160a01b03909416955090830182828015610b345780601f10610b0957610100808354040283529160200191610b34565b820191906000526020600020905b815481529060010190602001808311610b1757829003601f168201915b505050505090806009015490508a565b610b4c6110df565b610b546110df565b60008381548110610b6157fe5b60009182526020918290206040805161014081018252600a90930290910180546001600160a01b03168352600180820180548451601f60026000199584161561010002959095019092169390930490810187900487028301870190945283825293949193858301939192909190830182828015610c1f5780601f10610bf457610100808354040283529160200191610c1f565b820191906000526020600020905b815481529060010190602001808311610c0257829003601f168201915b50505091835250506002828101546001600160a01b0316602080840191909152600384015460408085019190915260048501805482516101006001831615026000190190911694909404601f810184900484028501840190925281845260609094019391830182828015610cd45780601f10610ca957610100808354040283529160200191610cd4565b820191906000526020600020905b815481529060010190602001808311610cb757829003601f168201915b505050918352505060058201805460408051602060026001851615610100026000190190941693909304601f8101849004840282018401909252818152938201939291830182828015610d685780601f10610d3d57610100808354040283529160200191610d68565b820191906000526020600020905b815481529060010190602001808311610d4b57829003601f168201915b5050509183525050600682015460208083019190915260078301546001600160a01b0316604080840191909152600884018054825160026101006001841615026000190190921691909104601f810185900485028201850190935282815260609094019392909190830182828015610e215780601f10610df657610100808354040283529160200191610e21565b820191906000526020600020905b815481529060010190602001808311610e0457829003601f168201915b5050509183525050600991909101546020909101529392505050565b600080610e4984610198565b90506000808281548110610e5957fe5b90600052602060002090600a0201905060006001600160a01b0316846001600160a01b03161415610ea55760405162461bcd60e51b8152600401610e9c90611825565b60405180910390fd5b60070180546001600160a01b0319166001600160a01b03949094169390931790925592915050565b60018181548110610eda57fe5b6000918252602090912001546001600160a01b0316905081565b6000610efe6110df565b5060408051610140810182526001600160a01b038b8116825260208083018c81528b831684860152606084018b9052608084018a905260a0840189905260c0840188905286831660e08501528451808601909552600485526327b832b760e11b858301526101008401949094526000610120840181905280546001810180835591805284517f290decd9548b62a8d60345a988386fc84ba6bc95484008f6362f93160ef3e563600a90920291820180546001600160a01b031916919095161784559451805194959194869493610ff8937f290decd9548b62a8d60345a988386fc84ba6bc95484008f6362f93160ef3e5640192019061114d565b5060408201516002820180546001600160a01b0319166001600160a01b03909216919091179055606082015160038201556080820151805161104491600484019160209091019061114d565b5060a0820151805161106091600584019160209091019061114d565b5060c0820151600682015560e08201516007820180546001600160a01b0319166001600160a01b0390921691909117905561010082015180516110ad91600884019160209091019061114d565b506101209190910151600990910155508a516110d09060019060208e01906111cb565b50509998505050505050505050565b60405180610140016040528060006001600160a01b031681526020016060815260200160006001600160a01b031681526020016000815260200160608152602001606081526020016000815260200160006001600160a01b0316815260200160608152602001600081525090565b828054600181600116156101000203166002900490600052602060002090601f016020900481019282601f1061118e57805160ff19168380011785556111bb565b828001600101855582156111bb579182015b828111156111bb5782518255916020019190600101906111a0565b506111c792915061122c565b5090565b828054828255906000526020600020908101928215611220579160200282015b8281111561122057825182546001600160a01b0319166001600160a01b039091161782556020909201916001909101906111eb565b506111c7929150611246565b61050191905b808211156111c75760008155600101611232565b61050191905b808211156111c75780546001600160a01b031916815560010161124c565b803561127581611944565b92915050565b600082601f83011261128c57600080fd5b813561129f61129a8261187b565b611854565b915081818352602084019350602081019050838560208402820111156112c457600080fd5b60005b838110156112f057816112da888261126a565b84525060209283019291909101906001016112c7565b5050505092915050565b80356112758161195b565b600082601f83011261131657600080fd5b813561132461129a8261189c565b9150808252602083016020830185838301111561134057600080fd5b6108918382846118fe565b803561127581611964565b60008060008060008060008060006101208a8c03121561137557600080fd5b893567ffffffffffffffff81111561138c57600080fd5b6113988c828d0161127b565b99505060206113a98c828d016112fa565b98505060408a013567ffffffffffffffff8111156113c657600080fd5b6113d28c828d01611305565b97505060606113e38c828d0161126a565b96505060806113f48c828d0161134b565b95505060a08a013567ffffffffffffffff81111561141157600080fd5b61141d8c828d01611305565b94505060c08a013567ffffffffffffffff81111561143a57600080fd5b6114468c828d01611305565b93505060e06114578c828d0161134b565b9250506101006114698c828d0161126a565b9150509295985092959850929598565b60006020828403121561148b57600080fd5b600061149784846112fa565b949350505050565b600080604083850312156114b257600080fd5b60006114be85856112fa565b92505060206114cf8582860161126a565b9150509250929050565b600080604083850312156114ec57600080fd5b60006114f885856112fa565b925050602083013567ffffffffffffffff81111561151557600080fd5b6114cf85828601611305565b60006020828403121561153357600080fd5b6000611497848461134b565b600061154b8383611662565b9392505050565b61155b816118d7565b82525050565b600061156c826118ca565b61157681856118ce565b935083602082028501611588856118c4565b8060005b858110156115c257848403895281516115a5858261153f565b94506115b0836118c4565b60209a909a019992505060010161158c565b5091979650505050505050565b61155b816118e2565b61155b816118e7565b60006115ec826118ca565b6115f681856118ce565b935061160681856020860161190a565b61160f8161193a565b9093019392505050565b60006116266027836118ce565b7f41206e6577206f776e657220616464726573732073686f756c64206265206e6f8152667420656d70747960c81b602082015260400192915050565b805160009061014084019061167785826115d8565b506020830151848203602086015261168f82826115e1565b91505060408301516116a46040860182611552565b5060608301516116b7606086018261173e565b50608083015184820360808601526116cf82826115e1565b91505060a083015184820360a08601526116e982826115e1565b91505060c08301516116fe60c086018261173e565b5060e083015161171160e0860182611552565b5061010083015184820361010086015261172b82826115e1565b9150506101208301516101e66101208601825b61155b81610501565b602081016112758284611552565b6020808252810161154b8184611561565b6020810161127582846115cf565b6101408101611783828d6115d8565b8181036020830152611795818c6115e1565b90506117a4604083018b611552565b6117b1606083018a61173e565b81810360808301526117c381896115e1565b905081810360a08301526117d781886115e1565b90506117e660c083018761173e565b6117f360e0830186611552565b81810361010083015261180681856115e1565b905061181661012083018461173e565b9b9a5050505050505050505050565b6020808252810161127581611619565b6020808252810161154b8184611662565b60208101611275828461173e565b60405181810167ffffffffffffffff8111828210171561187357600080fd5b604052919050565b600067ffffffffffffffff82111561189257600080fd5b5060209081020190565b600067ffffffffffffffff8211156118b357600080fd5b506020601f91909101601f19160190565b60200190565b5190565b90815260200190565b6000611275826118f2565b151590565b6000611275826118d7565b6001600160a01b031690565b82818337506000910152565b60005b8381101561192557818101518382015260200161190d565b83811115611934576000848401525b50505050565b601f01601f191690565b61194d816118d7565b811461195857600080fd5b50565b61194d816118e7565b61194d8161050156fea365627a7a7231582011bd8c0e7f4842dae8e1c97c5ff7df9f5efbbb6eee2fc213143b3976de29ef4e6c6578706572696d656e74616cf564736f6c63430005100040",
  "source": "pragma solidity ^0.5.16;\npragma experimental ABIEncoderV2;\n\nimport { PhotoNFTDataStorages } from \"./photo-nft-data/commons/PhotoNFTDataStorages.sol\";\nimport { PhotoNFT } from \"./PhotoNFT.sol\";\n\n\n/**\n * @notice - This is the storage contract for photoNFTs\n */\ncontract PhotoNFTData is PhotoNFTDataStorages {\n\n    address[] public photoAddresses;\n\n    constructor() public {}\n\n    /**\n     * @notice - Save metadata of a photoNFT\n     */\n    function saveMetadataOfPhotoNFT(\n        address[] memory _photoAddresses, \n        PhotoNFT _photoNFT, \n        // string memory _photoNFTName, \n        string memory _photoNFTSymbol, \n        address _ownerAddress, \n        uint _photoPrice, \n        string memory _ipfsHashOfPhoto,\n        string memory _typeOfSale,\n        uint _redevance,\n        address seller\n    ) public returns (bool) {\n        /// Save metadata of a photoNFT of photo\n        Photo memory photo = Photo({\n            photoNFT: _photoNFT,\n            // photoNFTName: _photoNFTName,\n            photoNFTSymbol: _photoNFTSymbol,\n            ownerAddress: _ownerAddress,\n            photoPrice: _photoPrice,\n            ipfsHashOfPhoto: _ipfsHashOfPhoto,\n            typeOfSale: _typeOfSale,\n            redevance: _redevance,\n            seller: seller,\n            status: \"Open\",\n            reputation: 0\n        });\n        photos.push(photo);\n\n        /// Update photoAddresses\n        photoAddresses = _photoAddresses;     \n    }\n\n    /**\n     * @notice - Update owner address of a photoNFT by transferring ownership\n     */\n    function updateSellerOfPhotoNFT(PhotoNFT _photoNFT, address _newOwner) public returns (bool) {\n        /// Identify photo's index\n        uint photoIndex = getPhotoIndex(_photoNFT);\n\n        /// Update metadata of a photoNFT of photo\n        Photo storage photo = photos[photoIndex];\n        require (_newOwner != address(0), \"A new owner address should be not empty\");\n        photo.seller = _newOwner;  \n    }\n\n    /**\n     * @notice - Update status (\"Open\" or \"Cancelled\")\n     */\n    function updateStatus(PhotoNFT _photoNFT, string memory _newStatus) public returns (bool) {\n        /// Identify photo's index\n        uint photoIndex = getPhotoIndex(_photoNFT);\n\n        /// Update metadata of a photoNFT of photo\n        Photo storage photo = photos[photoIndex];\n        photo.status = _newStatus;  \n    }\n\n\n    ///-----------------\n    /// Getter methods\n    ///-----------------\n    function getPhoto(uint index) public view returns (Photo memory _photo) {\n        Photo memory photo = photos[index];\n        return photo;\n    }\n\n    function getPhotoIndex(PhotoNFT photoNFT) public view returns (uint _photoIndex) {\n        address PHOTO_NFT = address(photoNFT);\n\n        /// Identify member's index\n        uint photoIndex;\n        for (uint i=0; i < photoAddresses.length; i++) {\n            if (photoAddresses[i] == PHOTO_NFT) {\n                photoIndex = i;\n            }\n        }\n\n        return photoIndex;   \n    }\n\n    function getPhotoByNFTAddress(PhotoNFT photoNFT) public view returns (Photo memory _photo) {\n        address PHOTO_NFT = address(photoNFT);\n\n        /// Identify member's index\n        uint photoIndex;\n        for (uint i=0; i < photoAddresses.length; i++) {\n            if (photoAddresses[i] == PHOTO_NFT) {\n                photoIndex = i;\n            }\n        }\n\n        Photo memory photo = photos[photoIndex];\n        return photo;\n    }\n\n    function getAllPhotos() public view returns (Photo[] memory _photos) {\n        return photos;\n    }\n\n}\n",
  "sourcePath": "/home/amal/Documents/nftcontaract/NFT-based-photo-marketplace/oldversion/contracts/PhotoNFTData.sol",
  "compiler": {
    "name": "solc",
    "version": "0.5.16+commit.9c3226ce.Emscripten.clang"
  },
  "schemaVersion": "3.4.1",
  "updatedAt": "2021-07-07T12:22:26.908Z",
  "networkType": "ethereum",
  "devdoc": {
    "methods": {}
  },
  "userdoc": {
    "methods": {
      "getPhoto(uint256)": {
        "notice": "----------------- Getter methods -----------------"
      },
      "saveMetadataOfPhotoNFT(address[],address,string,address,uint256,string,string,uint256,address)": {
        "notice": "- Save metadata of a photoNFT"
      },
      "updateSellerOfPhotoNFT(address,address)": {
        "notice": "- Update owner address of a photoNFT by transferring ownership"
      },
      "updateStatus(address,string)": {
        "notice": "- Update status (\"Open\" or \"Cancelled\")"
      }
    },
    "notice": "- This is the storage contract for photoNFTs"
  }
}